:020000040800F2
:10000000005000203D33000881320008873200088C
:100010008D32000893320008993200080000000079
:100020000000000000000000000000009F320008F7
:10003000AB32000800000000B7320008C3320008ED
:1000400085330008853300088533000885330008B0
:10005000853300088533000885330008D332000853
:100060008533000885330008853300088533000890
:100070008533000885330008853300088533000880
:100080008533000885330008E13200088533000815
:10009000F5320008853300088533000885330008F1
:1000A0008533000885330008853300088533000850
:1000B00085330008093300081D3300088533000824
:1000C0008533000885330008853300088533000830
:1000D0008533000885330008853300088533000820
:1000E00085330008853300088533000800000000D0
:1000F0000000000000000000000000000000000000
:0C01000000000000000000005FF808F1A3
:1001100010B5054C237833B9044B13B10448AFF341
:1001200000800123237010BD80010020000000002A
:1001300058C8000808B5034B1BB103490348AFF387
:10014000008008BD000000008401002058C800089D
:1001500081F0004102E000BF83F0004330B54FEA78
:1001600041044FEA430594EA050F08BF90EA020FE5
:100170001FBF54EA000C55EA020C7FEA645C7FEA78
:10018000655C00F0E2804FEA5454D4EB5555B8BF9B
:100190006D420CDD2C4480EA020281EA030382EA0C
:1001A000000083EA010180EA020281EA0303362D9E
:1001B00088BF30BD11F0004F4FEA01314FF4801C71
:1001C0004CEA113102D0404261EB410113F0004F83
:1001D0004FEA03334CEA133302D0524263EB43033A
:1001E00094EA050F00F0A780A4F10104D5F1200ED8
:1001F0000DDB02FA0EFC22FA05F2801841F1000133
:1002000003FA0EF2801843FA05F359410EE0A5F106
:1002100020050EF1200E012A03FA0EFC28BF4CF037
:10022000020C43FA05F3C01851EBE37101F00045ED
:1002300007D54FF0000EDCF1000C7EEB00006EEBFA
:100240000101B1F5801F1BD3B1F5001F0CD3490884
:100250005FEA30004FEA3C0C04F101044FEA4452DB
:1002600012F5800F80F09A80BCF1004F08BF5FEA62
:10027000500C50F1000041EB045141EA050130BD42
:100280005FEA4C0C404141EB0101013C28BFB1F554
:10029000801FE9D291F0000F04BF01460020B1FA9F
:1002A00081F308BF2033A3F10B03B3F120020CDA72
:1002B0000C3208DD02F1140CC2F10C0201FA0CF050
:1002C00021FA02F10CE002F11402D8BFC2F1200CB5
:1002D00001FA02F120FA0CFCDCBF41EA0C0190406B
:1002E000E41AA2BF01EB0451294330BD6FEA0404B4
:1002F0001F3C1CDA0C340EDC04F11404C4F120029F
:1003000020FA04F001FA02F340EA030021FA04F3B0
:1003100045EA030130BDC4F10C04C4F1200220FA07
:1003200002F001FA04F340EA0300294630BD21FA45
:1003300004F0294630BD94F0000F83F4801306BF0B
:1003400081F480110134013D4EE77FEA645C18BFFF
:100350007FEA655C29D094EA050F08BF90EA020F96
:1003600005D054EA000C04BF1946104630BD91EA8E
:10037000030F1EBF0021002030BD5FEA545C05D191
:100380004000494128BF41F0004130BD14F58004D0
:100390003CBF01F5801130BD01F0004545F0FE4144
:1003A00041F470014FF0000030BD7FEA645C1ABF79
:1003B000194610467FEA655C1CBF0B46024650EAB0
:1003C000013406BF52EA033591EA030F41F40021DC
:1003D00030BD00BF90F0000F04BF0021704730B562
:1003E0004FF4806404F132044FF000054FF0000137
:1003F00050E700BF90F0000F04BF0021704730B5F8
:100400004FF4806404F1320410F0004548BF4042CC
:100410004FF000013EE700BF42004FEAE2014FEA21
:1004200031014FEA02701FBF12F07F4393F07F4FFC
:1004300081F06051704732F07F4208BF704793F0FF
:100440007F4F04BF41F40021704730B54FF4607412
:1004500001F0004521F000411CE700BF50EA010215
:1004600008BF704730B54FF000050AE050EA0102BE
:1004700008BF704730B511F0004502D5404261EB2E
:1004800041014FF4806404F132045FEA915C3FF46F
:10049000D8AE4FF003025FEADC0C18BF03325FEA0C
:1004A000DC0C18BF033202EBDC02C2F1200300FABD
:1004B00003FC20FA02F001FA03FE40EA0E0021FAE2
:1004C00002F11444BDE600BF70B54FF0FF0C4CF4D0
:1004D000E06C1CEA11541DBF1CEA135594EA0C0F82
:1004E00095EA0C0F00F0DEF82C4481EA030621EABD
:1004F0004C5123EA4C5350EA013518BF52EA0335F8
:1005000041F4801143F4801338D0A0FB02CE4FF0A9
:100510000005E1FB02E506F00042E0FB03E54FF0D9
:100520000006E1FB03569CF0000F18BF4EF0010ED1
:10053000A4F1FF04B6F5007F64F5407404D25FEACD
:100540004E0E6D4146EB060642EAC62141EA555180
:100550004FEAC52040EA5E504FEACE2EB4F1FD0CC2
:1005600088BFBCF5E06F1ED8BEF1004F08BF5FEA40
:10057000500E50F1000041EB045170BD06F00046F2
:1005800046EA010140EA020081EA0301B4EB5C049F
:10059000C2BFD4EB0C0541EA045170BD41F4801197
:1005A0004FF0000E013C00F3AB8014F1360FDEBFBC
:1005B000002001F0004170BDC4F10004203C35DA98
:1005C0000C341BDC04F11404C4F1200500FA05F31B
:1005D00020FA04F001FA05F240EA020001F00042BC
:1005E00021F0004110EBD37021FA04F642EB060132
:1005F0005EEA430E08BF20EAD37070BDC4F10C045C
:10060000C4F1200500FA04F320FA05F001FA04F21F
:1006100040EA020001F0004110EBD37041F100010B
:100620005EEA430E08BF20EAD37070BDC4F1200516
:1006300000FA05F24EEA020E20FA04F301FA05F27E
:1006400043EA020321FA04F001F0004121FA04F226
:1006500020EA020000EBD3705EEA430E08BF20EAF6
:10066000D37070BD94F0000F0FD101F00046400030
:1006700041EB010111F4801F08BF013CF7D041EAB2
:10068000060195F0000F18BF704703F000465200B6
:1006900043EB030313F4801F08BF013DF7D043EA87
:1006A0000603704794EA0C0F0CEA135518BF95EA3D
:1006B0000C0F0CD050EA410618BF52EA4306D1D1C4
:1006C00081EA030101F000414FF0000070BD50EAE3
:1006D000410606BF1046194652EA430619D094EA6D
:1006E0000C0F02D150EA013613D195EA0C0F05D157
:1006F00052EA03361CBF104619460AD181EA0301AB
:1007000001F0004141F0FE4141F470014FF0000062
:1007100070BD41F0FE4141F4780170BD70B54FF0FD
:10072000FF0C4CF4E06C1CEA11541DBF1CEA13557D
:1007300094EA0C0F95EA0C0F00F0A7F8A4EB05045F
:1007400081EA030E52EA03354FEA013100F0888056
:100750004FEA03334FF0805545EA131343EA12631F
:100760004FEA022245EA111545EA10654FEA0026D4
:100770000EF000419D4208BF964244F1FD0404F58D
:10078000407402D25B084FEA3202B61A65EB0305E9
:100790005B084FEA32024FF480104FF4002CB6EBA6
:1007A000020E75EB030E22BFB61A754640EA0C0026
:1007B0005B084FEA3202B6EB020E75EB030E22BF66
:1007C000B61A754640EA5C005B084FEA3202B6EBA7
:1007D000020E75EB030E22BFB61A754640EA9C0066
:1007E0005B084FEA3202B6EB020E75EB030E22BF36
:1007F000B61A754640EADC0055EA060E18D04FEAF4
:10080000051545EA16754FEA06164FEAC30343EA93
:1008100052734FEAC2025FEA1C1CC0D111F4801F60
:100820000BD141EA00014FF000004FF0004CB6E759
:1008300011F4801F04BF01430020B4F1FD0C88BFF8
:10084000BCF5E06F3FF6AFAEB5EB030C04BFB6EB03
:10085000020C5FEA500C50F1000041EB045170BDF6
:100860000EF0004E4EEA113114EB5C04C2BFD4EB23
:100870000C0541EA045170BD41F480114FF0000EA7
:10088000013C90E645EA060E8DE60CEA135594EA23
:100890000C0F08BF95EA0C0F3FF43BAF94EA0C0F26
:1008A0000AD150EA01347FF434AF95EA0C0F7FF49B
:1008B00025AF104619462CE795EA0C0F06D152EAEF
:1008C00003353FF4FDAE1046194622E750EA4106D3
:1008D00018BF52EA43067FF4C5AE50EA41047FF4E4
:1008E0000DAF52EA43057FF4EBAE12E74FF0FF3C49
:1008F00006E000BF4FF0010C02E000BF4FF0010C1A
:100900004DF804CD4FEA410C7FEA6C5C4FEA430C92
:1009100018BF7FEA6C5C1BD001B050EA410C0CBFE1
:1009200052EA430C91EA030F02BF90EA020F002043
:10093000704710F1000F91EA030F58BF994208BFAA
:1009400090422CBFD8176FEAE37040F00100704767
:100950004FEA410C7FEA6C5C02D150EA013C07D1BE
:100960004FEA430C7FEA6C5CD6D152EA033CD3D009
:100970005DF8040B704700BF8446104662468C4603
:100980001946634600E000BF01B5FFF7B7FF002836
:1009900048BF10F1000F01BD4DF808EDFFF7F4FF5F
:1009A0000CBF012000205DF808FB00BF4DF808EDEA
:1009B000FFF7EAFF34BF012000205DF808FB00BF0D
:1009C0004DF808EDFFF7E0FF94BF012000205DF82F
:1009D00008FB00BF4DF808EDFFF7CEFF94BF0120E4
:1009E00000205DF808FB00BF4DF808EDFFF7C4FFDD
:1009F00034BF012000205DF808FB00BF80F00040FC
:100A000002E000BF81F0004142001FBF5FEA4103E6
:100A100092EA030F7FEA226C7FEA236C6AD04FEAE6
:100A20001262D2EB1363C1BFD2184140484041402B
:100A3000B8BF5B42192B88BF704710F0004F40F4DD
:100A4000000020F07F4018BF404211F0004F41F4F9
:100A5000000121F07F4118BF494292EA030F3FD0C5
:100A6000A2F1010241FA03FC10EB0C00C3F12003D8
:100A700001FA03F100F0004302D5494260EB400067
:100A8000B0F5000F13D3B0F1807F06D340084FEAD2
:100A9000310102F10102FE2A51D2B1F1004F40EBC7
:100AA000C25008BF20F0010040EA0300704749002F
:100AB00040EB0000013A28BFB0F5000FEDD2B0FACC
:100AC00080FCACF1080CB2EB0C0200FA0CF0AABFEF
:100AD00000EBC25052421843BCBFD040184370478D
:100AE00092F0000F81F4000106BF80F40000013293
:100AF000013BB5E74FEA41037FEA226C18BF7FEA6A
:100B0000236C21D092EA030F04D092F0000F08BFAB
:100B10000846704790EA010F1CBF0020704712F092
:100B20007F4F04D1400028BF40F00040704712F1D1
:100B300000723CBF00F50000704700F0004343F036
:100B4000FE4040F4000070477FEA226216BF08466C
:100B50007FEA23630146420206BF5FEA412390EA2F
:100B6000010F40F4800070474FF0000304E000BF25
:100B700010F0004348BF40425FEA000C08BF7047D6
:100B800043F0964301464FF000001CE050EA01029A
:100B900008BF70474FF000030AE000BF50EA0102AF
:100BA00008BF704711F0004302D5404261EB41019C
:100BB0005FEA010C02BF84460146002043F0B643C1
:100BC00008BFA3F18053A3F50003BCFA8CF2083AE6
:100BD000A3EBC25310DB01FA02FC634400FA02FCEF
:100BE000C2F12002BCF1004F20FA02F243EB0200F6
:100BF00008BF20F00100704702F1200201FA02FC58
:100C0000C2F1200250EA4C0021FA02F243EB02004A
:100C100008BF20EADC7070474FF0FF0C1CEAD0528E
:100C20001EBF1CEAD15392EA0C0F93EA0C0F6FD04F
:100C30001A4480EA010C400218BF5FEA41211ED02D
:100C40004FF0006343EA501043EA5111A0FB013119
:100C50000CF00040B1F5000F3EBF490041EAD371EE
:100C60005B0040EA010062F17F02FD2A1DD8B3F16A
:100C7000004F40EBC25008BF20F00100704790F0D9
:100C8000000F0CF0004C08BF49024CEA502040EA2B
:100C900051207F3AC2BFD2F1FF0340EAC2507047F1
:100CA00040F400004FF00003013A5DDC12F1190F2F
:100CB000DCBF00F000407047C2F10002410021FAA1
:100CC00002F1C2F1200200FA02FC5FEA310040F1B9
:100CD000000053EA4C0308BF20EADC70704792F032
:100CE000000F00F0004C02BF400010F4000F013A6A
:100CF000F9D040EA0C0093F0000F01F0004C02BF65
:100D0000490011F4000F013BF9D041EA0C018FE7D3
:100D10000CEAD15392EA0C0F18BF93EA0C0F0AD0D9
:100D200030F0004C18BF31F0004CD8D180EA0100FF
:100D300000F00040704790F0000F17BF90F0004F98
:100D4000084691F0000F91F0004F14D092EA0C0F7A
:100D500001D142020FD193EA0C0F03D14B0218BF0D
:100D6000084608D180EA010000F0004040F0FE4053
:100D700040F40000704740F0FE4040F440007047EF
:100D80004FF0FF0C1CEAD0521EBF1CEAD15392EA6E
:100D90000C0F93EA0C0F69D0A2EB030280EA010C5E
:100DA00049024FEA402037D04FF0805343EA1111F7
:100DB00043EA10130CF000408B4238BF5B0042F155
:100DC0007D024FF4000C8B4224BF5B1A40EA0C00FA
:100DD000B3EB510F24BFA3EB510340EA5C00B3EB2C
:100DE000910F24BFA3EB910340EA9C00B3EBD10F1A
:100DF00024BFA3EBD10340EADC001B0118BF5FEA6C
:100E00001C1CE0D1FD2A3FF650AF8B4240EBC25094
:100E100008BF20F0010070470CF0004C4CEA502055
:100E20007F32C2BFD2F1FF0340EAC250704740F4A4
:100E300000004FF00003013A37E792F0000F00F096
:100E4000004C02BF400010F4000F013AF9D040EA14
:100E50000C0093F0000F01F0004C02BF490011F4A8
:100E6000000F013BF9D041EA0C0195E70CEAD153A0
:100E700092EA0C0F08D142027FF47DAF93EA0C0F87
:100E80007FF470AF084676E793EA0C0F04D14B026B
:100E90003FF44CAF08466EE730F0004C18BF31F01D
:100EA000004CCAD130F000427FF45CAF31F0004317
:100EB0007FF43CAF5FE700BF4FF0FF3C06E000BFB0
:100EC0004FF0010C02E000BF4FF0010C4DF804CDD3
:100ED0004FEA40024FEA41037FEA226C18BF7FEAE3
:100EE000236C11D001B052EA530C18BF90EA010FE5
:100EF00058BFB2EB030088BFC81738BF6FEAE17074
:100F000018BF40F0010070477FEA226C02D15FEA0F
:100F1000402C05D17FEA236CE4D15FEA412CE1D07B
:100F20005DF8040B704700BF844608466146FFE742
:100F30000FB5FFF7C9FF002848BF10F1000F0FBD24
:100F40004DF808EDFFF7F4FF0CBF012000205DF81D
:100F500008FB00BF4DF808EDFFF7EAFF34BF0120A2
:100F600000205DF808FB00BF4DF808EDFFF7E0FF3B
:100F700094BF012000205DF808FB00BF4DF808ED8C
:100F8000FFF7D2FF94BF012000205DF808FB00BFEF
:100F90004DF808EDFFF7C8FF34BF012000205DF8D1
:100FA00008FB00BF4FEA4002B2F1FE4F0FD34FF0F3
:100FB0009E03B3EB12620DD94FEA002343F00043C6
:100FC00010F0004F23FA02F018BF404270474FF074
:100FD0000000704712F1610F01D1420205D110F0FB
:100FE000004008BF6FF0004070474FF000007047AE
:100FF00080B500AF1E4B1B681E4A13601E4B1B784A
:10100000002B33D11D4B1B78002B2FD01C4B1B8882
:101010001846FFF7ADFD0246154B1B6819461046F2
:10102000FFF7ACFF0346002B08D000F01BFB034684
:10103000002B03DA002000F0ABFA17E0114B1B88FD
:101040001846FFF795FD0246094B1B6819461046E6
:10105000FFF78AFF0346002B00D107E000F002FBF8
:101060000346002B02DD002000F092FA00BF80BD95
:10107000F0010020D4010020D1010020A2010020B5
:10108000E4010020E601002080B582B000AF786066
:101090007868FFF787FF03461BB2184600F078FA1E
:1010A00000BF0837BD4680BD80B500AF00F0FCFC36
:1010B00001F0A6FA01F09AFA00F0DEFC00F012FB53
:1010C00000BF80BD80B500AF3D4B1B78012B02D027
:1010D000022B19D06EE03B4B1B78012B05D1394B0D
:1010E00000221A7000F0E0FC08E0364B1B78022B5F
:1010F00004D1344B00221A7000F0EEFF01F026FB01
:101100002F4B00221A7055E02F4B1B78002B33D049
:101110002D4B1B78012B12D12C4B1B881846FFF747
:1011200027FD02462A4B1B6819461046FFF712FF9F
:101130000346002B1AD0274800F02AFA16E0224B6B
:101140001B78022B12D1244B1B881846FFF710FD89
:1011500002461F4B1B6819461046FFF719FF03464E
:10116000002B03D04FF47A7000F012FA1B4B0022D0
:101170001A70154B00221A70194B1B78012B09D1DC
:10118000174B00221A70174B1B78002B0CD100F064
:1011900005FC09E0144B1B78002B05D0114B1B7884
:1011A000002B01D000F01CFC01F0B0FC044B00222D
:1011B0001A7000BF01F024FA00F08AF900BF80BD68
:1011C000500200205102002052020020E4010020C1
:1011D000F001002018FCFFFFE6010020A301002021
:1011E00053020020D10100203802002080B487B0D3
:1011F00000AFF860B9607A6000237B610BE0BA68E9
:101200007B6913441946FA687B6913440A781A709B
:101210007B6901337B617A697B689A42EFD100BFB9
:1012200000BF1C37BD4680BC70472DE9B0438CB071
:1012300000AFF860B9607A6000237B61BB68FB6136
:1012400001233B6200233B6102F07CFF07F11002A7
:1012500007F114031146184603F05CF87B689B08FD
:10126000FB847B689AB2FB8C9B009BB2D31ABB8435
:101270000023FB8527E0FA8DBB68D018FB8D033374
:10128000FA6813441B781A06FB8D0233F9680B4485
:101290001B781B041A43FB8D0133F9680B441B7840
:1012A0001B021343FA8DF9680A4412781343002293
:1012B0009846914642464B460146022002F0D2FE35
:1012C000FB8D0433FB85FA8DFB8C9B009A42D2D1B7
:1012D000BB8C002B3FD00023BB62BB8C032B14D1F3
:1012E000FB8D0233FA6813441B781A06FB8D013319
:1012F000F9680B441B781B041A43FB8DF9680B44F7
:101300001B781B021343BB6219E0BB8C022B0DD16F
:10131000FB8D0133FA6813441B781A06FB8DF968BC
:101320000B441B781B041343BB6208E0BB8C012BEE
:1013300005D1FB8DFA6813441B781B06BB62FA8D3E
:10134000BB68D118BB6A00221C46154622462B46B4
:10135000022002F087FE02F01BFF00BF3037BD46BF
:10136000BDE8B08380B485B000AF786039600023F9
:10137000FB730BE0FA7B3B6813441946FA7B7B68EE
:1013800013440A781A70FB7B0133FB73FB7B042B3D
:10139000F0D100BF00BF1437BD4680BC704780B499
:1013A00085B000AF786039600023FB730BE0FA7BF7
:1013B0003B6813441946FA7B7B6813440A781A7019
:1013C000FB7B0133FB73FB7B022BF0D100BF00BF23
:1013D0001437BD4680BC704780B582B000AF7860DE
:1013E0007B681B68044A934201D100F009FB00BFEF
:1013F0000837BD4680BD00BF0024014080B582B0E3
:1014000000AF78607B681B68084A934202D100F005
:1014100091F906E07B681B68054A934201D100F010
:1014200083FF00BF0837BD4680BD00BF00040040F9
:101430000008004080B500AF00F088F800F038FFE9
:1014400000F010F800BF80BD80B582B000AF034649
:10145000FB80FB88022B01D100F072FF00BF083730
:10146000BD4680BD80B500AF0A4B1B78032B0FD162
:10147000094B1B780133DAB2074B1A70064B1B7805
:10148000132B05D9002000F009F8034B00221A7035
:1014900000BF80BD9C0100209E01002080B582B06D
:1014A00000AF0346FB71FB79012B05D1012280219E
:1014B000064803F072F904E000228021034803F09B
:1014C0006CF900BF0837BD4680BD00BF0008014071
:1014D00080B500AF194B1B78032B2AD801A252F814
:1014E00023F000BFF5140008FD14000805150008DE
:1014F0001D1500080020FFF7D1FF1AE00120FFF7BB
:10150000CDFF16E00E4B1B78002B03D00120FFF718
:10151000C5FF0EE00020FFF7C1FF0AE0094B1B7872
:10152000002B05D0084B00221A700120FFF7B6FFF0
:1015300000BF044B00221A7000BF80BD9C01002038
:10154000D10100209D0100209E01002080B500AF48
:101550000C4B1B78002B13D10B4B1B78002B0FD09F
:101560000A4B1B780133DAB2084B1A70074B1B7811
:10157000642B05D1002000F00BF8044B00221A70F8
:1015800000BF80BDD1010020A2010020A3010020E6
:1015900080B483B000AF0346FB802D4B1B78012B3A
:1015A00003D1FB885B429BB2FB80B7F90630002B6E
:1015B00010D1284B1B684FF47A725A63254B1B6875
:1015C0004FF47A729A63244B00221A70234B002244
:1015D0001A7038E0B7F90630002B18DA1D4B1B687B
:1015E0004FF47A725A63B7F906201D4B1B881946CF
:1015F0004FF47A7393FBF1F392FBF3F303F57A72F2
:10160000144B1B689A63144B01221A701BE0B7F944
:101610000630002B17DDB7F90620114B1B88194641
:101620004FF47A7393FBF1F392FBF3F3C3F57A7201
:10163000084B1B685A63074B1B684FF47A729A6316
:10164000054B01221A7000BF0C37BD4680BC7047A5
:101650009F010020D0030020A2010020A301002050
:10166000A001002080B400AF1C4B1B685B6BB3F57E
:101670007A7F13D0194B1B685B6B1BB2C3F57A736F
:101680009BB2174A128811464FF47A7292FBF1F21C
:1016900092B202FB03F39BB21BB21AE04FF08043FD
:1016A0009B6BB3F57A7F13D00C4B1B689B6B1BB203
:1016B000A3F57A739BB20A4A128811464FF47A72E4
:1016C00092FBF1F292B202FB03F39BB21BB200E079
:1016D00000231846BD4680BC704700BFD0030020E1
:1016E000A001002080B500AF0021044805F038FCBF
:1016F0000421024805F034FC00BF80BDD003002067
:1017000080B500AF024805F0A5FB00BF80BD00BF5B
:101710001804002080B500AF054805F09BFB044B82
:101720001B6800225A62024805F042FB00BF80BDE0
:101730001804002080B500AF00F038F8044B1B6897
:101740001846FFF7A1FCFFF7E5FF00BF80BD00BF13
:10175000D801002080B400AF054B1B68DB6A054A46
:10176000A2FB03235B099BB21846BD4680BC7047B1
:10177000180400201F85EB5180B483B000AF0346EE
:10178000FB80FB88642203FB02F2074B1B68DA62D2
:10179000FB88642202FB03F31A46034BDA6000BFA6
:1017A0000C37BD4680BC70471804002090B589B046
:1017B00000AF674B1B68FB60664B1B68F9681846F7
:1017C000FFF720F90346BB60634B1B681946F868B6
:1017D000FFF718F903467B604FF00003FB615F4B96
:1017E0001B881846FFF7C4F903461946B868FFF787
:1017F000C5FB0346002B09D0594B1B68BB61594BF5
:101800001B687B61584B1B683B612CE0534B1B886A
:101810001846FFF7ADF903461946B868FFF79AFB7B
:101820000346002B16D0514B1B881846FFF7A0F932
:1018300003461946B868FFF7A1FB0346002B09D001
:101840004B4B1B68BB614B4B1B687B614A4B1B6856
:101850003B6108E0494B1B68BB61494B1B687B61DE
:10186000484B1B683B61B9687869FFF7D5F90346B7
:101870001A46454B1B6819461046FFF7C5F8034644
:101880001A46414B1A60414B1B78002B0ED13E4B40
:101890001C687968B869FFF7BFF903461946204606
:1018A000FFF7B0F803461A46374B1A60364B1B68F1
:1018B00037491846FFF76CFB0346002B03D0324B29
:1018C000334A1A600BE0304B1B6832491846FFF769
:1018D00041FB0346002B02D02B4B2E4A1A602B4BA8
:1018E0001B78012B05D1B968B869FFF795F9034654
:1018F000FB61254B1C6879683869FFF78DF9034651
:1019000019462046FFF77EF803461946F869FFF7A7
:101910007BF80346FB611E49F869FFF739FB034674
:10192000002B02D01A4BFB6108E01A49F869FFF757
:1019300011FB0346002B01D0164BFB61164AFB69D5
:101940001360054AFB68136000BF2437BD4690BD95
:10195000D401002000000020DC010020CC01002088
:10196000A8010020AC010020B0010020CE01002021
:10197000B4010020B8010020BC010020C0010020FB
:10198000C4010020C8010020E0010020D001002097
:1019900000007A4400007AC4D801002080B500AF6E
:1019A0000A4B1B680A4A13600A4B4FF000021A6088
:1019B000094B1B789BB21846FFF7DEFEFFF7AAFE25
:1019C000064B01221A7000BF80BD00BFD401002069
:1019D000DC010020E0010020A4010020D101002052
:1019E00080B500AFFFF78CFE4FF00000FFF74CFB17
:1019F000024B00221A7000BF80BD00BFD101002041
:101A000080B500AF164801F0AFFE0246154B1B68CB
:101A10001344144A1360144B1B8801339AB2124BBF
:101A20001A80114B1B88642B15D10E4B1B6818466E
:101A3000FFF79AF803460D491846FFF7A1F9034648
:101A40001A460B4B1A60FFF7D3FA074B00221A8095
:101A5000044B00221A60074B01221A7000BF80BDA0
:101A600098030020E8010020EC0100200000C8429B
:101A7000F0010020EE01002080B500AF00BF084853
:101A800002F0DEF80346002BF9D1054801F0B6FD5F
:101A900000BF044B1B78002BFBD000BF00BF80BDF4
:101AA00098030020EE01002080B582B000AF4422F0
:101AB000A249A348FFF79AFB00237B603B1DA14A84
:101AC00011461846FFF74EFC10229D499E4802F031
:101AD00096FA02467B689A4240F079829B4B984A7C
:101AE00011461846FFF75BFC994B9A4A1146184677
:101AF000FFF755FC984B994A11461846FFF74FFCE3
:101B00008F4B9A79964B1A708D4BDA79954B1A70E8
:101B1000954B964A11461846FFF724FC944B954A7C
:101B200011461846FFF71EFC934B944A114618467F
:101B3000FFF718FC824B1A7D914B1A70804B5A7D2F
:101B4000904B1A70904B914A11461846FFF70AFCC9
:101B50008F4B904A11461846FFF704FC8E4B8F4A74
:101B600011461846FFF7FEFB8D4B8E4A114618466C
:101B7000FFF7F8FB8C4B8D4A11461846FFF7F2FB36
:101B80008B4B8C4A11461846FFF7ECFB8A4B8B4A6D
:101B900011461846FFF7E6FB894B8A4A114618465C
:101BA000FFF7E0FB884B894A11461846FFF7DAFB3E
:101BB000874B884A11461846FFF7F1FB864B874A48
:101BC00011461846FFF7EBFB5D4B93F83E20844B24
:101BD0001A705E4B1B88B3F5786F02D35B4B802283
:101BE0001A805B4B1B887F2B04D9594B1B88B3F59C
:101BF000805F03D3564B40F67F721A80564B1B888A
:101C0000B3F57A7F03D9544B4FF47A721A80544B50
:101C10001B78002B06D0524B1B78012B02D0504B67
:101C200000221A704F4B1B78012B06D04D4B1B78AE
:101C3000002B02D04B4B01221A704B4B1B68694999
:101C40001846FFF787F90346002B08D1464B1B685F
:101C500065491846FFF79CF90346002B03D0424B19
:101C60004FF07E521A60424B1B684FF07C51184671
:101C7000FFF770F90346002B08D13D4B1B685B4909
:101C80001846FFF785F90346002B03D0384B4FF079
:101C900080421A60364B1B68334A12681146184658
:101CA000FEF7B0FE034652491846FFF753F90346C4
:101CB000002B07D02C4B4FF07E521A602C4B4FF06C
:101CC00080421A602C4B1B68052B03D92A4B1B68DA
:101CD000C82B02D9284B19221A60294B1B78002BDC
:101CE0000ED0274B1B78012B0AD0254B1B78022BDB
:101CF00006D0234B1B78032B02D0214B01221A70F4
:101D0000204B1B78002B06D01E4B1B78012B02D0DA
:101D10001C4B01221A701C4B1B684FF00001184627
:101D2000FFF718F90346002B67D1174B1B683149A1
:101D30001846FFF72DF90346002B5DE000FC000874
:101D4000F401002034020020C8030020E401002038
:101D5000E6010020F6010020A0010020F80100208B
:101D60009F010020380200203C020020FC010020DE
:101D70004002002000020020440200200402002053
:101D80009C010020D0010020A80100200A020020B0
:101D9000AC0100200E020020B00100201202002041
:101DA000B401002016020020B80100201A02002011
:101DB000BC0100201E020020C001002022020020E1
:101DC000C401002026020020C80100202A020020B1
:101DD000CC0100202E020020CE0100203002002085
:101DE000A4010020CDCCCC3D33331340CDCC2C40CE
:101DF000CDCCCC3E0000C84203D09E4B4FF07E526B
:101E00001A609D4B1B684FF000011846FFF7A2F8BF
:101E10000346002B08D1984B1B6898491846FFF7DA
:101E2000B7F80346002B03D0934B4FF000021A6023
:101E3000934B1B684FF000011846FFF78BF80346E1
:101E4000002B08D18E4B1B688C491846FFF7A0F871
:101E50000346002B02D08A4B8A4A1A608A4B1B68C1
:101E60004FF000011846FFF775F80346002B08D124
:101E7000854B1B6881491846FFF78AF80346002BFB
:101E800003D0814B4FF07E521A60804B1B684FF09D
:101E900000011846FFF75EF80346002B08D17B4B84
:101EA0001B6876491846FFF773F80346002B03D0EA
:101EB000764B4FF000021A60754B1B684FF0000123
:101EC0001846FFF747F80346002B08D1704B1B68F4
:101ED0006A491846FFF75CF80346002B02D06C4BAA
:101EE000684A1A606B4B1B684FF000011846FFF7F9
:101EF00031F80346002B08D1664B1B685F49184632
:101F0000FFF746F80346002B03D0624B4FF07E529A
:101F10001A60614B1B684FF000011846FFF71AF872
:101F20000346002B08D15C4B1B6854491846FFF749
:101F30002FF80346002B03D0574B4FF000021A60D6
:101F4000564B1B684FF000011846FFF703F8034695
:101F5000002B08D1514B1B6848491846FFF718F869
:101F60000346002B02D04D4B464A1A604C4B1B884F
:101F7000B3F5805F03D34A4B40F2FF721A80494B9E
:101F80001B88B3F5805F03D3464B40F6FC321A80C2
:101F9000454B1B781846FEF7EBFD034643491846B0
:101FA000FEF7D8FF0346002B0DD13F4B1B78184698
:101FB000FEF7DEFD034631491846FEF7E9FF03460A
:101FC000002B00D151E0384B05221A704DE0384B00
:101FD00080221A80374B40F67F721A80364B4FF4BE
:101FE0007A721A80354B00221A70354B01221A7012
:101FF000344B4FF080421A60334B4FF080421A60EE
:10200000324B19221A60324B01221A70314B0122D5
:102010001A70184B4FF07E521A60174B4FF00002A7
:102020001A60174B174A1A60174B4FF07E521A600E
:10203000164B4FF000021A60154B124A1A60154BEE
:102040004FF07E521A60144B4FF000021A60134B8F
:102050000C4A1A60124B40F2FF721A80114B40F684
:10206000FC321A80104B05221A7000BF0837BD469B
:1020700080BD00BFA8010020AC0100200000C842C4
:10208000B001002000004040B4010020B801002051
:10209000BC010020C0010020C4010020C8010020B4
:1020A000CC010020CE010020A40100200000A040AF
:1020B000E4010020E6010020A00100209F01002093
:1020C000380200203C020020400200204402002090
:1020D0009C010020D001002080B582B000AF4A4BA7
:1020E0004A4A11461846FFF75AF9494B494A1146E0
:1020F0001846FFF754F9484B484A11461846FFF76F
:102100004EF9474B1A78404B9A71464B1A783E4B22
:10211000DA71454B454A11461846FFF723F9444BFF
:10212000444A11461846FFF71DF9434B434A1146EE
:102130001846FFF717F9424B1A78334B1A75414B83
:102140001A78314B5A75404B404A11461846FFF7F2
:1021500009F93F4B3F4A11461846FFF703F93E4B3A
:102160003E4A11461846FFF7FDF83D4B3D4A1146E1
:102170001846FFF7F7F83C4B3C4A11461846FFF764
:10218000F1F83B4B3B4A11461846FFF7EBF83A4B48
:102190003A4A11461846FFF7E5F8394B394A1146D5
:1021A0001846FFF7DFF8384B384A11461846FFF754
:1021B000D9F8374B374A11461846FFF7F0F8364B37
:1021C000364A11461846FFF7EAF8354B1A780E4B97
:1021D00083F83E200C4B002283F83F2010220A494E
:1021E000304801F00CFF03467B602F4A3B1D194627
:1021F0001046FFF7B7F844222C490348FFF715F8BB
:1022000000BF0837BD4680BDF4010020E401002076
:10221000F6010020E6010020F8010020A0010020C6
:102220009F01002038020020FC0100203C02002019
:10223000000200204002002004020020440200208E
:102240009C010020D00100200A020020A8010020EB
:102250000E020020AC01002012020020B00100207C
:1022600016020020B40100201A020020B80100204C
:102270001E020020BC01002022020020C00100201C
:1022800026020020C40100202A020020C8010020EC
:102290002E020020CC01002030020020CE010020C0
:1022A000A4010020C80300203402002000FC000824
:1022B00080B500AF154B1B78002B24D0144B1A6847
:1022C000144B1B689A4219D3104B00221A70124B00
:1022D0001B78002B07D0104B1B78002B13D00F4B13
:1022E0001B78002B0FD10E4B1B78002B01D0FFF772
:1022F00077FB0C4B4FF000021A6004E0044B1B68A4
:102300000133034A136000BF80BD00BF48020020B4
:102310004C02002044020020380200205402002019
:10232000D10100200000002080B400AF034B002248
:102330001A7000BFBD4680BC704700BF4802002035
:10234000F0B585B000AF00F009F9F86000F01EF9B3
:102350000346012B08D100F00DF9734B01221A70CE
:10236000724B00221A60D4E06F4B1B78002B00F0F8
:10237000D0806F4B1B78002B09D06E4B1B78002B45
:1023800040F0C7806A4B1B78002B00F0C280FB68CE
:1023900001331846FEF7E8FB034667491846FEF787
:1023A000EFFC0346BB60654B1B681946B868FEF737
:1023B000DBFD0346002B00F0A180614B1B68194632
:1023C000B868FEF7DBFD0346002B00F097805D4BFD
:1023D0001B881846FEF7C8FB04465B4B1B88184653
:1023E000FEF7C2FB034619462046FEF70BFB0346E9
:1023F0001C46534B1B681946B868FEF703FB03469F
:102400001D464E4B1B684E4A126811461846FEF791
:10241000F9FA034619462846FEF7B2FC0346194668
:102420002046FEF7F9FB03461C46474B1B8818461F
:10243000FEF79AFB034619462046FEF7E5FA0346E7
:102440007B60414B1B881846FEF78EFB03461946FE
:102450007868FEF7D7FA03461D463C4B1C683A4B9A
:102460001B881846FEF780FB034619462046FEF7F8
:10247000C9FA034619462846FEF7C4FA034623F074
:1024800000431846FDF7C8FF04460D462D4B1B8838
:102490001846FEF769FB06462B4B1B881846FEF7CD
:1024A00063FB034619463046FEF7ACFA034628495B
:1024B0001846FEF765FC03461846FDF7ADFF0246D9
:1024C0000B4620462946FEF729F902460B461046E0
:1024D000194613A3D3E90023FEF77CFA0346002B29
:1024E00002D01C4B01221A70184A7B6813601A4BE9
:1024F0001B78002B0CD1FFF751FA09E00A4B0022A0
:102500001A70154B1B78002B03D0FFF769FA00E017
:1025100000BF00BF1437BD46F0BD00BFAFF3008061
:10252000000000A09999C93F480200204C020020F9
:1025300054020020380200200080BB4640020020E8
:102540003C020020E6010020E40100200000002001
:102550000000C8429D010020D101002080B400AFDE
:10256000034B1B685B6A1846BD4680BC704700BFC2
:102570006004002080B400AF034B1B6800225A6245
:1025800000BFBD4680BC70476004002080B582B0AB
:1025900000AF0023BB7100237B711DE000237B7122
:1025A0000221114802F0E2F80346FB7111E07B7949
:1025B00001337B7102210C4802F0D8F803461A4619
:1025C000FB79934200D007E07B79052B01D10123F1
:1025D000BB717B79052BEAD1BB79012BDED1FB796D
:1025E00018460837BD4680BD000C014080B500AFDD
:1025F000024804F093FB00BF80BD00BF60040020D0
:1026000080B500AF0F4B93F89C32022B04D00D4BDA
:1026100093F89C32032B09D10B4B1B78002B01D173
:10262000FFF7DEF9084B01221A7009E0064B1B7810
:10263000002B01D0FFF7D4F9034B00221A7000BF22
:1026400000BF80BDD40400205402002080B582B0B9
:1026500000AF786039607B6801331B78002B1CD198
:102660007B681B781A463B68934216D13B689B08EF
:10267000013B1A467968294801F0C1FC01463B68D4
:10268000043B7A6813441B68994243D1786800F090
:102690004DF8234B01221A703CE07B6801331B7814
:1026A000012B08D13B68402B05D1402279681D4899
:1026B0000AF0BCF82EE01B4B5B78012B26D1194B9E
:1026C0001B781A463B6840339A421FD13A687968B2
:1026D00015480AF0ABF83B6840339B08013B1A46AB
:1026E00010490E4801F08BFC02463B683C330D4913
:1026F0000B441B689A4205D10A4800F009F9084BBF
:1027000002221A70074BFF225A7003E0054BFF228A
:102710005A7000BF00BF0837BD4680BDC803002007
:102720005002002098020020D802002080B483B01C
:1027300000AF78607B689A78034B1A7000BF0C3743
:10274000BD4680BC704700BF5102002080B582B0FA
:1027500000AF4B4B44221A70494B00225A70494B30
:10276000494A12881A80494B494A12881A80494BB3
:102770001B88494AA2FB0323DB089BB2DAB2404B19
:102780009A71464B1A783E4BDA71454B1A783C4B9E
:102790001A72444B444A11461846FEF7E3FD434B78
:1027A000434A11461846FEF7DDFD424B424A1146A8
:1027B0001846FEF7D7FD414B1A78314B5A75404BFE
:1027C0001A782F4B9A753F4B3F4A11461846FEF731
:1027D000C9FD3E4B3E4A11461846FEF7C3FD3D4B30
:1027E0003D4A11461846FEF7BDFD3C4B364A1146A0
:1027F0001846FEF7B7FD3A4B354A11461846FEF724
:10280000B1FD384B344A11461846FEF7ABFD364B46
:102810002D4A11461846FEF7A5FD344B2C4A1146A9
:102820001846FEF79FFD324B2B4A11461846FEF71D
:1028300099FD304B304A11461846FEF7B0FD2F4B3C
:102840002F4A11461846FEF7AAFD2E4B1A780C4B5C
:1028500083F83F2010220A492B4801F0D0FB0346A1
:102860007B602A4A3B1D19461046FEF77BFD44213A
:10287000034809F0D9FB00BF0837BD4680BD00BF43
:10288000580200205A020020E40100205C020020CF
:10289000E6010020A0010020CDCCCCCC9F0100207F
:1028A00038020020610200203C0200206502002066
:1028B0004002002069020020440200209C01002008
:1028C000D00100206F020020A80100207302002028
:1028D000AC01002077020020B00100207B02002024
:1028E0007F02002083020020870200208B0200204C
:1028F0008F02002093020020CC01002095020020CE
:10290000CE010020A4010020C8030020980200206E
:1029100080B584B000AF78607B685A88614B1A80BC
:102920007B689A88604B1A807B6806331B789BB261
:102930001A46920013445B009AB25C4B1A807B6883
:10294000DA795B4B1A707B681A7A5A4B1A705A4ABA
:102950007B68093319461046FEF704FD574A7B6829
:102960000D3319461046FEF7FDFC554A7B681133BE
:1029700019461046FEF7F6FC7B685A7D514B1A70DB
:102980007B689A7D504B1A70504A7B681733194602
:102990001046FEF7E7FC4E4A7B681B33194610468B
:1029A000FEF7E0FC4B4A7B681F3319461046FEF7E2
:1029B000D9FC494A7B68233319461046FEF7D2FCFE
:1029C000464A7B68273319461046FEF7CBFC444A3B
:1029D0007B682B3319461046FEF7C4FC414A7B68DE
:1029E0002F3319461046FEF7BDFC3F4A7B68333350
:1029F00019461046FEF7B6FC3C4A7B683733194649
:102A00001046FEF7AFFC3A4A7B683B331946104646
:102A1000FEF7C5FC374A7B683D3319461046FEF782
:102A2000BEFC7B6893F83F20334B1A70FEF792FE92
:102A300003461A46304B1B789BB29A4205D02E4B68
:102A40001B789BB21846FEF797FE4FF00003FB6021
:102A500007F10C027B68403319461046FEF782FCF2
:102A6000144B1B78002B0FD0244B1B68FA681146BF
:102A70001846FEF765FA0346002B02D1204B0122CF
:102A80001A70FB681D4A13607B6893F844201D4B45
:102A90001A707B6893F845201B4B1A7000BF1037E3
:102AA000BD4680BDE4010020E6010020A001002019
:102AB0009F010020380200203C020020400200203C
:102AC000440200209C010020D0010020A801002029
:102AD000AC010020B0010020B4010020B8010020AA
:102AE000BC010020C0010020C4010020C80100205A
:102AF000CC010020CE010020A40100200000002015
:102B00009D010020530200205202002080B582B0B7
:102B100000AF1F4B14221A701D4B01225A701D4B1F
:102B20001A781B4B9A701C4B1C4A11461846FEF72C
:102B300019FC1B4B1B4A11461846FEF713FCFEF707
:102B400091FD0346FB80184ABB1D19461046FEF74F
:102B500026FC0F4B00225A730D4B00229A730C4B2C
:102B60000022DA7304220A49104801F048FA0346A9
:102B70003B600F4A3B4619461046FEF7F3FB142113
:102B8000034809F051FA00BF0837BD4680BD00BFB9
:102B900058020020D10100205B020020000000202C
:102BA0005F020020F001002063020020C803002023
:102BB0006802002080B500AF00F0E6FB00F013F8DB
:102BC00000F0DEF900F06CF800F0A8F800F0BAF8B8
:102BD00000F03AF900F086F909F062F9FEF764FABC
:102BE000FEF770FAFCE780B594B000AF07F1280358
:102BF00028220021184609F027FE07F114030022BD
:102C00001A605A609A60DA601A613B1D00221A60ED
:102C10005A609A60DA600123BB624FF48033FB6232
:102C200000233B630123BB6302237B644FF48033A7
:102C3000BB644FF4E013FB6407F12803184603F06C
:102C4000A1FA0346002B01D000F0FCF90F237B61B1
:102C50000223BB610023FB614FF480633B620023CE
:102C60007B6207F114030221184603F00DFD0346B1
:102C7000002B01D000F0E6F912237B604FF40043F3
:102C8000FB6000233B613B1D184603F081FE0346B9
:102C9000002B01D000F0D6F900BF5037BD4680BDF3
:102CA00080B584B000AF3B1D00221A605A609A6064
:102CB000184B194A1A60174B00229A60154B0122D3
:102CC0001A73144B00221A75124B4FF46022DA610A
:102CD000104B00225A600F4B01221A610D4800F080
:102CE000B5FB0346002B01D000F0ACF904237B6058
:102CF0000123BB600723FB603B1D1946054800F01C
:102D00000BFE0346002B01D000F09CF900BF1037EA
:102D1000BD4680BD980300200024014080B500AF6F
:102D2000064B074A1A60054801F04DF90346002B8F
:102D300001D000F087F900BF80BD00BFC8030020AC
:102D40000030024080B58EB000AF07F128030022AA
:102D50001A605A609A60DA6007F1200300221A6054
:102D60005A603B1D00221A605A609A60DA601A614C
:102D70005A619A61334B4FF080421A60314B0722FF
:102D80005A60304B00229A602E4B4FF47A72DA6010
:102D90002C4B00221A612B4B00229A61294803F028
:102DA0006DFF0346002B01D000F04CF94FF4805327
:102DB000BB6207F128031946224804F039FB034699
:102DC000002B01D000F03EF91E4804F071F80346D4
:102DD000002B01D000F036F900233B6200237B6218
:102DE00007F120031946174804F0AEFE0346002BF6
:102DF00001D000F027F960237B604FF47A73BB6049
:102E00000223FB6000237B613B1D002219460D4815
:102E100004F050FA0346002B01D000F013F93B1DDB
:102E200004221946074804F045FA0346002B01D056
:102E300000F008F9034800F0F3F900BF3837BD4649
:102E400080BD00BFD003002080B586B000AF07F181
:102E5000080300221A605A609A60DA603B4600223A
:102E60001A605A601D4B1E4A1A601C4B40F2CF225A
:102E70005A601A4B00229A60184BC722DA60174B2F
:102E800000221A61154B80229A61144803F0F6FE65
:102E90000346002B01D000F0D5F84FF48053BB60FF
:102EA00007F1080319460D4804F0C2FA0346002B47
:102EB00001D000F0C7F800233B6000237B603B4655
:102EC0001946064804F040FE0346002B01D000F0EE
:102ED000B9F800BF1837BD4680BD00BF18040020F8
:102EE0000004004080B586B000AF07F1080300225F
:102EF0001A605A609A60DA603B4600221A605A6093
:102F00001D4B1E4A1A601C4B02225A601A4B0022AB
:102F10009A60194B4FF6FF72DA60174B00221A6164
:102F2000154B00229A61144803F0A8FE0346002BBB
:102F300001D000F087F84FF48053BB6007F108031D
:102F400019460D4804F074FA0346002B01D000F036
:102F500079F800233B6000237B603B461946064816
:102F600004F0F2FD0346002B01D000F06BF800BF27
:102F70001837BD4680BD00BF600400200008004037
:102F800080B588B000AF07F1100300221A605A60C4
:102F90009A60DA60274B9B69264A43F020039361CD
:102FA000244B9B6903F02003FB60FB68214B9B696A
:102FB000204A43F0040393611E4B9B6903F0040312
:102FC000BB60BB681B4B9B691A4A43F008039361C3
:102FD000184B9B6903F008037B607B68002280210B
:102FE000154801F0DAFB80233B6101237B6102235A
:102FF000BB610323FB6107F1100319460E4801F082
:1030000031FA02233B610D4B7B610223BB6107F167
:10301000100319460A4801F025FA00220021072072
:1030200000F09BFF072000F0B4FF00BF2037BD4633
:1030300080BD00BF001002400008014000003110B8
:10304000000C014080B400AF72B600BFFEE7000084
:1030500080B485B000AF154B9B69144A43F001035F
:103060009361124B9B6903F00103BB60BB680F4B7C
:10307000DB690E4A43F08053D3610C4BDB6903F0EC
:1030800080537B607B680A4B5B68FB60FB6823F0C6
:10309000E063FB60FB6843F00073FB60044AFB687D
:1030A000536000BF1437BD4680BC7047001002401B
:1030B0000000014080B588B000AF786007F11003D0
:1030C00000221A605A609A60DA607B681B68184AAE
:1030D000934229D1174B9B69164A43F400739361BD
:1030E000144B9B6903F40073FB60FB68114B9B69F5
:1030F000104A43F0040393610E4B9B6903F00403F1
:10310000BB60BB6810233B6103237B6107F11003A5
:103110001946094801F0A6F900220221122000F008
:103120001CFF122000F035FF00BF2037BD4680BDD8
:1031300000240140001002400008014080B485B026
:1031400000AF78607B681B68094A93420BD1094B3A
:103150005B69084A43F040035361064B5B6903F027
:103160004003FB60FB6800BF1437BD4680BC70475E
:10317000003002400010024080B586B000AF786099
:103180007B681B68B3F1804F0CD1224BDB69214A6D
:1031900043F00103D3611F4BDB6903F001037B6143
:1031A0007B6932E07B681B681B4A934214D1194B40
:1031B000DB69184A43F00203D361164BDB6903F065
:1031C00002033B613B69002201211D2000F0C5FE86
:1031D0001D2000F0DEFE18E07B681B680F4A93425A
:1031E00013D10C4BDB690B4A43F00403D361094B49
:1031F000DB6903F00403FB60FB68002200211E2052
:1032000000F0ABFE1E2000F0C4FE00BF1837BD4624
:1032100080BD00BF001002400004004000080040D4
:1032200080B588B000AF786007F1100300221A6003
:103230005A609A60DA607B681B68B3F1804F17D1DF
:103240000D4B9B690C4A43F0040393610A4B9B6945
:1032500003F00403FB60FB6803233B6102237B61F3
:103260000323FB6107F110031946044801F0FAF843
:1032700000BF2037BD4680BD00100240000801405D
:1032800080B400AFFEE780B400AFFEE780B400AFCB
:10329000FEE780B400AFFEE780B400AFFEE780B485
:1032A00000AF00BFBD4680BC704780B400AF00BF18
:1032B000BD4680BC704780B400AF00BFBD4680BC37
:1032C000704780B500AF00F0A5F8FEF7B3F800BF77
:1032D00080BD80B500AF022001F078FA00BF80BD4C
:1032E00080B500AF024800F04BFA00BF80BD00BFC0
:1032F0009803002080B500AF024801F0B0FB00BF8A
:1033000080BD00BF6811002080B500AF024803F007
:10331000C9FE00BF80BD00BF1804002080B500AF0B
:10332000024803F0BFFE00BF80BD00BF6004002064
:1033300080B400AF00BFBD4680BC70470C480D494B
:103340000D4A002302E0D458C4500433C4188C4200
:10335000F9D30A4A0A4C002301E013600432A24266
:10336000FBD3FFF7E5FF09F03DFAFFF723FC7047B9
:103370000000002080010020F4C800088001002027
:1033800074160020FEE7000080B500AF084B1B68F4
:10339000074A43F010031360032000F0D3FD04201C
:1033A00000F008F8FFF754FE0023184680BD00BF68
:1033B0000020024080B582B000AF7860124B1A68DE
:1033C000124B1B7819464FF47A73B3FBF1F3B2FB3F
:1033D000F3F3184600F0EBFD0346002B01D0012368
:1033E0000EE07B680F2B0AD8002279684FF0FF307F
:1033F00000F0B3FD064A7B681360002300E0012360
:1034000018460837BD4680BD040000200C0000208F
:103410000800002080B400AF054B1B781A46054B0E
:103420001B681344034A136000BFBD4680BC70474D
:103430000C000020A804002080B400AF024B1B68E1
:103440001846BD4680BC7047A804002080B586B0F1
:1034500000AF78600023FB7500233B610023BB6055
:103460000023FB607B68002B01D10123BEE07B6859
:103470009B68002B7B689B6A002B09D17B6800222C
:10348000DA627B68002283F824207868FFF712FE56
:10349000786800F093FB0346FB757B689B6A03F03A
:1034A0001003002B40F09980FB7D002B40F09580AD
:1034B0007B689B6A23F4885323F0020343F00202E3
:1034C0007B689A627B685A687B68DB691A437B6811
:1034D0001B7B5B001343BA681343BB607B689B682C
:1034E000B3F5807F03D07B689B68012B02D14FF43A
:1034F000807300E000233A6913433B617B681B7DC6
:10350000012B19D17B681B7B002B09D17B689B6940
:10351000013B5A033B69134343F400633B610BE0F7
:103520007B689B6A43F020027B689A627B68DB6A57
:1035300043F001027B68DA627B681B685B6823F4F6
:1035400069417B681B683A690A435A607B681B685B
:103550009A68284B13407A681268B9680B439360E5
:103560007B689B68B3F5807F03D07B689B68012BE9
:1035700004D17B681B69013B1B05FB607B681B68F2
:10358000DB6A23F470017B681B68FA680A43DA621D
:103590007B681B689A68184B1340BA689A420BD133
:1035A0007B680022DA627B689B6A23F0030343F0A6
:1035B00001027B689A6218E07B689B6A23F0120321
:1035C00043F010027B689A627B68DB6A43F0010279
:1035D0007B68DA620123FB7507E07B689B6A43F036
:1035E00010027B689A620123FB75FB7D1846183731
:1035F000BD4680BDFDF7E1FFFE0E1FFF80B584B024
:1036000000AF78600023FB737B6893F82430012BB4
:1036100001D10223A0E07B68012283F8242078688E
:1036200000F072FA0346FB73FB7B002B40F08F80A7
:103630007B689B6A23F4706323F0010343F4807278
:103640007B689A627B681B68454A934205D1454B6B
:103650005B6803F47023002B15D17B689B6A23F40D
:1036600080127B689A627B681B685B6803F48063E6
:10367000002B26D07B689B6A23F4405343F480528E
:103680007B689A621DE07B689B6A43F480127B68CA
:103690009A627B681B68334A934204D07B681B683C
:1036A0002F4A93420DD12F4B5B6803F48063002BAC
:1036B00007D07B689B6A23F4405343F480527B68B5
:1036C0009A627B689B6A03F48053002B06D07B6868
:1036D000DB6A23F006027B68DA6202E07B68002284
:1036E000DA627B68002283F824207B681B686FF015
:1036F00002021A607B681B685A687B681B6842F08C
:1037000020025A607B681B689B6803F46023B3F552
:10371000602F13D17B681B68114A934205D1114B6E
:103720005B6803F47023002B08D17B681B689A68E0
:103730007B681B6842F4A0029A600CE07B681B68FF
:103740009A687B681B6842F480129A6003E07B6889
:10375000002283F82420FB7B18461037BD4680BD2D
:10376000002801400024014080B483B000AF78609D
:103770007B681B68DB6C18460C37BD4680BC704705
:1037800080B582B000AF78607B681B685B6803F02F
:103790002003202B40D17B681B681B6803F00203C9
:1037A000022B39D17B689B6A03F01003002B05D1F3
:1037B0007B689B6A43F400727B689A627B681B6833
:1037C0009B6803F46023B3F5602F1DD17B681B7BDE
:1037D000002B19D17B681B685A687B681B6822F034
:1037E00020025A607B689B6A23F480727B689A622D
:1037F0007B689B6A03F48053002B05D17B689B6A2E
:1038000043F001027B689A627868FDF7E5FD7B680A
:103810001B686FF012021A607B681B685B6803F01C
:103820008003802B4FD17B681B681B6803F0040367
:10383000042B48D17B689B6A03F01003002B05D151
:103840007B689B6A43F400527B689A627B681B68C2
:103850009B6803F4E043B3F5E04F12D07B681B682C
:103860005B6803F48063002B25D17B681B689B6831
:1038700003F46023B3F5602F1DD17B681B7B002B05
:1038800019D17B681B685A687B681B6822F080022C
:103890005A607B689B6A23F480527B689A627B68DB
:1038A0009B6A03F48073002B05D17B689B6A43F00D
:1038B00001027B689A62786800F06EFA7B681B6888
:1038C0006FF00C021A607B681B685B6803F04003B2
:1038D000402B14D17B681B681B6803F00103012B8C
:1038E0000DD17B689B6A43F480327B689A6278686A
:1038F00000F009F87B681B686FF001021A6000BFD6
:103900000837BD4680BD80B483B000AF786000BF8B
:103910000C37BD4680BC704780B485B000AF78607E
:1039200039600023FB730023BB607B6893F824306D
:10393000012B01D10223DCE07B68012283F82420E3
:103940003B685B68062B1CD87B681B68596B3B681F
:103950005A6813469B001344053B1F2202FA03F3E7
:10396000DB4319403B6818683B685A6813469B0064
:103970001344053B00FA03F27B681B680A435A6351
:103980003CE03B685B680C2B1CD87B681B68196BA0
:103990003B685A6813469B001344233B1F2202FADC
:1039A00003F3DB4319403B6818683B685A681346C9
:1039B0009B001344233B00FA03F27B681B680A4315
:1039C0001A631BE07B681B68D96A3B685A68134618
:1039D0009B001344413B1F2202FA03F3DB431940CF
:1039E0003B6818683B685A6813469B001344413B88
:1039F00000FA03F27B681B680A43DA623B681B68C3
:103A0000092B1CD97B681B68D9683B681A68134668
:103A10005B0013441E3B072202FA03F3DB43194009
:103A20003B6898683B681A6813465B0013441E3B6A
:103A300000FA03F27B681B680A43DA6019E07B68CE
:103A40001B6819693B681A6813465B001344072218
:103A500002FA03F3DB4319403B6898683B681A6835
:103A600013465B00134400FA03F27B681B680A43A9
:103A70001A613B681B68102B03D03B681B68112B35
:103A800032D17B681B681D4A934225D17B681B6835
:103A90009B6803F40003002B26D17B681B689A689F
:103AA0007B681B6842F400029A603B681B68102B1D
:103AB0001AD1134B1B68134AA2FB03239A0C13461B
:103AC0009B0013445B00BB6002E0BB68013BBB6032
:103AD000BB68002BF9D107E07B689B6A43F02002AA
:103AE0007B689A620123FB737B68002283F82420A1
:103AF000FB7B18461437BD4680BC7047002401404C
:103B00000400002083DE1B4380B584B000AF7860E2
:103B10000023FB600023BB607B681B689B6803F08D
:103B20000103012B40D07B681B689A687B681B6887
:103B300042F001029A601F4B1B681F4AA2FB03233D
:103B40009B0CBB6002E0BB68013BBB60BB68002B09
:103B5000F9D1FFF771FCF8601FE0FFF76DFC02463A
:103B6000FB68D31A022B18D97B681B689B6803F08B
:103B70000103012B11D07B689B6A43F010027B6824
:103B80009A627B68DB6A43F001027B68DA627B68D9
:103B9000002283F82420012307E07B681B689B68D0
:103BA00003F00103012BD8D1002318461037BD467E
:103BB00080BD00BF0400002083DE1B4380B584B0BD
:103BC00000AF78600023FB607B681B689B6803F094
:103BD0000103012B2ED17B681B689A687B681B68E8
:103BE00022F001029A60FFF727FCF8601BE0FFF764
:103BF00023FC0246FB68D31A022B14D97B681B688E
:103C00009B6803F00103012B0DD17B689B6A43F095
:103C100010027B689A627B68DB6A43F001027B6872
:103C2000DA62012307E07B681B689B6803F00103ED
:103C3000012BDCD0002318461037BD4680BD0000A4
:103C400090B587B000AF78600023FB750023FB6060
:103C50007B6893F82430012B01D1022395E07B6827
:103C6000012283F824207868FFF7A8FF0346FB753C
:103C7000FB7D002B40F084807B689B6A23F4885393
:103C800023F0020343F002027B689A62414B1C68F6
:103C9000022002F033FF0346B4FBF3F35B00FB604A
:103CA00002E0FB68013BFB60FB68002BF9D1786800
:103CB000FFF72AFF7B681B689A687B681B6842F0E5
:103CC00008029A60FFF7B8FB38611BE0FFF7B4FB0E
:103CD00002463B69D31A0A2B14D97B681B689B6880
:103CE00003F00803002B0DD07B689B6A23F01203BE
:103CF00043F010027B689A627B68002283F82420DC
:103D0000012342E07B681B689B6803F00803002BDB
:103D1000DCD17B681B689A687B681B6842F00402F0
:103D20009A60FFF789FB38611BE0FFF785FB0246CD
:103D30003B69D31A0A2B14D97B681B689B6803F074
:103D40000403002B0DD07B689B6A23F0120343F021
:103D500010027B689A627B68002283F8242001238A
:103D600013E07B681B689B6803F00403002BDCD125
:103D70007B689B6A23F0030343F001027B689A622D
:103D80007B68002283F82420FB7D18461C37BD4643
:103D900090BD00BF0400002080B483B000AF786005
:103DA00000BF0C37BD4680BC7047000080B485B0B2
:103DB00000AF78607B6803F00703FB600C4BDB68A7
:103DC000BB60BA684FF6FF031340BB60FB681A0282
:103DD000BB68134343F0BF6343F40033BB60044A42
:103DE000BB68D36000BF1437BD4680BC704700BFBE
:103DF00000ED00E080B400AF044BDB681B0A03F069
:103E000007031846BD4680BC704700BF00ED00E0C8
:103E100080B483B000AF0346FB7197F90730002BE5
:103E20000BDBFB7903F01F02064997F907305B09AA
:103E3000012000FA02F241F8232000BF0C37BD46F2
:103E400080BC704700E100E080B483B000AF03465F
:103E50003960FB7197F90730002B0ADB3B68DAB257
:103E60000C4997F907301201D2B20B4483F80023B2
:103E70000AE03B68DAB20849FB7903F00F03043B20
:103E80001201D2B20B441A7600BF0C37BD4680BC7B
:103E9000704700BF00E100E000ED00E080B489B0B1
:103EA00000AFF860B9607A60FB6803F00703FB615C
:103EB000FB69C3F10703042B28BF0423BB61FB6923
:103EC0000433062B02D9FB69033B00E000237B612E
:103ED0004FF0FF32BB6902FA03F3DA43BB681A40C2
:103EE0007B699A404FF0FF317B6901FA03F3D943B4
:103EF0007B680B40134318462437BD4680BC70478F
:103F000080B582B000AF78607B68013BB3F1807F01
:103F100001D301230FE00A4A7B68013B53600F2164
:103F20004FF0FF30FFF790FF054B00229A60044BE3
:103F300007221A60002318460837BD4680BD00BF1F
:103F400010E000E080B582B000AF78607868FFF7DD
:103F50002DFF00BF0837BD4680BD80B586B000AFDD
:103F60000346B9607A60FB7300237B61FFF742FF71
:103F700078617A68B9687869FFF790FF024697F927
:103F80000F3011461846FFF75FFF00BF1837BD46D8
:103F900080BD80B582B000AF0346FB7197F9073052
:103FA0001846FFF735FF00BF0837BD4680BD80B516
:103FB00082B000AF78607868FFF7A2FF034618462A
:103FC0000837BD4680BD80B582B000AF78607B68A1
:103FD000002B01D101230EE07B685B79DBB2002B63
:103FE00005D17B6800221A717868FFF7A7F87B6813
:103FF00001225A71002318460837BD4680BD80B49F
:1040000087B000AFF860B9607A6000233B61FB685D
:1040100002225A71FB681B689A68FB681B6842F0B1
:1040200001029A6000237B610AE07B699B00BA6809
:104030001A44FB681B6812681A607B6901337B6154
:104040007A697B689A42F0D3FB681B681B683B6106
:10405000FB6801225A713B6918461C37BD4680BC7B
:1040600070470000F0B587B000AFF860B960C7E9ED
:1040700000230123FB750023BB7500237B752F4BA9
:104080001B7E012B01D1022354E02C4B01221A7616
:104090004CF2503000F0A8F80346FB75FB7D002B76
:1040A00044D1FB68012B02D101237B7507E0FB683B
:1040B000022B02D102237B7501E004237B750023D0
:1040C000BB752DE0BB7D5A00BB6802EB030CBB7DCA
:1040D0001901D7E90023C1F12006A1F1200022FA3D
:1040E00001F403FA06F6344323FA00F0044323FAFA
:1040F00001F5A3B21946604600F05AF84CF2503070
:1041000000F072F80346FB750D4B1B690C4A23F057
:1041100001031361FB7D002B07D1BB7D0133BB7510
:10412000BA7D7B7D9A42CDD300E000BF034B0022D5
:104130001A76FB7D18461C37BD46F0BDB004002042
:104140000020024080B483B000AF0023FB710D4B10
:104150001B6903F08003002B0DD00A4B0A4A5A60FA
:10416000084B0A4A5A60074B1B6903F08003002B77
:1041700001D00123FB71FB7918460C37BD4680BC8A
:10418000704700BF0020024023016745AB89EFCD97
:1041900080B400AF054B1B69044A43F080031361F0
:1041A00000231846BD4680BC704700BF0020024077
:1041B00080B483B000AF78600B467B80084B002250
:1041C000DA61084B1B69074A43F0010313617B68FE
:1041D0007A881A8000BF0C37BD4680BC704700BF8C
:1041E000B00400200020024080B584B000AF7860A9
:1041F000FFF722F9F86010E07B68B3F1FF3F0CD0C5
:104200007B68002B07D0FFF717F90246FB68D31A2B
:104210007A689A4201D2032325E0154BDB6803F04C
:104220000103002BE8D1124BDB6803F02003002BC5
:1042300002D00F4B2022DA600D4BDB6803F0100335
:10424000002B0BD10A4BDB6903F00103002B05D1D6
:10425000074BDB6803F00403002B03D000F00AF8DF
:10426000012300E0002318461037BD4680BD00BF83
:104270000020024080B483B000AF00237B60234B5A
:10428000DB6803F01003002B09D0214BDB6943F0FE
:1042900002031F4AD3617B6843F010037B601B4B12
:1042A000DB6803F00403002B09D0194BDB6943F0F2
:1042B0000103174AD3617B6843F004037B60134B0F
:1042C000DB6903F00103002B0BD0114BDB6943F0DA
:1042D00004030F4AD3610D4BDB690C4A23F0010341
:1042E000D3617B6840F20112934206D1074BDB6930
:1042F000064A23F00103D36102E0044A7B68D360DD
:1043000000BF0C37BD4680BC704700BF0020024094
:10431000B004002080B584B000AF7860396001231C
:10432000FB730023BB602F4B1B7E012B01D10223AB
:1043300053E02C4B01221A767B681B68022B16D1A6
:104340004CF25030FFF750FF0346002B41D10120C3
:1043500000F04CF84CF25030FFF746FF0346FB7379
:10436000214B1B69204A23F00403136131E04CF216
:104370005030FFF739FF0346002B2AD13B684FF03E
:10438000FF321A607B689B68BB6019E0B86800F078
:1043900049F84CF25030FFF727FF0346FB73124BEE
:1043A0001B69114A23F002031361FB7B002B03D02E
:1043B0003B68BA681A600CE0BB6803F58063BB60B9
:1043C0007B68DB689A027B689B681344BA689A42F0
:1043D000DCD3044B00221A76FB7B18461037BD460F
:1043E00080BD00BFB00400200020024080B483B034
:1043F00000AF7860094B0022DA61094B1B69084A5B
:1044000043F004031361064B1B69054A43F0400364
:10441000136100BF0C37BD4680BC7047B00400205C
:104420000020024080B483B000AF78600B4B0022C4
:10443000DA610B4B1B690A4A43F002031361084A15
:104440007B685361064B1B69054A43F040031361C7
:1044500000BF0C37BD4680BC704700BFB0040020D1
:104460000020024080B48BB000AF78603960002338
:104470007B6200233B6269E101227B6A02FA03F35B
:10448000FB613B681B68FA691340BB61BA69FB6951
:104490009A4240F058813B685B689A4A93425ED0EA
:1044A000984A934275D8984A934258D0964A934274
:1044B0006FD8964A934252D0944A934269D8944A0C
:1044C00093424CD0924A934263D8924A934246D048
:1044D000904A93425DD8122B2AD8122B59D801A2A8
:1044E00052F823F05F450008394500084B450008A5
:1044F0008D45000893450008934500089345000842
:10450000934500089345000893450008934500082B
:10451000934500089345000893450008934500081B
:10452000934500089345000841450008554500089B
:10453000794A934213D02CE03B68DB683B6229E068
:104540003B68DB6804333B6224E03B68DB6808338C
:104550003B621FE03B68DB680C333B621AE03B6860
:104560009B68002B02D104233B6213E03B689B68ED
:10457000012B05D108233B627B68FA691A6109E0C7
:1045800008233B627B68FA695A6103E000233B62BF
:1045900000E000BFBB69FF2B01D87B6801E07B68AE
:1045A00004337B61BB69FF2B02D87B6A9B0002E06E
:1045B0007B6A083B9B003B617B691A680F213B6962
:1045C00001FA03F3DB431A40396A3B6901FA03F34A
:1045D0001A437B691A603B685B6803F08053002BC9
:1045E00000F0B1804D4B9B694C4A43F0010393614D
:1045F0004A4B9B6903F00103BB60BB68484A7B6A76
:104600009B08023352F82330FB607B6A03F00303FC
:104610009B000F2202FA03F3DB43FA681340FB60AE
:104620007B68404A934213D07B683F4A93420DD047
:104630007B683E4A934207D07B683D4A934201D152
:10464000032306E0042304E0022302E0012300E048
:1046500000237A6A02F0030292009340FA6813433F
:10466000FB602F497B6A9B080233FA6841F82320DC
:104670003B685B6803F48033002B06D02D4B1A682F
:104680002C49BB6913430B6006E02A4B1A68BB69CF
:10469000DB43284913400B603B685B6803F400333D
:1046A000002B06D0234B5A682249BB6913434B6049
:1046B00006E0204B5A68BB69DB431E4913404B6040
:1046C0003B685B6803F48013002B06D0194B9A6893
:1046D0001849BB6913438B6006E0164B9A68BB69A7
:1046E000DB43144913408B603B685B6803F40013A1
:1046F000002B21D00F4BDA680E49BB691343CB6006
:1047000021E000BF00003210000031100000221034
:1047100000002110000012100000111000100240D3
:104720000000014000080140000C01400010014061
:1047300000140140000401400B4BDA68BB69DB4305
:1047400009491340CB607B6A01337B623B681A687E
:104750007B6A22FA03F3002B7FF48EAE00BF00BF0A
:104760002C37BD4680BC70470004014080B485B042
:1047700000AF78600B467B807B689A687B8813402B
:10478000002B02D00123FB7301E00023FB73FB7BB2
:1047900018461437BD4680BC704780B483B000AF64
:1047A00078600B467B8013467B707B78002B03D0B0
:1047B0007A887B681A6103E07B881A047B681A6137
:1047C00000BF0C37BD4680BC7047000080B582B08A
:1047D00000AF0346FB80084B5A69FB881340002B4F
:1047E00006D0054AFB885361FB881846FCF72CFE6F
:1047F00000BF0837BD4680BD00040140F0B58BB056
:1048000006AF78607B68002B01D10123FDE07B6857
:1048100093F8A932DBB2002B06D17B68002283F823
:10482000A822786807F034FD7B68032283F8A92268
:104830007B681B68184603F01DFA7B681B683B60A9
:104840007E686D4606F110040FCC0FC523682B60FF
:10485000331D0ECB386803F0E7F90346002B05D073
:104860007B68022283F8A9220123CEE07B681B68C3
:104870000021184603F018FA0023FB734CE0FB7B81
:1048800079685A1C13469B001344DB000B44013328
:1048900001221A70FB7B79685A1C13469B00134453
:1048A000DB000B44FA7B1A70FA7BFB7B98B27968C9
:1048B00013469B001344DB000B44363302461A8038
:1048C000FB7B79685A1C13469B001344DB000B44A6
:1048D000033300221A70FA7B796813469B00134455
:1048E000DB000B44383300221A60FA7B79681346E8
:1048F0009B001344DB000B443C3300221A60FA7B1C
:10490000796813469B001344DB000B4440330022BC
:104910001A60FB7B0133FB73FA7B7B685B689A420E
:10492000ADD30023FB7344E0FA7B796813469B0008
:104930001344DB000B4403F2691300221A70FA7B64
:10494000796813469B001344DB000B4403F5B473F2
:10495000FA7B1A70FA7B796813469B001344DB00DC
:104960000B4403F26B1300221A70FA7B796813462A
:104970009B001344DB000B4403F5BC7300221A6058
:10498000FA7B796813469B001344DB000B4403F564
:10499000BE7300221A60FA7B796813469B001344A9
:1049A000DB000B4403F5C07300221A60FB7B01336C
:1049B000FB73FA7B7B685B689A42B5D37B681B68A4
:1049C0003B607E686D4606F110040FCC0FC523686E
:1049D0002B60331D0ECB386803F072F90346002BB1
:1049E00005D07B68022283F8A92201230DE07B68B1
:1049F000002283F824207B68012283F8A9227B68A7
:104A00001B68184605F024FE002318461437BD46DF
:104A1000F0BD80B582B000AF78607B6893F8A832B3
:104A2000012B01D1022316E07B68012283F8A82222
:104A30007B681B68184603F007F90121786807F0C6
:104A40009AFE7B681B68184605F0F8FD7B6800221B
:104A500083F8A822002318460837BD4680BD80B5DC
:104A600088B000AF78607B681B68184605F0FAFDD7
:104A7000034603F40043B3F5004F02D1786800F019
:104A80005FFB7B681B68184605F0ECFD034603F4EA
:104A90008063B3F5806F12D17B681B68B3F8443034
:104AA0009AB27B681B6822F4806292B2A3F8442019
:104AB000786807F068FC0021786800F023F97B68CB
:104AC0001B68184605F0CEFD034603F48043B3F59A
:104AD000804F0BD17B681B68B3F844309AB27B6877
:104AE0001B6822F4804292B2A3F844207B681B68C2
:104AF000184605F0B7FD034603F40053B3F5005F15
:104B00000BD17B681B68B3F844309AB27B681B6892
:104B100022F4005292B2A3F844207B681B68184626
:104B200005F0A0FD034603F48053B3F5805F26D162
:104B30007B681B68B3F840309AB27B681B6822F030
:104B4000040292B2A3F840207B681B68B3F840309F
:104B50009AB27B681B6822F0080292B2A3F8402048
:104B6000786807F049FC7B681B68B3F844309AB258
:104B70007B681B6822F4805292B2A3F844207B68C1
:104B80001B68184605F06EFD034603F40063B3F599
:104B9000006F40F082800023FB7710E07B681B6889
:104BA0001A46FB7F9B001A44FB7F128892B25B007F
:104BB00020333B4423F8142CFB7F0133FB77FB7F2E
:104BC000072BEBD97B681B68B3F840309AB27B683F
:104BD0001B6842F0010292B2A3F840207B681B6878
:104BE000B3F840309AB27B681B6822F0010292B29F
:104BF000A3F8402000BF7B681B68B3F844309BB229
:104C000003F48063002BF6D07B681B68B3F8443054
:104C10009AB27B681B6822F4806292B2A3F84420A7
:104C20000023FB770FE0FB7F7A6812681146FA7F5A
:104C300092000A445B0020333B4433F8143C138059
:104C4000FB7F0133FB77FB7F072BECD97B681B686D
:104C5000B3F840309AB27B681B6842F0080292B207
:104C6000A3F840207B681B68B3F844309AB27B6895
:104C70001B6822F4006292B2A3F844207B681B6890
:104C8000B3F840309AB27B681B6842F0040292B2DB
:104C9000A3F84020786807F095FB7B681B681846EE
:104CA00005F0E0FC034603F40073B3F5007F0ED17A
:104CB0007B681B68B3F844309AB27B681B6822F4A7
:104CC000007292B2A3F84420786807F04EFB7B682C
:104CD0001B68184605F0C6FC034603F48073B3F561
:104CE000807F0BD17B681B68B3F844309AB27B6835
:104CF0001B6822F4807292B2A3F8442000BF2037D0
:104D0000BD4680BD80B582B000AF78600B46FB70B9
:104D10007B6893F8A832012B01D1022313E07B6852
:104D2000012283F8A8227B68FA7883F824207B6824
:104D30001B68FA781146184605F06DFC7B68002266
:104D400083F8A822002318460837BD4680BD80B5E9
:104D500084B000AF7860084611461A460346FB70DF
:104D60000B463B801346BB700023FB7297F9033060
:104D7000002B0EDAFB7803F007035A1C13469B0046
:104D80001344DB007A681344FB60FB6801225A700D
:104D90000EE0FB7803F0070213469B001344DB0090
:104DA00003F5B4737A681344FB60FB6800225A7001
:104DB000FB7803F00703DAB2FB681A703A88FB68E5
:104DC0001A61FB68BA78DA70FB685B78002B04D054
:104DD000FB681B789AB2FB68DA81BB78022B02D1A0
:104DE000FB6800221A717B6893F8A832012B01D16D
:104DF00002230EE07B68012283F8A8227B681B68EF
:104E0000F968184602F07CFF7B68002283F8A8222C
:104E1000FB7A18461037BD4680BD80B584B000AF20
:104E200078600B46FB7097F90330002B0EDAFB78A5
:104E300003F007035A1C13469B001344DB007A68F7
:104E40001344FB60FB6801225A700EE0FB7803F00C
:104E5000070213469B001344DB0003F5B4737A6822
:104E60001344FB60FB6800225A70FB7803F00703D1
:104E7000DAB2FB681A707B6893F8A832012B01D173
:104E800002230EE07B68012283F8A8227B681B685E
:104E9000F968184603F09EFA7B68002283F8A8227E
:104EA000002318461037BD4680BD80B586B000AFE0
:104EB000F8607A603B600B46FB72FB7A03F00702F6
:104EC00013469B001344DB0003F5B473FA681344E4
:104ED0007B617B697A685A617B693A689A617B6910
:104EE0000022DA617B6900225A70FB7A03F0070323
:104EF000DAB27B691A70FB7A03F00703002B06D144
:104F0000FB681B687969184603F050FC05E0FB68F4
:104F10001B687969184603F049FC002318461837C6
:104F2000BD4680BD80B483B000AF78600B46FB7097
:104F3000FB7803F00702796813469B001344DB00FB
:104F40000B4403F5C2731B6818460C37BD4680BC82
:104F5000704780B586B000AFF8607A603B600B4662
:104F6000FB72FB7A03F007035A1C13469B001344A1
:104F7000DB00FA6813447B617B697A685A617B695C
:104F80003A689A617B69012283F824207B693A6838
:104F90001A627B690022DA617B6901225A70FB7A0E
:104FA00003F00703DAB27B691A70FB7A03F0070398
:104FB000002B06D1FB681B687969184603F0F6FBE5
:104FC00005E0FB681B687969184603F0EFFB0023D6
:104FD00018461837BD4680BD80B584B000AF7860F4
:104FE0000B46FB70FB7803F007027B685B689A4214
:104FF00001D901234CE097F90330002B0EDAFB783E
:1050000003F007035A1C13469B001344DB007A6825
:105010001344FB60FB6801225A700CE0FA781346D7
:105020009B001344DB0003F5B4737A681344FB6000
:10503000FB6800225A70FB6801229A70FB7803F02B
:105040000703DAB2FB681A707B6893F8A832012B69
:1050500001D102231CE07B68012283F8A8227B682F
:105060001B68F968184605F0D9F9FB7803F00703C7
:10507000002B08D17B681A687B6803F52C731946EE
:10508000104605F0FEFA7B68002283F8A822002370
:1050900018461037BD4680BD80B584B000AF78603B
:1050A0000B46FB70FB7803F00F027B685B689A424B
:1050B00001D9012340E097F90330002B0EDAFB7889
:1050C00003F007035A1C13469B001344DB007A6865
:1050D0001344FB60FB6801225A700EE0FB7803F07A
:1050E000070213469B001344DB0003F5B4737A6890
:1050F0001344FB60FB6800225A70FB6800229A7020
:10510000FB7803F00703DAB2FB681A707B6893F848
:10511000A832012B01D102230EE07B68012283F823
:10512000A8227B681B68F968184605F0C7F97B68F8
:10513000002283F8A822002318461037BD4680BD00
:1051400080B58EB000AF7860ECE27B681B68B3F886
:105150004430FB85FB8DDBB203F00F0387F82D3065
:1051600097F82D30002B40F06181FB8D03F0100388
:10517000002B52D17B681B681B889BB223F4E14350
:1051800023F07003FB817B681A68FB896FEA434355
:105190006FEA53439BB213807B6828337B627B6842
:1051A0001B68B3F850309BB21A467B6A1B78DB0051
:1051B000134402335B007A681268134403F580637A
:1051C0001B88C3F309027B6ADA617B6A5A697B6ACE
:1051D000DB691A447B6A5A610021786807F0ABF8F2
:1051E0007B6893F82430DBB2002B00F09B827B6A53
:1051F0009B69002B40F096827B6893F82430DBB2E9
:1052000063F07F03DAB27B681B6892B2A3F84C208C
:105210007B68002283F8242084E27B6803F5B47362
:105220007B627B681B681B887B857B8D03F4006336
:10523000002B34D07B681B68B3F850309BB21A4601
:105240007B6A1B78DB00134406335B007A681268C4
:10525000134403F580631B88C3F309027B6ADA6198
:105260007B6818687B6803F52C717B6ADA887B6A37
:10527000DB699BB205F055FA7B681B681B889AB204
:1052800040F68F7313403B827B681B683A8A42F07A
:10529000800292B21A80786807F020F842E2B7F9EB
:1052A0002A30002B80F23E827B681B681B889AB2F2
:1052B00040F68F731340BB837B681B68BA8B42F048
:1052C000800292B21A807B681B68B3F850309BB2A0
:1052D0001A467B6A1B78DB00134406335B007A684E
:1052E0001268134403F580631B88C3F309027B6AC9
:1052F000DA617B6ADB69002B19D07B6A5B69002B62
:1053000015D07B6818687B6A59697B6ADA887B6A82
:10531000DB699BB205F005FA7B6A5A697B6ADB6937
:105320001A447B6A5A610021786806F0E9FF7B68BD
:105330001B681B889BB203F40063002B40F0F281D2
:105340007B681B68BB617B681B68B3F850309BB2FD
:105350001A46BB691344BB61BB6903F20C437B6112
:105360007B6A1B69002B12D17B691B889BB223F4DB
:10537000F8439AB27B691A807B691B889BB26FEAFB
:1053800043436FEA53439AB27B691A802FE07B6AEA
:105390001B693E2B13D87B6A1B695B083B637B6AE6
:1053A0001B6903F00103002B02D03B6B01333B630D
:1053B0003B6B9BB29B029AB27B691A8017E07B6AB7
:1053C0001B695B093B637B6A1B6903F01F03002BAE
:1053D00002D13B6B013B3B633B6B9BB29B029BB29D
:1053E0006FEA43436FEA53439AB27B691A807B6842
:1053F0001B681B889BB223F4804323F070037B82DD
:105400007B8A83F480537B827B8A83F400537B8284
:105410007B681A687B8A43F07F4343F47F0343F43D
:10542000004343F080039BB213807BE17B681B68E1
:105430001A4697F82D309B0013441B887B85B7F9DB
:105440002A30002B80F2EA807B681B681A4697F8A6
:105450002D309B0013441B889AB240F68F73134083
:105460003B857B681B681A4697F82D309B001344D8
:105470003A8D42F0800292B21A8097F82D2013469E
:105480009B001344DB0003F5B4737A6813447B621A
:105490007B6A1B7B002B22D17B681B68B3F85030E2
:1054A0009BB21A467B6A1B78DB00134406335B0011
:1054B0007A681268134403F580631B88C3F30903F9
:1054C000FB86FB8E002B00F087807B6818687B6A68
:1054D00059697B6ADA88FB8E05F023F97CE07B6AE8
:1054E000DB78022B08D17B8D1A46796A786800F048
:1054F00027F90346FB866FE07B681B681A467B6AC8
:105500001B789B0013441B889BB223F4E04323F0D9
:1055100070037B847B681B681A467B6A1B789B0040
:105520001A447B8C43F07F4343F47F0343F40043EE
:1055300043F0C0039BB213807B681B681A467B6AEA
:105540001B789B0013441B889BB203F48043002B01
:1055500021D07B681B68B3F850309BB21A467B6A37
:105560001B78DB00134402335B007A681268134433
:1055700003F580631B88C3F30903FB86FB8E002BB6
:105580002AD07B6818687B6A59697B6A1A89FB8E06
:1055900005F0C7F820E07B681B68B3F850309BB279
:1055A0001A467B6A1B78DB00134406335B007A687B
:1055B0001268134403F580631B88C3F30903FB8659
:1055C000FB8E002B08D07B6818687B6A59697B6A60
:1055D0005A89FB8E05F0A5F87B6ADA69FB8E1A44BE
:1055E0007B6ADA617B6A5A69FB8E1A447B6A5A616C
:1055F0007B6A9B69002B04D0FA8E7B6A1B699A42F6
:1056000006D27B6A1B781946786806F079FE05E0B9
:105610007B681B68796A184603F0C8F87B8D03F035
:105620008003002B7ED097F82D305A1C13469B0028
:105630001344DB007A6813447B627B681B681A465C
:1056400097F82D309B0013441B889BB223F4E14351
:1056500023F070033B847B681B681A4697F82D3053
:105660009B001A443B8C6FEA43436FEA53439BB25F
:1056700013807B6ADB78032B0CD07B6ADB78002BF2
:1056800008D07B6ADB78022B46D17B8D03F48073D4
:10569000002B41D17B681B68B3F850309BB21A468F
:1056A0007B6A1B78DB00134402335B007A68126864
:1056B000134403F580631B88C3F30903FB837B6AF0
:1056C0009A69FB8B9A4206D97B6A9A69FB8BD21A3C
:1056D0007B6A9A6102E07B6A00229A617B6A9B691D
:1056E000002B06D17B6A1B781946786806F023FEEA
:1056F00018E07B6A5A69FB8B1A447B6A5A617B6AA1
:10570000DA69FB8B1A447B6ADA617B681B68796A09
:10571000184603F04BF805E07B8D1A46796A7868E5
:1057200000F01BF97B681B68B3F844309BB21BB2D6
:10573000002BFFF60AAD002318463837BD4680BD62
:1057400080B588B000AFF860B9601346FB80FB8875
:1057500003F48043002B7ED0FB681B68B3F8503005
:105760009BB21A46BB681B78DB00134402335B0014
:10577000FA681268134403F580631B88C3F30903B6
:105780007B83BB689A697B8B9A4206D3BB689A6914
:105790007B8BD21ABB689A6102E0BB6800229A61D7
:1057A000BB689B69002B23D1FB681B681A46BB684A
:1057B0001B789B0013441B889BB223F4804323F087
:1057C00070033B833B8B83F400533B83FB681B6874
:1057D0001A46BB681B789B001A443B8B43F07F43FF
:1057E00043F47F0343F4004343F080039BB21380F0
:1057F000FB8803F04003002B1FD0FB681B681A4690
:10580000BB681B789B0013441B889BB223F4E043C6
:1058100023F07003FB82FB681B681A46BB681B7889
:105820009B001A44FB8A43F07F4343F47F0343F415
:10583000004343F0C0039BB213807B8B002B00F02E
:105840008780FB681868BB685969BB681A897B8BBD
:1058500004F067FF7CE0FB681B68B3F850309BB234
:105860001A46BB681B78DB00134406335B00FA68FA
:105870001268134403F580631B88C3F309037B8319
:10588000BB689A697B8B9A4206D3BB689A697B8B0B
:10589000D21ABB689A6102E0BB6800229A61BB68B9
:1058A0009B69002B23D1FB681B681A46BB681B78D9
:1058B0009B0013441B889BB223F4804323F07003A6
:1058C000FB83FB8B83F40053FB83FB681B681A4646
:1058D000BB681B789B001A44FB8B43F07F4343F467
:1058E0007F0343F4004343F080039BB21380FB88A3
:1058F00003F04003002B1FD1FB681B681A46BB68EE
:105900001B789B0013441B889BB223F4E04323F0D5
:105910007003BB83FB681B681A46BB681B789B003F
:105920001A44BB8B43F07F4343F47F0343F40043AB
:1059300043F0C0039BB213807B8B002B08D0FB6825
:105940001868BB685969BB685A897B8B04F0E9FE0B
:105950007B8B18462037BD4680BD80B5A2B000AF16
:10596000F860B9601346FB80FB8803F04003002B0E
:1059700000F0C781FB681B68B3F850309BB21A4631
:10598000BB681B78DB00134402335B00FA681268C3
:10599000134403F580631B88C3F30903A7F84E3053
:1059A000BB689A69B7F84E309A4207D9BB689A69C2
:1059B000B7F84E30D21ABB689A6102E0BB68002289
:1059C0009A61BB689B69002B40F0B980BB685B782B
:1059D000002B26D1FB681B68BB62FB681B68B3F811
:1059E00050309BB21A46BB6A1344BB62BB681B783B
:1059F0001A01BB6A134403F204437B627B6A1B886F
:105A00009BB223F4F8439AB27B6A1A807B6A1B88A4
:105A10009BB26FEA43436FEA53439AB27B6A1A80A0
:105A20001AE0BB685B78012B16D1FB681B683B63EF
:105A3000FB681B68B3F850309BB21A463B6B1344AB
:105A40003B63BB681B781A013B6B134403F20443AE
:105A5000FB62FB6A00221A80FB681B683B62BB6822
:105A60005B78002B26D1FB681B68BB61FB681B6859
:105A7000B3F850309BB21A46BB691344BB61BB6894
:105A80001B781A01BB69134403F20C437B617B69E9
:105A90001B889BB223F4F8439AB27B691A807B6916
:105AA0001B889BB26FEA43436FEA53439AB27B6908
:105AB0001A8017E0BB685B78012B13D1FB681B6869
:105AC000B3F850309BB21A463B6A13443B62BB6842
:105AD0001B781A013B6A134403F20C43FB61FB6918
