:020000040800F2
:1000000000500020093300084D3200085332000828
:10001000593200085F320008653200080000000015
:100020000000000000000000000000006B3200082B
:100030007732000800000000833200088F32000889
:100040005133000851330008513300085133000880
:100050005133000851330008513300089F32000823
:100060005133000851330008513300085133000860
:100070005133000851330008513300085133000850
:100080005133000851330008AD32000851330008E5
:10009000C1320008513300085133000851330008C1
:1000A0005133000851330008513300085133000820
:1000B00051330008D5320008E932000851330008F6
:1000C0005133000851330008513300085133000800
:1000D00051330008513300085133000851330008F0
:1000E000513300085133000851330008000000006C
:1000F0000000000000000000000000000000000000
:0C01000000000000000000005FF808F1A3
:1001100010B5054C237833B9044B13B10448AFF341
:1001200000800123237010BD80010020000000002A
:1001300044C8000808B5034B1BB103490348AFF39B
:10014000008008BD000000008401002044C80008B1
:1001500081F0004102E000BF83F0004330B54FEA78
:1001600041044FEA430594EA050F08BF90EA020FE5
:100170001FBF54EA000C55EA020C7FEA645C7FEA78
:10018000655C00F0E2804FEA5454D4EB5555B8BF9B
:100190006D420CDD2C4480EA020281EA030382EA0C
:1001A000000083EA010180EA020281EA0303362D9E
:1001B00088BF30BD11F0004F4FEA01314FF4801C71
:1001C0004CEA113102D0404261EB410113F0004F83
:1001D0004FEA03334CEA133302D0524263EB43033A
:1001E00094EA050F00F0A780A4F10104D5F1200ED8
:1001F0000DDB02FA0EFC22FA05F2801841F1000133
:1002000003FA0EF2801843FA05F359410EE0A5F106
:1002100020050EF1200E012A03FA0EFC28BF4CF037
:10022000020C43FA05F3C01851EBE37101F00045ED
:1002300007D54FF0000EDCF1000C7EEB00006EEBFA
:100240000101B1F5801F1BD3B1F5001F0CD3490884
:100250005FEA30004FEA3C0C04F101044FEA4452DB
:1002600012F5800F80F09A80BCF1004F08BF5FEA62
:10027000500C50F1000041EB045141EA050130BD42
:100280005FEA4C0C404141EB0101013C28BFB1F554
:10029000801FE9D291F0000F04BF01460020B1FA9F
:1002A00081F308BF2033A3F10B03B3F120020CDA72
:1002B0000C3208DD02F1140CC2F10C0201FA0CF050
:1002C00021FA02F10CE002F11402D8BFC2F1200CB5
:1002D00001FA02F120FA0CFCDCBF41EA0C0190406B
:1002E000E41AA2BF01EB0451294330BD6FEA0404B4
:1002F0001F3C1CDA0C340EDC04F11404C4F120029F
:1003000020FA04F001FA02F340EA030021FA04F3B0
:1003100045EA030130BDC4F10C04C4F1200220FA07
:1003200002F001FA04F340EA0300294630BD21FA45
:1003300004F0294630BD94F0000F83F4801306BF0B
:1003400081F480110134013D4EE77FEA645C18BFFF
:100350007FEA655C29D094EA050F08BF90EA020F96
:1003600005D054EA000C04BF1946104630BD91EA8E
:10037000030F1EBF0021002030BD5FEA545C05D191
:100380004000494128BF41F0004130BD14F58004D0
:100390003CBF01F5801130BD01F0004545F0FE4144
:1003A00041F470014FF0000030BD7FEA645C1ABF79
:1003B000194610467FEA655C1CBF0B46024650EAB0
:1003C000013406BF52EA033591EA030F41F40021DC
:1003D00030BD00BF90F0000F04BF0021704730B562
:1003E0004FF4806404F132044FF000054FF0000137
:1003F00050E700BF90F0000F04BF0021704730B5F8
:100400004FF4806404F1320410F0004548BF4042CC
:100410004FF000013EE700BF42004FEAE2014FEA21
:1004200031014FEA02701FBF12F07F4393F07F4FFC
:1004300081F06051704732F07F4208BF704793F0FF
:100440007F4F04BF41F40021704730B54FF4607412
:1004500001F0004521F000411CE700BF50EA010215
:1004600008BF704730B54FF000050AE050EA0102BE
:1004700008BF704730B511F0004502D5404261EB2E
:1004800041014FF4806404F132045FEA915C3FF46F
:10049000D8AE4FF003025FEADC0C18BF03325FEA0C
:1004A000DC0C18BF033202EBDC02C2F1200300FABD
:1004B00003FC20FA02F001FA03FE40EA0E0021FAE2
:1004C00002F11444BDE600BF70B54FF0FF0C4CF4D0
:1004D000E06C1CEA11541DBF1CEA135594EA0C0F82
:1004E00095EA0C0F00F0DEF82C4481EA030621EABD
:1004F0004C5123EA4C5350EA013518BF52EA0335F8
:1005000041F4801143F4801338D0A0FB02CE4FF0A9
:100510000005E1FB02E506F00042E0FB03E54FF0D9
:100520000006E1FB03569CF0000F18BF4EF0010ED1
:10053000A4F1FF04B6F5007F64F5407404D25FEACD
:100540004E0E6D4146EB060642EAC62141EA555180
:100550004FEAC52040EA5E504FEACE2EB4F1FD0CC2
:1005600088BFBCF5E06F1ED8BEF1004F08BF5FEA40
:10057000500E50F1000041EB045170BD06F00046F2
:1005800046EA010140EA020081EA0301B4EB5C049F
:10059000C2BFD4EB0C0541EA045170BD41F4801197
:1005A0004FF0000E013C00F3AB8014F1360FDEBFBC
:1005B000002001F0004170BDC4F10004203C35DA98
:1005C0000C341BDC04F11404C4F1200500FA05F31B
:1005D00020FA04F001FA05F240EA020001F00042BC
:1005E00021F0004110EBD37021FA04F642EB060132
:1005F0005EEA430E08BF20EAD37070BDC4F10C045C
:10060000C4F1200500FA04F320FA05F001FA04F21F
:1006100040EA020001F0004110EBD37041F100010B
:100620005EEA430E08BF20EAD37070BDC4F1200516
:1006300000FA05F24EEA020E20FA04F301FA05F27E
:1006400043EA020321FA04F001F0004121FA04F226
:1006500020EA020000EBD3705EEA430E08BF20EAF6
:10066000D37070BD94F0000F0FD101F00046400030
:1006700041EB010111F4801F08BF013CF7D041EAB2
:10068000060195F0000F18BF704703F000465200B6
:1006900043EB030313F4801F08BF013DF7D043EA87
:1006A0000603704794EA0C0F0CEA135518BF95EA3D
:1006B0000C0F0CD050EA410618BF52EA4306D1D1C4
:1006C00081EA030101F000414FF0000070BD50EAE3
:1006D000410606BF1046194652EA430619D094EA6D
:1006E0000C0F02D150EA013613D195EA0C0F05D157
:1006F00052EA03361CBF104619460AD181EA0301AB
:1007000001F0004141F0FE4141F470014FF0000062
:1007100070BD41F0FE4141F4780170BD70B54FF0FD
:10072000FF0C4CF4E06C1CEA11541DBF1CEA13557D
:1007300094EA0C0F95EA0C0F00F0A7F8A4EB05045F
:1007400081EA030E52EA03354FEA013100F0888056
:100750004FEA03334FF0805545EA131343EA12631F
:100760004FEA022245EA111545EA10654FEA0026D4
:100770000EF000419D4208BF964244F1FD0404F58D
:10078000407402D25B084FEA3202B61A65EB0305E9
:100790005B084FEA32024FF480104FF4002CB6EBA6
:1007A000020E75EB030E22BFB61A754640EA0C0026
:1007B0005B084FEA3202B6EB020E75EB030E22BF66
:1007C000B61A754640EA5C005B084FEA3202B6EBA7
:1007D000020E75EB030E22BFB61A754640EA9C0066
:1007E0005B084FEA3202B6EB020E75EB030E22BF36
:1007F000B61A754640EADC0055EA060E18D04FEAF4
:10080000051545EA16754FEA06164FEAC30343EA93
:1008100052734FEAC2025FEA1C1CC0D111F4801F60
:100820000BD141EA00014FF000004FF0004CB6E759
:1008300011F4801F04BF01430020B4F1FD0C88BFF8
:10084000BCF5E06F3FF6AFAEB5EB030C04BFB6EB03
:10085000020C5FEA500C50F1000041EB045170BDF6
:100860000EF0004E4EEA113114EB5C04C2BFD4EB23
:100870000C0541EA045170BD41F480114FF0000EA7
:10088000013C90E645EA060E8DE60CEA135594EA23
:100890000C0F08BF95EA0C0F3FF43BAF94EA0C0F26
:1008A0000AD150EA01347FF434AF95EA0C0F7FF49B
:1008B00025AF104619462CE795EA0C0F06D152EAEF
:1008C00003353FF4FDAE1046194622E750EA4106D3
:1008D00018BF52EA43067FF4C5AE50EA41047FF4E4
:1008E0000DAF52EA43057FF4EBAE12E74FF0FF3C49
:1008F00006E000BF4FF0010C02E000BF4FF0010C1A
:100900004DF804CD4FEA410C7FEA6C5C4FEA430C92
:1009100018BF7FEA6C5C1BD001B050EA410C0CBFE1
:1009200052EA430C91EA030F02BF90EA020F002043
:10093000704710F1000F91EA030F58BF994208BFAA
:1009400090422CBFD8176FEAE37040F00100704767
:100950004FEA410C7FEA6C5C02D150EA013C07D1BE
:100960004FEA430C7FEA6C5CD6D152EA033CD3D009
:100970005DF8040B704700BF8446104662468C4603
:100980001946634600E000BF01B5FFF7B7FF002836
:1009900048BF10F1000F01BD4DF808EDFFF7F4FF5F
:1009A0000CBF012000205DF808FB00BF4DF808EDEA
:1009B000FFF7EAFF34BF012000205DF808FB00BF0D
:1009C0004DF808EDFFF7E0FF94BF012000205DF82F
:1009D00008FB00BF4DF808EDFFF7CEFF94BF0120E4
:1009E00000205DF808FB00BF4DF808EDFFF7C4FFDD
:1009F00034BF012000205DF808FB00BF80F00040FC
:100A000002E000BF81F0004142001FBF5FEA4103E6
:100A100092EA030F7FEA226C7FEA236C6AD04FEAE6
:100A20001262D2EB1363C1BFD2184140484041402B
:100A3000B8BF5B42192B88BF704710F0004F40F4DD
:100A4000000020F07F4018BF404211F0004F41F4F9
:100A5000000121F07F4118BF494292EA030F3FD0C5
:100A6000A2F1010241FA03FC10EB0C00C3F12003D8
:100A700001FA03F100F0004302D5494260EB400067
:100A8000B0F5000F13D3B0F1807F06D340084FEAD2
:100A9000310102F10102FE2A51D2B1F1004F40EBC7
:100AA000C25008BF20F0010040EA0300704749002F
:100AB00040EB0000013A28BFB0F5000FEDD2B0FACC
:100AC00080FCACF1080CB2EB0C0200FA0CF0AABFEF
:100AD00000EBC25052421843BCBFD040184370478D
:100AE00092F0000F81F4000106BF80F40000013293
:100AF000013BB5E74FEA41037FEA226C18BF7FEA6A
:100B0000236C21D092EA030F04D092F0000F08BFAB
:100B10000846704790EA010F1CBF0020704712F092
:100B20007F4F04D1400028BF40F00040704712F1D1
:100B300000723CBF00F50000704700F0004343F036
:100B4000FE4040F4000070477FEA226216BF08466C
:100B50007FEA23630146420206BF5FEA412390EA2F
:100B6000010F40F4800070474FF0000304E000BF25
:100B700010F0004348BF40425FEA000C08BF7047D6
:100B800043F0964301464FF000001CE050EA01029A
:100B900008BF70474FF000030AE000BF50EA0102AF
:100BA00008BF704711F0004302D5404261EB41019C
:100BB0005FEA010C02BF84460146002043F0B643C1
:100BC00008BFA3F18053A3F50003BCFA8CF2083AE6
:100BD000A3EBC25310DB01FA02FC634400FA02FCEF
:100BE000C2F12002BCF1004F20FA02F243EB0200F6
:100BF00008BF20F00100704702F1200201FA02FC58
:100C0000C2F1200250EA4C0021FA02F243EB02004A
:100C100008BF20EADC7070474FF0FF0C1CEAD0528E
:100C20001EBF1CEAD15392EA0C0F93EA0C0F6FD04F
:100C30001A4480EA010C400218BF5FEA41211ED02D
:100C40004FF0006343EA501043EA5111A0FB013119
:100C50000CF00040B1F5000F3EBF490041EAD371EE
:100C60005B0040EA010062F17F02FD2A1DD8B3F16A
:100C7000004F40EBC25008BF20F00100704790F0D9
:100C8000000F0CF0004C08BF49024CEA502040EA2B
:100C900051207F3AC2BFD2F1FF0340EAC2507047F1
:100CA00040F400004FF00003013A5DDC12F1190F2F
:100CB000DCBF00F000407047C2F10002410021FAA1
:100CC00002F1C2F1200200FA02FC5FEA310040F1B9
:100CD000000053EA4C0308BF20EADC70704792F032
:100CE000000F00F0004C02BF400010F4000F013A6A
:100CF000F9D040EA0C0093F0000F01F0004C02BF65
:100D0000490011F4000F013BF9D041EA0C018FE7D3
:100D10000CEAD15392EA0C0F18BF93EA0C0F0AD0D9
:100D200030F0004C18BF31F0004CD8D180EA0100FF
:100D300000F00040704790F0000F17BF90F0004F98
:100D4000084691F0000F91F0004F14D092EA0C0F7A
:100D500001D142020FD193EA0C0F03D14B0218BF0D
:100D6000084608D180EA010000F0004040F0FE4053
:100D700040F40000704740F0FE4040F440007047EF
:100D80004FF0FF0C1CEAD0521EBF1CEAD15392EA6E
:100D90000C0F93EA0C0F69D0A2EB030280EA010C5E
:100DA00049024FEA402037D04FF0805343EA1111F7
:100DB00043EA10130CF000408B4238BF5B0042F155
:100DC0007D024FF4000C8B4224BF5B1A40EA0C00FA
:100DD000B3EB510F24BFA3EB510340EA5C00B3EB2C
:100DE000910F24BFA3EB910340EA9C00B3EBD10F1A
:100DF00024BFA3EBD10340EADC001B0118BF5FEA6C
:100E00001C1CE0D1FD2A3FF650AF8B4240EBC25094
:100E100008BF20F0010070470CF0004C4CEA502055
:100E20007F32C2BFD2F1FF0340EAC250704740F4A4
:100E300000004FF00003013A37E792F0000F00F096
:100E4000004C02BF400010F4000F013AF9D040EA14
:100E50000C0093F0000F01F0004C02BF490011F4A8
:100E6000000F013BF9D041EA0C0195E70CEAD153A0
:100E700092EA0C0F08D142027FF47DAF93EA0C0F87
:100E80007FF470AF084676E793EA0C0F04D14B026B
:100E90003FF44CAF08466EE730F0004C18BF31F01D
:100EA000004CCAD130F000427FF45CAF31F0004317
:100EB0007FF43CAF5FE700BF4FF0FF3C06E000BFB0
:100EC0004FF0010C02E000BF4FF0010C4DF804CDD3
:100ED0004FEA40024FEA41037FEA226C18BF7FEAE3
:100EE000236C11D001B052EA530C18BF90EA010FE5
:100EF00058BFB2EB030088BFC81738BF6FEAE17074
:100F000018BF40F0010070477FEA226C02D15FEA0F
:100F1000402C05D17FEA236CE4D15FEA412CE1D07B
:100F20005DF8040B704700BF844608466146FFE742
:100F30000FB5FFF7C9FF002848BF10F1000F0FBD24
:100F40004DF808EDFFF7F4FF0CBF012000205DF81D
:100F500008FB00BF4DF808EDFFF7EAFF34BF0120A2
:100F600000205DF808FB00BF4DF808EDFFF7E0FF3B
:100F700094BF012000205DF808FB00BF4DF808ED8C
:100F8000FFF7D2FF94BF012000205DF808FB00BFEF
:100F90004DF808EDFFF7C8FF34BF012000205DF8D1
:100FA00008FB00BF4FEA4002B2F1FE4F0FD34FF0F3
:100FB0009E03B3EB12620DD94FEA002343F00043C6
:100FC00010F0004F23FA02F018BF404270474FF074
:100FD0000000704712F1610F01D1420205D110F0FB
:100FE000004008BF6FF0004070474FF000007047AE
:100FF00080B582B000AF786039603A68796804489B
:1010000002F0E3FF034618460837BD4680BD00BF27
:101010003005002080B487B000AFF860B9607A6016
:1010200000237B610BE0BA687B6913441946FA68B8
:101030007B6913440A781A707B6901337B617A6992
:101040007B689A42EFD100BF00BF1C37BD4680BC11
:1010500070472DE9B0438CB000AFF860B9607A609A
:1010600000237B61BB68FB6101233B6200233B6182
:1010700003F04EF807F1100207F114031146184669
:1010800003F02EF97B689B08FB847B689AB2FB8C8B
:101090009B009BB2D31ABB840023FB8527E0FA8D0B
:1010A000BB68D018FB8D0333FA6813441B781A060B
:1010B000FB8D0233F9680B441B781B041A43FB8D2C
:1010C0000133F9680B441B781B021343FA8DF9684E
:1010D0000A441278134300229846914642464B46F2
:1010E0000146022002F0A4FFFB8D0433FB85FA8D3C
:1010F000FB8C9B009A42D2D1BB8C002B3FD00023AB
:10110000BB62BB8C032B14D1FB8D0233FA681344F2
:101110001B781A06FB8D0133F9680B441B781B04FE
:101120001A43FB8DF9680B441B781B021343BB6207
:1011300019E0BB8C022B0DD1FB8D0133FA681344EF
:101140001B781A06FB8DF9680B441B781B041343AC
:10115000BB6208E0BB8C012B05D1FB8DFA68134400
:101160001B781B06BB62FA8DBB68D118BB6A0022D4
:101170001C46154622462B46022002F059FF02F07B
:10118000EDFF00BF3037BD46BDE8B08380B582B00B
:1011900000AF0346FB71FB79002B05D001228021B3
:1011A000074803F0E0FA04E000228021044803F03D
:1011B000DAFA044AFB79137000BF0837BD4680BDD8
:1011C00000080140A401002080B400AF064B1B784A
:1011D000032B04D1054B1B680133044A136000BF85
:1011E000BD4680BC704700BF9C010020A8010020C4
:1011F00080B500AF1E4B1B78032B37D801A252F8E5
:1012000023F000BF151200081D1200082512000867
:101210003D1200080020FFF7B9FF27E00120FFF78B
:10122000B5FF23E0134B5B78002B03D00120FFF7C1
:10123000ADFF1BE00020FFF7A9FF17E00D4B1B7867
:10124000002B08D00B4B00221A700B4B00221A60A7
:101250000120FFF79BFF084B1B68132B05D90020CB
:10126000FFF794FF044B00221A6000BF00BF80BD4F
:101270009C010020A0010020A801002080B500AF43
:101280000D4B1B7883F00103DBB2002B12D00B4B0C
:101290001B78002B0ED00A4B1B680133084A1360E1
:1012A000074B1B68642B05D1002000F00BF8044BA2
:1012B00000221A6000BF80BDB0010020B4010020F0
:1012C000B801002080B483B000AF0346FB802D4BF3
:1012D0001B78002B03D0FB885B429BB2FB802A4B20
:1012E00000221A60B7F90630002B0DD1274B1B687E
:1012F0004FF47A725A63254B1B684FF47A729A63E3
:10130000234B00221A7038E0B7F90630002B18DAA8
:101310001E4B1B684FF47A725A63B7F90620194BBB
:101320005B8819464FF47A7393FBF1F392FBF3F366
:1013300003F57A72154B1B689A63154B01221A70DC
:101340001BE0B7F90630002B17DDB7F906200D4B6F
:101350005B8819464FF47A7393FBF1F392FBF3F336
:10136000C3F57A72094B1B685A63084B1B684FF42C
:101370007A729A63064B01221A7000BF0C37BD4681
:1013800080BC7047AC010020B80100203805002067
:10139000B401002080B400AF1C4B1B685B6BB3F53D
:1013A0007A7F13D0194B1B685B6B1BB2C3F57A7342
:1013B0009BB2174A528811464FF47A7292FBF1F2AF
:1013C00092B202FB03F39BB21BB21AE04FF08043D0
:1013D0009B6BB3F57A7F13D00C4B1B689B6B1BB2D6
:1013E000A3F57A739BB20A4A528811464FF47A7277
:1013F00092FBF1F292B202FB03F39BB21BB200E04C
:1014000000231846BD4680BC704700BF3805002049
:10141000AC01002080B500AF0021044805F03CFD80
:101420000421024805F038FD00BF80BD38050020CA
:1014300080B500AF024805F0A9FC00BF80BD00BF29
:101440008005002080B500AF054805F09FFC044BE7
:101450001B6800225A62024805F046FC00BF80BDAE
:101460008005002090B589B000AF6A4B1B68FB6017
:10147000684B5B68F9681846FFF7C4FA0346BB601F
:10148000654B1B681946F868FFF7BCFA03467B609A
:101490004FF00003FB61614B9B8C1846FFF768FB24
:1014A00003461946B868FFF769FD0346002B09D0CB
:1014B0005A4B1B68BB61594B5B687B61574B9B6800
:1014C0003B612CE0554B9B8C1846FFF751FB0346C4
:1014D0001946B868FFF73EFD0346002B16D04F4B68
:1014E000DB8C1846FFF744FB03461946B868FFF744
:1014F00045FD0346002B09D0484BDB68BB61474BD9
:101500001B697B61454B5B693B6108E0434B9B6911
:10151000BB61424BDB697B61404B1B6A3B61B96835
:101520007869FFF779FB03461A463D4B1B6819465D
:101530001046FFF769FA03461A46394B1A60374BD3
:1015400093F82830002B0ED0354B1C687968B869A9
:10155000FFF762FB034619462046FFF753FA03469E
:101560001A462F4B1A602E4B1B682E491846FFF760
:101570000FFD0346002B03D0294B2A4A1A600BE0CB
:10158000274B1B6828491846FFF7E4FC0346002B4D
:1015900002D0234B244A1A60204B93F8283083F062
:1015A0000103DBB2002B05D0B968B869FFF734FB43
:1015B0000346FB611A4B1C6879683869FFF72CFBFE
:1015C000034619462046FFF71DFA03461946F869F7
:1015D000FFF71AFA0346FB611249F869FFF7D8FCD6
:1015E0000346002B02D00F4BFB6108E00E49F8695F
:1015F000FFF7B0FC0346002B01D00B4BFB610B4AFD
:10160000FB695360044AFB68136000BF2437BD4682
:1016100090BD00BFE8010020F8010020BC010020BF
:10162000FC01002000007A4400007AC4F001002090
:1016300080B500AFFFF716FF034B5B68184600F05C
:10164000ADFE00BF80BD00BFF001002080B483B0BC
:1016500000AF0346FB80FB88642203FB02F2074BCA
:101660001B68DA62FB88642202FB03F31A46034B11
:10167000DA6000BF0C37BD4680BC70478005002093
:1016800080B500AF0A4B1B7883F00103DBB2002B5F
:101690000CD0084B1B68084A1360084B4FF000023F
:1016A0001A60FFF7CFFE024B01221A7000BF80BD07
:1016B000F0010020E8010020F8010020FC010020DA
:1016C00080B500AF074B1B78002B08D0FFF7B0FEAA
:1016D0004FF0000000F062FE024B00221A7000BFC3
:1016E00080BD00BFF001002080B500AF164802F0B9
:1016F00021F80246154B1B681344144A1360144B1F
:101700001B8801339AB2124B1A80114B1B88642B31
:1017100015D10E4B1B681846FFF726FA03460D49F4
:101720001846FFF72DFB03461A460B4B1A6000F0D4
:1017300045FE074B00221A80044B00221A60074B1B
:1017400001221A7000BF80BD0005002004020020A5
:10175000080200200000C842000200200A02002007
:1017600080B500AF00BF0A4802F050FA0346002BD4
:10177000F9D1074801F028FF00BF064B1B7883F022
:101780000103DBB2002BF8D100BF00BF80BD00BF5A
:10179000000500200A02002080B500AF024805F0D5
:1017A000F5FA00BF80BD00BFC805002080B500AFBE
:1017B000054805F0EBFA044B1B6800225A62024808
:1017C00005F092FA00BF80BDC805002080B400AFCC
:1017D000034B1B685B6A1846BD4680BC704700BF60
:1017E000C805002080B582B000AF0023FB7124E063
:1017F000FB790133FB710221154802F09DFF03467E
:10180000BB7100237B7110E00221114802F094FFAC
:1018100003461A46BB79934204D0FB79052B08D1C5
:10182000002310E07B7901337B717B79052BEBD1B1
:1018300000E000BF7B79052B03D0FB79052BD7D1C6
:1018400000E000BFBB7918460837BD4680BD00BF29
:10185000000C014080B500AF0D4B1B78002B03D16D
:101860000C4B1B68002B10D00B4B1A680B4B1B68E2
:101870009A4205D8074B00221A6000F0EDFD04E003
:10188000064B1B680133054A136000BF80BD00BFD3
:101890001C020020100200200C0200201802002070
:1018A00080B400AF034B00221A7000BFBD4680BC5D
:1018B000704700BF1C02002080B582B000AFFFF768
:1018C00091FF0346012B08D1FFF770FF144B002254
:1018D0001A60144B01221A701EE0124B1B78002B69
:1018E0001AD0FFF773FF034601331846FFF73CF9A0
:1018F00003460D491846FFF743FA03467B60FFF79E
:101900004BFF084B00221A70084B01221A60074A4D
:101910007B68536000F0BCFD00BF0837BD4680BD4A
:10192000180200201C0200200080BB46100200208C
:1019300080B487B000AFF860B9607A6000237B6143
:101940000BE0BA687B6913441946FA687B69134453
:101950000A781A707B6901337B617A697B689A42E5
:10196000EFD100BF00BF1C37BD4680BC70470000F0
:1019700080B586B000AF78603960394B5B78002B5A
:1019800040F0C3813B6803F00303002B40F0BD81AE
:101990000023BB600023FB6007237B6102E07B69BF
:1019A00001337B617B6903F00303002BF7D17B6874
:1019B00001331B78002B29D17B681B781A467B6981
:1019C000934223D13A687B699A421FD107F10800FC
:1019D0003B68043B7A68134404221946FFF7A8FFCA
:1019E0003B689B08013B1A4679681E4802F0EDFAF5
:1019F000F860BB68FA689A4240F089817B689A78FF
:101A0000174B9A70164B01225A7080E102233B61FA
:101A10003B693E333B613B6906333B613B690433C1
:101A20003B6102E03B6901333B613B6903F0030327
:101A3000002BF7D17B6801331B78012B16D17B6813
:101A40001B781A463B69934210D13B68402B0DD15D
:101A500005487B6840221946FFF76AFF58E100BF3E
:101A6000200400203005002020030020AA4B1B7812
:101A70001A463B69934240F04181A74B5B78012BAA
:101A800040F03C813B6840333A699A4240F03681ED
:101A9000A2487B683A681946FFF74AFF07F1080039
:101AA0003B69043B9C4A134404221946FFF740FF5C
:101AB0003B699B08013B1A469749994802F085FA11
:101AC000F860BB68FA689A4240F0188102233B60D4
:101AD00094483B68904A134402221946FFF728FFB6
:101AE0003B6802333B6090483B688B4A13440222B8
:101AF0001946FFF71DFF3B6802333B608B483B688C
:101B0000854A134401221946FFF712FF3B6801334F
:101B10003B6087483B68804A134401221946FFF71F
:101B200007FF3B6801333B6082483B687A4A1344B5
:101B300001221946FFF7FCFE3B6801333B607E48FB
:101B40003B68754A134404221946FFF7F1FE3B68CF
:101B500004333B6079483B686F4A134404221946BA
:101B6000FFF7E6FE3B6804333B6075483B686A4A12
:101B7000134404221946FFF7DBFE3B6804333B6045
:101B800070483B68644A134401221946FFF7D0FEAF
:101B90003B6801333B606C483B685F4A1344012259
:101BA0001946FFF7C5FE3B6801333B6067483B6859
:101BB000594A134404221946FFF7BAFE3B6804331E
:101BC0003B6063483B68544A134404221946FFF7BC
:101BD000AFFE3B6804333B605E483B684E4A1344AB
:101BE00004221946FFF7A4FE3B6804333B605A48C1
:101BF0003B68494A134404221946FFF799FE3B68A3
:101C000004333B6055483B68434A13440422194659
:101C1000FFF78EFE3B6804333B6051483B683E4A09
:101C2000134404221946FFF783FE3B6804333B60EC
:101C30004C483B68384A134404221946FFF778FEA3
:101C40003B6804333B6048483B68334A13440422F2
:101C50001946FFF76DFE3B6804333B6043483B6821
:101C60002D4A134404221946FFF762FE3B680433F1
:101C70003B603F483B68284A134402221946FFF75D
:101C800057FE3B6802333B603A483B68224A1344A4
:101C900002221946FFF74CFE3B6802333B60364890
:101CA0003B681D4A134401221946FFF741FE3B6879
:101CB00001333B6031483B68174A134404221946FC
:101CC000FFF736FE3B6804333B602D483B68124A01
:101CD000134401221946FFF72BFE3B6801333B609A
:101CE00028483B680C4A134401221946FFF720FE9E
:101CF0003B6801333B60244B02225A70064B0022A2
:101D00001A70054BFF225A7002E000BF00E000BFCE
:101D10001837BD4680BD00BF2003002060030020AF
:101D20003005002024040020260400202804002080
:101D3000290400202A0400202C0400203004002064
:101D40003404002038040020390400203C04002022
:101D50004004002044040020480400204C040020DB
:101D60005004002054040020580400205C0400208B
:101D70006004002062040020640400206804002045
:101D80006C0400206D0400202004002080B584B085
:101D900000AF78600023FB73FB7B0133FB73FB7B9D
:101DA000394A0121D154FB7B0133FB73FB7B364A5B
:101DB000134418467B6801221946FFF7B9FDFB7BE7
:101DC0000133FB73FB7B304A134418467B680433B2
:101DD00004221946FFF7ACFDFB7B0433FB73FB7B4E
:101DE000294A134418467B68083304221946FFF732
:101DF0009FFDFB7B0433FB73FB7B234A1344184694
:101E00007B680C3302221946FFF792FDFB7B0233FD
:101E1000FB7306E0FB7B1C4A0021D154FB7B0133A2
:101E2000FB73FB7B03F00303DBB2002BF2D1FB7BE4
:101E30000433DAB2144B1A70FB7B9B08DBB21A46F0
:101E40001149124802F0C1F80346BB60FB7B0E4A01
:101E50001344184607F1080304221946FFF768FDEA
:101E6000FB7B0433FB73FB7B9BB2194606480AF0ED
:101E7000D1F8074B00229A70054B00225A7000BF20
:101E80001037BD4680BD00BF200200203005002075
:101E90002004002080B584B000AF78600023FB737D
:101EA000FB7B0133FB73FB7BAE4A0021D154FB7BF0
:101EB0000133FB73FB7BAB4A134418467B68022259
:101EC0001946FFF735FDFB7B0233FB73FB7BA54A0D
:101ED000134418467B68023302221946FFF728FD97
:101EE000FB7B0233FB73FB7B9E4A134418467B68E3
:101EF000043301221946FFF71BFDFB7B0133FB7303
:101F0000FB7B984A134418467B6805330122194627
:101F1000FFF70EFDFB7B0133FB73FB7B914A134400
:101F200018467B68063301221946FFF701FDFB7B4B
:101F30000133FB73FB7B8B4A134418467B680833E1
:101F400004221946FFF7F4FCFB7B0433FB73FB7B95
:101F5000844A134418467B680C3304221946FFF761
:101F6000E7FCFB7B0433FB73FB7B7E4A1344184680
:101F70007B68103304221946FFF7DAFCFB7B04333D
:101F8000FB73FB7B774A134418467B6814330122AA
:101F90001946FFF7CDFCFB7B0133FB73FB7B714ADA
:101FA000134418467B68153301221946FFF7C0FC1D
:101FB000FB7B0133FB73FB7B6A4A134418467B6847
:101FC000183304221946FFF7B3FCFB7B0433FB7381
:101FD000FB7B644A134418467B681C330422194671
:101FE000FFF7A6FCFB7B0433FB73FB7B5D4A1344CA
:101FF00018467B68203304221946FFF799FCFB7BC7
:102000000433FB73FB7B574A134418467B68243325
:1020100004221946FFF78CFCFB7B0433FB73FB7B2C
:10202000504A134418467B68283304221946FFF7A8
:102030007FFCFB7B0433FB73FB7B4A4A134418464B
:102040007B682C3304221946FFF772FCFB7B0433B8
:10205000FB73FB7B434A134418467B6830330422EE
:102060001946FFF765FCFB7B0433FB73FB7B3D4AA2
:10207000134418467B68343304221946FFF758FC92
:10208000FB7B0433FB73FB7B364A134418467B68A7
:10209000383304221946FFF74BFCFB7B0433FB73F8
:1020A000FB7B304A134418467B683C3302221946B6
:1020B000FFF73EFCFB7B0233FB73FB7B294A134497
:1020C00018467B683E3302221946FFF731FCFB7B42
:1020D0000233FB73FB7B234A134418467B6840336F
:1020E00001221946FFF724FCFB7B0133FB7306E05A
:1020F000FB7B1C4A0021D154FB7B0133FB73FB7B30
:1021000003F00303DBB2002BF2D1FB7B0433DAB222
:10211000144B1A70FB7B9B08DBB21A46114912481C
:1021200001F053FF0346BB60FB7B0E4A1344184685
:1021300007F1080304221946FFF7FAFBFB7B04337F
:10214000FB73FB7B9BB21946064809F063FF074B04
:1021500000229A70054B00225A7000BF1037BD460E
:1021600080BD00BF20020020300500202004002098
:1021700080B400AF0A4B93F89C32022B04D0084B7A
:1021800093F89C32032B01D1012300E0002303F0DC
:102190000103DAB2034B1A7000BFBD4680BC704722
:1021A0003C0600202004002080B582B000AF78609B
:1021B0007B681B68044A934201D1FFF795FA00BF80
:1021C0000837BD4680BD00BF0024014080B582B005
:1021D00000AF78607B681B68084A934202D1FFF722
:1021E00027FA06E07B681B68054A934201D1FFF796
:1021F00057FB00BF0837BD4680BD00BF000400404C
:102200000008004080B582B000AF0346FB80FB8829
:10221000022B01D1FFF750FB00BF0837BD4680BD40
:1022200080B500AFFFF716FBFFF728F8FEF7CCFFED
:1022300000BF80BD80B500AF00F026FA00F0FEFBC5
:10224000FFF7E8F8FFF78CFA00BF80BD90B585B0C6
:1022500000AF484B5B78012B02D0022B13D06FE00C
:10226000444B9B78012B02D0022B05D007E000F0F5
:102270000BFA00F0E3FB02E000F03CFC00BF3E483C
:10228000FFF708FE5CE03C4A3C4B104619464423ED
:102290001A460AF0C1FA00F0D1FB394B5B79012BE9
:1022A00002D0022B14D028E0364B1C68324B1B881E
:1022B0001846FEF75DFC034619462046FEF768FE09
:1022C0000346002B00D118E02F48FEF7FBFF14E077
:1022D0002C4B1C68284B5B881846FEF749FC0346CC
:1022E00019462046FEF736FE0346002B00D103E0D8
:1022F0004FF47A70FEF7E6FF00BF214B1B79002BED
:1023000006D01F4B1B68214A5360FFF7B9F905E05F
:10231000194B9B79002B01D0FFF7D2F91C4B1B788E
:102320003B701A4B5B687B60164B1B68BB60FFF70A
:1023300031F80346BB813B461846FFF727FD00BF37
:102340000C4B1B7883F00103DBB2002B05D0114B43
:102350001B68002B01D1FFF7B3F9FFF709FF0C4B06
:102360001A780D4B5A70FEF743FF00BF1437BD4675
:1023700090BD00BF20040020700400202404002031
:10238000680400200002002018FCFFFFE801002084
:10239000F001002010020020A001002080B582B0D2
:1023A00000AF78607868FEF7FDFD03461BB2184663
:1023B000FEF788FF00BF0837BD4680BD98B500AF67
:1023C000204B1B68204A1360204B1B7883F00103CD
:1023D000DBB2002B33D01E4B1B78002B2FD0194BB8
:1023E0001C681C4B1B881846FEF7C2FB03461946A7
:1023F0002046FEF7B9FD0346002B08D0FEF7CAFFC2
:102400000346002B03DA0020FEF75CFF17E00D4BBC
:102410001C68104B5B881846FEF7AAFB034619465A
:102420002046FEF7ABFD0346002B00D107E0FEF788
:10243000B1FF0346002B02DD0020FEF743FF00BF83
:1024400098BD00BF00020020E8010020F00100203C
:10245000B40100207004002080B500AF0A4B9B79C6
:1024600083F00103DBB2002B0AD1074B9B79002BD1
:1024700008D0064B1B7883F00103DBB2002B01D0A0
:10248000FFF71EF900BF80BD70040020200400206B
:10249000F0B583B000AF664B1B7883F00103DBB26D
:1024A000002B0CD1634B9B7983F00103DBB2002B33
:1024B00000F0B5805E4B1B78002B00F0B0805E4BC7
:1024C0005B685C4AD26811461846FEF74DFD03462C
:1024D000002B00F0A280584B5B68564A9268114668
:1024E0001846FEF74BFD0346002B00F09680514B3B
:1024F0005B881846FEF738FB04464E4B1B8818468F
:10250000FEF732FB034619462046FEF77BFA0346E8
:102510001C46494B5B68474A926811461846FEF7CD
:1025200071FA03461D46434BDB68424A92681146E6
:102530001846FEF767FA034619462846FEF720FCC0
:10254000034619462046FEF767FB03461C46394BF7
:102550001B881846FEF708FB034619462046FEF77F
:1025600053FA03467B60334B1B881846FEF7FCFA90
:10257000034619467868FEF745FA03461D462F4B79
:102580005C682C4B1B881846FEF7EEFA034619468A
:102590002046FEF737FA034619462846FEF732FA78
:1025A000034623F000431846FDF736FF04460D4668
:1025B000204B5B881846FEF7D7FA06461D4B1B8852
:1025C0001846FEF7D1FA034619463046FEF71AFAC6
:1025D00003461B491846FEF7D3FB03461846FDF792
:1025E0001BFF02460B4620462946FEF797F8024697
:1025F0000B46104619460CA3D3E90023FEF7EAF96F
:102600000346002B02D00F4B01221A700B4A7B6845
:102610005360FFF735F800BF01E0FFF751F800BF46
:102620000C37BD46F0BD00BF0000002085EBA13F88
:10263000200400207004002010020020E801002087
:102640000000C842A001002080B487B000AFF8604D
:10265000B9607A6000237B610BE0BA687B69134440
:102660001946FA687B6913440A781A707B6901334A
:102670007B617A697B689A42EFD100BF00BF1C374B
:10268000BD4680BC7047000080B584B000AF002319
:10269000FB7302E0FB7B0133FB73FB7B03F0030363
:1026A000002BF7D1FB7B48331A4612491248FEF73C
:1026B000B1FCFB7B44339B0819460F48FEF798FC9E
:1026C000B86000237B60381DFB7B44330A4A134407
:1026D00004221946FFF7B8FF7B68BA689A4211D006
:1026E000064A074B1046194644231A460AF094F846
:1026F0009BE100BF00FC0008B4040020700400202F
:10270000C0C80008A84BA94944221846FFF79CFFFF
:10271000A54B1B8800229342C0F07F81A24B1B88EF
:1027200040F67F72934200F278819F4B5B88802253
:102730009342C0F072819C4B5B8840F6FF729342DB
:1027400000F26B81984B1B7900229342C0F06581A7
:10275000954B1B796422934200F25F81924B5B7927
:1027600000229342C0F059818F4B5B790122934242
:1027700000F253818C4B9B7900229342C0F04D8133
:10278000894B5B790122934200F24781864B9B681B
:10279000874A11461846FEF7DDFB0346002B40F042
:1027A0003C81814B9B68834A11461846FEF7F0FB3B
:1027B0000346002B40F031817B4BDB684FF07C52AD
:1027C00011461846FEF7C6FB0346002B40F0258154
:1027D000754BDB68784A11461846FEF7D9FB03466D
:1027E000002B40F01A81704B1B6906229342C0F007
:1027F00014816D4B1B69C822934200F20E816A4B13
:102800001B7D00229342C0F00881674B1B7D032291
:10281000934200F20281644B5B7D00229342C0F040
:10282000FC80614B5B7D0122934200F2F6805E4B9F
:102830009B694FF0000211461846FEF78BFB0346DA
:10284000002B40F0EA80584B9B695C4A11461846C1
:10285000FEF79EFB0346002B40F0DF80524BDB6906
:102860004FF0000211461846FEF774FB0346002B9A
:1028700040F0D3804C4BDB69504A11461846FEF7B6
:1028800087FB0346002B40F0C880474B1B6A4FF084
:10289000000211461846FEF75DFB0346002B40F090
:1028A000BC80414B1B6A454A11461846FEF770FB37
:1028B0000346002B40F0B1803B4B5B6A4FF00002B7
:1028C00011461846FEF746FB0346002B40F0A58054
:1028D000354B5B6A394A11461846FEF759FB0346E9
:1028E000002B40F09A80304B9B6A4FF0000211465B
:1028F0001846FEF72FFB0346002B40F08E802A4B34
:102900009B6A2E4A11461846FEF742FB0346002BEF
:1029100040F08380244BDB6A4FF0000211461846DA
:10292000FEF718FB0346002B77D11F4BDB6A234AC7
:1029300011461846FEF72CFB0346002B6DD11A4BAF
:102940001B6B4FF0000211461846FEF703FB0346CF
:10295000002B62D1144B1B6B184A11461846FEF728
:1029600017FB0346002B58D10F4B5B6B4FF0000257
:1029700011461846FEF7EEFA0346002B4DD10A4BDE
:102980005B6B0E4A11461846FEF702FB0346002B0E
:1029900043D1054B9B6B4FF0000211461846FEF7E2
:1029A000D9FA0346002B0BE070040020B404002089
:1029B000CDCCCC3D66660640CDCC2C400000C84254
:1029C0002BD11B4B9B6B1B4A11461846FEF7E0FAB6
:1029D0000346002B21D1164B9B8F002293421CD320
:1029E000134B9B8F40F6FF72934216D8104BDB8F30
:1029F0000022934211D30E4BDB8F40F6FF729342BD
:102A00000BD80B4B93F840300522934205D3084B6B
:102A100093F840306422934207D9054A064B10468A
:102A2000194644231A4609F0F7FE1037BD4680BD0B
:102A3000700400200000C842C0C8000880B500AF84
:102A4000274B1B799BB21A46920013445B009AB243
:102A5000244B5A80224B5A79224B1A70204B1B6907
:102A6000214A13601E4B1A7D204B1A701C4B5A7D55
:102A70001F4B83F828201A4B9B691D4A1360184B83
:102A8000DB691B4A5360164B1B6A194A9360144B4F
:102A90005B6A174AD360124B9B6A154A1361104B4D
:102AA000DB6A134A53610E4B1B6B114A93610C4B4B
:102AB0005B6B0F4AD3610A4B9B6B0D4A1362084B49
:102AC0009A8F0B4B9A84064BDA8F094BDA84044BAE
:102AD00093F840309BB21846FEF7B8FD00BF80BDAA
:102AE00070040020AC0100200C0200209C0100209A
:102AF000BC01002080B582B000AF1A4B1A494422B5
:102B00001846FFF7A1FD0023FB7107E0FB79443372
:102B1000144A0021D154FB790133FB71FB7903F096
:102B20000303002BF2D1FB7944339B0819460D486F
:102B3000FEF75EFA03463B60FB794433094A1344CF
:102B400018463B4604221946FFF77EFDFB794833C1
:102B50001A4606490348FEF77CFA00BF0837BD460F
:102B600080BD00BFB40400207004002000FC0008F9
:102B700080B500AF00F0EEFB00F013F800F0E6F9CE
:102B800000F06CF800F0A8F800F0BAF800F03AF99C
:102B900000F086F909F07AF9FFF74CFBFFF756FBD6
:102BA000FCE780B594B000AF07F12803282200218C
:102BB000184609F03FFE07F1140300221A605A601C
:102BC0009A60DA601A613B1D00221A605A609A60AE
:102BD000DA600123BB624FF48033FB6200233B6366
:102BE0000123BB6302237B644FF48033BB644FF447
:102BF000E013FB6407F12803184603F0A9FA034623
:102C0000002B01D000F004FA0F237B610223BB618B
:102C10000023FB614FF480633B6200237B6207F17A
:102C200014030221184603F015FD0346002B01D0C2
:102C300000F0EEF912237B604FF40043FB600023A9
:102C40003B613B1D184603F089FE0346002B01D073
:102C500000F0DEF900BF5037BD4680BD80B584B0BE
:102C600000AF3B1D00221A605A609A60184B194A47
:102C70001A60174B00229A60154B01221A73144BED
:102C800000221A75124B4FF46022DA61104B0022B9
:102C90005A600F4B01221A610D4800F0BDFB03463C
:102CA000002B01D000F0B4F904237B600123BB604A
:102CB0000723FB603B1D1946054800F013FE034641
:102CC000002B01D000F0A4F900BF1037BD4680BD35
:102CD000000500200024014080B500AF064B074AE4
:102CE0001A60054801F055F90346002B01D000F0A9
:102CF0008FF900BF80BD00BF3005002000300240CA
:102D000080B58EB000AF07F1280300221A605A6028
:102D10009A60DA6007F1200300221A605A603B1DB6
:102D200000221A605A609A60DA601A615A619A61E8
:102D3000334B4FF080421A60314B07225A60304BC0
:102D400000229A602E4B4FF47A72DA602C4B0022EC
:102D50001A612B4B00229A61294803F075FF034644
:102D6000002B01D000F054F94FF48053BB6207F1FF
:102D700028031946224804F051FB0346002B01D0DA
:102D800000F046F91E4804F02FF80346002B01D04E
:102D900000F03EF900233B6200237B6207F1200331
:102DA0001946174804F0C6FE0346002B01D000F078
:102DB0002FF960237B604FF47A73BB600223FB60C2
:102DC00000237B613B1D002219460D4804F068FA80
:102DD0000346002B01D000F01BF93B1D04221946CD
:102DE000074804F05DFA0346002B01D000F010F90B
:102DF000034800F0FBF900BF3837BD4680BD00BF77
:102E00003805002080B586B000AF07F10803002226
:102E10001A605A609A60DA603B4600221A605A6073
:102E20001D4B1E4A1A601C4B40F2CF225A601A4BAF
:102E300000229A60184BC722DA60174B00221A61F1
:102E4000154B80229A61144803F0FEFE0346002BC6
:102E500001D000F0DDF84FF48053BB6007F10803A8
:102E600019460D4804F0DAFA0346002B01D000F0B1
:102E7000CFF800233B6000237B603B4619460648A1
:102E800004F058FE0346002B01D000F0C1F800BF4B
:102E90001837BD4680BD00BF8005002000040040FB
:102EA00080B586B000AF07F1080300221A605A60AF
:102EB0009A60DA603B4600221A605A60214B224A2F
:102EC0001A60204B02225A601E4B00229A601D4B52
:102ED0004FF6FF72DA601B4B00221A61194B002279
:102EE0009A61184803F0B0FE0346002B01D000F0B1
:102EF0008FF84FF48053BB6007F10803194611485F
:102F000004F08CFA0346002B01D000F081F8082170
:102F10000C4804F063F80346002B01D000F078F869
:102F200000233B6000237B603B461946054804F0C4
:102F300001FE0346002B01D000F06AF800BF1837ED
:102F4000BD4680BDC80500200008004080B588B09F
:102F500000AF07F1100300221A605A609A60DA602D
:102F6000274B9B69264A43F020039361244B9B69BE
:102F700003F02003FB60FB68214B9B69204A43F070
:102F8000040393611E4B9B6903F00403BB60BB68A1
:102F90001B4B9B691A4A43F008039361184B9B69CA
:102FA00003F008037B607B6800228021154801F054
:102FB000DAFB80233B6101237B610223BB61032396
:102FC000FB6107F1100319460E4801F031FA0223A4
:102FD0003B610D4B7B610223BB6107F11003194676
:102FE0000A4801F025FA00220021072000F09BFF8B
:102FF000072000F0B4FF00BF2037BD4680BD00BFF2
:10300000001002400008014000003110000C014097
:1030100080B400AF72B600BFFEE7000080B485B098
:1030200000AF154B9B69144A43F001039361124BA7
:103030009B6903F00103BB60BB680F4BDB690E4A61
:1030400043F08053D3610C4BDB6903F080537B600A
:103050007B680A4B5B68FB60FB6823F0E063FB6006
:10306000FB6843F00073FB60044AFB68536000BFD9
:103070001437BD4680BC704700100240000001407C
:1030800080B588B000AF786007F1100300221A60A5
:103090005A609A60DA607B681B68184A934229D1AB
:1030A000174B9B69164A43F400739361144B9B6959
:1030B00003F40073FB60FB68114B9B69104A43F0FB
:1030C000040393610E4B9B6903F00403BB60BB6870
:1030D00010233B6103237B6107F110031946094864
:1030E00001F0A6F900220221122000F01CFF12209C
:1030F00000F035FF00BF2037BD4680BD00240140F1
:10310000001002400008014080B485B000AF786034
:103110007B681B68094A93420BD1094B5B69084ADB
:1031200043F040035361064B5B6903F04003FB60CF
:10313000FB6800BF1437BD4680BC704700300240BA
:103140000010024080B586B000AF78607B681B68D5
:10315000B3F1804F0CD1224BDB69214A43F00103CC
:10316000D3611F4BDB6903F001037B617B6932E0B4
:103170007B681B681B4A934214D1194BDB69184AC0
:1031800043F00203D361164BDB6903F002033B619A
:103190003B69002201211D2000F0C5FE1D2000F02A
:1031A000DEFE18E07B681B680F4A934213D10C4B7C
:1031B000DB690B4A43F00403D361094BDB6903F07D
:1031C0000403FB60FB68002200211E2000F0ABFE20
:1031D0001E2000F0C4FE00BF1837BD4680BD00BFF2
:1031E00000100240000400400008004080B588B094
:1031F00000AF786007F1100300221A605A609A60ED
:10320000DA607B681B68B3F1804F17D10D4B9B6967
:103210000C4A43F0040393610A4B9B6903F00403D7
:10322000FB60FB6803233B6102237B610323FB619B
:1032300007F110031946044801F0FAF800BF2037DF
:10324000BD4680BD001002400008014080B400AFC0
:10325000FEE780B400AFFEE780B400AFFEE780B4C5
:1032600000AFFEE780B400AFFEE780B400AF00BF60
:10327000BD4680BC704780B400AF00BFBD4680BC77
:10328000704780B400AF00BFBD4680BC704780B5BA
:1032900000AF00F0A5F8FEF7C3FF00BF80BD80B50A
:1032A00000AF022001F078FA00BF80BD80B500AF0A
:1032B000024800F04BFA00BF80BD00BF00050020AF
:1032C00080B500AF024801F0B0FB00BF80BD00BF79
:1032D0000013002080B500AF024803F0D8FE00BF05
:1032E00080BD00BF8005002080B500AF024803F01C
:1032F000CEFE00BF80BD00BFC805002080B400AF77
:1033000000BFBD4680BC70470C480D490D4A0023E4
:1033100002E0D458C4500433C4188C42F9D30A4A8A
:103320000A4C002301E013600432A242FBD3FFF7F2
:10333000E5FF09F04DFAFFF71BFC70470000002085
:103340007C01002024C90008800100200C18002006
:10335000FEE7000080B500AF084B1B68074A43F04A
:1033600010031360032000F0D3FD042000F008F8E0
:10337000FFF754FE0023184680BD00BF0020024026
:1033800080B582B000AF7860124B1A68124B1B7880
:1033900019464FF47A73B3FBF1F3B2FBF3F318461B
:1033A00000F0EBFD0346002B01D001230EE07B680B
:1033B0000F2B0AD8002279684FF0FF3000F0B3FDE0
:1033C000064A7B681360002300E001231846083793
:1033D000BD4680BD00000020080000200400002041
:1033E00080B400AF054B1B781A46054B1B6813448D
:1033F000034A136000BFBD4680BC70470800002030
:103400001006002080B400AF024B1B681846BD4672
:1034100080BC70471006002080B586B000AF786091
:103420000023FB7500233B610023BB600023FB608E
:103430007B68002B01D10123BEE07B689B68002BD9
:103440007B689B6A002B09D17B680022DA627B686B
:10345000002283F824207868FFF712FE786800F0D5
:1034600093FB0346FB757B689B6A03F01003002BFC
:1034700040F09980FB7D002B40F095807B689B6A33
:1034800023F4885323F0020343F002027B689A621C
:103490007B685A687B68DB691A437B681B7B5B002F
:1034A0001343BA681343BB607B689B68B3F5807FA6
:1034B00003D07B689B68012B02D14FF4807300E03E
:1034C00000233A6913433B617B681B7D012B19D1B3
:1034D0007B681B7B002B09D17B689B69013B5A03EE
:1034E0003B69134343F400633B610BE07B689B6AD9
:1034F00043F020027B689A627B68DB6A43F001023A
:103500007B68DA627B681B685B6823F469417B68CF
:103510001B683A690A435A607B681B689A68284BA3
:1035200013407A681268B9680B4393607B689B68A4
:10353000B3F5807F03D07B689B68012B04D17B6847
:103540001B69013B1B05FB607B681B68DB6A23F47E
:1035500070017B681B68FA680A43DA627B681B6843
:103560009A68184B1340BA689A420BD17B680022C4
:10357000DA627B689B6A23F0030343F001027B68F5
:103580009A6218E07B689B6A23F0120343F01002F2
:103590007B689A627B68DB6A43F001027B68DA62CF
:1035A0000123FB7507E07B689B6A43F010027B6890
:1035B0009A620123FB75FB7D18461837BD4680BD16
:1035C000FDF7E1FFFE0E1FFF80B584B000AF78600D
:1035D0000023FB737B6893F82430012B01D1022375
:1035E000A0E07B68012283F82420786800F072FA5A
:1035F0000346FB73FB7B002B40F08F807B689B6A4C
:1036000023F4706323F0010343F480727B689A62B1
:103610007B681B68454A934205D1454B5B6803F4C0
:103620007023002B15D17B689B6A23F480127B6882
:103630009A627B681B685B6803F48063002B26D06A
:103640007B689B6A23F4405343F480527B689A6200
:103650001DE07B689B6A43F480127B689A627B68FA
:103660001B68334A934204D07B681B682F4A9342FD
:103670000DD12F4B5B6803F48063002B07D07B6870
:103680009B6A23F4405343F480527B689A627B68C0
:103690009B6A03F48053002B06D07B68DB6A23F01F
:1036A00006027B68DA6202E07B680022DA627B68ED
:1036B000002283F824207B681B686FF002021A60E6
:1036C0007B681B685A687B681B6842F020025A605E
:1036D0007B681B689B6803F46023B3F5602F13D1EC
:1036E0007B681B68114A934205D1114B5B6803F458
:1036F0007023002B08D17B681B689A687B681B6865
:1037000042F4A0029A600CE07B681B689A687B68B0
:103710001B6842F480129A6003E07B68002283F801
:103720002420FB7B18461037BD4680BD0028014091
:103730000024014080B483B000AF78607B681B68D0
:10374000DB6C18460C37BD4680BC704780B582B034
:1037500000AF78607B681B685B6803F02003202B58
:1037600040D17B681B681B6803F00203022B39D130
:103770007B689B6A03F01003002B05D17B689B6A72
:1037800043F400727B689A627B681B689B6803F451
:103790006023B3F5602F1DD17B681B7B002B19D1F3
:1037A0007B681B685A687B681B6822F020025A609D
:1037B0007B689B6A23F480727B689A627B689B6A51
:1037C00003F48053002B05D17B689B6A43F0010210
:1037D0007B689A627868FEF7E7FC7B681B686FF08D
:1037E00012021A607B681B685B6803F08003802B01
:1037F0004FD17B681B681B6803F00403042B48D17E
:103800007B689B6A03F01003002B05D17B689B6AE1
:1038100043F400527B689A627B681B689B6803F4E0
:10382000E043B3F5E04F12D07B681B685B6803F49C
:103830008063002B25D17B681B689B6803F46023A1
:10384000B3F5602F1DD17B681B7B002B19D17B68E2
:103850001B685A687B681B6822F080025A607B688C
:103860009B6A23F480527B689A627B689B6A03F4AC
:103870008073002B05D17B689B6A43F001027B6853
:103880009A62786800F06EFA7B681B686FF00C0231
:103890001A607B681B685B6803F04003402B14D1FF
:1038A0007B681B681B6803F00103012B0DD17B684B
:1038B0009B6A43F480327B689A62786800F009F86A
:1038C0007B681B686FF001021A6000BF0837BD46B5
:1038D00080BD80B483B000AF786000BF0C37BD46B8
:1038E00080BC704780B485B000AF78603960002339
:1038F000FB730023BB607B6893F82430012B01D15C
:103900000223DCE07B68012283F824203B685B68AB
:10391000062B1CD87B681B68596B3B685A6813469A
:103920009B001344053B1F2202FA03F3DB431940BB
:103930003B6818683B685A6813469B001344053B74
:1039400000FA03F27B681B680A435A633CE03B6859
:103950005B680C2B1CD87B681B68196B3B685A682A
:1039600013469B001344233B1F2202FA03F3DB435D
:1039700019403B6818683B685A6813469B0013441B
:10398000233B00FA03F27B681B680A431A631BE0BF
:103990007B681B68D96A3B685A6813469B001344CE
:1039A000413B1F2202FA03F3DB4319403B681868CE
:1039B0003B685A6813469B001344413B00FA03F2EC
:1039C0007B681B680A43DA623B681B68092B1CD9B9
:1039D0007B681B68D9683B681A6813465B00134410
:1039E0001E3B072202FA03F3DB4319403B68986849
:1039F0003B681A6813465B0013441E3B00FA03F24F
:103A00007B681B680A43DA6019E07B681B681969E8
:103A10003B681A6813465B001344072202FA03F35B
:103A2000DB4319403B6898683B681A6813465B00A3
:103A3000134400FA03F27B681B680A431A613B686F
:103A40001B68102B03D03B681B68112B32D17B689D
:103A50001B681D4A934225D17B681B689B6803F451
:103A60000003002B26D17B681B689A687B681B6863
:103A700042F400029A603B681B68102B1AD1134B6A
:103A80001B68134AA2FB03239A0C13469B001344A2
:103A90005B00BB6002E0BB68013BBB60BB68002B06
:103AA000F9D107E07B689B6A43F020027B689A6249
:103AB0000123FB737B68002283F82420FB7B1846DC
:103AC0001437BD4680BC7047002401400000002030
:103AD00083DE1B4380B584B000AF78600023FB60B9
:103AE0000023BB607B681B689B6803F00103012B0C
:103AF00040D07B681B689A687B681B6842F00102B3
:103B00009A601F4B1B681F4AA2FB03239B0CBB60E0
:103B100002E0BB68013BBB60BB68002BF9D1FFF73B
:103B200071FCF8601FE0FFF76DFC0246FB68D31ADA
:103B3000022B18D97B681B689B6803F00103012BDB
:103B400011D07B689B6A43F010027B689A627B68A5
:103B5000DB6A43F001027B68DA627B68002283F84B
:103B60002420012307E07B681B689B6803F00103A6
:103B7000012BD8D1002318461037BD4680BD00BFA9
:103B80000000002083DE1B4380B584B000AF786066
:103B90000023FB607B681B689B6803F00103012B1B
:103BA0002ED17B681B689A687B681B6822F0010233
:103BB0009A60FFF727FCF8601BE0FFF723FC024642
:103BC000FB68D31A022B14D97B681B689B6803F02F
:103BD0000103012B0DD17B689B6A43F010027B68C7
:103BE0009A627B68DB6A43F001027B68DA62012338
:103BF00007E07B681B689B6803F00103012BDCD0A6
:103C0000002318461037BD4680BD000090B587B030
:103C100000AF78600023FB750023FB607B6893F89E
:103C20002430012B01D1022395E07B68012283F827
:103C300024207868FFF7A8FF0346FB75FB7D002B67
:103C400040F084807B689B6A23F4885323F002034E
:103C500043F002027B689A62414B1C68022002F02A
:103C600033FF0346B4FBF3F35B00FB6002E0FB6849
:103C7000013BFB60FB68002BF9D17868FFF72AFF56
:103C80007B681B689A687B681B6842F008029A6030
:103C9000FFF7B8FB38611BE0FFF7B4FB02463B6956
:103CA000D31A0A2B14D97B681B689B6803F008039E
:103CB000002B0DD07B689B6A23F0120343F01002A7
:103CC0007B689A627B68002283F82420012342E00B
:103CD0007B681B689B6803F00803002BDCD17B68C2
:103CE0001B689A687B681B6842F004029A60FFF7C1
:103CF00089FB38611BE0FFF785FB02463B69D31A5D
:103D00000A2B14D97B681B689B6803F00403002B03
:103D10000DD07B689B6A23F0120343F010027B688E
:103D20009A627B68002283F82420012313E07B68D9
:103D30001B689B6803F00403002BDCD17B689B6A43
:103D400023F0030343F001027B689A627B68002240
:103D500083F82420FB7D18461C37BD4690BD00BF6C
:103D60000000002080B483B000AF786000BF0C3743
:103D7000BD4680BC7047000080B485B000AF78605D
:103D80007B6803F00703FB600C4BDB68BB60BA6821
:103D90004FF6FF031340BB60FB681A02BB68134376
:103DA00043F0BF6343F40033BB60044ABB68D36095
:103DB00000BF1437BD4680BC704700BF00ED00E077
:103DC00080B400AF044BDB681B0A03F007031846FE
:103DD000BD4680BC704700BF00ED00E080B483B0FA
:103DE00000AF0346FB7197F90730002B0BDBFB7923
:103DF00003F01F02064997F907305B09012000FA1A
:103E000002F241F8232000BF0C37BD4680BC70474A
:103E100000E100E080B483B000AF03463960FB717D
:103E200097F90730002B0ADB3B68DAB20C4997F9A7
:103E300007301201D2B20B4483F800230AE03B683A
:103E4000DAB20849FB7903F00F03043B1201D2B246
:103E50000B441A7600BF0C37BD4680BC704700BFCC
:103E600000E100E000ED00E080B489B000AFF86050
:103E7000B9607A60FB6803F00703FB61FB69C3F17B
:103E80000703042B28BF0423BB61FB690433062B03
:103E900002D9FB69033B00E000237B614FF0FF3256
:103EA000BB6902FA03F3DA43BB681A407B699A40A4
:103EB0004FF0FF317B6901FA03F3D9437B680B4074
:103EC000134318462437BD4680BC704780B582B086
:103ED00000AF78607B68013BB3F1807F01D30123A1
:103EE0000FE00A4A7B68013B53600F214FF0FF301F
:103EF000FFF790FF054B00229A60044B07221A60DF
:103F0000002318460837BD4680BD00BF10E000E022
:103F100080B582B000AF78607868FFF72DFF00BFF2
:103F20000837BD4680BD80B586B000AF0346B96096
:103F30007A60FB7300237B61FFF742FF78617A6848
:103F4000B9687869FFF790FF024697F90F3011467C
:103F50001846FFF75FFF00BF1837BD4680BD80B52C
:103F600082B000AF0346FB7197F907301846FFF7A0
:103F700035FF00BF0837BD4680BD80B582B000AFB9
:103F800078607868FFF7A2FF034618460837BD46F9
:103F900080BD80B582B000AF78607B68002B01D116
:103FA00001230EE07B685B79DBB2002B05D17B68D7
:103FB00000221A717868FFF7A7F87B6801225A710E
:103FC000002318460837BD4680BD80B487B000AFD7
:103FD000F860B9607A6000233B61FB6802225A7185
:103FE000FB681B689A68FB681B6842F001029A60D4
:103FF00000237B610AE07B699B00BA681A44FB6876
:104000001B6812681A607B6901337B617A697B687F
:104010009A42F0D3FB681B681B683B61FB68012276
:104020005A713B6918461C37BD4680BC704700007A
:10403000F0B587B000AFF860B960C7E9002301238D
:10404000FB750023BB7500237B752F4B1B7E012B5B
:1040500001D1022354E02C4B01221A764CF250304D
:1040600000F0A8F80346FB75FB7D002B44D1FB68EC
:10407000012B02D101237B7507E0FB68022B02D1E3
:1040800002237B7501E004237B750023BB752DE0C3
:10409000BB7D5A00BB6802EB030CBB7D1901D7E95D
:1040A0000023C1F12006A1F1200022FA01F403FA55
:1040B00006F6344323FA00F0044323FA01F5A3B2D1
:1040C0001946604600F05AF84CF2503000F072F891
:1040D0000346FB750D4B1B690C4A23F0010313616A
:1040E000FB7D002B07D1BB7D0133BB75BA7D7B7D8A
:1040F0009A42CDD300E000BF034B00221A76FB7D2D
:1041000018461C37BD46F0BD1806002000200240AE
:1041100080B483B000AF0023FB710D4B1B6903F02B
:104120008003002B0DD00A4B0A4A5A60084B0A4AFA
:104130005A60074B1B6903F08003002B01D0012359
:10414000FB71FB7918460C37BD4680BC704700BF39
:104150000020024023016745AB89EFCD80B400AF5A
:10416000054B1B69044A43F0800313610023184682
:10417000BD4680BC704700BF0020024080B483B0C1
:1041800000AF78600B467B80084B0022DA61084B59
:104190001B69074A43F0010313617B687A881A8020
:1041A00000BF0C37BD4680BC704700BF180600201A
:1041B0000020024080B584B000AF7860FFF722F99C
:1041C000F86010E07B68B3F1FF3F0CD07B68002BF8
:1041D00007D0FFF717F90246FB68D31A7A689A42AC
:1041E00001D2032325E0154BDB6803F00103002B0C
:1041F000E8D1124BDB6803F02003002B02D00F4BF9
:104200002022DA600D4BDB6803F01003002B0BD18A
:104210000A4BDB6903F00103002B05D1074BDB6878
:1042200003F00403002B03D000F00AF8012300E0A0
:10423000002318461037BD4680BD00BF0020024055
:1042400080B483B000AF00237B60234BDB6803F0B6
:104250001003002B09D0214BDB6943F002031F4AF6
:10426000D3617B6843F010037B601B4BDB6803F07A
:104270000403002B09D0194BDB6943F00103174AF3
:10428000D3617B6843F004037B60134BDB6903F06D
:104290000103002B0BD0114BDB6943F004030F4AE1
:1042A000D3610D4BDB690C4A23F00103D3617B68BA
:1042B00040F20112934206D1074BDB69064A23F014
:1042C0000103D36102E0044A7B68D36000BF0C376E
:1042D000BD4680BC704700BF002002401806002089
:1042E00080B584B000AF786039600123FB73002390
:1042F000BB602F4B1B7E012B01D1022353E02C4BC3
:1043000001221A767B681B68022B16D14CF25030C2
:10431000FFF750FF0346002B41D1012000F04CF87D
:104320004CF25030FFF746FF0346FB73214B1B69ED
:10433000204A23F00403136131E04CF25030FFF7C0
:1043400039FF0346002B2AD13B684FF0FF321A6039
:104350007B689B68BB6019E0B86800F049F84CF2D4
:104360005030FFF727FF0346FB73124B1B69114ABE
:1043700023F002031361FB7B002B03D03B68BA6878
:104380001A600CE0BB6803F58063BB607B68DB6888
:104390009A027B689B681344BA689A42DCD3044B48
:1043A00000221A76FB7B18461037BD4680BD00BF41
:1043B000180600200020024080B483B000AF78606F
:1043C000094B0022DA61094B1B69084A43F00403D8
:1043D0001361064B1B69054A43F04003136100BF9C
:1043E0000C37BD4680BC70471806002000200240F4
:1043F00080B483B000AF78600B4B0022DA610B4BC6
:104400001B690A4A43F002031361084A7B6853613F
:10441000064B1B69054A43F04003136100BF0C378C
:10442000BD4680BC704700BF180600200020024037
:1044300080B48BB000AF7860396000237B620023CA
:104440003B6269E101227B6A02FA03F3FB613B688C
:104450001B68FA691340BB61BA69FB699A4240F074
:1044600058813B685B689A4A93425ED0984A93426F
:1044700075D8984A934258D0964A93426FD8964A34
:10448000934252D0944A934269D8944A93424CD072
:10449000924A934263D8924A934246D0904A9342BA
:1044A0005DD8122B2AD8122B59D801A252F823F02A
:1044B0002B45000805450008174500085945000828
:1044C0005F4500085F4500085F4500085F4500083C
:1044D0005F4500085F4500085F4500085F4500082C
:1044E0005F4500085F4500085F4500085F4500081C
:1044F0005F4500080D45000821450008794A9342B0
:1045000013D02CE03B68DB683B6229E03B68DB684A
:1045100004333B6224E03B68DB6808333B621FE006
:104520003B68DB680C333B621AE03B689B68002BFE
:1045300002D104233B6213E03B689B68012B05D149
:1045400008233B627B68FA691A6109E008233B6231
:104550007B68FA695A6103E000233B6200E000BF18
:10456000BB69FF2B01D87B6801E07B6804337B616A
:10457000BB69FF2B02D87B6A9B0002E07B6A083B89
:104580009B003B617B691A680F213B6901FA03F3C9
:10459000DB431A40396A3B6901FA03F31A437B692A
:1045A0001A603B685B6803F08053002B00F0B18019
:1045B0004D4B9B694C4A43F0010393614A4B9B6905
:1045C00003F00103BB60BB68484A7B6A9B08023367
:1045D00052F82330FB607B6A03F003039B000F2239
:1045E00002FA03F3DB43FA681340FB607B68404A3E
:1045F000934213D07B683F4A93420DD07B683E4A7A
:10460000934207D07B683D4A934201D1032306E0E1
:10461000042304E0022302E0012300E000237A6A7D
:1046200002F0030292009340FA681343FB602F49A3
:104630007B6A9B080233FA6841F823203B685B6879
:1046400003F48033002B06D02D4B1A682C49BB692C
:1046500013430B6006E02A4B1A68BB69DB43284909
:1046600013400B603B685B6803F40033002B06D0FB
:10467000234B5A682249BB6913434B6006E0204B29
:104680005A68BB69DB431E4913404B603B685B685B
:1046900003F48013002B06D0194B9A681849BB69A4
:1046A00013438B6006E0164B9A68BB69DB431449E1
:1046B00013408B603B685B6803F40013002B21D030
:1046C0000F4BDA680E49BB691343CB6021E000BF92
:1046D00000003210000031100000221000002110F4
:1046E00000001210000011100010024000000140F4
:1046F00000080140000C014000100140001401407E
:10470000000401400B4BDA68BB69DB4309491340E5
:10471000CB607B6A01337B623B681A687B6A22FA52
:1047200003F3002B7FF48EAE00BF00BF2C37BD46D5
:1047300080BC70470004014080B485B000AF786051
:104740000B467B807B689A687B881340002B02D0E5
:104750000123FB7301E00023FB73FB7B1846143736
:10476000BD4680BC704780B483B000AF78600B4614
:104770007B8013467B707B78002B03D07A887B6824
:104780001A6103E07B881A047B681A6100BF0C374A
:10479000BD4680BC7047000080B582B000AF0346C4
:1047A000FB80084B5A69FB881340002B06D0054A52
:1047B000FB885361FB881846FDF724FD00BF0837CE
:1047C000BD4680BD00040140F0B58BB006AF7860F7
:1047D0007B68002B01D10123FDE07B6893F8A932AF
:1047E000DBB2002B06D17B68002283F8A822786810
:1047F00007F044FD7B68032283F8A9227B681B68CD
:10480000184603F02DFA7B681B683B607E686D4696
:1048100006F110040FCC0FC523682B60331D0ECB9F
:10482000386803F0F7F90346002B05D07B680222B5
:1048300083F8A9220123CEE07B681B68002118467B
:1048400003F028FA0023FB734CE0FB7B79685A1CC9
:1048500013469B001344DB000B44013301221A7002
:10486000FB7B79685A1C13469B001344DB000B4406
:10487000FA7B1A70FA7BFB7B98B2796813469B002F
:104880001344DB000B44363302461A80FB7B796805
:104890005A1C13469B001344DB000B4403330022D5
:1048A0001A70FA7B796813469B001344DB000B44B3
:1048B000383300221A60FA7B796813469B00134450
:1048C000DB000B443C3300221A60FA7B7968134604
:1048D0009B001344DB000B44403300221A60FB7B37
:1048E0000133FB73FA7B7B685B689A42ADD300238C
:1048F000FB7344E0FA7B796813469B001344DB00AA
:104900000B4403F2691300221A70FA7B796813468C
:104910009B001344DB000B4403F5B473FA7B1A705D
:10492000FA7B796813469B001344DB000B4403F2C7
:104930006B1300221A70FA7B796813469B001344AC
:10494000DB000B4403F5BC7300221A60FA7B796824
:1049500013469B001344DB000B4403F5BE73002297
:104960001A60FA7B796813469B001344DB000B4402
:1049700003F5C07300221A60FB7B0133FB73FA7BE3
:104980007B685B689A42B5D37B681B683B607E6836
:104990006D4606F110040FCC0FC523682B60331D44
:1049A0000ECB386803F082F90346002B05D07B68F4
:1049B000022283F8A92201230DE07B68002283F8FC
:1049C00024207B68012283F8A9227B681B68184693
:1049D00005F034FE002318461437BD46F0BD80B5FF
:1049E00082B000AF78607B6893F8A832012B01D1C8
:1049F000022316E07B68012283F8A8227B681B68EB
:104A0000184603F017F90121786807F0AAFE7B68C1
:104A10001B68184605F008FE7B68002283F8A82270
:104A2000002318460837BD4680BD80B588B000AF6A
:104A300078607B681B68184605F00AFE034603F49D
:104A40000043B3F5004F02D1786800F05FFB7B684C
:104A50001B68184605F0FCFD034603F48063B3F5BC
:104A6000806F12D17B681B68B3F844309AB27B68C0
:104A70001B6822F4806292B2A3F84420786807F0A1
:104A800078FC0021786800F023F97B681B681846E1
:104A900005F0DEFD034603F48043B3F5804F0BD1F0
:104AA0007B681B68B3F844309AB27B681B6822F4B9
:104AB000804292B2A3F844207B681B68184605F038
:104AC000C7FD034603F40053B3F5005F0BD17B68C9
:104AD0001B68B3F844309AB27B681B6822F400521A
:104AE00092B2A3F844207B681B68184605F0B0FD1D
:104AF000034603F48053B3F5805F26D17B681B68BF
:104B0000B3F840309AB27B681B6822F0040292B27C
:104B1000A3F840207B681B68B3F840309AB27B68EA
:104B20001B6822F0080292B2A3F84020786807F0D0
:104B300059FC7B681B68B3F844309AB27B681B68E9
:104B400022F4805292B2A3F844207B681B68184676
:104B500005F07EFD034603F40063B3F5006F40F0FB
:104B600082800023FB7710E07B681B681A46FB7F7E
:104B70009B001A44FB7F128892B25B0020333B44B7
:104B800023F8142CFB7F0133FB77FB7F072BEBD93A
:104B90007B681B68B3F840309AB27B681B6842F0B0
:104BA000010292B2A3F840207B681B68B3F8403042
:104BB0009AB27B681B6822F0010292B2A3F84020EF
:104BC00000BF7B681B68B3F844309BB203F480637A
:104BD000002BF6D07B681B68B3F844309AB27B6830
:104BE0001B6822F4806292B2A3F844200023FB7772
:104BF0000FE0FB7F7A6812681146FA7F92000A4440
:104C00005B0020333B4433F8143C1380FB7F0133BB
:104C1000FB77FB7F072BECD97B681B68B3F8403030
:104C20009AB27B681B6842F0080292B2A3F8402057
:104C30007B681B68B3F844309AB27B681B6822F427
:104C4000006292B2A3F844207B681B68B3F840303E
:104C50009AB27B681B6842F0040292B2A3F840202B
:104C6000786807F0A5FB7B681B68184605F0F0FC28
:104C7000034603F40073B3F5007F0ED17B681B6815
:104C8000B3F844309AB27B681B6822F4007292B287
:104C9000A3F84420786807F05EFB7B681B68184621
:104CA00005F0D6FC034603F48073B3F5807F0BD187
:104CB0007B681B68B3F844309AB27B681B6822F4A7
:104CC000807292B2A3F8442000BF2037BD4680BD59
:104CD00080B582B000AF78600B46FB707B6893F8BC
:104CE000A832012B01D1022313E07B68012283F853
:104CF000A8227B68FA7883F824207B681B68FA78FE
:104D00001146184605F07DFC7B68002283F8A82236
:104D1000002318460837BD4680BD80B584B000AF7B
:104D20007860084611461A460346FB700B463B80E6
:104D30001346BB700023FB7297F90330002B0EDA89
:104D4000FB7803F007035A1C13469B001344DB0057
:104D50007A681344FB60FB6801225A700EE0FB780E
:104D600003F0070213469B001344DB0003F5B47302
:104D70007A681344FB60FB6800225A70FB7803F0EA
:104D80000703DAB2FB681A703A88FB681A61FB689D
:104D9000BA78DA70FB685B78002B04D0FB681B786C
:104DA0009AB2FB68DA81BB78022B02D1FB68002241
:104DB0001A717B6893F8A832012B01D102230EE00F
:104DC0007B68012283F8A8227B681B68F968184673
:104DD00002F08CFF7B68002283F8A822FB7A184639
:104DE0001037BD4680BD80B584B000AF78600B46FB
:104DF000FB7097F90330002B0EDAFB7803F0070302
:104E00005A1C13469B001344DB007A681344FB6072
:104E1000FB6801225A700EE0FB7803F0070213468C
:104E20009B001344DB0003F5B4737A681344FB6002
:104E3000FB6800225A70FB7803F00703DAB2FB68C4
:104E40001A707B6893F8A832012B01D102230EE07F
:104E50007B68012283F8A8227B681B68F9681846E2
:104E600003F0AEFA7B68002283F8A82200231846DC
:104E70001037BD4680BD80B586B000AFF8607A605F
:104E80003B600B46FB72FB7A03F0070213469B0064
:104E90001344DB0003F5B473FA6813447B617B6948
:104EA0007A685A617B693A689A617B690022DA61A3
:104EB0007B6900225A70FB7A03F00703DAB27B6940
:104EC0001A70FB7A03F00703002B06D1FB681B68FE
:104ED0007969184603F060FC05E0FB681B68796996
:104EE000184603F059FC002318461837BD4680BD0C
:104EF00080B483B000AF78600B46FB70FB7803F0A2
:104F00000702796813469B001344DB000B4403F54A
:104F1000C2731B6818460C37BD4680BC704780B50D
:104F200086B000AFF8607A603B600B46FB72FB7A9C
:104F300003F007035A1C13469B001344DB00FA6876
:104F400013447B617B697A685A617B693A689A612C
:104F50007B69012283F824207B693A681A627B69A5
:104F60000022DA617B6901225A70FB7A03F00703A1
:104F7000DAB27B691A70FB7A03F00703002B06D1C3
:104F8000FB681B687969184603F006FC05E0FB68BE
:104F90001B687969184603F0FFFB00231846183791
:104FA000BD4680BD80B584B000AF78600B46FB7015
:104FB000FB7803F007027B685B689A4201D9012302
:104FC0004CE097F90330002B0EDAFB7803F007036F
:104FD0005A1C13469B001344DB007A681344FB60A1
:104FE000FB6801225A700CE0FA7813469B001344C8
:104FF000DB0003F5B4737A681344FB60FB6800229E
:105000005A70FB6801229A70FB7803F00703DAB24A
:10501000FB681A707B6893F8A832012B01D1022338
:105020001CE07B68012283F8A8227B681B68F96872
:10503000184605F0E9F9FB7803F00703002B08D1C7
:105040007B681A687B6803F52C731946104605F0D7
:105050000EFB7B68002283F8A82200231846103735
:10506000BD4680BD80B584B000AF78600B46FB7054
:10507000FB7803F00F027B685B689A4201D9012339
:1050800040E097F90330002B0EDAFB7803F00703BA
:105090005A1C13469B001344DB007A681344FB60E0
:1050A000FB6801225A700EE0FB7803F007021346FA
:1050B0009B001344DB0003F5B4737A681344FB6070
:1050C000FB6800225A70FB6800229A70FB7803F09C
:1050D0000703DAB2FB681A707B6893F8A832012BD9
:1050E00001D102230EE07B68012283F8A8227B68AD
:1050F0001B68F968184605F0D7F97B68002283F829
:10510000A822002318461037BD4680BD80B58EB05A
:1051100000AF7860ECE27B681B68B3F84430FB8535
:10512000FB8DDBB203F00F0387F82D3097F82D309D
:10513000002B40F06181FB8D03F01003002B52D156
:105140007B681B681B889BB223F4E14323F0700348
:10515000FB817B681A68FB896FEA43436FEA53431C
:105160009BB213807B6828337B627B681B68B3F833
:1051700050309BB21A467B6A1B78DB001344023323
:105180005B007A681268134403F580631B88C3F3DD
:1051900009027B6ADA617B6A5A697B6ADB691A44B5
:1051A0007B6A5A610021786807F0BBF87B6893F846
:1051B0002430DBB2002B00F09B827B6A9B69002BC2
:1051C00040F096827B6893F82430DBB263F07F0373
:1051D000DAB27B681B6892B2A3F84C207B6800228D
:1051E00083F8242084E27B6803F5B4737B627B68D8
:1051F0001B681B887B857B8D03F40063002B34D0F8
:105200007B681B68B3F850309BB21A467B6A1B78E8
:10521000DB00134406335B007A681268134403F51D
:1052200080631B88C3F309027B6ADA617B681868B4
:105230007B6803F52C717B6ADA887B6ADB699BB239
:1052400005F065FA7B681B681B889AB240F68F737D
:1052500013403B827B681B683A8A42F0800292B21C
:105260001A80786807F030F842E2B7F92A30002B4C
:1052700080F23E827B681B681B889AB240F68F736F
:105280001340BB837B681B68BA8B42F0800292B2EA
:105290001A807B681B68B3F850309BB21A467B6A51
:1052A0001B78DB00134406335B007A6812681344F2
:1052B00003F580631B88C3F309027B6ADA617B6AAA
:1052C000DB69002B19D07B6A5B69002B15D07B68EA
:1052D00018687B6A59697B6ADA887B6ADB699BB2EA
:1052E00005F015FA7B6A5A697B6ADB691A447B6AA6
:1052F0005A610021786806F0F9FF7B681B681B88FB
:105300009BB203F40063002B40F0F2817B681B68C2
:10531000BB617B681B68B3F850309BB21A46BB690F
:105320001344BB61BB6903F20C437B617B6A1B695D
:10533000002B12D17B691B889BB223F4F8439AB2ED
:105340007B691A807B691B889BB26FEA43436FEAD3
:1053500053439AB27B691A802FE07B6A1B693E2B0C
:1053600013D87B6A1B695B083B637B6A1B6903F08C
:105370000103002B02D03B6B01333B633B6B9BB2C1
:105380009B029AB27B691A8017E07B6A1B695B09F2
:105390003B637B6A1B6903F01F03002B02D13B6B4D
:1053A000013B3B633B6B9BB29B029BB26FEA434367
:1053B0006FEA53439AB27B691A807B681B681B882B
:1053C0009BB223F4804323F070037B827B8A83F4B7
:1053D00080537B827B8A83F400537B827B681A68CC
:1053E0007B8A43F07F4343F47F0343F4004343F05D
:1053F00080039BB213807BE17B681B681A4697F899
:105400002D309B0013441B887B85B7F92A30002B75
:1054100080F2EA807B681B681A4697F82D309B0063
:1054200013441B889AB240F68F7313403B857B6808
:105430001B681A4697F82D309B0013443A8D42F0B2
:10544000800292B21A8097F82D2013469B001344D5
:10545000DB0003F5B4737A6813447B627B6A1B7BC1
:10546000002B22D17B681B68B3F850309BB21A46E0
:105470007B6A1B78DB00134406335B007A68126892
:10548000134403F580631B88C3F30903FB86FB8E7B
:10549000002B00F087807B6818687B6A59697B6AFB
:1054A000DA88FB8E05F033F97CE07B6ADB78022B2F
:1054B00008D17B8D1A46796A786800F027F903468F
:1054C000FB866FE07B681B681A467B6A1B789B0033
:1054D00013441B889BB223F4E04323F070037B84C6
:1054E0007B681B681A467B6A1B789B001A447B8C7E
:1054F00043F07F4343F47F0343F4004343F0C0038E
:105500009BB213807B681B681A467B6A1B789B00E2
:1055100013441B889BB203F48043002B21D07B688B
:105520001B68B3F850309BB21A467B6A1B78DB00CD
:10553000134402335B007A681268134403F58063F6
:105540001B88C3F30903FB86FB8E002B2AD07B68E4
:1055500018687B6A59697B6A1A89FB8E05F0D7F84F
:1055600020E07B681B68B3F850309BB21A467B6A18
:105570001B78DB00134406335B007A68126813441F
:1055800003F580631B88C3F30903FB86FB8E002BA6
:1055900008D07B6818687B6A59697B6A5A89FB8ED8
:1055A00005F0B5F87B6ADA69FB8E1A447B6ADA612A
:1055B0007B6A5A69FB8E1A447B6A5A617B6A9B69D3
:1055C000002B04D0FA8E7B6A1B699A4206D27B6A52
:1055D0001B781946786806F089FE05E07B681B6831
:1055E000796A184603F0D8F87B8D03F08003002B0E
:1055F0007ED097F82D305A1C13469B001344DB00D5
:105600007A6813447B627B681B681A4697F82D30D2
:105610009B0013441B889BB223F4E14323F07003E7
:105620003B847B681B681A4697F82D309B001A4410
:105630003B8C6FEA43436FEA53439BB213807B6A10
:10564000DB78032B0CD07B6ADB78002B08D07B6ADD
:10565000DB78022B46D17B8D03F48073002B41D184
:105660007B681B68B3F850309BB21A467B6A1B7884
:10567000DB00134402335B007A681268134403F5BD
:1056800080631B88C3F30903FB837B6A9A69FB8BE6
:105690009A4206D97B6A9A69FB8BD21A7B6A9A6115
:1056A00002E07B6A00229A617B6A9B69002B06D12B
:1056B0007B6A1B781946786806F033FE18E07B6A2F
:1056C0005A69FB8B1A447B6A5A617B6ADA69FB8BE5
:1056D0001A447B6ADA617B681B68796A184603F0B2
:1056E0005BF805E07B8D1A46796A786800F01BF953
:1056F0007B681B68B3F844309BB21BB2002BFFF6EB
:105700000AAD002318463837BD4680BD80B588B045
:1057100000AFF860B9601346FB80FB8803F4804358
:10572000002B7ED0FB681B68B3F850309BB21A4642
:10573000BB681B78DB00134402335B00FA68126815
:10574000134403F580631B88C3F309037B83BB68A1
:105750009A697B8B9A4206D3BB689A697B8BD21A73
:10576000BB689A6102E0BB6800229A61BB689B69D2
:10577000002B23D1FB681B681A46BB681B789B0073
:1057800013441B889BB223F4804323F070033B83B4
:105790003B8B83F400533B83FB681B681A46BB6852
:1057A0001B789B001A443B8B43F07F4343F47F03F9
:1057B00043F4004343F080039BB21380FB8803F063
:1057C0004003002B1FD0FB681B681A46BB681B7880
:1057D0009B0013441B889BB223F4E04323F0700327
:1057E000FB82FB681B681A46BB681B789B001A4447
:1057F000FB8A43F07F4343F47F0343F4004343F0C9
:10580000C0039BB213807B8B002B00F08780FB686A
:105810001868BB685969BB681A897B8B04F077FFED
:105820007CE0FB681B68B3F850309BB21A46BB683B
:105830001B78DB00134406335B00FA6812681344DC
:1058400003F580631B88C3F309037B83BB689A69F4
:105850007B8B9A4206D3BB689A697B8BD21ABB6852
:105860009A6102E0BB6800229A61BB689B69002BC9
:1058700023D1FB681B681A46BB681B789B00134446
:105880001B889BB223F4804323F07003FB83FB8BC4
:1058900083F40053FB83FB681B681A46BB681B78C4
:1058A0009B001A44FB8B43F07F4343F47F0343F494
:1058B000004343F080039BB21380FB8803F0400356
:1058C000002B1FD1FB681B681A46BB681B789B0026
:1058D00013441B889BB223F4E04323F07003BB8383
:1058E000FB681B681A46BB681B789B001A44BB8B7D
:1058F00043F07F4343F47F0343F4004343F0C0038A
:105900009BB213807B8B002B08D0FB681868BB68A8
:105910005969BB685A897B8B04F0F9FE7B8B18466A
:105920002037BD4680BD80B5A2B000AFF860B96039
:105930001346FB80FB8803F04003002B00F0C78177
:10594000FB681B68B3F850309BB21A46BB681B78E3
:10595000DB00134402335B00FA681268134403F55A
:1059600080631B88C3F30903A7F84E30BB689A69AC
:10597000B7F84E309A4207D9BB689A69B7F84E30EB
:10598000D21ABB689A6102E0BB6800229A61BB68C8
:105990009B69002B40F0B980BB685B78002B26D157
:1059A000FB681B68BB62FB681B68B3F850309BB296
:1059B0001A46BB6A1344BB62BB681B781A01BB6AF8
:1059C000134403F204437B627B6A1B889BB223F47B
:1059D000F8439AB27B6A1A807B6A1B889BB26FEA93
:1059E00043436FEA53439AB27B6A1A801AE0BB685A
:1059F0005B78012B16D1FB681B683B63FB681B6857
:105A0000B3F850309BB21A463B6B13443B63BB6800
:105A10001B781A013B6B134403F20443FB62FB6ADD
:105A200000221A80FB681B683B62BB685B78002B16
:105A300026D1FB681B68BB61FB681B68B3F850305C
:105A40009BB21A46BB691344BB61BB681B781A0141
:105A5000BB69134403F20C437B617B691B889BB2D7
:105A600023F4F8439AB27B691A807B691B889BB246
:105A70006FEA43436FEA53439AB27B691A8017E097
:105A8000BB685B78012B13D1FB681B68B3F85030FF
:105A90009BB21A463B6A13443B62BB681B781A01EF
:105AA0003B6A134403F20C43FB61FB6900221A803A
:105AB000BB681B781946F86806F033FCFB8803F4D2
:105AC0008043002B00F0D482FB681B681A46BB6839
:105AD0001B789B0013441B889BB223F4E04323F004
