:020000040800F2
:1000000000500020912B0008C52A0008CB2A0008C8
:10001000D12A0008D72A0008DD2A000800000000C5
:10002000000000000000000000000000E32A0008BB
:10003000EF2A000800000000FB2A0008072B000838
:10004000D92B0008D92B0008D92B0008D92B000880
:10005000D92B0008D92B0008D92B0008172B000832
:10006000D92B0008D92B0008D92B0008D92B000860
:10007000D92B0008D92B0008D92B0008D92B000850
:10008000D92B0008D92B0008252B0008D92B0008F4
:10009000392B0008D92B0008D92B00084D2B00085C
:1000A000D92B0008D92B0008D92B0008D92B000820
:1000B000D92B00085D2B0008712B0008D92B0008F4
:1000C000D92B0008D92B0008D92B0008D92B000800
:1000D000D92B0008D92B0008D92B0008D92B0008F0
:1000E000D92B0008D92B0008D92B000800000000EC
:1000F0000000000000000000000000000000000000
:0C01000000000000000000005FF808F1A3
:10010C0010B5054C237833B9044B13B10448AFF345
:10011C0000800123237010BDA80100200000000006
:10012C00ACC0000808B5034B1BB103490348AFF33F
:10013C00008008BD00000000AC010020ACC000082D
:10014C0080F0004002E000BF81F0004142001FBF80
:10015C005FEA410392EA030F7FEA226C7FEA236C89
:10016C006AD04FEA1262D2EB1363C1BFD21841407E
:10017C0048404140B8BF5B42192B88BF704710F014
:10018C00004F40F4000020F07F4018BF404211F0B7
:10019C00004F41F4000121F07F4118BF494292EA1F
:1001AC00030F3FD0A2F1010241FA03FC10EB0C004B
:1001BC00C3F1200301FA03F100F0004302D54942D8
:1001CC0060EB4000B0F5000F13D3B0F1807F06D385
:1001DC0040084FEA310102F10102FE2A51D2B1F17D
:1001EC00004F40EBC25008BF20F0010040EA030072
:1001FC007047490040EB0000013A28BFB0F5000FF2
:10020C00EDD2B0FA80FCACF1080CB2EB0C0200FAA7
:10021C000CF0AABF00EBC25052421843BCBFD040F6
:10022C001843704792F0000F81F4000106BF80F470
:10023C0000000132013BB5E74FEA41037FEA226C33
:10024C0018BF7FEA236C21D092EA030F04D092F0FE
:10025C00000F08BF0846704790EA010F1CBF002032
:10026C00704712F07F4F04D1400028BF40F000408F
:10027C00704712F100723CBF00F50000704700F0AF
:10028C00004343F0FE4040F4000070477FEA2262D6
:10029C0016BF08467FEA23630146420206BF5FEAA7
:1002AC00412390EA010F40F4800070474FF00003A7
:1002BC0004E000BF10F0004348BF40425FEA000C6E
:1002CC0008BF704743F0964301464FF000001CE016
:1002DC0050EA010208BF70474FF000030AE000BF6C
:1002EC0050EA010208BF704711F0004302D54042AA
:1002FC0061EB41015FEA010C02BF8446014600201C
:10030C0043F0B64308BFA3F18053A3F50003BCFA36
:10031C008CF2083AA3EBC25310DB01FA02FC6344E3
:10032C0000FA02FCC2F12002BCF1004F20FA02F2EA
:10033C0043EB020008BF20F00100704702F12002DD
:10034C0001FA02FCC2F1200250EA4C0021FA02F23E
:10035C0043EB020008BF20EADC7070474FF0FF0C43
:10036C001CEAD0521EBF1CEAD15392EA0C0F93EA3E
:10037C000C0F6FD01A4480EA010C400218BF5FEAE0
:10038C0041211ED04FF0006343EA501043EA511153
:10039C00A0FB01310CF00040B1F5000F3EBF49004D
:1003AC0041EAD3715B0040EA010062F17F02FD2A51
:1003BC001DD8B3F1004F40EBC25008BF20F0010034
:1003CC00704790F0000F0CF0004C08BF49024CEA4B
:1003DC00502040EA51207F3AC2BFD2F1FF0340EADD
:1003EC00C250704740F400004FF00003013A5DDC4E
:1003FC0012F1190FDCBF00F000407047C2F100028F
:10040C00410021FA02F1C2F1200200FA02FC5FEA7B
:10041C00310040F1000053EA4C0308BF20EADC70C5
:10042C00704792F0000F00F0004C02BF400010F437
:10043C00000F013AF9D040EA0C0093F0000F01F0E4
:10044C00004C02BF490011F4000F013BF9D041EA06
:10045C000C018FE70CEAD15392EA0C0F18BF93EA08
:10046C000C0F0AD030F0004C18BF31F0004CD8D132
:10047C0080EA010000F00040704790F0000F17BFB9
:10048C0090F0004F084691F0000F91F0004F14D0FF
:10049C0092EA0C0F01D142020FD193EA0C0F03D157
:1004AC004B0218BF084608D180EA010000F000405A
:1004BC0040F0FE4040F40000704740F0FE4040F435
:1004CC00400070474FF0FF0C1CEAD0521EBF1CEAD4
:1004DC00D15392EA0C0F93EA0C0F69D0A2EB0302F2
:1004EC0080EA010C49024FEA402037D04FF080538C
:1004FC0043EA111143EA10130CF000408B4238BF51
:10050C005B0042F17D024FF4000C8B4224BF5B1A5E
:10051C0040EA0C00B3EB510F24BFA3EB510340EAAC
:10052C005C00B3EB910F24BFA3EB910340EA9C005A
:10053C00B3EBD10F24BFA3EBD10340EADC001B01CA
:10054C0018BF5FEA1C1CE0D1FD2A3FF650AF8B426E
:10055C0040EBC25008BF20F0010070470CF0004C7B
:10056C004CEA50207F32C2BFD2F1FF0340EAC250A6
:10057C00704740F400004FF00003013A37E792F067
:10058C00000F00F0004C02BF400010F4000F013AC5
:10059C00F9D040EA0C0093F0000F01F0004C02BFC0
:1005AC00490011F4000F013BF9D041EA0C0195E729
:1005BC000CEAD15392EA0C0F08D142027FF47DAFC2
:1005CC0093EA0C0F7FF470AF084676E793EA0C0FB2
:1005DC0004D14B023FF44CAF08466EE730F0004CB0
:1005EC0018BF31F0004CCAD130F000427FF45CAF40
:1005FC0031F000437FF43CAF5FE700BF4FF0FF3CAE
:10060C0006E000BF4FF0010C02E000BF4FF0010C00
:10061C004DF804CD4FEA40024FEA41037FEA226CC9
:10062C0018BF7FEA236C11D001B052EA530C18BFEB
:10063C0090EA010F58BFB2EB030088BFC81738BF50
:10064C006FEAE17018BF40F0010070477FEA226C3E
:10065C0002D15FEA402C05D17FEA236CE4D15FEA3A
:10066C00412CE1D05DF8040B704700BF844608466E
:10067C006146FFE70FB5FFF7C9FF002848BF10F12F
:10068C00000F0FBD4DF808EDFFF7F4FF0CBF012074
:10069C0000205DF808FB00BF4DF808EDFFF7EAFFFE
:1006AC0034BF012000205DF808FB00BF4DF808EDB9
:1006BC00FFF7E0FF94BF012000205DF808FB00BFAE
:1006CC004DF808EDFFF7D2FF94BF012000205DF834
:1006DC0008FB00BF4DF808EDFFF7C8FF34BF012041
:1006EC0000205DF808FB00BF4FEA4002B2F1FE4F5C
:1006FC000FD34FF09E03B3EB12620DD94FEA0023D8
:10070C0043F0004310F0004F23FA02F018BF4042B0
:10071C0070474FF00000704712F1610F01D1420297
:10072C0005D110F0004008BF6FF0004070474FF04B
:10073C000000704780B500AF1E4B1B681E4A13604B
:10074C001E4B1B78002B33D11D4B1B78002B2FD04D
:10075C001C4B1B881846FFF7ADFD0246154B1B685A
:10076C0019461046FFF7ACFF0346002B08D000F0EB
:10077C001FFB0346002B03DA002000F0B1FA17E050
:10078C00114B1B881846FFF795FD0246094B1B6859
:10079C0019461046FFF78AFF0346002B00D107E0ED
:1007AC0000F006FB0346002B02DD002000F098FA57
:1007BC0000BF80BDF8010020DC010020D801002022
:1007CC00C8010020EC010020EE01002080B582B0B1
:1007DC0000AF78607868FFF787FF03461BB21846B6
:1007EC0000F07EFA00BF0837BD4680BD80B500AF73
:1007FC0000F0E0FD01F03EFB01F0E6FA00F0C2FD76
:10080C0000F014FB00BF80BD80B500AF3C4B1B78E3
:10081C00012B02D0022B19D06EE03A4B1B78012B26
:10082C0005D1384B00221A7000F0C4FD08E0354B9E
:10083C001B78022B04D1334B00221A7001F090F874
:10084C0001F0AAFB2E4B00221A7055E02E4B1B78A0
:10085C00002B33D02C4B1B78012B12D12B4B1B882C
:10086C001846FFF727FD0246294B1B681946104610
:10087C00FFF712FF0346002B1AD0264800F030FA7F
:10088C0016E0214B1B78022B12D1234B1B881846E8
:10089C00FFF710FD02461E4B1B6819461046FFF76A
:1008AC0019FF0346002B03D04FF47A7000F018FAAE
:1008BC001A4B00221A70144B00221A70184B1B781A
:1008CC00012B09D1164B00221A70164B1B78002BEA
:1008DC000CD100F0E9FC09E0134B1B78002B05D080
:1008EC00104B1B78002B01D000F000FD01F022FD15
:1008FC00034B00221A7000BF00F092F900BF80BDBC
:10090C00500200205102002052020020EC01002075
:10091C00F801002018FCFFFFEE010020C9010020A7
:10092C0053020020D80100203C02002080B487B084
:10093C0000AFF860B9607A6000237B610BE0BA68A5
:10094C007B6913441946FA687B6913440A781A7058
:10095C007B6901337B617A697B689A42EFD100BF76
:10096C0000BF1C37BD4680BC70472DE9B0438CB02E
:10097C0000AFF860B9607A6000237B61BB68FB61F3
:10098C0001233B6200233B6103F000F807F11002E6
:10099C0007F114031146184603F0E0F87B689B0836
:1009AC00FB847B689AB2FB8C9B009BB2D31ABB84F2
:1009BC000023FB8527E0FA8DBB68D018FB8D033331
:1009CC00FA6813441B781A06FB8D0233F9680B4442
:1009DC001B781B041A43FB8D0133F9680B441B78FD
:1009EC001B021343FA8DF9680A4412781343002250
:1009FC009846914642464B460146022002F056FF6D
:100A0C00FB8D0433FB85FA8DFB8C9B009A42D2D173
:100A1C00BB8C002B3FD00023BB62BB8C032B14D1AF
:100A2C00FB8D0233FA6813441B781A06FB8D0133D5
:100A3C00F9680B441B781B041A43FB8DF9680B44B3
:100A4C001B781B021343BB6219E0BB8C022B0DD12C
:100A5C00FB8D0133FA6813441B781A06FB8DF96879
:100A6C000B441B781B041343BB6208E0BB8C012BAB
:100A7C0005D1FB8DFA6813441B781B06BB62FA8DFB
:100A8C00BB68D118BB6A00221C46154622462B4671
:100A9C00022002F00BFF02F09FFF00BF3037BD4673
:100AAC00BDE8B08380B485B000AF786039600023B6
:100ABC00FB730BE0FA7B3B6813441946FA7B7B68AB
:100ACC0013440A781A70FB7B0133FB73FB7B042BFA
:100ADC00F0D100BF00BF1437BD4680BC704780B456
:100AEC0085B000AF786039600023FB730BE0FA7BB4
:100AFC003B6813441946FA7B7B6813440A781A70D6
:100B0C00FB7B0133FB73FB7B022BF0D100BF00BFDF
:100B1C001437BD4680BC704780B582B000AF78609A
:100B2C007B681B68044A934201D100F0EFFB00BFC5
:100B3C000837BD4680BD00BF0024014080B582B09F
:100B4C0000AF78607B681B68084A934202D100F0C2
:100B5C0095F906E07B681B68054A934201D101F0C8
:100B6C001DF800BF0837BD4680BD00BF0004004023
:100B7C000008004080B500AF00F090F800F0D2FF04
:100B8C0000F018F800BF80BD80B582B000AF0346FE
:100B9C00FB80FB88022B03D0B3F5007F03D005E06C
:100BAC0001F008F802E001F04BF900BF00BF083774
:100BBC00BD4680BD80B500AF0A4B1B78032B0FD10F
:100BCC00094B1B780133DAB2074B1A70064B1B78B2
:100BDC00132B05D9002000F009F8034B00221A70E2
:100BEC0000BF80BDC4010020C601002080B582B0CA
:100BFC0000AF0346FB71FB79012B05D1012280214B
:100C0C00064803F0EEF904E000228021034803F0CB
:100C1C00E8F900BF0837BD4680BD00BF00080140A1
:100C2C0080B500AF194B1B78032B2AD801A252F8C0
:100C3C0023F000BF510C0008590C0008610C00088F
:100C4C00790C00080020FFF7D1FF1AE00120FFF714
:100C5C00CDFF16E00E4B1B78002B03D00120FFF7C5
:100C6C00C5FF0EE00020FFF7C1FF0AE0094B1B781F
:100C7C00002B05D0084B00221A700120FFF7B6FF9D
:100C8C0000BF044B00221A7000BF80BDC4010020BD
:100C9C00D8010020C5010020C601002080B500AF9E
:100CAC000C4B1B78002B13D10B4B1B78002B0FD04C
:100CBC000A4B1B780133DAB2084B1A70074B1B78BE
:100CCC00322B05D1002000F00BF8044B00221A70D7
:100CDC0000BF80BDD8010020C8010020C901002040
:100CEC0080B483B000AF0346FB802D4B1B78012BE7
:100CFC0003D1FB885B429BB2FB80B7F90630002B1B
:100D0C0010D14FF080434FF47A725A634FF0804306
:100D1C004FF47A729A63234B00221A70224B0022F2
:100D2C001A7038E0B7F90630002B18DA4FF0804310
:100D3C004FF47A725A63B7F906201C4B1B8819467C
:100D4C004FF47A7393FBF1F392FBF3F303F57A729E
:100D5C004FF080439A63134B01221A701BE0B7F9D2
:100D6C000630002B17DDB7F90620104B1B881946EF
:100D7C004FF47A7393FBF1F392FBF3F3C3F57A72AE
:100D8C004FF080435A634FF080434FF47A729A636A
:100D9C00044B01221A7000BF0C37BD4680BC704753
:100DAC00C7010020C8010020C9010020000000205C
:100DBC0080B400AF4FF080435B6BB3F57A7F13D0F8
:100DCC004FF080435B6B1BB2C3F57A739BB2164A30
:100DDC00128811464FF47A7292FBF1F292B202FB36
:100DEC0003F39BB21BB21AE04FF080439B6BB3F53D
:100DFC007A7F13D04FF080439B6B1BB2A3F57A73B1
:100E0C009BB2094A128811464FF47A7292FBF1F2A6
:100E1C0092B202FB03F39BB21BB200E00023184614
:100E2C00BD4680BC704700BF0000002080B500AFFD
:100E3C000021044805F0B8FC0421024805F0B4FC7C
:100E4C0000BF80BDD003002080B500AF024805F084
:100E5C0025FC00BF80BD00BF1804002080B500AF8A
:100E6C00054805F01BFC044B1B6800225A62024823
:100E7C0005F0C2FB00BF80BD1804002080B500AF98
:100E8C0000F038F8044B1B681846FFF79FFCFFF77F
:100E9C00E5FF00BF80BD00BFE001002080B400AFC3
:100EAC00054B1B68DB6A054AA2FB03235B099BB25B
:100EBC001846BD4680BC7047180400201F85EB51B6
:100ECC0080B483B000AF0346FB80FB88642203FB35
:100EDC0002F2074B1B68DA62FB88642202FB03F305
:100EEC001A46034BDA6000BF0C37BD4680BC704716
:100EFC001804002090B585B000AF944B1B68BB6004
:100F0C00934B1B68B9681846FFF71EF903467B60C4
:100F1C00904B1B681946B868FFF716F903463B60FF
:100F2C004FF00003FB608C4B1B881846FFF7C2F98F
:100F3C00034619467868FFF7C3FB0346002B74D0B1
:100F4C00864B1B6879681846FFF708FA03461A4661
:100F5C00834B1B6819461046FFF7F8F803461A46F0
:100F6C007F4B1A607F4B1B78002B10D17C4B1C687D
:100F7C007D4B1B6839681846FFF7F0F90346194694
:100F8C002046FFF7E1F803461A46754B1A60744B7E
:100F9C001B6876491846FFF79DFB0346002B03D0D0
:100FAC006F4B724A1A600BE06D4B1B687049184608
:100FBC00FFF772FB0346002B02D0694B6C4A1A6098
:100FCC00684B1B78012B07D1674B1B681946786857
:100FDC00FFF7C4F90346FB60614B1C68654B1B684B
:100FEC0039681846FFF7BAF9034619462046FFF749
:100FFC00ABF803461946F868FFF7A8F80346FB6000
:10100C005A49F868FFF766FB0346002B02D0574B92
:10101C00FB602CE15649F868FFF73EFB0346002BBA
:10102C0000F02581524BFB6021E14B4B1B8818468D
:10103C00FFF740F9034619467868FFF72DFB034686
:10104C00002B00F0A1804C4B1B881846FFF732F99F
:10105C00034619467868FFF733FB0346002B00F074
:10106C009380464B1B6879681846FFF777F903465F
:10107C001A463B4B1B6819461046FFF767F80346A8
:10108C001A46374B1A60374B1B78002B10D1344B58
:10109C001C683B4B1B6839681846FFF75FF9034621
:1010AC0019462046FFF750F803461A462C4B1A6097
:1010BC002B4B1B682D491846FFF70CFB0346002BE6
:1010CC0003D0274B294A1A600BE0254B1B68284993
:1010DC001846FFF7E1FA0346002B02D0204B244AB6
:1010EC001A60204B1B78012B07D1254B1B68194626
:1010FC007868FFF733F90346FB60194B1C68214BEA
:10110C001B6839681846FFF729F90346194620462B
:10111C00FFF71AF803461946F868FFF717F8034665
:10112C00FB601249F868FFF7D5FA0346002B02D092
:10113C000E4BFB609BE00E49F868FFF7ADFA0346D7
:10114C00002B00D193E00A4BFB6090E0DC01002007
:10115C0024000020E40100201C000020CC01002011
:10116C00E8010020200000200400002000007A4448
:10117C0000007AC4080000201E000020D0010020CE
:10118C000C000020100000203E4B1B6879681846AC
:10119C00FFF7E4F803461A463B4B1B68194610460A
:1011AC00FEF7D4FF03461A46374B1A60374B1B78B1
:1011BC00002B10D1344B1C68354B1B683968184612
:1011CC00FFF7CCF8034619462046FEF7BDFF034651
:1011DC001A462D4B1A602C4B1B682E491846FFF7EC
:1011EC0079FA0346002B03D0274B2A4A1A600BE0EE
:1011FC00254B1B6828491846FFF74EFA0346002B6F
:10120C0002D0214B244A1A60204B1B78012B07D1AA
:10121C001F4B1B6819467868FFF7A0F80346FB6064
:10122C00194B1C681D4B1B6839681846FFF796F85C
:10123C00034619462046FEF787FF03461946F86811
:10124C00FEF784FF0346FB601249F868FFF742FA89
:10125C000346002B02D00F4BFB6008E00E49F868E8
:10126C00FFF71AFA0346002B01D00B4BFB600C4A1C
:10127C00FB6813600B4ABB68136000BF1437BD4694
:10128C0090BD00BFD4010020E80100202000002008
:10129C001400002000007A4400007AC418000020DA
:1012AC00E0010020E401002080B500AF0A4B1B6870
:1012BC000A4A13600A4B4FF000021A60094B1B7864
:1012CC009BB21846FFF7FCFDFFF7C8FD064B012249
:1012DC001A7000BF80BD00BFDC010020E4010020BB
:1012EC00E801002002000020D801002080B500AFEA
:1012FC00FFF7AAFD4FF00000FFF768FA024B00223F
:10130C001A7000BF80BD00BFD801002080B500AFAF
:10131C00164801F04DFE0246154B1B681344144A47
:10132C001360144B1B8801339AB2124B1A80114B69
:10133C001B88642B15D10E4B1B681846FEF7B6FFA5
:10134C0003460D491846FFF7BDF803461A460B4BEA
:10135C001A60FFF7EFF9074B00221A80044B0022AA
:10136C001A60074B01221A7000BF80BD9803002041
:10137C00F0010020F40100200000C842F801002018
:10138C00F601002080B500AF00BF084802F07CF8E1
:10139C000346002BF9D1054801F054FD00BF044B66
:1013AC001B78002BFBD000BF00BF80BD9803002032
:1013BC00F601002080B582B000AF4022A149A248BE
:1013CC00FFF7B4FA00237B603B1DA04A1146184678
:1013DC00FFF768FB0F229C499D4802F034FA024645
:1013EC007B689A4240F03D829A4B974A11461846C8
:1013FC00FFF775FB984B994A11461846FFF76FFBA0
:10140C00974B984A11461846FFF769FB8E4B9A7911
:10141C00954B1A708C4BDA79944B1A70944B954A05
:10142C0011461846FFF73EFB934B944A114618465B
:10143C00FFF738FB844B1A7C914B1A70824B5A7C09
:10144C00904B1A70904B914A11461846FFF72AFBA5
:10145C008F4B904A11461846FFF724FB8E4B8F4A50
:10146C0011461846FFF71EFB8D4B8E4A1146184647
:10147C00FFF718FB8C4B8D4A11461846FFF712FBF1
:10148C008B4B8C4A11461846FFF70CFB8A4B8B4A48
:10149C0011461846FFF706FB894B8A4A1146184637
:1014AC00FFF700FB884B894A11461846FFF7FAFAFA
:1014BC00874B884A11461846FFF711FB864B874A23
:1014CC0011461846FFF70BFB5F4B93F83A20844B01
:1014DC001A70604B1B88B3F5786F02D35D4B80227A
:1014EC001A805D4B1B887F2B04D95B4B1B88B3F593
:1014FC00805F03D3584B40F67F721A80584B1B8881
:10150C00B3F57A7F03D9564B4FF47A721A80564B47
:10151C001B78002B06D0544B1B78012B02D0524B5E
:10152C0000221A70514B1B78012B06D04F4B1B78A5
:10153C00002B02D04D4B01221A704D4B1B684FF003
:10154C0080411846FFF7A8F80346002B08D1484BFA
:10155C001B6864491846FFF7BDF80346002B03D0FF
:10156C00434B4FF080421A60434B1B68052B03D949
:10157C00414B1B68C82B02D93F4B19221A60404BB8
:10158C001B78002B0ED03E4B1B78012B0AD03C4B0A
:10159C001B78022B06D03A4B1B78032B02D0384B0E
:1015AC0001221A70374B1B78002B06D0354B1B7859
:1015BC00012B02D0334B01221A70334B1B684FF0B6
:1015CC0000011846FFF768F80346002B08D12E4B94
:1015DC001B6845491846FFF77DF80346002B03D0DE
:1015EC00294B4FF07E521A60294B1B684FF00001BB
:1015FC001846FFF751F80346002B08D1244B1B6803
:10160C0039491846FFF766F80346002B03D0204BE8
:10161C004FF000021A60204B1B684FF00001184677
:10162C00FFF73AF80346002B08D11B4B1B682E49D9
:10163C001846FFF74FF80346002B59D0164B2B4A90
:10164C001A6055E000FC0008FC0100203802002064
:10165C00C8030020EC010020EE010020FE01002058
:10166C000000002000020020C70100203C020020E6
:10167C004002002004020020440200200802002046
:10168C00C401002020000020040000200E020020D5
:10169C00CC010020120200200800002016020020BD
:1016AC000C0000201A020020D00100201E02002095
:1016BC00100000202202002014000020260200202E
:1016CC00D40100202A020020180000202E02002045
:1016DC001C000020320200201E00002034020020DA
:1016EC00020000200000A0400000C8420000404062
:1016FC00834B1B684FF000011846FEF7CDFF0346E5
:10170C00002B08D17E4B1B687E491846FEF7E2FF82
:10171C000346002B03D07A4B4FF07E521A607A4B63
:10172C001B684FF000011846FEF7B6FF0346002B6E
:10173C0008D1754B1B6873491846FEF7CBFF03465F
:10174C00002B03D0704B4FF000021A606F4B1B68DC
:10175C004FF000011846FEF79FFF0346002B08D1FF
:10176C006A4B1B6867491846FEF7B4FF0346002B0B
:10177C0002D0664B664A1A60664B1B684FF000013C
:10178C001846FEF789FF0346002B08D1614B1B68F6
:10179C005C491846FEF79EFF0346002B03D05D4BB9
:1017AC004FF07E521A605C4B1B684FF000011846DC
:1017BC00FEF772FF0346002B08D1574B1B685149AB
:1017CC001846FEF787FF0346002B03D0524B4FF011
:1017DC0000021A60514B1B684FF000011846FEF7CF
:1017EC005BFF0346002B08D14C4B1B684549184640
:1017FC00FEF770FF0346002B02D0484B444A1A6098
:10180C00474B1B88B3F5805F03D3454B40F2FF7207
:10181C001A80444B1B88B3F5805F03D3414B40F6D1
:10182C00FC321A80404B1B781846FEF743FD0346EA
:10183C003E491846FEF730FF0346002B0DD13A4BBC
:10184C001B781846FEF736FD03462E491846FEF760
:10185C0041FF0346002B00D14DE0334B05221A709B
:10186C0049E0334B80221A80324B40F67F721A804B
:10187C00314B4FF47A721A80304B00221A70304B75
:10188C0001221A702F4B4FF080421A602E4B1922F6
:10189C001A602E4B01221A702D4B01221A702D4BFF
:1018AC004FF07E521A602C4B4FF000021A602B4BFB
:1018BC00174A1A60124B4FF07E521A60124B4FF0BF
:1018CC0000021A60114B124A1A60124B4FF07E52F2
:1018DC001A60114B4FF000021A60104B0C4A1A6040
:1018EC000F4B40F2FF721A800E4B40F6FC321A80FE
:1018FC000D4B05221A7000BF0837BD4680BD00BFD6
:10190C000C0000200000C842D00100201000002074
:10191C000000404014000020D401002018000020DA
:10192C001C0000201E000020020000200000A0402F
:10193C00EC010020EE01002000000020C701002077
:10194C003C0200204002002044020020C401002080
:10195C002000002004000020CC0100200800002002
:10196C0080B582B000AF474B474A11461846FFF787
:10197C00B6F8464B464A11461846FFF7B0F8454BA9
:10198C00454A11461846FFF7AAF8444B1A783D4BC6
:10199C009A71434B1A783B4BDA71424B424A1146CF
:1019AC001846FFF77FF8414B414A11461846FFF79E
:1019BC0079F8404B1A78334B1A743F4B1A78314BE9
:1019CC005A743E4B3E4A11461846FFF76BF83D4B96
:1019DC003D4A11461846FFF765F83C4B3C4A114608
:1019EC001846FFF75FF83B4B3B4A11461846FFF78A
:1019FC0059F83A4B3A4A11461846FFF753F8394B07
:101A0C00394A11461846FFF74DF8384B384A1146FB
:101A1C001846FFF747F8374B374A11461846FFF779
:101A2C0041F8364B364A11461846FFF73BF8354B12
:101A3C00354A11461846FFF752F8344B344A1146D2
:101A4C001846FFF74CF8334B1A780E4B83F83A20B4
:101A5C000C4B002283F83B200F220A492E4801F040
:101A6C00F2FE03467B602D4A3B1D19461046FFF7DC
:101A7C0019F840222A490348FEF777FF00BF0837C0
:101A8C00BD4680BDFC010020EC010020FE010020C1
:101A9C00EE0100200002002000000020C701002001
:101AAC003C0200200402002040020020080200201A
:101ABC0044020020C4010020200000200E0200205F
:101ACC000400002012020020CC010020160200208D
:101ADC00080000201A0200200C0000201E0200202A
:101AEC00D00100202202002010000020260200203D
:101AFC00140000202A020020D40100202E02002015
:101B0C0018000020320200201C00002034020020AB
:101B1C001E00002002000020C80300203802002014
:101B2C0000FC000880B500AF154B1B78002B24D0AF
:101B3C00144B1A68144B1B689A4219D3104B002291
:101B4C001A70124B1B78002B07D0104B1B78002BF4
:101B5C0013D00F4B1B78002B0FD10E4B1B78002B87
:101B6C0001D0FFF7C3FB0C4B4FF000021A6004E0EE
:101B7C00044B1B680133034A136000BF80BD00BFD8
:101B8C00480200204C020020440200203C020020AD
:101B9C0054020020D80100202400002080B400AFA3
:101BAC00034B00221A7000BFBD4680BC704700BFBB
:101BBC0048020020B0B584B000AF00F0BDF8F8606A
:101BCC0000F0D2F80346012B08D100F0C1F84F4BBE
:101BDC0001221A704E4B00221A6092E04B4B1B787C
:101BEC00002B00F08E80FB6801331846FEF75EFB7D
:101BFC00034648491846FEF765FC0346BB60464B56
:101C0C001B681946B868FEF751FD0346002B61D0DE
:101C1C004FF07E51B868FEF753FD0346002B59D0A8
:101C2C003E4B1B78002B07D03C4B1B78002B67D00E
:101C3C003B4B1B78002B63D13A4B1B881846FEF7A5
:101C4C0035FB0446384B1B881846FEF72FFB034622
:101C5C0019462046FEF778FA03461C464FF07E5193
:101C6C00B868FEF771FA03461D462B4B1B684FF004
:101C7C007E511846FEF768FA034619462846FEF7C9
:101C8C0021FC034619462046FEF768FB03461C461A
:101C9C00254B1B881846FEF709FB034619462046C0
:101CAC00FEF754FA03467B60204B1B681946786894
:101CBC00FEF7E8FC0346002B02D11D4B01221A70E3
:101CCC001A4A7B6813601B4B1B78002B18D1FFF74B
:101CDC00EBFA15E00D4B00221A70104B1B78002B01
:101CEC0007D00E4B1B78002B0BD00D4B1B78002B09
:101CFC0007D1104B1B78002B03D0FFF7F7FA00E04D
:101D0C0000BF00BF1037BD46B0BD00BF4802002069
:101D1C004C02002000803B46400200203C02002088
:101D2C0054020020EE010020EC01002024000020D1
:101D3C00C5010020D801002080B400AF034B1B6804
:101D4C005B6A1846BD4680BC704700BF600400202B
:101D5C0080B400AF034B1B6800225A6200BFBD4623
:101D6C0080BC70476004002080B582B000AF0023B7
:101D7C00BB7100237B711DE000237B710221114894
:101D8C0002F018F90346FB7111E07B7901337B718A
:101D9C0002210C4802F00EF903461A46FB799342D5
:101DAC0000D007E07B79052B01D10123BB717B7936
:101DBC00052BEAD1BB79012BDED1FB79184608370C
:101DCC00BD4680BD000C014080B500AF024804F058
:101DDC00C9FB00BF80BD00BF6004002080B582B08D
:101DEC0000AF0023BB7100237B711FE000237B71CC
:101DFC004FF40071114802F0DDF80346FB7112E05C
:101E0C007B7901337B714FF400710C4802F0D2F8EE
:101E1C0003461A46FB79934200D007E07B79052BE9
:101E2C0001D10123BB717B79052BE9D1BB79012B46
:101E3C00DCD1FB7918460837BD4680BD000C01404B
:101E4C0080B500AFFFF7CAFF0346012B03D1074B48
:101E5C0001221A7002E0054B00221A70044B1B7809
:101E6C00002B01D0FFF742FA00BF80BD54020020C6
:101E7C00D801002080B500AFFFF7B0FF0346012B5F
:101E8C0003D1044B01221A7002E0024B00221A709B
:101E9C0000BF80BD5402002080B582B000AF7860D6
:101EAC0039607B6801331B78002B1CD17B681B7855
:101EBC001A463B68934216D13B689B08013B1A4675
:101ECC007968294801F0BFFC01463B68043B7A68FD
:101EDC0013441B68994243D1786800F04DF8234BAA
:101EEC0001221A703CE07B6801331B78012B08D16E
:101EFC003B68402B05D1402279681D480AF0BAF89E
:101F0C002EE01B4B5B78012B26D1194B1B781A4604
:101F1C003B6840339A421FD13A68796815480AF0F9
:101F2C00A9F83B6840339B08013B1A4610490E4800
:101F3C0001F089FC02463B683C330D490B441B689D
:101F4C009A4205D10A4800F0FFF8084B02221A7099
:101F5C00074BFF225A7003E0054BFF225A7000BF5B
:101F6C0000BF0837BD4680BDC803002050020020CA
:101F7C0098020020D802002080B483B000AF7860B3
:101F8C007B689A78034B1A7000BF0C37BD4680BC37
:101F9C00704700BF5102002080B582B000AF484BA3
:101FAC0040221A70464B00225A70464B464A128801
:101FBC001A80464B464A12881A80464B1B88464A62
:101FCC00A2FB0323DB089BB2DAB23D4B9A71434B65
:101FDC001A783B4BDA71424B1A78394B1A72414BD7
:101FEC00414A11461846FEF75DFD404B404A1146EA
:101FFC001846FEF757FD3F4B1A78314B5A743E4B3F
:10200C001A782F4B9A743D4B3D4A11461846FEF7F1
:10201C0049FD3C4B3C4A11461846FEF743FD3B4BF1
:10202C003B4A11461846FEF73DFD3A4B344A1146E1
:10203C001846FEF737FD384B334A11461846FEF763
:10204C0031FD364B324A11461846FEF72BFD344B08
:10205C002B4A11461846FEF725FD324B2A4A1146EB
:10206C001846FEF71FFD304B294A11461846FEF75D
:10207C0019FD2E4B2E4A11461846FEF730FD2D4BFE
:10208C002D4A11461846FEF72AFD2C4B1A780C4B9C
:10209C0083F83B200F220A49294801F0D4FB034660
:1020AC007B60284A3B1D19461046FEF7FBFC40217D
:1020BC00034809F0DDFB00BF0837BD4680BD00BFFB
:1020CC00580200205A020020EC0100205C02002083
:1020DC00EE01002000000020CDCCCCCCC7010020AC
:1020EC003C0200206102002040020020650200201A
:1020FC0044020020C4010020200000206B020020BC
:10210C00040000206F020020CC010020730200208C
:10211C0008000020770200207B0200207F020020B4
:10212C0083020020870200208B0200208F020020F7
:10213C001C000020910200201E0000200200002044
:10214C00C80300209402002080B584B000AF7860F2
:10215C007B685A885E4B1A807B689A885D4B1A8024
:10216C007B6806331B789BB21A46920013445B00C3
:10217C009AB2594B1A807B68DA79584B1A707B6883
:10218C001A7A574B1A70574A7B680933194610460E
:10219C00FEF788FC544A7B680D3319461046FEF74F
:1021AC0081FC7B685A7C514B1A707B689A7C504B33
:1021BC001A70504A7B68133319461046FEF772FCAE
:1021CC004D4A7B68173319461046FEF76BFC4B4A99
:1021DC007B681B3319461046FEF764FC484A7B6843
:1021EC001F3319461046FEF75DFC464A7B682333C5
:1021FC0019461046FEF756FC434A7B6827331946AE
:10220C001046FEF74FFC414A7B682B3319461046AB
:10221C00FEF748FC3E4A7B682F3319461046FEF702
:10222C0041FC3C4A7B68333319461046FEF73AFCB6
:10223C00394A7B68373319461046FEF750FC374A4B
:10224C007B68393319461046FEF749FC7B6893F8D6
:10225C003B20334B1A70FEF721FE03461A46304BD7
:10226C001B789BB29A4205D02D4B1B789BB218461B
:10227C00FEF726FE4FF00003FB6007F10C027B68B3
:10228C003C3319461046FEF70DFC154B1B78002B02
:10229C000FD0244B1B68FA6811461846FEF7F2F96A
:1022AC000346002B02D1204B01221A70FB681D4AF9
:1022BC0013607B6893F840201C4B1A707B6893F872
:1022CC0041201B4B1A7000BF1037BD4680BD00BFAC
:1022DC00EC010020EE01002000000020C7010020CE
:1022EC003C0200204002002044020020C4010020D7
:1022FC002000002004000020CC0100200800002059
:10230C000C000020D0010020100000201400002040
:10231C00D4010020180000201C0000201E0000200A
:10232C000200002024000020C501002053020020E0
:10233C005202002080B582B000AF1F4B14221A70DD
:10234C001D4B01225A701D4B1A781B4B9A701C4B5B
:10235C001C4A11461846FEF7A5FB1B4B1B4A11469F
:10236C001846FEF79FFBFEF723FD0346FB80184A39
:10237C00BB1D19461046FEF7B2FB0F4B00225A73D9
:10238C000D4B00229A730C4B0022DA7304220A497B
:10239C00104801F058FA03463B600F4A3B46194679
:1023AC001046FEF77FFB1421034809F061FA00BFC9
:1023BC000837BD4680BD00BF58020020D801002060
:1023CC005B020020240000205F020020F8010020A6
:1023DC0063020020C80300206802002080B500AF13
:1023EC0000F0F6FB00F013F800F0DEF900F06CF8EA
:1023FC0000F0A8F800F0BAF800F03AF900F086F90D
:10240C0009F072F9FEF7F2F9FEF7FEF9FCE780B578
:10241C0094B000AF07F1280328220021184609F0D8
:10242C0037FE07F1140300221A605A609A60DA60D2
:10243C001A613B1D00221A605A609A60DA6001230F
:10244C00BB624FF48033FB6200233B630123BB630D
:10245C0002237B644FF48033BB644FF4E013FB64C2
:10246C0007F12803184603F0B1FA0346002B01D0FC
:10247C0000F004FA0F237B610223BB610023FB6194
:10248C004FF480633B6200237B6207F1140302214B
:10249C00184603F01DFD0346002B01D000F0EEF9A9
:1024AC0012237B604FF40043FB6000233B613B1D18
:1024BC00184603F091FE0346002B01D000F0DEF924
:1024CC0000BF5037BD4680BD80B584B000AF3B1D0A
:1024DC0000221A605A609A60184B194A1A60174BFE
:1024EC0000229A60154B01221A73144B00221A75A4
:1024FC00124B4FF46022DA61104B00225A600F4BE2
:10250C0001221A610D4800F0C5FB0346002B01D0D7
:10251C0000F0B4F904237B600123BB600723FB604C
:10252C003B1D1946054800F01BFE0346002B01D04D
:10253C0000F0A4F900BF1037BD4680BD9803002001
:10254C000024014080B500AF064B074A1A600548CD
:10255C0001F05DF90346002B01D000F08FF900BFAC
:10256C0080BD00BFC80300200030024080B58EB093
:10257C0000AF07F1280300221A605A609A60DA60F3
:10258C0007F1200300221A605A603B1D00221A60DA
:10259C005A609A60DA601A615A619A61334B4FF053
:1025AC0080421A60314B07225A60304B00229A60ED
:1025BC002E4B4FF47A72DA602C4B00221A612B4BA3
:1025CC0000229A61294803F07DFF0346002B01D0BD
:1025DC0000F054F94FF48053BB6207F128031946FD
:1025EC00224804F049FB0346002B01D000F046F9C9
:1025FC001E4804F081F80346002B01D000F03EF990
:10260C0000233B6200237B6207F120031946174825
:10261C0004F0BEFE0346002B01D000F02FF960231E
:10262C007B604FF47A73BB600223FB6000237B61F9
:10263C003B1D002219460D4804F060FA0346002B9E
:10264C0001D000F01BF93B1D04221946074804F089
:10265C0055FA0346002B01D000F010F9034800F0A6
:10266C00FBF900BF3837BD4680BD00BFD00300204A
:10267C0080B586B000AF07F1080300221A605A60DB
:10268C009A60DA603B4600221A605A601D4B1E4A63
:10269C001A601C4B40F2CF225A601A4B00229A60EF
:1026AC00184BC722DA60174B00221A61154B802297
:1026BC009A61144803F006FF0346002B01D000F08A
:1026CC00DDF84FF48053BB6007F1080319460D4841
:1026DC0004F0D2FA0346002B01D000F0CFF800230F
:1026EC003B6000237B603B461946064804F050FED5
:1026FC000346002B01D000F0C1F800BF1837BD46CF
:10270C0080BD00BF180400200004004080B586B0D6
:10271C0000AF07F1080300221A605A609A60DA6071
:10272C003B4600221A605A601D4B1E4A1A601C4B15
:10273C0005225A601A4B00229A60194B4FF6FF7211
:10274C00DA60174B00221A61154B00229A6114486B
:10275C0003F0B8FE0346002B01D000F08FF84FF4C5
:10276C008053BB6007F1080319460D4804F084FA46
:10277C000346002B01D000F081F800233B600023BE
:10278C007B603B461946064804F002FE0346002BCC
:10279C0001D000F073F800BF1837BD4680BD00BFF4
:1027AC00600400200008004080B588B000AF07F13D
:1027BC00100300221A605A609A60DA602B4B9B69F6
:1027CC002A4A43F020039361284B9B6903F02003B2
:1027DC00FB60FB68254B9B69244A43F0040393611F
:1027EC00224B9B6903F00403BB60BB681F4B9B69C6
:1027FC001E4A43F0080393611C4B9B6903F00803CA
:10280C007B607B6800228021194801F0EAFB802361
:10281C003B6101237B610223BB610323FB6107F155
:10282C0010031946124801F041FA40F202233B61B1
:10283C00104B7B610223BB6107F1100319460E4854
:10284C0001F034FA00220021072000F0AAFF072033
:10285C0000F0C3FF00220521172000F0A2FF172073
:10286C0000F0BBFF00BF2037BD4680BD001002400A
:10287C000008014000003110000C014080B400AF92
:10288C0072B600BFFEE7000080B485B000AF154BF8
:10289C009B69144A43F001039361124B9B6903F04B
:1028AC000103BB60BB680F4BDB690E4A43F08053DE
:1028BC00D3610C4BDB6903F080537B607B680A4B64
:1028CC005B68FB60FB6823F0E063FB60FB6843F034
:1028DC000073FB60044AFB68536000BF1437BD46AD
:1028EC0080BC7047001002400000014080B588B0E9
:1028FC0000AF786007F1100300221A605A609A60EA
:10290C00DA607B681B68184A934229D1174B9B6984
:10291C00164A43F400739361144B9B6903F40073E0
:10292C00FB60FB68114B9B69104A43F004039361F5
:10293C000E4B9B6903F00403BB60BB6810233B6127
:10294C0003237B6107F110031946094801F0AEF926
:10295C0000220221122000F024FF122000F03DFF83
:10296C0000BF2037BD4680BD00240140001002404E
:10297C000008014080B485B000AF78607B681B68AC
:10298C00094A93420BD1094B5B69084A43F0400357
:10299C005361064B5B6903F04003FB60FB6800BFAF
:1029AC001437BD4680BC7047003002400010024016
:1029BC0080B586B000AF78607B681B68B3F1804F40
:1029CC000CD1224BDB69214A43F00103D3611F4B2D
:1029DC00DB6903F001037B617B6932E07B681B6878
:1029EC001B4A934214D1194BDB69184A43F002037A
:1029FC00D361164BDB6903F002033B613B69002298
:102A0C0001211D2000F0CDFE1D2000F0E6FE18E097
:102A1C007B681B680F4A934213D10C4BDB690B4A42
:102A2C0043F00403D361094BDB6903F00403FB603F
:102A3C00FB68002200211E2000F0B3FE1E2000F0D7
:102A4C00CCFE00BF1837BD4680BD00BF0010024051
:102A5C00000400400008004080B588B000AF7860EA
:102A6C0007F1100300221A605A609A60DA607B68E2
:102A7C001B68B3F1804F17D10D4B9B690C4A43F087
:102A8C00040393610A4B9B6903F00403FB60FB682E
:102A9C0003233B6102237B610323FB6107F11003DA
:102AAC001946044801F002F900BF2037BD4680BD2D
:102ABC00001002400008014080B400AFFEE780B473
:102ACC0000AFFEE780B400AFFEE780B400AFFEE7D6
:102ADC0080B400AFFEE780B400AF00BFBD4680BC41
:102AEC00704780B400AF00BFBD4680BC704780B457
:102AFC0000AF00BFBD4680BC704780B500AF00F092
:102B0C00ADF8FEF737F800BF80BD80B500AF0220EE
:102B1C0001F080FA00BF80BD80B500AF024800F024
:102B2C0053FA00BF80BD00BF9803002080B500AFF2
:102B3C00024801F0B8FB00BF80BD00BF6811002047
:102B4C0080B500AF4FF4007001F064FA00BF80BD97
:102B5C0080B500AF024803F0C9FE00BF80BD00BFC6
:102B6C001804002080B500AF024803F0BFFE00BF80
:102B7C0080BD00BF6004002080B400AF00BFBD4624
:102B8C0080BC70470C480D490D4A002302E0D45814
:102B9C00C4500433C4188C42F9D30A4A0A4C00239B
:102BAC0001E013600432A242FBD3FFF7E5FF09F00A
:102BBC003DFAFFF713FC704700000020A401002031
:102BCC0048C10008A801002074160020FEE7000090
:102BDC0080B500AF084B1B68074A43F01003136025
:102BEC00032000F0D3FD042000F008F8FFF74CFEA2
:102BFC000023184680BD00BF0020024080B582B083
:102C0C0000AF7860124B1A68124B1B7819464FF4C0
:102C1C007A73B3FBF1F3B2FBF3F3184600F0EBFD60
:102C2C000346002B01D001230EE07B680F2B0AD842
:102C3C00002279684FF0FF3000F0B3FD064A7B6844
:102C4C001360002300E0012318460837BD4680BD01
:102C5C0028000020300000202C00002080B400AFA1
:102C6C00054B1B781A46054B1B681344034A13602B
:102C7C0000BFBD4680BC704730000020A804002077
:102C8C0080B400AF024B1B681846BD4680BC704731
:102C9C00A804002080B586B000AF78600023FB75D7
:102CAC0000233B610023BB600023FB607B68002B8F
:102CBC0001D10123BEE07B689B68002B7B689B6A7B
:102CCC00002B09D17B680022DA627B68002283F832
:102CDC0024207868FFF70AFE786800F093FB03461F
:102CEC00FB757B689B6A03F01003002B40F0998006
:102CFC00FB7D002B40F095807B689B6A23F4885306
:102D0C0023F0020343F002027B689A627B685A68E4
:102D1C007B68DB691A437B681B7B5B001343BA68D7
:102D2C001343BB607B689B68B3F5807F03D07B68E3
:102D3C009B68012B02D14FF4807300E000233A69A9
:102D4C0013433B617B681B7D012B19D17B681B7B7B
:102D5C00002B09D17B689B69013B5A033B691343E8
:102D6C0043F400633B610BE07B689B6A43F02002F9
:102D7C007B689A627B68DB6A43F001027B68DA62EB
:102D8C007B681B685B6823F469417B681B683A6944
:102D9C000A435A607B681B689A68284B13407A6810
:102DAC001268B9680B4393607B689B68B3F5807FAE
:102DBC0003D07B689B68012B04D17B681B69013BAA
:102DCC001B05FB607B681B68DB6A23F470017B6866
:102DDC001B68FA680A43DA627B681B689A68184BAE
:102DEC001340BA689A420BD17B680022DA627B6886
:102DFC009B6A23F0030343F001027B689A6218E09C
:102E0C007B689B6A23F0120343F010027B689A6282
:102E1C007B68DB6A43F001027B68DA620123FB7595
:102E2C0007E07B689B6A43F010027B689A6201237F
:102E3C00FB75FB7D18461837BD4680BDFDF7E1FFDD
:102E4C00FE0E1FFF80B584B000AF78600023FB73CB
:102E5C007B6893F82430012B01D10223A0E07B681E
:102E6C00012283F82420786800F072FA0346FB7381
:102E7C00FB7B002B40F08F807B689B6A23F4706394
:102E8C0023F0010343F480727B689A627B681B68B1
:102E9C00454A934205D1454B5B6803F47023002BE4
:102EAC0015D17B689B6A23F480127B689A627B68DD
:102EBC001B685B6803F48063002B26D07B689B6ADD
:102ECC0023F4405343F480527B689A621DE07B6884
:102EDC009B6A43F480127B689A627B681B68334A56
:102EEC00934204D07B681B682F4A93420DD12F4B21
:102EFC005B6803F48063002B07D07B689B6A23F428
:102F0C00405343F480527B689A627B689B6A03F45B
:102F1C008053002B06D07B68DB6A23F006027B68AB
:102F2C00DA6202E07B680022DA627B68002283F8B6
:102F3C0024207B681B686FF002021A607B681B6898
:102F4C005A687B681B6842F020025A607B681B68D9
:102F5C009B6803F46023B3F5602F13D17B681B6867
:102F6C00114A934205D1114B5B6803F47023002B7B
:102F7C0008D17B681B689A687B681B6842F4A002C6
:102F8C009A600CE07B681B689A687B681B6842F44B
:102F9C0080129A6003E07B68002283F82420FB7B7C
:102FAC0018461037BD4680BD002801400024014062
:102FBC0080B483B000AF78607B681B68DB6C18460C
:102FCC000C37BD4680BC704780B582B000AF7860CE
:102FDC007B681B685B6803F02003202B40D17B6867
:102FEC001B681B6803F00203022B39D17B689B6AB8
:102FFC0003F01003002B05D17B689B6A43F400722D
:10300C007B689A627B681B689B6803F46023B3F54A
:10301C00602F1DD17B681B7B002B19D17B681B6833
:10302C005A687B681B6822F020025A607B689B6A96
:10303C0023F480727B689A627B689B6A03F48053EA
:10304C00002B05D17B689B6A43F001027B689A6276
:10305C007868FDF761FD7B681B686FF012021A60DF
:10306C007B681B685B6803F08003802B4FD17B6807
:10307C001B681B6803F00403042B48D17B689B6A14
:10308C0003F01003002B05D17B689B6A43F40052BC
:10309C007B689A627B681B689B6803F4E043B3F51A
:1030AC00E04F12D07B681B685B6803F48063002BD5
:1030BC0025D17B681B689B6803F46023B3F5602FF4
:1030CC001DD17B681B7B002B19D17B681B685A6850
:1030DC007B681B6822F080025A607B689B6A23F431
:1030EC0080527B689A627B689B6A03F48073002B26
:1030FC0005D17B689B6A43F001027B689A62786811
:10310C0000F06EFA7B681B686FF00C021A607B682B
:10311C001B685B6803F04003402B14D17B681B6871
:10312C001B6803F00103012B0DD17B689B6A43F4F0
:10313C0080327B689A62786800F009F87B681B68BB
:10314C006FF001021A6000BF0837BD4680BD80B425
:10315C0083B000AF786000BF0C37BD4680BC7047B1
:10316C0080B485B000AF786039600023FB73002316
:10317C00BB607B6893F82430012B01D10223DCE087
:10318C007B68012283F824203B685B68062B1CD8E3
:10319C007B681B68596B3B685A6813469B00134449
:1031AC00053B1F2202FA03F3DB4319403B68186806
:1031BC003B685A6813469B001344053B00FA03F224
:1031CC007B681B680A435A633CE03B685B680C2BCA
:1031DC001CD87B681B68196B3B685A6813469B00AC
:1031EC001344233B1F2202FA03F3DB4319403B68D1
:1031FC0018683B685A6813469B001344233B00FA3B
:10320C0003F27B681B680A431A631BE07B681B682C
:10321C00D96A3B685A6813469B001344413B1F22F2
:10322C0002FA03F3DB4319403B6818683B685A68A1
:10323C0013469B001344413B00FA03F27B681B6866
:10324C000A43DA623B681B68092B1CD97B681B6834
:10325C00D9683B681A6813465B0013441E3B07226F
:10326C0002FA03F3DB4319403B6898683B681A6821
:10327C0013465B0013441E3B00FA03F27B681B6889
:10328C000A43DA6019E07B681B6819693B681A68A5
:10329C0013465B001344072202FA03F3DB43194085
:1032AC003B6898683B681A6813465B00134400FA45
:1032BC0003F27B681B680A431A613B681B68102B7E
:1032CC0003D03B681B68112B32D17B681B681D4AED
:1032DC00934225D17B681B689B6803F40003002B89
:1032EC0026D17B681B689A687B681B6842F40002D5
:1032FC009A603B681B68102B1AD1134B1B68134A3E
:10330C00A2FB03239A0C13469B0013445B00BB6087
:10331C0002E0BB68013BBB60BB68002BF9D107E046
:10332C007B689B6A43F020027B689A620123FB73E3
:10333C007B68002283F82420FB7B18461437BD469B
:10334C0080BC7047002401402800002083DE1B4312
:10335C0080B584B000AF78600023FB600023BB60B5
:10336C007B681B689B6803F00103012B40D07B68D2
:10337C001B689A687B681B6842F001029A601F4BBD
:10338C001B681F4AA2FB03239B0CBB6002E0BB68BB
:10339C00013BBB60BB68002BF9D1FFF771FCF860F7
:1033AC001FE0FFF76DFC0246FB68D31A022B18D9FD
:1033BC007B681B689B6803F00103012B11D07B68B1
:1033CC009B6A43F010027B689A627B68DB6A43F06D
:1033DC0001027B68DA627B68002283F824200123D7
:1033EC0007E07B681B689B6803F00103012BD8D1B5
:1033FC00002318461037BD4680BD00BF28000020B2
:10340C0083DE1B4380B584B000AF78600023FB6083
:10341C007B681B689B6803F00103012B2ED17B6832
:10342C001B689A687B681B6822F001029A60FFF7A0
:10343C0027FCF8601BE0FFF723FC0246FB68D31A5D
:10344C00022B14D97B681B689B6803F00103012BCA
:10345C000DD17B689B6A43F010027B689A627B6893
:10346C00DB6A43F001027B68DA62012307E07B68C8
:10347C001B689B6803F00103012BDCD0002318466A
:10348C001037BD4680BD000090B587B000AF7860A6
:10349C000023FB750023FB607B6893F82430012B21
:1034AC0001D1022395E07B68012283F824207868FF
:1034BC00FFF7A8FF0346FB75FB7D002B40F08480D3
:1034CC007B689B6A23F4885323F0020343F00202C7
:1034DC007B689A62414B1C68022002F033FF034662
:1034EC00B4FBF3F35B00FB6002E0FB68013BFB60A9
:1034FC00FB68002BF9D17868FFF72AFF7B681B6803
:10350C009A687B681B6842F008029A60FFF7B8FB68
:10351C0038611BE0FFF7B4FB02463B69D31A0A2B58
:10352C0014D97B681B689B6803F00803002B0DD033
:10353C007B689B6A23F0120343F010027B689A624B
:10354C007B68002283F82420012342E07B681B68FF
:10355C009B6803F00803002BDCD17B681B689A681E
:10356C007B681B6842F004029A60FFF789FB3861A4
:10357C001BE0FFF785FB02463B69D31A0A2B14D9D3
:10358C007B681B689B6803F00403002B0DD07B68E1
:10359C009B6A23F0120343F010027B689A627B68EB
:1035AC00002283F82420012313E07B681B689B68AE
:1035BC0003F00403002BDCD17B689B6A23F003032C
:1035CC0043F001027B689A627B68002283F8242016
:1035DC00FB7D18461C37BD4690BD00BF280000205F
:1035EC0080B483B000AF786000BF0C37BD4680BCA0
:1035FC007047000080B485B000AF78607B6803F042
:10360C000703FB600C4BDB68BB60BA684FF6FF032B
:10361C001340BB60FB681A02BB68134343F0BF63E3
:10362C0043F40033BB60044ABB68D36000BF14375B
:10363C00BD4680BC704700BF00ED00E080B400AF19
:10364C00044BDB681B0A03F007031846BD4680BC1D
:10365C00704700BF00ED00E080B483B000AF0346BC
:10366C00FB7197F90730002B0BDBFB7903F01F0282
:10367C00064997F907305B09012000FA02F241F87C
:10368C00232000BF0C37BD4680BC704700E100E032
:10369C0080B483B000AF03463960FB7197F90730F3
:1036AC00002B0ADB3B68DAB20C4997F907301201A0
:1036BC00D2B20B4483F800230AE03B68DAB2084923
:1036CC00FB7903F00F03043B1201D2B20B441A76C0
:1036DC0000BF0C37BD4680BC704700BF00E100E066
:1036EC0000ED00E080B489B000AFF860B9607A609A
:1036FC00FB6803F00703FB61FB69C3F10703042BB1
:10370C0028BF0423BB61FB690433062B02D9FB6978
:10371C00033B00E000237B614FF0FF32BB6902FAF0
:10372C0003F3DA43BB681A407B699A404FF0FF31D0
:10373C007B6901FA03F3D9437B680B4013431846AA
:10374C002437BD4680BC704780B582B000AF78602E
:10375C007B68013BB3F1807F01D301230FE00A4A60
:10376C007B68013B53600F214FF0FF30FFF790FF58
:10377C00054B00229A60044B07221A60002318465E
:10378C000837BD4680BD00BF10E000E080B582B0B8
:10379C0000AF78607868FFF72DFF00BF0837BD4693
:1037AC0080BD80B586B000AF0346B9607A60FB730C
:1037BC0000237B61FFF742FF78617A68B96878690A
:1037CC00FFF790FF024697F90F3011461846FFF7A6
:1037DC005FFF00BF1837BD4680BD80B582B000AF1B
:1037EC000346FB7197F907301846FFF735FF00BF0A
:1037FC000837BD4680BD80B582B000AF7860786870
:10380C00FFF7A2FF034618460837BD4680BD80B5BA
:10381C0082B000AF78607B68002B01D101230EE0F1
:10382C007B685B79DBB2002B05D17B6800221A71B7
:10383C007868FFF79FF87B6801225A7100231846BD
:10384C000837BD4680BD80B487B000AFF860B96062
:10385C007A6000233B61FB6802225A71FB681B688B
:10386C009A68FB681B6842F001029A6000237B6136
:10387C000AE07B699B00BA681A44FB681B681268F3
:10388C001A607B6901337B617A697B689A42F0D359
:10389C00FB681B681B683B61FB6801225A713B6922
:1038AC0018461C37BD4680BC70470000F0B587B089
:1038BC0000AFF860B960C7E900230123FB75002352
:1038CC00BB7500237B752F4B1B7E012B01D1022373
:1038DC0054E02C4B01221A764CF2503000F0A8F830
:1038EC000346FB75FB7D002B44D1FB68012B02D1F9
:1038FC0001237B7507E0FB68022B02D102237B7549
:10390C0001E004237B750023BB752DE0BB7D5A00C1
:10391C00BB6802EB030CBB7D1901D7E90023C1F195
:10392C002006A1F1200022FA01F403FA06F6344332
:10393C0023FA00F0044323FA01F5A3B219466046BA
:10394C0000F05AF84CF2503000F072F80346FB7558
:10395C000D4B1B690C4A23F001031361FB7D002BFB
:10396C0007D1BB7D0133BB75BA7D7B7D9A42CDD32C
:10397C0000E000BF034B00221A76FB7D18461C3773
:10398C00BD46F0BDB00400200020024080B483B0DE
:10399C0000AF0023FB710D4B1B6903F08003002B60
:1039AC000DD00A4B0A4A5A60084B0A4A5A60074B18
:1039BC001B6903F08003002B01D00123FB71FB7901
:1039CC0018460C37BD4680BC704700BF0020024033
:1039DC0023016745AB89EFCD80B400AF054B1B6964
:1039EC00044A43F08003136100231846BD4680BC93
:1039FC00704700BF0020024080B483B000AF7860F5
:103A0C000B467B80084B0022DA61084B1B69074A86
:103A1C0043F0010313617B687A881A8000BF0C376E
:103A2C00BD4680BC704700BFB0040020002002409F
:103A3C0080B584B000AF7860FFF722F9F86010E031
:103A4C007B68B3F1FF3F0CD07B68002B07D0FFF7EE
:103A5C0017F90246FB68D31A7A689A4201D20323FB
:103A6C0025E0154BDB6803F00103002BE8D1124B6A
:103A7C00DB6803F02003002B02D00F4B2022DA600E
:103A8C000D4BDB6803F01003002B0BD10A4BDB69E9
:103A9C0003F00103002B05D1074BDB6803F0040393
:103AAC00002B03D000F00AF8012300E00023184695
:103ABC001037BD4680BD00BF0020024080B483B0EB
:103ACC0000AF00237B60234BDB6803F01003002B5B
:103ADC0009D0214BDB6943F002031F4AD3617B6899
:103AEC0043F010037B601B4BDB6803F00403002BDB
:103AFC0009D0194BDB6943F00103174AD3617B688A
:103B0C0043F004037B60134BDB6903F00103002BD0
:103B1C000BD0114BDB6943F004030F4AD3610D4BFF
:103B2C00DB690C4A23F00103D3617B6840F201127C
:103B3C00934206D1074BDB69064A23F00103D3619C
:103B4C0002E0044A7B68D36000BF0C37BD4680BCE2
:103B5C00704700BF00200240B004002080B584B044
:103B6C0000AF786039600123FB730023BB602F4BDF
:103B7C001B7E012B01D1022353E02C4B01221A7620
:103B8C007B681B68022B16D14CF25030FFF750FFAC
:103B9C000346002B41D1012000F04CF84CF2503080
:103BAC00FFF746FF0346FB73214B1B69204A23F0AA
:103BBC000403136131E04CF25030FFF739FF034638
:103BCC00002B2AD13B684FF0FF321A607B689B6850
:103BDC00BB6019E0B86800F049F84CF25030FFF7C0
:103BEC0027FF0346FB73124B1B69114A23F0020398
:103BFC001361FB7B002B03D03B68BA681A600CE0A6
:103C0C00BB6803F58063BB607B68DB689A027B68EA
:103C1C009B681344BA689A42DCD3044B00221A7690
:103C2C00FB7B18461037BD4680BD00BFB00400209A
:103C3C000020024080B483B000AF7860094B0022B2
:103C4C00DA61094B1B69084A43F004031361064B04
:103C5C001B69054A43F04003136100BF0C37BD4696
:103C6C0080BC7047B00400200020024080B483B0B8
:103C7C0000AF78600B4B0022DA610B4B1B690A4AD0
:103C8C0043F002031361084A7B685361064B1B69BE
:103C9C00054A43F04003136100BF0C37BD4680BC9E
:103CAC00704700BFB00400200020024080B48BB0ED
:103CBC0000AF7860396000237B6200233B6269E1CE
:103CCC0001227B6A02FA03F3FB613B681B68FA6909
:103CDC001340BB61BA69FB699A4240F058813B685A
:103CEC005B689A4A93425ED0984A934275D8984A38
:103CFC00934258D0964A93426FD8964A934252D0E8
:103D0C00944A934269D8944A93424CD0924A934233
:103D1C0063D8924A934246D0904A93425DD8122B74
:103D2C002AD8122B59D801A252F823F0B33D00081F
:103D3C008D3D00089F3D0008E13D0008E73D00086F
:103D4C00E73D0008E73D0008E73D0008E73D0008B7
:103D5C00E73D0008E73D0008E73D0008E73D0008A7
:103D6C00E73D0008E73D0008E73D0008E73D000897
:103D7C00953D0008A93D0008794A934213D02CE0E8
:103D8C003B68DB683B6229E03B68DB6804333B62E1
:103D9C0024E03B68DB6808333B621FE03B68DB6870
:103DAC000C333B621AE03B689B68002B02D1042366
:103DBC003B6213E03B689B68012B05D108233B62F7
:103DCC007B68FA691A6109E008233B627B68FA692F
:103DDC005A6103E000233B6200E000BFBB69FF2B8C
:103DEC0001D87B6801E07B6804337B61BB69FF2BE6
:103DFC0002D87B6A9B0002E07B6A083B9B003B611C
:103E0C007B691A680F213B6901FA03F3DB431A4003
:103E1C00396A3B6901FA03F31A437B691A603B6800
:103E2C005B6803F08053002B00F0B1804D4B9B6915
:103E3C004C4A43F0010393614A4B9B6903F0010325
:103E4C00BB60BB68484A7B6A9B08023352F823303C
:103E5C00FB607B6A03F003039B000F2202FA03F35F
:103E6C00DB43FA681340FB607B68404A934213D0F3
:103E7C007B683F4A93420DD07B683E4A934207D001
:103E8C007B683D4A934201D1032306E0042304E0FE
:103E9C00022302E0012300E000237A6A02F003020D
:103EAC0092009340FA681343FB602F497B6A9B088E
:103EBC000233FA6841F823203B685B6803F48033D3
:103ECC00002B06D02D4B1A682C49BB6913430B6091
:103EDC0006E02A4B1A68BB69DB43284913400B6088
:103EEC003B685B6803F40033002B06D0234B5A6805
:103EFC002249BB6913434B6006E0204B5A68BB69EF
:103F0C00DB431E4913404B603B685B6803F4801332
:103F1C00002B06D0194B9A681849BB6913438B6068
:103F2C0006E0164B9A68BB69DB43144913408B605F
:103F3C003B685B6803F40013002B21D00F4BDA684D
:103F4C000E49BB691343CB6021E000BF0000321067
:103F5C00000031100000221000002110000012108F
:103F6C000000111000100240000001400008014048
:103F7C00000C0140001001400014014000040140FD
:103F8C000B4BDA68BB69DB4309491340CB607B6A96
:103F9C0001337B623B681A687B6A22FA03F3002BBD
:103FAC007FF48EAE00BF00BF2C37BD4680BC70477F
:103FBC000004014080B485B000AF78600B467B8074
:103FCC007B689A687B881340002B02D00123FB731B
:103FDC0001E00023FB73FB7B18461437BD4680BC05
:103FEC00704780B483B000AF78600B467B8013467B
:103FFC007B707B78002B03D07A887B681A6103E096
:10400C007B881A047B681A6100BF0C37BD4680BCE4
:10401C007047000080B582B000AF0346FB80084BB0
:10402C005A69FB881340002B06D0054AFB88536164
:10403C00FB881846FCF7A8FD00BF0837BD4680BDBD
:10404C0000040140F0B58BB006AF78607B68002BA4
:10405C0001D10123FDE07B6893F8A932DBB2002B80
:10406C0006D17B68002283F8A822786807F034FD1B
:10407C007B68032283F8A9227B681B68184603F02F
:10408C001DFA7B681B683B607E686D4606F1100468
:10409C000FCC0FC523682B60331D0ECB386803F093
:1040AC00E7F90346002B05D07B68022283F8A9228E
:1040BC000123CEE07B681B680021184603F018FA38
:1040CC000023FB734CE0FB7B79685A1C13469B0066
:1040DC001344DB000B44013301221A70FB7B79681B
:1040EC005A1C13469B001344DB000B44FA7B1A70DA
:1040FC00FA7BFB7B98B2796813469B001344DB0078
:10410C000B44363302461A80FB7B79685A1C1346E3
:10411C009B001344DB000B44033300221A70FA7B20
:10412C00796813469B001344DB000B4438330022A0
:10413C001A60FA7B796813469B001344DB000B442E
:10414C003C3300221A60FA7B796813469B001344B7
:10415C00DB000B44403300221A60FB7B0133FB7302
:10416C00FA7B7B685B689A42ADD30023FB7344E017
:10417C00FA7B796813469B001344DB000B4403F273
:10418C00691300221A70FA7B796813469B0013445A
:10419C00DB000B4403F5B473FA7B1A70FA7B796875
:1041AC0013469B001344DB000B4403F26B130022F9
:1041BC001A70FA7B796813469B001344DB000B449E
:1041CC0003F5BC7300221A60FA7B796813469B00D6
:1041DC001344DB000B4403F5BE7300221A60FA7B18
:1041EC00796813469B001344DB000B4403F5C07342
:1041FC0000221A60FB7B0133FB73FA7B7B685B68E4
:10420C009A42B5D37B681B683B607E686D4606F1AD
:10421C0010040FCC0FC523682B60331D0ECB3868F0
:10422C0003F072F90346002B05D07B68022283F859
:10423C00A92201230DE07B68002283F824207B68EF
:10424C00012283F8A9227B681B68184605F024FE1E
:10425C00002318461437BD46F0BD80B582B000AFC0
:10426C0078607B6893F8A832012B01D1022316E009
:10427C007B68012283F8A8227B681B68184603F030
:10428C0007F90121786807F09AFE7B681B681846CD
:10429C0005F0F8FD7B68002283F8A822002318465D
:1042AC000837BD4680BD80B588B000AF78607B68AC
:1042BC001B68184605F0FAFD034603F40043B3F5FA
:1042CC00004F02D1786800F05FFB7B681B681846D2
:1042DC0005F0ECFD034603F48063B3F5806F12D157
:1042EC007B681B68B3F844309AB27B681B6822F475
:1042FC00806292B2A3F84420786807F068FC002131
:10430C00786800F023F97B681B68184605F0CEFD31
:10431C00034603F48043B3F5804F0BD17B681B68D5
:10432C00B3F844309AB27B681B6822F4804292B294
:10433C00A3F844207B681B68184605F0B7FD0346BC
:10434C0003F40053B3F5005F0BD17B681B68B3F823
:10435C0044309AB27B681B6822F4005292B2A3F8E4
:10436C0044207B681B68184605F0A0FD034603F447
:10437C008053B3F5805F26D17B681B68B3F840305F
:10438C009AB27B681B6822F0040292B2A3F8402018
:10439C007B681B68B3F840309AB27B681B6822F0CC
:1043AC00080292B2A3F84020786807F049FC7B68B9
:1043BC001B68B3F844309AB27B681B6822F48052B5
:1043CC0092B2A3F844207B681B68184605F06EFD7A
:1043DC00034603F40063B3F5006F40F082800023C2
:1043EC00FB7710E07B681B681A46FB7F9B001A4426
:1043FC00FB7F128892B25B0020333B4423F8142CD1
:10440C00FB7F0133FB77FB7F072BEBD97B681B68AA
:10441C00B3F840309AB27B681B6842F0010292B24A
:10442C00A3F840207B681B68B3F840309AB27B68D5
:10443C001B6822F0010292B2A3F8402000BF7B68F7
:10444C001B68B3F844309BB203F48063002BF6D0A6
:10445C007B681B68B3F844309AB27B681B6822F403
:10446C00806292B2A3F844200023FB770FE0FB7F1D
:10447C007A6812681146FA7F92000A445B00203376
:10448C003B4433F8143C1380FB7F0133FB77FB7FF9
:10449C00072BECD97B681B68B3F840309AB27B6869
:1044AC001B6842F0080292B2A3F840207B681B689C
:1044BC00B3F844309AB27B681B6822F4006292B263
:1044CC00A3F844207B681B68B3F840309AB27B6831
:1044DC001B6842F0040292B2A3F84020786807F0FF
:1044EC0095FB7B681B68184605F0E0FC034603F45B
:1044FC000073B3F5007F0ED17B681B68B3F84430B2
:10450C009AB27B681B6822F4007292B2A3F8442022
:10451C00786807F04EFB7B681B68184605F0C6FCF4
:10452C00034603F48073B3F5807F0BD17B681B6863
:10453C00B3F844309AB27B681B6822F4807292B252
:10454C00A3F8442000BF2037BD4680BD80B582B0A3
:10455C0000AF78600B46FB707B6893F8A832012B98
:10456C0001D1022313E07B68012283F8A8227B6827
:10457C00FA7883F824207B681B68FA781146184671
:10458C0005F06DFC7B68002283F8A82200231846F6
:10459C000837BD4680BD80B584B000AF7860084652
:1045AC0011461A460346FB700B463B801346BB7004
:1045BC000023FB7297F90330002B0EDAFB7803F023
:1045CC0007035A1C13469B001344DB007A68134400
:1045DC00FB60FB6801225A700EE0FB7803F00702C7
:1045EC0013469B001344DB0003F5B4737A68134441
:1045FC00FB60FB6800225A70FB7803F00703DAB209
:10460C00FB681A703A88FB681A61FB68BA78DA7032
:10461C00FB685B78002B04D0FB681B789AB2FB68B4
:10462C00DA81BB78022B02D1FB6800221A717B68FD
:10463C0093F8A832012B01D102230EE07B680122F2
:10464C0083F8A8227B681B68F968184602F07CFF87
:10465C007B68002283F8A822FB7A18461037BD46E7
:10466C0080BD80B584B000AF78600B46FB7097F9C5
:10467C000330002B0EDAFB7803F007035A1C1346A9
:10468C009B001344DB007A681344FB60FB68012237
:10469C005A700EE0FB7803F0070213469B0013449C
:1046AC00DB0003F5B4737A681344FB60FB680022EB
:1046BC005A70FB7803F00703DAB2FB681A707B6858
:1046CC0093F8A832012B01D102230EE07B68012262
:1046DC0083F8A8227B681B68F968184603F09EFAD9
:1046EC007B68002283F8A822002318461037BD46A9
:1046FC0080BD80B586B000AFF8607A603B600B4639
:10470C00FB72FB7A03F0070213469B001344DB0099
:10471C0003F5B473FA6813447B617B697A685A6158
:10472C007B693A689A617B690022DA617B690022B5
:10473C005A70FB7A03F00703DAB27B691A70FB7AC2
:10474C0003F00703002B06D1FB681B687969184638
:10475C0003F050FC05E0FB681B687969184603F010
:10476C0049FC002318461837BD4680BD80B483B081
:10477C0000AF78600B46FB70FB7803F0070279689A
:10478C0013469B001344DB000B4403F5C2731B68F8
:10479C0018460C37BD4680BC704780B586B000AF5C
:1047AC00F8607A603B600B46FB72FB7A03F0070300
:1047BC005A1C13469B001344DB00FA6813447B61BC
:1047CC007B697A685A617B693A689A617B690122D4
:1047DC0083F824207B693A681A627B690022DA61CB
:1047EC007B6901225A70FB7A03F00703DAB27B690A
:1047FC001A70FB7A03F00703002B06D1FB681B68C9
:10480C007969184603F0F6FB05E0FB681B687969CB
:10481C00184603F0EFFB002318461837BD4680BD41
:10482C0080B584B000AF78600B46FB70FB7803F06A
:10483C0007027B685B689A4201D901234CE097F927
:10484C000330002B0EDAFB7803F007035A1C1346D7
:10485C009B001344DB007A681344FB60FB68012265
:10486C005A700CE0FA7813469B001344DB0003F5F6
:10487C00B4737A681344FB60FB6800225A70FB68BF
:10488C0001229A70FB7803F00703DAB2FB681A7006
:10489C007B6893F8A832012B01D102231CE07B68C2
:1048AC00012283F8A8227B681B68F968184605F07A
:1048BC00D9F9FB7803F00703002B08D17B681A6841
:1048CC007B6803F52C731946104605F0FEFA7B68DD
:1048DC00002283F8A822002318461037BD4680BD5D
:1048EC0080B584B000AF78600B46FB70FB7803F0AA
:1048FC000F027B685B689A4201D9012340E097F96B
:10490C000330002B0EDAFB7803F007035A1C134616
:10491C009B001344DB007A681344FB60FB680122A4
:10492C005A700EE0FB7803F0070213469B00134409
:10493C00DB0003F5B4737A681344FB60FB68002258
:10494C005A70FB6800229A70FB7803F00703DAB206
:10495C00FB681A707B6893F8A832012B01D10223F3
:10496C000EE07B68012283F8A8227B681B68F9683B
:10497C00184605F0C7F97B68002283F8A8220023AB
:10498C0018461037BD4680BD80B58EB000AF78603C
:10499C00ECE27B681B68B3F84430FB85FB8DDBB223
:1049AC0003F00F0387F82D3097F82D30002B40F0D3
:1049BC006181FB8D03F01003002B52D17B681B68C7
:1049CC001B889BB223F4E14323F07003FB817B68CB
:1049DC001A68FB896FEA43436FEA53439BB2138017
:1049EC007B6828337B627B681B68B3F850309BB2C2
:1049FC001A467B6A1B78DB00134402335B007A682F
:104A0C001268134403F580631B88C3F309027B6AA5
:104A1C00DA617B6A5A697B6ADB691A447B6A5A6180
:104A2C000021786807F0ABF87B6893F82430DBB290
:104A3C00002B00F09B827B6A9B69002B40F09682D6
:104A4C007B6893F82430DBB263F07F03DAB27B68C7
:104A5C001B6892B2A3F84C207B68002283F82420B8
:104A6C0084E27B6803F5B4737B627B681B681B88EC
:104A7C007B857B8D03F40063002B34D07B681B6833
:104A8C00B3F850309BB21A467B6A1B78DB00134498
:104A9C0006335B007A681268134403F580631B8845
:104AAC00C3F309027B6ADA617B6818687B6803F5DB
:104ABC002C717B6ADA887B6ADB699BB205F055FA4C
:104ACC007B681B681B889AB240F68F7313403B823D
:104ADC007B681B683A8A42F0800292B21A8078682E
:104AEC0007F020F842E2B7F92A30002B80F23E8220
:104AFC007B681B681B889AB240F68F731340BB838C
:104B0C007B681B68BA8B42F0800292B21A807B6879
:104B1C001B68B3F850309BB21A467B6A1B78DB00DB
:104B2C00134406335B007A681268134403F5806300
:104B3C001B88C3F309027B6ADA617B6ADB69002B91
:104B4C0019D07B6A5B69002B15D07B6818687B6A6F
:104B5C0059697B6ADA887B6ADB699BB205F005FAD6
:104B6C007B6A5A697B6ADB691A447B6A5A61002149
:104B7C00786806F0E9FF7B681B681B889BB203F41E
:104B8C000063002B40F0F2817B681B68BB617B6883
:104B9C001B68B3F850309BB21A46BB691344BB6117
:104BAC00BB6903F20C437B617B6A1B69002B12D13E
:104BBC007B691B889BB223F4F8439AB27B691A80F9
:104BCC007B691B889BB26FEA43436FEA53439AB2EB
:104BDC007B691A802FE07B6A1B693E2B13D87B6A9A
:104BEC001B695B083B637B6A1B6903F00103002BA9
:104BFC0002D03B6B01333B633B6B9BB29B029AB283
:104C0C007B691A8017E07B6A1B695B093B637B6AD3
:104C1C001B6903F01F03002B02D13B6B013B3B6371
:104C2C003B6B9BB29B029BB26FEA43436FEA5343CD
:104C3C009AB27B691A807B681B681B889BB223F431
:104C4C00804323F070037B827B8A83F480537B82C6
:104C5C007B8A83F400537B827B681A687B8A43F0DF
:104C6C007F4343F47F0343F4004343F080039BB240
:104C7C0013807BE17B681B681A4697F82D309B00EC
:104C8C0013441B887B85B7F92A30002B80F2EA800D
:104C9C007B681B681A4697F82D309B0013441B88C1
:104CAC009AB240F68F7313403B857B681B681A469B
:104CBC0097F82D309B0013443A8D42F0800292B24B
:104CCC001A8097F82D2013469B001344DB0003F544
:104CDC00B4737A6813447B627B6A1B7B002B22D1F2
:104CEC007B681B68B3F850309BB21A467B6A1B7802
:104CFC00DB00134406335B007A681268134403F537
:104D0C0080631B88C3F30903FB86FB8E002B00F02A
:104D1C0087807B6818687B6A59697B6ADA88FB8EA6
:104D2C0005F023F97CE07B6ADB78022B08D17B8DC4
:104D3C001A46796A786800F027F90346FB866FE01B
:104D4C007B681B681A467B6A1B789B0013441B8884
:104D5C009BB223F4E04323F070037B847B681B68D5
:104D6C001A467B6A1B789B001A447B8C43F07F436A
:104D7C0043F47F0343F4004343F0C0039BB213801E
:104D8C007B681B681A467B6A1B789B0013441B8844
:104D9C009BB203F48043002B21D07B681B68B3F8D3
:104DAC0050309BB21A467B6A1B78DB0013440233EB
:104DBC005B007A681268134403F580631B88C3F3A5
:104DCC000903FB86FB8E002B2AD07B6818687B6A54
:104DDC0059697B6A1A89FB8E05F0C7F820E07B685D
:104DEC001B68B3F850309BB21A467B6A1B78DB0009
:104DFC00134406335B007A681268134403F580632E
:104E0C001B88C3F30903FB86FB8E002B08D07B6841
:104E1C0018687B6A59697B6A5A89FB8E05F0A5F87C
:104E2C007B6ADA69FB8E1A447B6ADA617B6A5A699F
:104E3C00FB8E1A447B6A5A617B6A9B69002B04D0F7
:104E4C00FA8E7B6A1B699A4206D27B6A1B781946DA
:104E5C00786806F079FE05E07B681B68796A18466D
:104E6C0003F0C8F87B8D03F08003002B7ED097F8FD
:104E7C002D305A1C13469B001344DB007A681344F4
:104E8C007B627B681B681A4697F82D309B00134495
:104E9C001B889BB223F4E14323F070033B847B68B3
:104EAC001B681A4697F82D309B001A443B8C6FEA0E
:104EBC0043436FEA53439BB213807B6ADB78032B2B
:104ECC000CD07B6ADB78002B08D07B6ADB78022B5A
:104EDC0046D17B8D03F48073002B41D17B681B681A
:104EEC00B3F850309BB21A467B6A1B78DB00134434
:104EFC0002335B007A681268134403F580631B88E5
:104F0C00C3F30903FB837B6A9A69FB8B9A4206D92C
:104F1C007B6A9A69FB8BD21A7B6A9A6102E07B6A84
:104F2C0000229A617B6A9B69002B06D17B6A1B78F5
:104F3C001946786806F023FE18E07B6A5A69FB8BE9
:104F4C001A447B6A5A617B6ADA69FB8B1A447B6A66
:104F5C00DA617B681B68796A184603F04BF805E048
:104F6C007B8D1A46796A786800F01BF97B681B68A0
:104F7C00B3F844309BB21BB2002BFFF60AAD0023F2
:104F8C0018463837BD4680BD80B588B000AFF86094
:104F9C00B9601346FB80FB8803F48043002B7ED062
:104FAC00FB681B68B3F850309BB21A46BB681B7881
:104FBC00DB00134402335B00FA681268134403F5F8
:104FCC0080631B88C3F309037B83BB689A697B8B63
:104FDC009A4206D3BB689A697B8BD21ABB689A61DA
:104FEC0002E0BB6800229A61BB689B69002B23D14D
:104FFC00FB681B681A46BB681B789B0013441B8814
:10500C009BB223F4804323F070033B833B8B83F4EC
:10501C0000533B83FB681B681A46BB681B789B00DC
:10502C001A443B8B43F07F4343F47F0343F4004328
:10503C0043F080039BB21380FB8803F04003002BEA
:10504C001FD0FB681B681A46BB681B789B00134477
:10505C001B889BB223F4E04323F07003FB82FB68B4
:10506C001B681A46BB681B789B001A44FB8A43F0EA
:10507C007F4343F47F0343F4004343F0C0039BB2EC
:10508C0013807B8B002B00F08780FB681868BB6853
:10509C005969BB681A897B8B04F067FF7CE0FB685D
:1050AC001B68B3F850309BB21A46BB681B78DB0008
:1050BC00134406335B00FA681268134403F58063EB
:1050CC001B88C3F309037B83BB689A697B8B9A4269
:1050DC0006D3BB689A697B8BD21ABB689A6102E0D3
:1050EC00BB6800229A61BB689B69002B23D1FB68CB
:1050FC001B681A46BB681B789B0013441B889BB229
:10510C0023F4804323F07003FB83FB8B83F4005365
:10511C00FB83FB681B681A46BB681B789B001A4410
:10512C00FB8B43F07F4343F47F0343F4004343F092
:10513C0080039BB21380FB8803F04003002B1FD12C
:10514C00FB681B681A46BB681B789B0013441B88C2
:10515C009BB223F4E04323F07003BB83FB681B6812
:10516C001A46BB681B789B001A44BB8B43F07F43E9
:10517C0043F47F0343F4004343F0C0039BB213801A
:10518C007B8B002B08D0FB681868BB685969BB681F
:10519C005A897B8B04F0E9FE7B8B18462037BD4681
:1051AC0080BD80B5A2B000AFF860B9601346FB803B
:1051BC00FB8803F04003002B00F0C781FB681B68E1
:1051CC00B3F850309BB21A46BB681B78DB00134413
:1051DC0002335B00FA681268134403F580631B8882
:1051EC00C3F30903A7F84E30BB689A69B7F84E3081
:1051FC009A4207D9BB689A69B7F84E30D21ABB6885
:10520C009A6102E0BB6800229A61BB689B69002B23
:10521C0040F0B980BB685B78002B26D1FB681B681B
:10522C00BB62FB681B68B3F850309BB21A46BB6A72
:10523C001344BB62BB681B781A01BB6A134403F2AC
:10524C0004437B627B6A1B889BB223F4F8439AB2BB
:10525C007B6A1A807B6A1B889BB26FEA43436FEAB6
:10526C0053439AB27B6A1A801AE0BB685B78012BB5
:10527C0016D1FB681B683B63FB681B68B3F85030A6
:10528C009BB21A463B6B13443B63BB681B781A01F9
:10529C003B6B134403F20443FB62FB6A00221A804B
:1052AC00FB681B683B62BB685B78002B26D1FB68F4
:1052BC001B68BB61FB681B68B3F850309BB21A4685
:1052CC00BB691344BB61BB681B781A01BB691344EF
:1052DC0003F20C437B617B691B889BB223F4F8437C
:1052EC009AB27B691A807B691B889BB26FEA434335
:1052FC006FEA53439AB27B691A8017E0BB685B78FC
:10530C00012B13D1FB681B68B3F850309BB21A46C3
:10531C003B6A13443B62BB681B781A013B6A13441B
:10532C0003F20C43FB61FB6900221A80BB681B78FB
:10533C001946F86806F023FCFB8803F48043002B25
:10534C0000F0D482FB681B681A46BB681B789B0074
:10535C0013441B889BB223F4E04323F070037B823D
:10536C00FB681B681A46BB681B789B001A447B8A37
:10537C0043F07F4343F47F0343F4404343F0800303
:10538C009BB21380B2E2FB8803F48043002B21D044
:10539C00FB681B681A46BB681B789B0013441B8870
:1053AC009BB223F4E04323F07003A7F84430FB686E
:1053BC001B681A46BB681B789B001A44B7F844302C
:1053CC0043F07F4343F47F0343F4404343F08003B3
:1053DC009BB21380BB6893F82430012B40F086827B
:1053EC00BB685A69B7F84E301A44BB685A61BB683F
:1053FC00DA69B7F84E301A44BB68DA61BB681A6ACE
:10540C00BB681B699A4209D3BB681B693B65BB68C7
:10541C001A6A3B6DD21ABB681A6215E0BB681B6A2C
:10542C00002B07D1B7F84E303B65BB68002283F8E0
:10543C00242009E0BB68002283F82420BB681B6A87
:10544C003B65BB6800221A62BB685B78002B55D1A8
:10545C00FB681B68BB63FB681B68B3F850309BB2DE
:10546C001A46BB6B1344BB63BB681B781A01BB6B3E
:10547C00134403F204437B633B6D002B12D17B6B13
:10548C001B889BB223F4F8439AB27B6B1A807B6B1C
:10549C001B889BB26FEA43436FEA53439AB27B6B10
:1054AC001A8047E03B6D3E2B11D83B6D5B08BB640B
:1054BC003B6D03F00103002B02D0BB6C0133BB64CA
:1054CC00BB6C9BB29B029AB27B6B1A8032E03B6D39
:1054DC005B09BB643B6D03F01F03002B02D1BB6C5B
:1054EC00013BBB64BB6C9BB29B029BB26FEA434318
:1054FC006FEA53439AB27B6B1A801BE0BB685B78F4
:10550C00012B17D1FB681B683B64FB681B68B3F865
:10551C0050309BB21A463B6C13443B64BB681B78FF
:10552C001A013B6C134403F20443FB633B6D9AB2C8
:10553C00FB6B1A80FB681868BB685969BB681A89D1
:10554C003B6D9BB204F0CCFCD0E1FB681B68B3F85C
:10555C0050309BB21A46BB681B78DB0013440633F1
:10556C005B00FA681268134403F580631B88C3F36D
:10557C000903A7F84E30BB689A69B7F84E309A42C7
:10558C0007D3BB689A69B7F84E30D21ABB689A61D8
:10559C0002E0BB6800229A61BB689B69002B40F05B
:1055AC00C480BB685B78002B26D1FB681B68FB664C
:1055BC00FB681B68B3F850309BB21A46FB6E134461
:1055CC00FB66BB681B781A01FB6E134403F20443A1
:1055DC00BB66BB6E1B889BB223F4F8439AB2BB6EBE
:1055EC001A80BB6E1B889BB26FEA43436FEA53432E
:1055FC009AB2BB6E1A801AE0BB685B78012B16D18D
:10560C00FB681B687B67FB681B68B3F850309BB268
:10561C001A467B6F13447B67BB681B781A017B6F40
:10562C00134403F204433B673B6F00221A80FB6870
:10563C001B68BB67BB685B78002B2FD1FB681B68B2
:10564C00C7F88030FB681B68B3F850309BB21A4621
:10565C00D7F880301344C7F88030BB681B781A0128
:10566C00D7F88030134403F20C43C7F88430D7F8D2
:10567C0084301B889BB223F4F8439AB2D7F8843059
:10568C001A80D7F884301B889BB26FEA43436FEAC9
:10569C0053439AB2D7F884301A8017E0BB685B7812
:1056AC00012B13D1FB681B68B3F850309BB21A4620
:1056BC00BB6F1344BB67BB681B781A01BB6F1344E9
:1056CC0003F20C43FB67FB6F00221A80BB681B784C
:1056DC001946F86806F053FAFB8803F48043002B54
:1056EC0040F00481FB681B681A46BB681B789B0062
:1056FC0013441B889BB223F4E04323F07003A7F8F8
:10570C004630FB681B681A46BB681B789B001A4422
:10571C00B7F8463043F07F4343F47F0343F44043F0
:10572C0043F080039BB21380E0E0FB8803F48043DA
:10573C00002B21D1FB681B681A46BB681B789B00A9
:10574C0013441B889BB223F4E04323F07003A7F8A7
:10575C004C30FB681B681A46BB681B789B001A44CC
:10576C00B7F84C3043F07F4343F47F0343F440439A
:10577C0043F080039BB21380BB6893F82430012B59
:10578C0040F0B480BB685A69B7F84E301A44BB6815
:10579C005A61BB68DA69B7F84E301A44BB68DA61F3
:1057AC00BB681A6ABB681B699A4209D3BB681B6940
:1057BC003B65BB681A6A3B6DD21ABB681A6215E06E
:1057CC00BB681B6A002B07D1B7F84E303B65BB6832
:1057DC00002283F8242009E0BB681B6A3B65BB6888
:1057EC0000221A62BB68002283F82420FB681B6825
:1057FC007B66BB685B78002B55D1FB681B68FB652F
:10580C00FB681B68B3F850309BB21A46FB6D13440F
:10581C00FB65BB681B781A01FB6D134403F20C4348
:10582C00BB653B6D002B12D1BB6D1B889BB223F467
:10583C00F8439AB2BB6D1A80BB6D1B889BB26FEAA2
:10584C0043436FEA53439AB2BB6D1A8044E03B6DFD
:10585C003E2B11D83B6D5B087B653B6D03F0010360
:10586C00002B02D07B6D01337B657B6D9BB29B0261
:10587C009AB2BB6D1A802FE03B6D5B097B653B6D6B
:10588C0003F01F03002B02D17B6D013B7B657B6D0D
:10589C009BB29B029BB26FEA43436FEA53439AB2AB
:1058AC00BB6D1A8018E0BB685B78012B14D1FB68C8
:1058BC001B68B3F850309BB21A467B6E13447B6660
:1058CC00BB681B781A017B6E134403F20C433B66D6
:1058DC003B6D9AB23B6E1A80FB681868BB685969BD
:1058EC00BB685A893B6D9BB204F0FAFAFB681B68E3
:1058FC001A46BB681B789B0013441B889BB223F48D
:10590C00E04323F040033B823B8A83F010033B824D
:10591C003B8A83F020033B82FB681B681A46BB68FA
:10592C001B789B001A443B8A43F07F4343F47F036C
:10593C0043F4004343F080039BB2138000231846CA
:10594C008837BD4680BD80B487B000AFF8607B60FF
:10595C000B467B8113463B817B8903F080039BB212
:10596C00002B0BD07B8903F007035A1C13469B00BA
:10597C001344DB00FA6813447B6109E07A8913460F
:10598C009B001344DB0003F5B473FA6813447B618A
:10599C003B89002B07D17B6900221A737B689AB272
:1059AC007B69DA800BE07B6901221A737B689AB2FF
:1059BC007B691A817B681B0C9AB27B695A81002324
:1059CC0018461C37BD4680BC7047000080B586B0B9
:1059DC0000AF78607B68002B01D1012372E27B68F9
:1059EC001B6803F00103002B00F08780924B5B686F
:1059FC0003F00C03042B0CD08F4B5B6803F00C03EF
:105A0C00082B12D18C4B5B6803F48033B3F5803FC9
:105A1C000BD1894B1B6803F40033002B6CD07B68D3
:105A2C005B68002B68D101234CE27B685B68B3F5A3
:105A3C00803F06D1804B1B687F4A43F48033136050
:105A4C002EE07B685B68002B0CD17B4B1B687A4A81
:105A5C0023F480331360784B1B68774A23F480233C
:105A6C0013601DE07B685B68B3F5A02F0CD1724B03
:105A7C001B68714A43F4802313606F4B1B686E4A9A
:105A8C0043F4803313600BE06B4B1B686A4A23F4BE
:105A9C0080331360684B1B68674A23F480231360C0
:105AAC007B685B68002B13D0FDF7EAF8386108E0DF
:105ABC00FDF7E6F802463B69D31A642B01D90323A0
:105ACC0000E25D4B1B6803F40033002BF0D014E0B4
