:020000040800F2
:1000000000500020552B00089D2A0008A32A000854
:10001000A92A0008AF2A0008B52A0008000000003D
:10002000000000000000000000000000BB2A0008E3
:10003000C72A000800000000D32A0008DF2A0008B1
:100040009D2B00089D2B00089D2B00089D2B000870
:100050009D2B00089D2B00089D2B0008EF2A00080F
:100060009D2B00089D2B00089D2B00089D2B000850
:100070009D2B00089D2B00089D2B00089D2B000840
:100080009D2B00089D2B0008FD2A00089D2B0008D1
:10009000112B00089D2B00089D2B0008252B000824
:1000A0009D2B00089D2B00089D2B00089D2B000810
:1000B0009D2B0008352B00089D2B00089D2B000868
:1000C0009D2B00089D2B00089D2B00089D2B0008F0
:1000D0009D2B00089D2B00089D2B00089D2B0008E0
:1000E0009D2B00089D2B00089D2B000800000000A0
:1000F0000000000000000000000000000000000000
:0C01000000000000000000005FF808F1A3
:10010C0010B5054C237833B9044B13B10448AFF345
:10011C0000800123237010BDA80100200000000006
:10012C00D8C0000808B5034B1BB103490348AFF313
:10013C00008008BD00000000AC010020D8C0000801
:10014C0080F0004002E000BF81F0004142001FBF80
:10015C005FEA410392EA030F7FEA226C7FEA236C89
:10016C006AD04FEA1262D2EB1363C1BFD21841407E
:10017C0048404140B8BF5B42192B88BF704710F014
:10018C00004F40F4000020F07F4018BF404211F0B7
:10019C00004F41F4000121F07F4118BF494292EA1F
:1001AC00030F3FD0A2F1010241FA03FC10EB0C004B
:1001BC00C3F1200301FA03F100F0004302D54942D8
:1001CC0060EB4000B0F5000F13D3B0F1807F06D385
:1001DC0040084FEA310102F10102FE2A51D2B1F17D
:1001EC00004F40EBC25008BF20F0010040EA030072
:1001FC007047490040EB0000013A28BFB0F5000FF2
:10020C00EDD2B0FA80FCACF1080CB2EB0C0200FAA7
:10021C000CF0AABF00EBC25052421843BCBFD040F6
:10022C001843704792F0000F81F4000106BF80F470
:10023C0000000132013BB5E74FEA41037FEA226C33
:10024C0018BF7FEA236C21D092EA030F04D092F0FE
:10025C00000F08BF0846704790EA010F1CBF002032
:10026C00704712F07F4F04D1400028BF40F000408F
:10027C00704712F100723CBF00F50000704700F0AF
:10028C00004343F0FE4040F4000070477FEA2262D6
:10029C0016BF08467FEA23630146420206BF5FEAA7
:1002AC00412390EA010F40F4800070474FF00003A7
:1002BC0004E000BF10F0004348BF40425FEA000C6E
:1002CC0008BF704743F0964301464FF000001CE016
:1002DC0050EA010208BF70474FF000030AE000BF6C
:1002EC0050EA010208BF704711F0004302D54042AA
:1002FC0061EB41015FEA010C02BF8446014600201C
:10030C0043F0B64308BFA3F18053A3F50003BCFA36
:10031C008CF2083AA3EBC25310DB01FA02FC6344E3
:10032C0000FA02FCC2F12002BCF1004F20FA02F2EA
:10033C0043EB020008BF20F00100704702F12002DD
:10034C0001FA02FCC2F1200250EA4C0021FA02F23E
:10035C0043EB020008BF20EADC7070474FF0FF0C43
:10036C001CEAD0521EBF1CEAD15392EA0C0F93EA3E
:10037C000C0F6FD01A4480EA010C400218BF5FEAE0
:10038C0041211ED04FF0006343EA501043EA511153
:10039C00A0FB01310CF00040B1F5000F3EBF49004D
:1003AC0041EAD3715B0040EA010062F17F02FD2A51
:1003BC001DD8B3F1004F40EBC25008BF20F0010034
:1003CC00704790F0000F0CF0004C08BF49024CEA4B
:1003DC00502040EA51207F3AC2BFD2F1FF0340EADD
:1003EC00C250704740F400004FF00003013A5DDC4E
:1003FC0012F1190FDCBF00F000407047C2F100028F
:10040C00410021FA02F1C2F1200200FA02FC5FEA7B
:10041C00310040F1000053EA4C0308BF20EADC70C5
:10042C00704792F0000F00F0004C02BF400010F437
:10043C00000F013AF9D040EA0C0093F0000F01F0E4
:10044C00004C02BF490011F4000F013BF9D041EA06
:10045C000C018FE70CEAD15392EA0C0F18BF93EA08
:10046C000C0F0AD030F0004C18BF31F0004CD8D132
:10047C0080EA010000F00040704790F0000F17BFB9
:10048C0090F0004F084691F0000F91F0004F14D0FF
:10049C0092EA0C0F01D142020FD193EA0C0F03D157
:1004AC004B0218BF084608D180EA010000F000405A
:1004BC0040F0FE4040F40000704740F0FE4040F435
:1004CC00400070474FF0FF0C1CEAD0521EBF1CEAD4
:1004DC00D15392EA0C0F93EA0C0F69D0A2EB0302F2
:1004EC0080EA010C49024FEA402037D04FF080538C
:1004FC0043EA111143EA10130CF000408B4238BF51
:10050C005B0042F17D024FF4000C8B4224BF5B1A5E
:10051C0040EA0C00B3EB510F24BFA3EB510340EAAC
:10052C005C00B3EB910F24BFA3EB910340EA9C005A
:10053C00B3EBD10F24BFA3EBD10340EADC001B01CA
:10054C0018BF5FEA1C1CE0D1FD2A3FF650AF8B426E
:10055C0040EBC25008BF20F0010070470CF0004C7B
:10056C004CEA50207F32C2BFD2F1FF0340EAC250A6
:10057C00704740F400004FF00003013A37E792F067
:10058C00000F00F0004C02BF400010F4000F013AC5
:10059C00F9D040EA0C0093F0000F01F0004C02BFC0
:1005AC00490011F4000F013BF9D041EA0C0195E729
:1005BC000CEAD15392EA0C0F08D142027FF47DAFC2
:1005CC0093EA0C0F7FF470AF084676E793EA0C0FB2
:1005DC0004D14B023FF44CAF08466EE730F0004CB0
:1005EC0018BF31F0004CCAD130F000427FF45CAF40
:1005FC0031F000437FF43CAF5FE700BF4FF0FF3CAE
:10060C0006E000BF4FF0010C02E000BF4FF0010C00
:10061C004DF804CD4FEA40024FEA41037FEA226CC9
:10062C0018BF7FEA236C11D001B052EA530C18BFEB
:10063C0090EA010F58BFB2EB030088BFC81738BF50
:10064C006FEAE17018BF40F0010070477FEA226C3E
:10065C0002D15FEA402C05D17FEA236CE4D15FEA3A
:10066C00412CE1D05DF8040B704700BF844608466E
:10067C006146FFE70FB5FFF7C9FF002848BF10F12F
:10068C00000F0FBD4DF808EDFFF7F4FF0CBF012074
:10069C0000205DF808FB00BF4DF808EDFFF7EAFFFE
:1006AC0034BF012000205DF808FB00BF4DF808EDB9
:1006BC00FFF7E0FF94BF012000205DF808FB00BFAE
:1006CC004DF808EDFFF7D2FF94BF012000205DF834
:1006DC0008FB00BF4DF808EDFFF7C8FF34BF012041
:1006EC0000205DF808FB00BF4FEA4002B2F1FE4F5C
:1006FC000FD34FF09E03B3EB12620DD94FEA0023D8
:10070C0043F0004310F0004F23FA02F018BF4042B0
:10071C0070474FF00000704712F1610F01D1420297
:10072C0005D110F0004008BF6FF0004070474FF04B
:10073C000000704780B500AF1E4B1B681E4A13604B
:10074C001E4B1B78002B33D11D4B1B78002B2FD04D
:10075C001C4B1B881846FFF7ADFD0246154B1B685A
:10076C0019461046FFF7ACFF0346002B08D000F0EB
:10077C0015FB0346002B03DA002000F0A7FA17E064
:10078C00114B1B881846FFF795FD0246094B1B6859
:10079C0019461046FFF78AFF0346002B00D107E0ED
:1007AC0000F0FCFA0346002B02DD002000F08EFA6C
:1007BC0000BF80BDF8010020DC010020D801002022
:1007CC00C8010020EC010020EE01002080B582B0B1
:1007DC0000AF78607868FFF787FF03461BB21846B6
:1007EC0000F074FA00BF0837BD4680BD80B500AF7D
:1007FC0000F0D8FD01F030FB01F0D8FA00F0BAFDA2
:10080C0000F00AFB00BF80BD80B500AF3C4B1B78ED
:10081C00012B02D0022B19D06EE03A4B1B78012B26
:10082C0005D1384B00221A7000F0BCFD08E0354BA6
:10083C001B78022B04D1334B00221A7001F096F86E
:10084C0001F09CFB2E4B00221A7055E02E4B1B78AE
:10085C00002B33D02C4B1B78012B12D12B4B1B882C
:10086C001846FFF727FD0246294B1B681946104610
:10087C00FFF712FF0346002B1AD0264800F026FA89
:10088C0016E0214B1B78022B12D1234B1B881846E8
:10089C00FFF710FD02461E4B1B6819461046FFF76A
:1008AC0019FF0346002B03D04FF47A7000F00EFAB8
:1008BC001A4B00221A70144B00221A70184B1B781A
:1008CC00012B09D1164B00221A70164B1B78002BEA
:1008DC000CD100F0DBFC09E0134B1B78002B05D08E
:1008EC00104B1B78002B01D000F0F2FC01F014FD32
:1008FC00034B00221A7000BF00F088F900BF80BDC6
:10090C00490200204A0200204B020020EC0100208A
:10091C00F801002018FCFFFFEE010020C9010020A7
:10092C004C020020D80100203C02002080B487B08B
:10093C0000AFF860B9607A6000237B610BE0BA68A5
:10094C007B6913441946FA687B6913440A781A7058
:10095C007B6901337B617A697B689A42EFD100BF76
:10096C0000BF1C37BD4680BC70472DE9B0438CB02E
:10097C0000AFF860B9607A6000237B61BB68FB61F3
:10098C0001233B6200233B6103F016F807F11002D0
:10099C0007F114031146184603F0F6F87B689B0820
:1009AC00FB847B689AB2FB8C9B009BB2D31ABB84F2
:1009BC000023FB8527E0FA8DBB68D018FB8DFA6805
:1009CC0013441B781A06FB8D0133F9680B441B7812
:1009DC001B041A43FB8D0233F9680B441B781B0272
:1009EC001343FA8D0332F9680A4412781343002238
:1009FC009846914642464B460146022002F06CFF57
:100A0C00FB8D0433FB85FA8DFB8C9B009A42D2D173
:100A1C00BB8C002B3FD00023BB62BB8C032B14D1AF
:100A2C00FB8DFA6813441B781A06FB8D0133F968A9
:100A3C000B441B781B041A43FB8D0233F9680B44DF
:100A4C001B781B021343BB6219E0BB8C022B0DD12C
:100A5C00FB8DFA6813441B781A06FB8D0133F96879
:100A6C000B441B781B041343BB6208E0BB8C012BAB
:100A7C0005D1FB8DFA6813441B781B06BB62FA8DFB
:100A8C00BB68D118BB6A00221C46154622462B4671
:100A9C00022002F021FF02F0B5FF00BF3037BD4647
:100AAC00BDE8B08380B485B000AF786039600023B6
:100ABC00FB730BE0FA7B3B6813441946FA7B7B68AB
:100ACC0013440A781A70FB7B0133FB73FB7B042BFA
:100ADC00F0D100BF00BF1437BD4680BC704780B456
:100AEC0085B000AF786039600023FB730BE0FA7BB4
:100AFC003B6813441946FA7B7B6813440A781A70D6
:100B0C00FB7B0133FB73FB7B022BF0D100BF00BFDF
:100B1C001437BD4680BC704780B582B000AF78609A
:100B2C007B681B68044A934201D100F0E1FB00BFD3
:100B3C000837BD4680BD00BF0024014080B582B09F
:100B4C0000AF78607B681B68044A934201D100F0C7
:100B5C0087F900BF0837BD4680BD00BF00040040C8
:100B6C0080B500AF00F090F800F0E2FF00F018F84C
:100B7C0000BF80BD80B582B000AF0346FB80FB8810
:100B8C00022B02D101F014F805E0FB88B3F5007FCD
:100B9C0001D101F047F900BF0837BD4680BD000008
:100BAC0080B500AF0A4B1B78032B0FD1094B1B7878
:100BBC000133DAB2074B1A70064B1B78132B05D98D
:100BCC00002000F009F8034B00221A7000BF80BD12
:100BDC00C4010020C601002080B582B000AF0346DE
:100BEC00FB71FB79012B05D101228021064803F012
:100BFC000EFA04E000228021034803F008FA00BF3B
:100C0C000837BD4680BD00BF0008014080B500AF6D
:100C1C00194B1B78032B2AD801A252F823F000BFE2
:100C2C003D0C0008450C00084D0C0008650C000834
:100C3C000020FFF7D1FF1AE00120FFF7CDFF16E0EF
:100C4C000E4B1B78002B03D00120FFF7C5FF0EE0E5
:100C5C000020FFF7C1FF0AE0094B1B78002B05D0E1
:100C6C00084B00221A700120FFF7B6FF00BF044B9F
:100C7C0000221A7000BF80BDC4010020D8010020E2
:100C8C00C5010020C601002080B500AF0C4B1B78BD
:100C9C00002B13D10B4B1B78002B0FD00A4B1B785E
:100CAC000133DAB2084B1A70074B1B78322B05D183
:100CBC00002000F00BF8044B00221A7000BF80BD1E
:100CCC00D8010020C8010020C901002080B483B0E5
:100CDC0000AF0346FB802D4B1B78012B03D1FB8807
:100CEC005B429BB2FB80B7F90630002B10D14FF062
:100CFC0080434FF47A725A634FF080434FF47A7208
:100D0C009A63234B00221A70224B00221A7038E08F
:100D1C00B7F90630002B18DA4FF080434FF47A7293
:100D2C005A63B7F906201C4B1B8819464FF47A738B
:100D3C0093FBF1F392FBF3F303F57A724FF08043DC
:100D4C009A63134B01221A701BE0B7F90630002B83
:100D5C0017DDB7F90620104B1B8819464FF47A7330
:100D6C0093FBF1F392FBF3F3C3F57A724FF08043EC
:100D7C005A634FF080434FF47A729A63044B01220A
:100D8C001A7000BF0C37BD4680BC7047C7010020ED
:100D9C00C8010020C90100200000002080B400AF71
:100DAC004FF080435B6BB3F57A7F13D04FF08043E9
:100DBC005B6B1BB2C3F57A739BB2164A1288114651
:100DCC004FF47A7292FBF1F292B202FB03F39BB2F4
:100DDC001BB21AE04FF080439B6BB3F57A7F13D0B4
:100DEC004FF080439B6B1BB2A3F57A739BB2094AFD
:100DFC00128811464FF47A7292FBF1F292B202FB16
:100E0C0003F39BB21BB200E000231846BD4680BC26
:100E1C00704700BF0000002080B500AF00210448DF
:100E2C0005F0D8FC0421024805F0D4FC00BF80BDBD
:100E3C00C803002080B500AF024805F045FC00BF98
:100E4C0080BD00BF1004002080B500AF034805F042
:100E5C003BFC024805F0E6FB00BF80BD10040020FF
:100E6C0080B500AF00F038F8044B1B681846FFF74C
:100E7C00ADFCFFF7E9FF00BF80BD00BFE001002023
:100E8C0080B400AF054B1B68DB6A054AA2FB032349
:100E9C005B099BB21846BD4680BC7047100400200D
:100EAC001F85EB5180B483B000AF0346FB80FB88F9
:100EBC00642203FB02F2074B1B68DA62FB88642294
:100ECC0002FB03F31A46034BDA6000BF0C37BD4636
:100EDC0080BC70471004002090B585B000AF944BD7
:100EEC001B68BB60934B1B68B9681846FFF72CF95D
:100EFC0003467B60904B1B681946B868FFF724F9D2
:100F0C0003463B604FF00003FB608C4B1B8818467C
:100F1C00FFF7D0F9034619467868FFF7D1FB034673
:100F2C00002B74D0864B1B6879681846FFF716FAAD
:100F3C0003461A46834B1B6819461046FFF706F901
:100F4C0003461A467F4B1A607F4B1B78002B10D13F
:100F5C007C4B1C687D4B1B6839681846FFF7FEF903
:100F6C00034619462046FFF7EFF803461A46754B21
:100F7C001A60744B1B6876491846FFF7ABFB0346A7
:100F8C00002B03D06F4B724A1A600BE06D4B1B6841
:100F9C0070491846FFF780FB0346002B02D0694BC3
:100FAC006C4A1A60684B1B78012B07D1674B1B6886
:100FBC0019467868FFF7D2F90346FB60614B1C6851
:100FCC00654B1B6839681846FFF7C8F90346194684
:100FDC002046FFF7B9F803461946F868FFF7B6F84C
:100FEC000346FB605A49F868FFF774FB0346002B75
:100FFC0002D0574BFB602CE15649F868FFF74CFBCD
:10100C000346002B00F02581524BFB6021E14B4B3A
:10101C001B881846FFF74EF9034619467868FFF708
:10102C003BFB0346002B00F0A1804C4B1B88184661
:10103C00FFF740F9034619467868FFF741FB034672
:10104C00002B00F09380464B1B6879681846FFF71D
:10105C0085F903461A463B4B1B6819461046FFF7A9
:10106C0075F803461A46374B1A60374B1B78002B22
:10107C0010D1344B1C683B4B1B6839681846FFF782
:10108C006DF9034619462046FFF75EF803461A46EB
:10109C002C4B1A602B4B1B682D491846FFF71AFB7B
:1010AC000346002B03D0274B294A1A600BE0254B33
:1010BC001B6828491846FFF7EFFA0346002B02D0AD
:1010CC00204B244A1A60204B1B78012B07D1254B4F
:1010DC001B6819467868FFF741F90346FB60194B0A
:1010EC001C68214B1B6839681846FFF737F9034613
:1010FC0019462046FFF728F803461946F868FFF70B
:10110C0025F80346FB601249F868FFF7E3FA03463B
:10111C00002B02D00E4BFB609BE00E49F868FFF7EA
:10112C00BBFA0346002B00D193E00A4BFB6090E026
:10113C00DC01002024000020E40100201C00002021
:10114C00CC010020E8010020200000200400002039
:10115C0000007A4400007AC4080000201E00002021
:10116C00D00100200C000020100000203E4B1B681A
:10117C0079681846FFF7F2F803461A463B4B1B6892
:10118C0019461046FEF7E2FF03461A46374B1A6023
:10119C00374B1B78002B10D1344B1C68354B1B681C
:1011AC0039681846FFF7DAF8034619462046FEF769
:1011BC00CBFF03461A462D4B1A602C4B1B682E494D
:1011CC001846FFF787FA0346002B03D0274B2A4A11
:1011DC001A600BE0254B1B6828491846FFF75CFA90
:1011EC000346002B02D0214B244A1A60204B1B785B
:1011FC00012B07D11F4B1B6819467868FFF7AEF817
:10120C000346FB60194B1C681D4B1B68396818465C
:10121C00FFF7A4F8034619462046FEF795FF034650
:10122C001946F868FEF792FF0346FB601249F8680E
:10123C00FFF750FA0346002B02D00F4BFB6008E07F
:10124C000E49F868FFF728FA0346002B01D00B4B28
:10125C00FB600C4AFB6813600B4ABB68136000BF51
:10126C001437BD4690BD00BFD4010020E80100201A
:10127C00200000201400002000007A4400007AC4F2
:10128C0018000020E0010020E401002080B500AF30
:10129C000A4B1B680A4A13600A4B4FF000021A6093
:1012AC00094B1B789BB21846FFF7FCFDFFF7CCFDF2
:1012BC00064B01221A7000BF80BD00BFDC0100206C
:1012CC00E4010020E801002002000020D8010020E9
:1012DC0080B500AFFFF7AEFD4FF00000FFF776FAD8
:1012EC00024B00221A7000BF80BD00BFD801002045
:1012FC0080B500AF194801F071FE0246184B1B680F
:10130C001344174A1360154801F034FE154B1B8823
:10131C0001339AB2134B1A80124B1B88642B15D1D4
:10132C000F4B1B681846FEF7C1FF03460E491846C3
:10133C00FFF7C8F803461A460C4B1A60FFF7FAF988
:10134C00084B00221A80064B00221A60084B01221F
:10135C001A70024801F058FD00BF80BD90030020B8
:10136C00F0010020F40100200000C842F801002028
:10137C00F601002080B500AF00BF084802F09AF8D3
:10138C000346002BF9D1054801F03EFD00BF044B8C
:10139C001B78002BFBD000BF00BF80BD900300204A
:1013AC00F601002080B582B000AF4022A349A448CA
:1013BC00FFF7BCFA00237B603B1DA24A114618467E
:1013CC00FFF770FB0F229E499F4802F052FA02462B
:1013DC007B689A4240F049829C4B994A11461846C8
:1013EC00FFF77DFB9A4B9B4A11461846FFF777FB9C
:1013FC00994B9A4A11461846FFF771FB904B9A7914
:10140C00974B1A708E4BDA79964B1A70964B974A0B
:10141C0011461846FFF746FB954B964A114618465F
:10142C00FFF740FB864B1A7C934B1A70844B5A7C0B
:10143C00924B1A70924B934A11461846FFF732FBA7
:10144C00914B924A11461846FFF72CFB904B914A50
:10145C0011461846FFF726FB8F4B904A114618464B
:10146C00FFF720FB8E4B8F4A11461846FFF71AFBED
:10147C008D4B8E4A11461846FFF714FB8C4B8D4A48
:10148C0011461846FFF70EFB8B4B8C4A114618463B
:10149C00FFF708FB8A4B8B4A11461846FFF702FBF5
:1014AC00894B8A4A11461846FFF719FB884B894A23
:1014BC0011461846FFF713FB614B93F83A20864B05
:1014CC001A70624B1B88B3F5786F02D35F4B802286
:1014DC001A805F4B1B887F2B04D95D4B1B88B3F59F
:1014EC00805F03D35A4B40F67F721A805A4B1B888D
:1014FC00B3F57A7F03D9584B4FF47A721A80584B54
:10150C001B78002B06D0564B1B78012B02D0544B6A
:10151C0000221A70534B1B78012B06D0514B1B78B1
:10152C00002B02D04F4B01221A704F4B1B684FF00F
:10153C0080411846FFF7B0F80346002B08D14A4B00
:10154C001B6866491846FFF7C5F80346002B03D005
:10155C00454B4FF080421A60454B1B684FF082415F
:10156C001846FFF799F80346002B08D1404B1B682F
:10157C005B491846FFF7AEF80346002B02D03C4BF4
:10158C00584A1A603C4B1B78002B0ED03A4B1B78F8
:10159C00012B0AD0384B1B78022B06D0364B1B780C
:1015AC00032B02D0344B01221A70344B1B78002BC6
:1015BC0006D0324B1B78012B02D0304B01221A7013
:1015CC002F4B1B684FF000011846FFF765F80346D8
:1015DC00002B08D12A4B1B6841491846FFF77AF8B3
:1015EC000346002B03D0264B4FF07E521A60264B3D
:1015FC001B684FF000011846FFF74EF80346002B0E
:10160C0008D1214B1B6836491846FFF763F803468F
:10161C00002B03D01C4B4FF000021A601C4B1B68B4
:10162C004FF000011846FFF737F80346002B60D146
:10163C00174B1B682A49184656E000BF00C000082B
:10164C00FC0100201C020020C0030020EC01002043
:10165C00EE010020FE01002000000020000200200E
:10166C00C70100203C0200204002002004020020A0
:10167C004402002008020020C401002020000020A9
:10168C00040000200E020020CC01002012020020D9
:10169C0008000020160200200C0000201A02002076
:1016AC00D00100201E020020100000202202002089
:1016BC001400002026020020D40100202A02002061
:1016CC00180000202E0200201C00002032020020F6
:1016DC001E000020340200200200002000002041E7
:1016EC000000C84200009041FEF7F4FF0346002BB7
:1016FC0002D0854B854A1A60854B1B684FF0000160
:10170C001846FEF7C9FF0346002B08D1804B1B6817
:10171C0080491846FEF7DEFF0346002B03D07C4BB6
:10172C004FF07E521A607C4B1B684FF0000118463C
:10173C00FEF7B2FF0346002B08D1774B1B687549A7
:10174C001846FEF7C7FF0346002B03D0724B4FF031
:10175C0000021A60714B1B684FF000011846FEF72F
:10176C009BFF0346002B08D16C4B1B68694918463C
:10177C00FEF7B0FF0346002B02D0684B634A1A6099
:10178C00674B1B684FF000011846FEF785FF0346B8
:10179C00002B08D1624B1B685E491846FEF79AFF76
:1017AC000346002B03D05E4B4FF07E521A605D4B0C
:1017BC001B684FF000011846FEF76EFF0346002B26
:1017CC0008D1584B1B6853491846FEF783FF034654
:1017DC00002B03D0534B4FF000021A60524B1B6886
:1017EC004FF000011846FEF757FF0346002B08D1B7
:1017FC004D4B1B6847491846FEF76CFF0346002B00
:10180C0002D0494B414A1A60484B1B88B3F5805FA4
:10181C0003D3464B40F2FF721A80454B1B88B3F53D
:10182C00805F03D3424B40F6FC321A80414B1B784D
:10183C001846FEF73FFD03463F491846FEF72CFFBE
:10184C000346002B0DD13B4B1B781846FEF732FD9F
:10185C00034630491846FEF73DFF0346002B00D1E6
:10186C004DE0344B05221A7049E0344B80221A802B
:10187C00334B40F67F721A80324B4FF47A721A80D7
:10188C00314B00221A70314B01221A70304B4FF041
:10189C0080421A602F4B304A1A60304B01221A706A
:1018AC002F4B01221A702F4B4FF07E521A602E4B89
:1018BC004FF000021A60144B144A1A60144B4FF08C
:1018CC007E521A60144B4FF000021A60134B0F4AF1
:1018DC001A60134B4FF07E521A60124B4FF00002FD
:1018EC001A60114B094A1A60104B40F2FF721A80B1
:1018FC000F4B40F6FC321A800E4B05221A7000BFBB
:10190C000837BD4680BD00BF0800002000004040E5
:10191C000C0000200000C842D00100201000002064
:10192C0014000020D4010020180000201C0000200E
:10193C001E000020020000200000A040EC0100204E
:10194C00EE01002000000020C70100203C02002016
:10195C00400200204402002000009041C4010020FD
:10196C002000002004000020CC01002080B582B0B3
:10197C0000AF474B474A11461846FFF7B0F8464BA5
:10198C00464A11461846FFF7AAF8454B454A1146F8
:10199C001846FFF7A4F8444B1A783D4B9A71434B09
:1019AC001A783B4BDA71424B424A11461846FFF704
:1019BC0079F8414B414A11461846FFF773F8404BF2
:1019CC001A78334B1A743F4B1A78314B5A743E4B7E
:1019DC003E4A11461846FFF765F83D4B3D4A114605
:1019EC001846FFF75FF83C4B3C4A11461846FFF788
:1019FC0059F83B4B3B4A11461846FFF753F83A4B04
:101A0C003A4A11461846FFF74DF8394B394A1146F8
:101A1C001846FFF747F8384B384A11461846FFF777
:101A2C0041F8374B374A11461846FFF73BF8364B0F
:101A3C00364A11461846FFF735F8354B354A1146EC
:101A4C001846FFF74CF8344B344A11461846FFF74A
:101A5C0046F8334B1A780E4B83F83A200C4B002285
:101A6C0083F83B200F220A492E4801F002FF03465F
:101A7C007B602D4A3B1D19461046FFF713F8402298
:101A8C002A490348FEF771FF00BF0837BD4680BDE9
:101A9C00FC010020EC010020FE010020EE010020E2
:101AAC000002002000000020C70100203C020020A2
:101ABC000402002040020020080200204402002002
:101ACC00C4010020200000200E0200200400002091
:101ADC0012020020CC010020160200200800002079
:101AEC001A0200200C0000201E020020D001002051
:101AFC0022020020100000202602002014000020EA
:101B0C002A020020D40100202E0200201800002000
:101B1C00320200201C000020340200201E00002095
:101B2C0002000020C00300203802002000C0000882
:101B3C0080B500AF00F0F2F8034601331846FEF70B
:101B4C00B5FB034614491846FEF7BCFC03461A467F
:101B5C00124B1B6819461046FEF7BCFD0346002BC2
:101B6C0000D116E00E4B00221A7000F0E3F80D4B7A
:101B7C001B78002B07D00B4B1B78002B09D00A4B82
:101B8C001B78002B05D1094B1B78002B01D0FFF7DC
:101B9C009FFB00BF80BD00BF0000FA434402002041
:101BAC00480200203C0200204D020020D8010020F9
:101BBC00B0B582B000AF4F4B1B78002B09D04D4B0A
:101BCC001B78002B00F091804B4B1B78002B40F0C6
:101BDC008C8000F0BBF80346012B05D100F0AAF86D
:101BEC00464B01221A7080E0444B1B78002B7CD0B2
:101BFC0000F094F803461846FEF758FB03464FF0E6
:101C0C007E511846FEF7A2FA03463D491846FEF7E8
:101C1C0059FC03467B603B4B1B6819467868FEF702
:101C2C0045FD0346002B55D04FF07E517868FEF7EA
:101C3C0047FD0346002B4DD0334B1B881846FEF74F
:101C4C0035FB0446314B1B881846FEF72FFB034629
:101C5C0019462046FEF778FA03461C464FF07E5193
:101C6C007868FEF771FA03461D46264B1B684FF049
:101C7C007E511846FEF768FA034619462846FEF7C9
:101C8C0021FC034619462046FEF768FB03461C461A
:101C9C001E4B1B881846FEF709FB034619462046C7
:101CAC00FEF754FA03463B60194B1B68194638681B
:101CBC00FEF7E8FC0346002B02D1164B01221A70EA
:101CCC00134A3B681360144B1B78002B0CD1FFF7A5
:101CDC00DDFA09E0094B00221A700F4B1B78002B20
:101CEC0003D0FFF7F5FA00E000BF00BF0837BD4690
:101CFC00B0BD00BF3C0200204D0200204802002075
:101D0C000000FA4340020020EE010020EC0100200C
:101D1C0024000020C5010020D801002080B400AFB1
:101D2C00034B1B685B6A1846BD4680BC704700BFFE
:101D3C005804002080B400AF034B1B6800225A6289
:101D4C0000BFBD4680BC70475804002080B582B0EF
:101D5C0000AF0023BB7100237B711DE000237B715E
:101D6C000221114802F03CF90346FB7111E07B792A
:101D7C0001337B7102210C4802F032F903461A46FA
:101D8C00FB79934200D007E07B79052B01D101232D
:101D9C00BB717B79052BEAD1BB79012BDED1FB79A9
:101DAC0018460837BD4680BD000C014080B500AF19
:101DBC00024804F0EDFB00BF80BD00BF58040020BA
:101DCC0080B582B000AF0023BB7100237B711FE094
:101DDC0000237B714FF40071114802F001F90346A6
:101DEC00FB7112E07B7901337B714FF400710C486D
:101DFC0002F0F6F803461A46FB79934200D007E04E
:101E0C007B79052B01D10123BB717B79052BE9D1A2
:101E1C00BB79012BDCD1FB7918460837BD4680BD58
:101E2C00000C014080B500AFFFF7CAFF0346012B41
:101E3C0003D1074B01221A7002E0054B00221A70E5
:101E4C00044B1B78002B01D0FFF742FA00BF80BD7A
:101E5C004D020020D801002080B500AFFFF7B0FF85
:101E6C000346012B03D1044B01221A7002E0024BF2
:101E7C0000221A7000BF80BD4D02002080B582B0D8
:101E8C0000AF786039607B6801331B78002B1CD164
:101E9C007B681B781A463B68934216D13B689B08BB
:101EAC00013B1A467968294801F0E3FC01463B687E
:101EBC00043B7A6813441B68994243D1786800F05C
:101ECC004DF8234B01221A703CE07B6801331B78E0
:101EDC00012B08D13B68402B05D1402279681D4865
:101EEC000AF0DEF82EE01B4B5B78012B26D1194B48
:101EFC001B781A463B6840339A421FD13A6879687E
:101F0C0015480AF0CDF83B6840339B08013B1A4654
:101F1C0010490E4801F0ADFC02463B683C330D49BC
:101F2C000B441B689A4205D10A4800F0FFF8084B95
:101F3C0002221A70074BFF225A7003E0054BFF2256
:101F4C005A7000BF00BF0837BD4680BDC0030020DB
:101F5C004902002090020020D002002080B483B0FF
:101F6C0000AF78607B689A78034B1A7000BF0C370F
:101F7C00BD4680BC704700BF4A02002080B582B0CD
:101F8C0000AF484B40221A70464B00225A70464B09
:101F9C00464A12881A80464B464A12881A80464B8B
:101FAC001B88464AA2FB0323DB089BB2DAB23D4BEB
:101FBC009A71434B1A783B4BDA71424B1A78394B76
:101FCC001A72414B414A11461846FEF76BFD404BC5
:101FDC00404A11461846FEF765FD3F4B1A78314BC7
:101FEC005A743E4B1A782F4B9A743D4B3D4A11460E
:101FFC001846FEF757FD3C4B3C4A11461846FEF777
:10200C0051FD3B4B3B4A11461846FEF74BFD3A4BF4
:10201C00344A11461846FEF745FD384B334A1146F3
:10202C001846FEF73FFD364B324A11461846FEF76E
:10203C0039FD344B2B4A11461846FEF733FD324B13
:10204C002A4A11461846FEF72DFD304B294A1146F7
:10205C001846FEF727FD2E4B2E4A11461846FEF762
:10206C003EFD2D4B2D4A11461846FEF738FD2C4BE4
:10207C001A780C4B83F83B200F220A49294801F0AF
:10208C00F8FB03467B60284A3B1D19461046FEF7B9
:10209C0009FD4021034809F001FC00BF0837BD468B
:1020AC0080BD00BF5002002052020020EC01002035
:1020BC0054020020EE01002000000020CDCCCCCC3E
:1020CC00C70100203C0200205902002040020020E1
:1020DC005D02002044020020C401002020000020EA
:1020EC00630200200400002067020020CC010020C5
:1020FC006B020020080000206F02002073020020F9
:10210C00770200207B0200207F0200208302002047
:10211C00870200201C000020890200201E000020E5
:10212C0002000020C00300208C02002080B584B087
:10213C0000AF78607B685A885E4B1A807B689A88FF
:10214C005D4B1A807B6806331B789BB21A46920053
:10215C0013445B009AB2594B1A807B68DA79584B5E
:10216C001A707B681A7A574B1A70574A7B68093376
:10217C0019461046FEF796FC544A7B680D331946F7
:10218C001046FEF78FFC7B685A7C514B1A707B68AB
:10219C009A7C504B1A70504A7B6813331946104680
:1021AC00FEF780FC4D4A7B68173319461046FEF744
:1021BC0079FC4B4A7B681B3319461046FEF772FCC0
:1021CC00484A7B681F3319461046FEF76BFC464A9B
:1021DC007B68233319461046FEF764FC434A7B6840
:1021EC00273319461046FEF75DFC414A7B682B33BA
:1021FC0019461046FEF756FC3E4A7B682F331946AB
:10220C001046FEF74FFC3C4A7B68333319461046A8
:10221C00FEF748FC394A7B68373319461046FEF7FF
:10222C005EFC374A7B68393319461046FEF757FC7B
:10223C007B6893F83B20334B1A70FEF721FE034664
:10224C001A46304B1B789BB29A4205D02D4B1B780B
:10225C009BB21846FEF726FE4FF00003FB6007F119
:10226C000C027B683C3319461046FEF71BFC154BE1
:10227C001B78002B0FD0244B1B68FA6811461846AC
:10228C00FEF700FA0346002B02D1204B01221A70F4
:10229C00FB681D4A13607B6893F840201C4B1A7036
:1022AC007B6893F841201B4B1A7000BF1037BD465A
:1022BC0080BD00BFEC010020EE01002000000020DA
:1022CC00C70100203C0200204002002044020020F4
:1022DC00C40100202000002004000020CC010020BC
:1022EC00080000200C000020D0010020100000206D
:1022FC0014000020D4010020180000201C00002035
:10230C001E0000200200002024000020C501002037
:10231C004C0200204B02002080B582B000AF1F4B56
:10232C0014221A701D4B01225A701D4B1A781B4B2C
:10233C009A701C4B1C4A11461846FEF7B3FB1B4BFC
:10234C001B4A11461846FEF7ADFBFEF727FD034668
:10235C00FB80184ABB1D19461046FEF7C0FB0F4BFD
:10236C0000225A730D4B00229A730C4B0022DA7325
:10237C0004220A49104801F07CFA03463B600F4ADC
:10238C003B4619461046FEF78DFB1421034809F015
:10239C0085FA00BF0837BD4680BD00BF5002002043
:1023AC00D8010020530200202400002057020020F6
:1023BC00F80100205B020020C00300206002002016
:1023CC0080B500AF00F0E6FB00F013F800F0DEF98A
:1023DC0000F06CF800F0A8F800F0BAF800F03AF948
:1023EC0000F086F909F096F9FEF700FAFEF70CFA00
:1023FC00FCE780B594B000AF07F128032822002138
:10240C00184609F05BFE07F1140300221A605A60AB
:10241C009A60DA601A613B1D00221A605A609A6059
:10242C00DA600123BB624FF48033FB6200233B6311
:10243C000123BB6302237B644FF48033BB644FF4F2
:10244C00E013FB6407F12803184603F0D5FA0346A2
:10245C00002B01D000F004FA0F237B610223BB6137
:10246C000023FB614FF480633B6200237B6207F126
:10247C0014030221184603F041FD0346002B01D042
:10248C0000F0EEF912237B604FF40043FB60002355
:10249C003B613B1D184603F0B5FE0346002B01D0F3
:1024AC0000F0DEF900BF5037BD4680BD80B584B06A
:1024BC0000AF3B1D00221A605A609A60184B194AF3
:1024CC001A60174B00229A60154B00221A73144B9A
:1024DC0000221A75124B4FF46022DA61104B002265
:1024EC005A600F4B01221A610D4800F0B5FB0346F0
:1024FC00002B01D000F0B4F904237B600123BB60F6
:10250C000723FB603B1D1946054800F03FFE0346C0
:10251C00002B01D000F0A4F900BF1037BD4680BDE0
:10252C00900300200024014080B500AF064B074A01
:10253C001A60054801F081F90346002B01D000F028
:10254C008FF900BF80BD00BFC003002000300240E7
:10255C0080B58EB000AF07F1280300221A605A60D4
:10256C009A60DA6007F1200300221A605A603B1D62
:10257C0000221A605A609A60DA601A615A619A6194
:10258C00334B4FF080421A60314B07225A60304B6C
:10259C0000229A602E4B4FF47A72DA602C4B002298
:1025AC001A612B4B00229A61294803F0A1FF0346C4
:1025BC00002B01D000F054F94FF48053BB6207F1AB
:1025CC0028031946224804F06DFB0346002B01D06A
:1025DC0000F046F91E4804F0A5F80346002B01D084
:1025EC0000F03EF900233B6200237B6207F12003DD
:1025FC001946174804F0E2FE0346002B01D000F008
:10260C002FF960237B604FF47A73BB600223FB606D
:10261C0000237B613B1D002219460D4804F084FA0F
:10262C000346002B01D000F01BF93B1D0422194678
:10263C00074804F079FA0346002B01D000F010F99A
:10264C00034800F0F5F900BF3837BD4680BD00BF28
:10265C00C803002080B586B000AF07F10803002244
:10266C001A605A609A60DA603B4600221A605A601F
:10267C001D4B1E4A1A601C4B40F2CF225A601A4B5B
:10268C0000229A60184BC722DA60174B00221A619D
:10269C00154B80229A61144803F02AFF0346002B45
:1026AC0001D000F0DDF84FF48053BB6007F1080354
:1026BC0019460D4804F0F6FA0346002B01D000F041
:1026CC00CFF800233B6000237B603B46194606484D
:1026DC0004F074FE0346002B01D000F0C1F800BFDB
:1026EC001837BD4680BD00BF100400200004004018
:1026FC0080B586B000AF07F1080300221A605A605B
:10270C009A60DA603B4600221A605A601D4B1E4AE2
:10271C001A601C4B8F225A601A4B00229A60194B7C
:10272C004FF6FF72DA60174B00221A61154B00222C
:10273C009A61144803F0DCFE0346002B01D000F034
:10274C008FF84FF48053BB6007F1080319460D480E
:10275C0004F0A8FA0346002B01D000F081F8002306
:10276C003B6000237B603B461946064804F026FE7E
:10277C000346002B01D000F073F800BF1837BD469C
:10278C0080BD00BF580400200008004080B588B010
:10279C0000AF07F1100300221A605A609A60DA60E9
:1027AC002B4B9B692A4A43F020039361284B9B696E
:1027BC0003F02003FB60FB68254B9B69244A43F024
:1027CC0004039361224B9B6903F00403BB60BB6859
:1027DC001F4B9B691E4A43F0080393611C4B9B697A
:1027EC0003F008037B607B6800228021194801F00C
:1027FC000EFC80233B6101237B610223BB6103231D
:10280C00FB6107F110031946124801F065FA40F21A
:10281C0002233B61104B7B610223BB6107F1100368
:10282C0019460E4801F058FA00220021072000F04A
:10283C00CEFF072000F0E7FF00220021172000F058
:10284C00C6FF172000F0DFFF00BF2037BD4680BD5C
:10285C00001002400008014000003110000C014043
:10286C0080B400AF72B600BFFEE7000080B584B044
:10287C0000AF164B9B69154A43F001039361134B50
:10288C009B6903F00103BB60BB68104BDB690F4A0B
:10289C0043F08053D3610D4BDB6903F080537B60B5
:1028AC007B68042000F088FF094B5B68FB60FB68C9
:1028BC0023F0E063FB60FB6843F00073FB60044AA9
:1028CC00FB68536000BF1037BD4680BD001002404E
:1028DC000000014080B588B000AF786007F11003AC
:1028EC0000221A605A609A60DA607B681B68184A8A
:1028FC00934229D1174B9B69164A43F40073936199
:10290C00144B9B6903F40073FB60FB68114B9B69D0
:10291C00104A43F0040393610E4B9B6903F00403CC
:10292C00BB60BB6810233B6103237B6107F1100381
:10293C001946094801F0D0F900220021122000F0BC
:10294C0046FF122000F05FFF00BF2037BD4680BD60
:10295C0000240140001002400008014080B485B002
:10296C0000AF78607B681B68094A93420BD1094B16
:10297C005B69084A43F040035361064B5B6903F003
:10298C004003FB60FB6800BF1437BD4680BC70473A
:10299C00003002400010024080B586B000AF786075
:1029AC007B681B68B3F1804F0CD11E4BDB691D4A51
:1029BC0043F00103D3611B4BDB6903F001037B6123
:1029CC007B692AE07B681B68174A934214D1154B2C
:1029DC00DB69144A43F00203D361124BDB6903F049
:1029EC0002033B613B69002201211D2000F0EFFE38
:1029FC001D2000F008FF10E07B681B680B4A934217
:102A0C000BD1084BDB69074A43F00403D361054B38
:102A1C00DB6903F00403FB60FB6800BF1837BD469D
:102A2C0080BD00BF001002400004004000080040C0
:102A3C0080B588B000AF786007F1100300221A60EF
:102A4C005A609A60DA607B681B68B3F1804F17D1CB
:102A5C000D4B9B690C4A43F0040393610A4B9B6931
:102A6C0003F00403FB60FB6803233B6102237B61DF
:102A7C000323FB6107F110031946044801F02CF9FC
:102A8C0000BF2037BD4680BD001002400008014049
:102A9C0080B400AFFEE780B400AFFEE780B400AFB7
:102AAC00FEE780B400AFFEE780B400AFFEE780B471
:102ABC0000AF00BFBD4680BC704780B400AF00BF04
:102ACC00BD4680BC704780B400AF00BFBD4680BC23
:102ADC00704780B500AF00F0A3F8FEF741F800BFD7
:102AEC0080BD80B500AF022001F0AAFA00BF80BD06
:102AFC0080B500AF024800F07DFA00BF80BD00BF7A
:102B0C009003002080B500AF024801F0E2FB00BF4B
:102B1C0080BD00BF6011002080B500AF4FF4007085
:102B2C0001F08EFA00BF80BD80B500AF024803F003
:102B3C00F3FE00BF80BD00BF1004002080B400AFC6
:102B4C0000BFBD4680BC70470C480D490D4A0023A0
:102B5C0002E0D458C4500433C4188C42F9D30A4A46
:102B6C000A4C002301E013600432A242FBD3FFF7AE
:102B7C00E5FF09F071FAFFF723FC70470000002015
:102B8C00A401002074C10008A80100206C160020CC
:102B9C00FEE7000080B500AF084B1B68074A43F006
:102BAC0010031360032000F007FE072000F008F864
:102BBC00FFF75CFE0023184680BD00BF00200240DA
:102BCC0080B582B000AF7860124B1A68124B1B783C
:102BDC0019464FF47A73B3FBF1F3B2FBF3F31846D7
:102BEC0000F01FFE0346002B01D001230EE07B6892
:102BFC000F2B0AD8002279684FF0FF3000F0E7FD68
:102C0C00064A7B681360002300E00123184608374E
:102C1C00BD4680BD28000020300000202C00002084
:102C2C0080B400AF054B1B781A46054B1B68134448
:102C3C00034A136000BFBD4680BC704730000020C3
:102C4C00A004002080B400AF024B1B681846BD46A0
:102C5C0080BC7047A004002080B586B000AF7860BF
:102C6C000023FB7500233B610023BB600023FB604A
:102C7C007B68002B01D10123BEE07B689B68002B95
:102C8C007B689B6A002B09D17B680022DA627B6827
:102C9C00002283F824207868FFF71CFE786800F087
:102CAC00C7FB0346FB757B689B6A03F01003002B84
:102CBC0040F09980FB7D002B40F095807B689B6AEF
:102CCC0023F4885323F0020343F002027B689A62D8
:102CDC007B685A687B68DB691A437B681B7B5B00EB
:102CEC001343BA681343BB607B689B68B3F5807F62
:102CFC0003D07B689B68012B02D14FF4807300E0FA
:102D0C0000233A6913433B617B681B7D012B19D16E
:102D1C007B681B7B002B09D17B689B69013B5A03A9
:102D2C003B69134343F400633B610BE07B689B6A94
:102D3C0043F020027B689A627B68DB6A43F00102F5
:102D4C007B68DA627B681B685B6823F469417B688B
:102D5C001B683A690A435A607B681B689A68284B5F
:102D6C0013407A681268B9680B4393607B689B6860
:102D7C00B3F5807F03D07B689B68012B04D17B6803
:102D8C001B69013B1B05FB607B681B68DB6A23F43A
:102D9C0070017B681B68FA680A43DA627B681B68FF
:102DAC009A68184B1340BA689A420BD17B68002280
:102DBC00DA627B689B6A23F0030343F001027B68B1
:102DCC009A6218E07B689B6A23F0120343F01002AE
:102DDC007B689A627B68DB6A43F001027B68DA628B
:102DEC000123FB7507E07B689B6A43F010027B684C
:102DFC009A620123FB75FB7D18461837BD4680BDD2
:102E0C00FDF7E1FFFE0E1FFF80B584B000AF7860C8
:102E1C000023FB737B6893F82430012B01D1022330
:102E2C00A0E07B68012283F82420786800F0A6FAE1
:102E3C000346FB73FB7B002B40F08F807B689B6A07
:102E4C0023F4706323F0010343F480727B689A626D
:102E5C007B681B68454A934205D1454B5B6803F47C
:102E6C007023002B15D17B689B6A23F480127B683E
:102E7C009A627B681B685B6803F48063002B26D026
:102E8C007B689B6A23F4405343F480527B689A62BC
:102E9C001DE07B689B6A43F480127B689A627B68B6
:102EAC001B68334A934204D07B681B682F4A9342B9
:102EBC000DD12F4B5B6803F48063002B07D07B682C
:102ECC009B6A23F4405343F480527B689A627B687C
:102EDC009B6A03F48053002B06D07B68DB6A23F0DB
:102EEC0006027B68DA6202E07B680022DA627B68A9
:102EFC00002283F824207B681B686FF002021A60A2
:102F0C007B681B685A687B681B6842F020025A6019
:102F1C007B681B689B6803F46023B3F5602F13D1A7
:102F2C007B681B68114A934205D1114B5B6803F413
:102F3C007023002B08D17B681B689A687B681B6820
:102F4C0042F4A0029A600CE07B681B689A687B686C
:102F5C001B6842F480129A6003E07B68002283F8BD
:102F6C002420FB7B18461037BD4680BD002801404D
:102F7C000024014080B584B000AF78600023FB735F
:102F8C007B6893F82430012B01D1022322E07B686B
:102F9C00012283F82420786800F04AFA0346FB7378
:102FAC00FB7B002B11D17B681B685A687B681B6804
:102FBC0022F020025A607B689B6A23F4885323F02A
:102FCC00010343F001027B689A627B68002283F85C
:102FDC002420FB7B18461037BD4680BD80B483B0DF
:102FEC0000AF78607B681B68DB6C18460C37BD46FD
:102FFC0080BC704780B582B000AF78607B681B687E
:10300C005B6803F02003202B40D17B681B681B6896
:10301C0003F00203022B39D17B689B6A03F0100387
:10302C00002B05D17B689B6A43F400727B689A6223
:10303C007B681B689B6803F46023B3F5602F1DD17C
:10304C007B681B7B002B19D17B681B685A687B68DB
:10305C001B6822F020025A607B689B6A23F4807202
:10306C007B689A627B689B6A03F48053002B05D1C2
:10307C007B689B6A43F001027B689A627868FDF773
:10308C004BFD7B681B686FF012021A607B681B6833
:10309C005B6803F08003802B4FD17B681B681B6837
:1030AC0003F00403042B48D17B689B6A03F01003E4
:1030BC00002B05D17B689B6A43F400527B689A62B3
:1030CC007B681B689B6803F4E043B3F5E04F12D0B8
:1030DC007B681B685B6803F48063002B25D17B68DD
:1030EC001B689B6803F46023B3F5602F1DD17B68CC
:1030FC001B7B002B19D17B681B685A687B681B688B
:10310C0022F080025A607B689B6A23F480527B68B1
:10311C009A627B689B6A03F48073002B05D17B68F1
:10312C009B6A43F001027B689A62786800F06EFA41
:10313C007B681B686FF00C021A607B681B685B680D
:10314C0003F04003402B14D17B681B681B6803F011
:10315C000103012B0DD17B689B6A43F480327B68A1
:10316C009A62786800F009F87B681B686FF00102BE
:10317C001A6000BF0837BD4680BD80B483B000AF75
:10318C00786000BF0C37BD4680BC704780B485B0FA
:10319C0000AF786039600023FB730023BB607B6851
:1031AC0093F82430012B01D10223DCE07B6801224F
:1031BC0083F824203B685B68062B1CD87B681B6853
:1031CC00596B3B685A6813469B001344053B1F22FE
:1031DC0002FA03F3DB4319403B6818683B685A68F2
:1031EC0013469B001344053B00FA03F27B681B68F3
:1031FC000A435A633CE03B685B680C2B1CD87B6829
:10320C001B68196B3B685A6813469B001344233B9D
:10321C001F2202FA03F3DB4319403B6818683B6832
:10322C005A6813469B001344233B00FA03F27B6855
:10323C001B680A431A631BE07B681B68D96A3B68EE
:10324C005A6813469B001344413B1F2202FA03F3B6
:10325C00DB4319403B6818683B685A6813469B006F
:10326C001344413B00FA03F27B681B680A43DA62A1
:10327C003B681B68092B1CD97B681B68D9683B68A9
:10328C001A6813465B0013441E3B072202FA03F331
:10329C00DB4319403B6898683B681A6813465B002F
:1032AC0013441E3B00FA03F27B681B680A43DA6086
:1032BC0019E07B681B6819693B681A6813465B0048
:1032CC001344072202FA03F3DB4319403B68986866
:1032DC003B681A6813465B00134400FA03F27B68E0
:1032EC001B680A431A613B681B68102B03D03B68B0
:1032FC001B68112B32D17B681B681D4A934225D168
:10330C007B681B689B6803F40003002B26D17B6849
:10331C001B689A687B681B6842F400029A603B68E1
:10332C001B68102B1AD1134B1B68134AA2FB0323E7
:10333C009A0C13469B0013445B00BB6002E0BB6815
:10334C00013BBB60BB68002BF9D107E07B689B6A33
:10335C0043F020027B689A620123FB737B68002296
:10336C0083F82420FB7B18461437BD4680BC70477D
:10337C00002401402800002083DE1B4380B584B06C
:10338C0000AF78600023FB600023BB607B681B6888
:10339C009B6803F00103012B40D07B681B689A6883
:1033AC007B681B6842F001029A601F4B1B681F4A26
:1033BC00A2FB03239B0CBB6002E0BB68013BBB6020
:1033CC00BB68002BF9D1FFF73DFCF8601FE0FFF75D
:1033DC0039FC0246FB68D31A022B18D97B681B6890
:1033EC009B6803F00103012B11D07B689B6A43F0AF
:1033FC0010027B689A627B68DB6A43F001027B688F
:10340C00DA627B68002283F82420012307E07B68C2
:10341C001B689B6803F00103012BD8D100231846CD
:10342C001037BD4680BD00BF2800002083DE1B4343
:10343C0080B584B000AF78600023FB607B681B68AC
:10344C009B6803F00103012B2ED17B681B689A68E3
:10345C007B681B6822F001029A60FFF7F3FBF860AF
:10346C001BE0FFF7EFFB0246FB68D31A022B14D9C3
:10347C007B681B689B6803F00103012B0DD17B68F3
:10348C009B6A43F010027B689A627B68DB6A43F0AC
:10349C0001027B68DA62012307E07B681B689B688A
:1034AC0003F00103012BDCD0002318461037BD4676
:1034BC0080BD000090B587B000AF78600023FB752D
:1034CC000023FB607B6893F82430012B01D102238D
:1034DC0095E07B68012283F824207868FFF7A8FF29
:1034EC000346FB75FB7D002B40F084807B689B6A58
:1034FC0023F4885323F0020343F002027B689A62A0
:10350C00414B1C68022002F033FF0346B4FBF3F37B
:10351C005B00FB6002E0FB68013BFB60FB68002B7F
:10352C00F9D17868FFF72AFF7B681B689A687B687B
:10353C001B6842F008029A60FFF784FB38611BE0BD
:10354C00FFF780FB02463B69D31A0A2B14D97B6820
:10355C001B689B6803F00803002B0DD07B689B6AEB
:10356C0023F0120343F010027B689A627B680022FE
:10357C0083F82420012342E07B681B689B6803F0DE
:10358C000803002BDCD17B681B689A687B681B687E
:10359C0042F004029A60FFF755FB38611BE0FFF71D
:1035AC0051FB02463B69D31A0A2B14D97B681B6862
:1035BC009B6803F00403002B0DD07B689B6A23F0FF
:1035CC00120343F010027B689A627B68002283F836
:1035DC002420012313E07B681B689B6803F0040321
:1035EC00002BDCD17B689B6A23F0030343F00102C0
:1035FC007B689A627B68002283F82420FB7D184646
:10360C001C37BD4690BD00BF2800002080B483B09D
:10361C0000AF786000BF0C37BD4680BC704700001F
:10362C0080B485B000AF78607B6803F00703FB6063
:10363C000C4BDB68BB60BA684FF6FF031340BB60F2
:10364C00FB681A02BB68134343F0BF6343F40033B7
:10365C00BB60044ABB68D36000BF1437BD4680BC56
:10366C00704700BF00ED00E080B400AF044BDB6896
:10367C001B0A03F007031846BD4680BC704700BF09
:10368C0000ED00E080B483B000AF0346FB7197F906
:10369C000730002B0BDBFB7903F01F02064997F96F
:1036AC0007305B09012000FA02F241F8232000BF29
:1036BC000C37BD4680BC704700E100E080B483B09D
:1036CC0000AF03463960FB7197F90730002B0ADB1A
:1036DC003B68DAB20C4997F907301201D2B20B44AD
:1036EC0083F800230AE03B68DAB20849FB7903F05F
:1036FC000F03043B1201D2B20B441A7600BF0C37F5
:10370C00BD4680BC704700BF00E100E000ED00E06A
:10371C0080B489B000AFF860B9607A60FB6803F0E0
:10372C000703FB61FB69C3F10703042B28BF0423C8
:10373C00BB61FB690433062B02D9FB69033B00E038
:10374C0000237B614FF0FF32BB6902FA03F3DA43CB
:10375C00BB681A407B699A404FF0FF317B6901FAD4
:10376C0003F3D9437B680B40134318462437BD46FB
:10377C0080BC704780B582B000AF78607B68013B3D
:10378C00B3F1807F01D301230FE00A4A7B68013B30
:10379C0053600F214FF0FF30FFF790FF054B0022D5
:1037AC009A60044B07221A60002318460837BD465E
:1037BC0080BD00BF10E000E080B582B000AF786043
:1037CC007868FFF72DFF00BF0837BD4680BD80B578
:1037DC0086B000AF0346B9607A60FB7300237B614F
:1037EC00FFF742FF78617A68B9687869FFF790FF54
:1037FC00024697F90F3011461846FFF75FFF00BFDE
:10380C001837BD4680BD80B582B000AF0346FB7152
:10381C0097F907301846FFF735FF00BF0837BD464C
:10382C0080BD80B582B000AF78607868FFF7A2FFEA
:10383C00034618460837BD4680BD80B582B000AF40
:10384C0078607B68002B01D101230EE07B685B79EB
:10385C00DBB2002B05D17B6800221A717868FFF768
:10386C007DF87B6801225A71002318460837BD4643
:10387C0080BD80B487B000AFF860B9607A60002377
:10388C003B61FB6802225A71FB681B689A68FB68F3
:10389C001B6842F001029A6000237B610AE07B699D
:1038AC009B00BA681A44FB681B6812681A607B6933
:1038BC0001337B617A697B689A42F0D3FB681B68A1
:1038CC001B683B61FB6801225A713B6918461C3727
:1038DC00BD4680BC70470000F0B587B000AFF86003
:1038EC00B960C7E900230123FB750023BB750023D6
:1038FC007B752F4B1B7E012B01D1022354E02C4BEB
:10390C0001221A764CF2503000F0A8F80346FB75F1
:10391C00FB7D002B44D1FB68012B02D101237B756D
:10392C0007E0FB68022B02D102237B7501E0042324
:10393C007B750023BB752DE0BB7D5A00BB6802EB89
:10394C00030CBB7D1901D7E90023C1F12006A1F1BD
:10395C00200022FA01F403FA06F6344323FA00F0AD
:10396C00044323FA01F5A3B21946604600F05AF855
:10397C004CF2503000F072F80346FB750D4B1B698E
:10398C000C4A23F001031361FB7D002B07D1BB7D97
:10399C000133BB75BA7D7B7D9A42CDD300E000BF6D
:1039AC00034B00221A76FB7D18461C37BD46F0BD32
:1039BC00A80400200020024080B483B000AF002394
:1039CC00FB710D4B1B6903F08003002B0DD00A4BD0
:1039DC000A4A5A60084B0A4A5A60074B1B6903F0A3
:1039EC008003002B01D00123FB71FB7918460C37A7
:1039FC00BD4680BC704700BF0020024023016745D4
:103A0C00AB89EFCD80B400AF054B1B69044A43F082
:103A1C008003136100231846BD4680BC704700BF6D
:103A2C000020024080B483B000AF78600B467B80EE
:103A3C00084B0022DA61084B1B69074A43F001036B
:103A4C0013617B687A881A8000BF0C37BD4680BC36
:103A5C00704700BFA80400200020024080B584B04D
:103A6C0000AF7860FFF7EEF8F86010E07B68B3F118
:103A7C00FF3F0CD07B68002B07D0FFF7E3F8024622
:103A8C00FB68D31A7A689A4201D2032325E0154BBE
:103A9C00DB6803F00103002BE8D1124BDB6803F069
:103AAC002003002B02D00F4B2022DA600D4BDB6879
:103ABC0003F01003002B0BD10A4BDB6903F001035D
:103ACC00002B05D1074BDB6803F00403002B03D05C
:103ADC0000F00AF8012300E0002318461037BD4619
:103AEC0080BD00BF0020024080B483B000AF002333
:103AFC007B60234BDB6803F01003002B09D0214BB8
:103B0C00DB6943F002031F4AD3617B6843F0100367
:103B1C007B601B4BDB6803F00403002B09D0194BB3
:103B2C00DB6943F00103174AD3617B6843F004035C
:103B3C007B60134BDB6903F00103002B0BD0114BA3
:103B4C00DB6943F004030F4AD3610D4BDB690C4A6C
:103B5C0023F00103D3617B6840F20112934206D13A
:103B6C00074BDB69064A23F00103D36102E0044AE8
:103B7C007B68D36000BF0C37BD4680BC704700BF6C
:103B8C0000200240A804002080B584B000AF78600B
:103B9C0039600123FB730023BB602F4B1B7E012B71
:103BAC0001D1022353E02C4B01221A767B681B684F
:103BBC00022B16D14CF25030FFF750FF0346002B6E
:103BCC0041D1012000F04CF84CF25030FFF746FF89
:103BDC000346FB73214B1B69204A23F0040313613A
:103BEC0031E04CF25030FFF739FF0346002B2AD15D
:103BFC003B684FF0FF321A607B689B68BB6019E032
:103C0C00B86800F049F84CF25030FFF727FF034634
:103C1C00FB73124B1B69114A23F002031361FB7BEC
:103C2C00002B03D03B68BA681A600CE0BB6803F544
:103C3C008063BB607B68DB689A027B689B6813447B
:103C4C00BA689A42DCD3044B00221A76FB7B1846E6
:103C5C001037BD4680BD00BFA804002000200240E4
:103C6C0080B483B000AF7860094B0022DA61094B55
:103C7C001B69084A43F004031361064B1B69054A90
:103C8C0043F04003136100BF0C37BD4680BC704746
:103C9C00A80400200020024080B483B000AF7860FC
:103CAC000B4B0022DA610B4B1B690A4A43F00203EF
:103CBC001361084A7B685361064B1B69054A43F044
:103CCC004003136100BF0C37BD4680BC704700BF7A
:103CDC00A80400200020024080B48BB000AF7860B4
:103CEC00396000237B6200233B6269E101227B6A1D
:103CFC0002FA03F3FB613B681B68FA691340BB6172
:103D0C00BA69FB699A4240F058813B685B689A4AF1
:103D1C0093425ED0984A934275D8984A934258D0B1
:103D2C00964A93426FD8964A934252D0944A934201
:103D3C0069D8944A93424CD0924A934263D8924A9F
:103D4C00934246D0904A93425DD8122B2AD8122B1C
:103D5C0059D801A252F823F0DF3D0008B93D000804
:103D6C00CB3D00080D3E0008133E0008133E000832
:103D7C00133E0008133E0008133E0008133E0008D3
:103D8C00133E0008133E0008133E0008133E0008C3
:103D9C00133E0008133E0008133E0008C13D000806
:103DAC00D53D0008794A934213D02CE03B68DB6880
:103DBC003B6229E03B68DB6804333B6224E03B68F0
:103DCC00DB6808333B621FE03B68DB680C333B620B
:103DDC001AE03B689B68002B02D104233B6213E082
:103DEC003B689B68012B05D108233B627B68FA6911
:103DFC001A6109E008233B627B68FA695A6103E0A7
:103E0C0000233B6200E000BFBB69FF2B01D87B683D
:103E1C0001E07B6804337B61BB69FF2B02D87B6AB2
:103E2C009B0002E07B6A083B9B003B617B691A6844
:103E3C000F213B6901FA03F3DB431A40396A3B69F2
:103E4C0001FA03F31A437B691A603B685B6803F061
:103E5C008053002B00F0B1804D4B9B694C4A43F0D2
:103E6C00010393614A4B9B6903F00103BB60BB6880
:103E7C00484A7B6A9B08023352F82330FB607B6A0A
:103E8C0003F003039B000F2202FA03F3DB43FA68EF
:103E9C001340FB607B68404A934213D07B683F4AD7
:103EAC0093420DD07B683E4A934207D07B683D4AD3
:103EBC00934201D1032306E0042304E0022302E031
:103ECC00012300E000237A6A02F00302920093407F
:103EDC00FA681343FB602F497B6A9B080233FA682C
:103EEC0041F823203B685B6803F48033002B06D039
:103EFC002D4B1A682C49BB6913430B6006E02A4B07
:103F0C001A68BB69DB43284913400B603B685B684C
:103F1C0003F40033002B06D0234B5A682249BB69AB
:103F2C0013434B6006E0204B5A68BB69DB431E49C8
:103F3C0013404B603B685B6803F48013002B06D086
:103F4C00194B9A681849BB6913438B6006E0164BF2
:103F5C009A68BB69DB43144913408B603B685B6810
:103F6C0003F40013002B21D00F4BDA680E49BB6908
:103F7C001343CB6021E000BF000032100000311071
:103F8C00000022100000211000001210000011107F
:103F9C00001002400000014000080140000C0140EC
:103FAC000010014000140140000401400B4BDA6882
:103FBC00BB69DB4309491340CB607B6A01337B62ED
:103FCC003B681A687B6A22FA03F3002B7FF48EAEEF
:103FDC0000BF00BF2C37BD4680BC704700040140B9
:103FEC0080B485B000AF78600B467B807B689A68A4
:103FFC007B881340002B02D00123FB7301E00023CC
:10400C00FB73FB7B18461437BD4680BC704780B4ED
:10401C0083B000AF78600B467B8013467B707B7857
:10402C00002B03D07A887B681A6103E07B881A0422
:10403C007B681A6100BF0C37BD4680BC704700001E
:10404C0080B582B000AF0346FB80084B5A69FB88F1
:10405C001340002B06D0054AFB885361FB88184699
:10406C00FCF788FD00BF0837BD4680BD0004014049
:10407C00F0B58BB006AF78607B68002B01D10123C3
:10408C00FDE07B6893F8A932DBB2002B06D17B688C
:10409C00002283F8A822786807F034FD7B6803229D
:1040AC0083F8A9227B681B68184603F01DFA7B680D
:1040BC001B683B607E686D4606F110040FCC0FC583
:1040CC0023682B60331D0ECB386803F0E7F90346E9
:1040DC00002B05D07B68022283F8A9220123CEE0B5
:1040EC007B681B680021184603F018FA0023FB7349
:1040FC004CE0FB7B79685A1C13469B001344DB0095
:10410C000B44013301221A70FB7B79685A1C13464D
:10411C009B001344DB000B44FA7B1A70FA7BFB7B8D
:10412C0098B2796813469B001344DB000B4436337A
:10413C0002461A80FB7B79685A1C13469B00134479
:10414C00DB000B44033300221A70FA7B79681346A8
:10415C009B001344DB000B44383300221A60FA7BBB
:10416C00796813469B001344DB000B443C3300225C
:10417C001A60FA7B796813469B001344DB000B44EE
:10418C00403300221A60FB7B0133FB73FA7B7B68A4
:10419C005B689A42ADD30023FB7344E0FA7B7968E9
:1041AC0013469B001344DB000B4403F269130022FB
:1041BC001A70FA7B796813469B001344DB000B449E
:1041CC0003F5B473FA7B1A70FA7B796813469B007B
:1041DC001344DB000B4403F26B1300221A70FA7BBE
:1041EC00796813469B001344DB000B4403F5BC7346
:1041FC0000221A60FA7B796813469B001344DB009B
:10420C000B4403F5BE7300221A60FA7B79681346DF
:10421C009B001344DB000B4403F5C07300221A60AF
:10422C00FB7B0133FB73FA7B7B685B689A42B5D3EB
:10423C007B681B683B607E686D4606F110040FCCF2
:10424C000FC523682B60331D0ECB386803F072F951
:10425C000346002B05D07B68022283F8A922012398
:10426C000DE07B68002283F824207B68012283F810
:10427C00A9227B681B68184605F024FE002318460B
:10428C001437BD46F0BD80B582B000AF78607B6856
:10429C0093F8A832012B01D1022316E07B6801228E
:1042AC0083F8A8227B681B68184603F007F90121E4
:1042BC00786807F09AFE7B681B68184605F0F8FDD5
:1042CC007B68002283F8A822002318460837BD46D5
:1042DC0080BD80B588B000AF78607B681B681846DD
:1042EC0005F0FAFD034603F40043B3F5004F02D189
:1042FC00786800F05FFB7B681B68184605F0ECFDE6
:10430C00034603F48063B3F5806F12D17B681B689E
:10431C00B3F844309AB27B681B6822F4806292B284
:10432C00A3F84420786807F068FC0021786800F056
:10433C0023F97B681B68184605F0CEFD034603F491
:10434C008043B3F5804F0BD17B681B68B3F84430C6
:10435C009AB27B681B6822F4804292B2A3F8442084
:10436C007B681B68184605F0B7FD034603F4005341
:10437C00B3F5005F0BD17B681B68B3F844309AB27D
:10438C007B681B6822F4005292B2A3F844207B682D
:10439C001B68184605F0A0FD034603F48053B3F5E3
:1043AC00805F26D17B681B68B3F840309AB27B687B
:1043BC001B6822F0040292B2A3F840207B681B68B1
:1043CC00B3F840309AB27B681B6822F0080292B2B4
:1043DC00A3F84020786807F049FC7B681B68B3F8A9
:1043EC0044309AB27B681B6822F4805292B2A3F8D4
:1043FC0044207B681B68184605F06EFD034603F4E9
:10440C000063B3F5006F40F082800023FB7710E06F
:10441C007B681B681A46FB7F9B001A44FB7F128843
:10442C0092B25B0020333B4423F8142CFB7F013306
:10443C00FB77FB7F072BEBD97B681B68B3F840300D
:10444C009AB27B681B6842F0010292B2A3F840203A
:10445C007B681B68B3F840309AB27B681B6822F00B
:10446C00010292B2A3F8402000BF7B681B68B3F82E
:10447C0044309BB203F48063002BF6D07B681B683E
:10448C00B3F844309AB27B681B6822F4806292B213
:10449C00A3F844200023FB770FE0FB7F7A681268B7
:1044AC001146FA7F92000A445B0020333B4433F8F8
:1044BC00143C1380FB7F0133FB77FB7F072BECD97C
:1044CC007B681B68B3F840309AB27B681B6842F07B
:1044DC00080292B2A3F840207B681B68B3F8443002
:1044EC009AB27B681B6822F4006292B2A3F8442053
:1044FC007B681B68B3F840309AB27B681B6842F04B
:10450C00040292B2A3F84020786807F095FB7B6810
:10451C001B68184605F0E0FC034603F40073B3F582
:10452C00007F0ED17B681B68B3F844309AB27B686D
:10453C001B6822F4007292B2A3F84420786807F04A
:10454C004EFB7B681B68184605F0C6FC034603F45B
:10455C008073B3F5807F0BD17B681B68B3F8443054
:10456C009AB27B681B6822F4807292B2A3F8442042
:10457C0000BF2037BD4680BD80B582B000AF7860EB
:10458C000B46FB707B6893F8A832012B01D10223F8
:10459C0013E07B68012283F8A8227B68FA7883F801
:1045AC0024207B681B68FA781146184605F06DFCD0
:1045BC007B68002283F8A822002318460837BD46E2
:1045CC0080BD80B584B000AF7860084611461A46AD
:1045DC000346FB700B463B801346BB700023FB72FB
:1045EC0097F90330002B0EDAFB7803F007035A1C03
:1045FC0013469B001344DB007A681344FB60FB6892
:10460C0001225A700EE0FB7803F0070213469B0060
:10461C001344DB0003F5B4737A681344FB60FB6846
:10462C0000225A70FB7803F00703DAB2FB681A70A9
:10463C003A88FB681A61FB68BA78DA70FB685B78B9
:10464C00002B04D0FB681B789AB2FB68DA81BB782C
:10465C00022B02D1FB6800221A717B6893F8A832F6
:10466C00012B01D102230EE07B68012283F8A822E2
:10467C007B681B68F968184602F07CFF7B68002297
:10468C0083F8A822FB7A18461037BD4680BD80B54A
:10469C0084B000AF78600B46FB7097F90330002BA9
:1046AC000EDAFB7803F007035A1C13469B001344E5
:1046BC00DB007A681344FB60FB6801225A700EE041
:1046CC00FB7803F0070213469B001344DB0003F551
:1046DC00B4737A681344FB60FB6800225A70FB7851
:1046EC0003F00703DAB2FB681A707B6893F8A83200
:1046FC00012B01D102230EE07B68012283F8A82252
:10470C007B681B68F968184603F09EFA7B680022E8
:10471C0083F8A822002318461037BD4680BD80B50B
:10472C0086B000AFF8607A603B600B46FB72FB7A98
:10473C0003F0070213469B001344DB0003F5B4732C
:10474C00FA6813447B617B697A685A617B693A68C1
:10475C009A617B690022DA617B6900225A70FB7ACC
:10476C0003F00703DAB27B691A70FB7A03F00703D4
:10477C00002B06D1FB681B687969184603F050FCC6
:10478C0005E0FB681B687969184603F049FC0023B7
:10479C0018461837BD4680BD80B483B000AF786032
:1047AC000B46FB70FB7803F00702796813469B00FD
:1047BC001344DB000B4403F5C2731B6818460C371B
:1047CC00BD4680BC704780B586B000AFF8607A609B
:1047DC003B600B46FB72FB7A03F007035A1C134633
:1047EC009B001344DB00FA6813447B617B697A6895
:1047FC005A617B693A689A617B69012283F82420AB
:10480C007B693A681A627B690022DA617B69012252
:10481C005A70FB7A03F00703DAB27B691A70FB7AE1
:10482C0003F00703002B06D1FB681B687969184657
:10483C0003F0F6FB05E0FB681B687969184603F08A
:10484C00EFFB002318461837BD4680BD80B584B0F9
:10485C0000AF78600B46FB70FB7803F007027B68B7
:10486C005B689A4201D901234CE097F90330002B85
:10487C000EDAFB7803F007035A1C13469B00134413
:10488C00DB007A681344FB60FB6801225A700CE071
:10489C00FA7813469B001344DB0003F5B4737A6873
:1048AC001344FB60FB6800225A70FB6801229A706B
:1048BC00FB7803F00703DAB2FB681A707B6893F895
:1048CC00A832012B01D102231CE07B68012283F862
:1048DC00A8227B681B68F968184605F0D9F9FB78A3
:1048EC0003F00703002B08D17B681A687B6803F57B
:1048FC002C731946104605F0FEFA7B68002283F8EB
:10490C00A822002318461037BD4680BD80B584B060
:10491C0000AF78600B46FB70FB7803F00F027B68EE
:10492C005B689A4201D9012340E097F90330002BD0
:10493C000EDAFB7803F007035A1C13469B00134452
:10494C00DB007A681344FB60FB6801225A700EE0AE
:10495C00FB7803F0070213469B001344DB0003F5BE
:10496C00B4737A681344FB60FB6800225A70FB68CE
:10497C0000229A70FB7803F00703DAB2FB681A7016
:10498C007B6893F8A832012B01D102230EE07B68DF
:10499C00012283F8A8227B681B68F968184605F089
:1049AC00C7F97B68002283F8A82200231846103729
:1049BC00BD4680BD80B58EB000AF7860ECE27B6800
:1049CC001B68B3F84430FB85FB8DDBB203F00F039F
:1049DC0087F82D3097F82D30002B40F06181FB8D3E
:1049EC0003F01003002B52D17B681B681B889BB211
:1049FC0023F4E14323F07003FB817B681A68FB8985
:104A0C006FEA43436FEA53439BB213807B682833AE
:104A1C007B627B681B68B3F850309BB21A467B6A8A
:104A2C001B78DB00134402335B007A681268134472
:104A3C0003F580631B88C3F309027B6ADA617B6A26
:104A4C005A697B6ADB691A447B6A5A61002178686F
:104A5C0007F0ABF87B6893F82430DBB2002B00F046
:104A6C009B827B6A9B69002B40F096827B6893F853
:104A7C002430DBB263F07F03DAB27B681B6892B23E
:104A8C00A3F84C207B68002283F8242084E27B6806
:104A9C0003F5B4737B627B681B681B887B857B8DFD
:104AAC0003F40063002B34D07B681B68B3F85030E0
:104ABC009BB21A467B6A1B78DB00134406335B00FF
:104ACC007A681268134403F580631B88C3F30902E8
:104ADC007B6ADA617B6818687B6803F52C717B6AEA
:104AEC00DA887B6ADB699BB205F055FA7B681B6838
:104AFC001B889AB240F68F7313403B827B681B680D
:104B0C003A8A42F0800292B21A80786807F020F854
:104B1C0042E2B7F92A30002B80F23E827B681B6898
:104B2C001B889AB240F68F731340BB837B681B685B
:104B3C00BA8B42F0800292B21A807B681B68B3F881
:104B4C0050309BB21A467B6A1B78DB001344063349
:104B5C005B007A681268134403F580631B88C3F307
:104B6C0009027B6ADA617B6ADB69002B19D07B6AEC
:104B7C005B69002B15D07B6818687B6A59697B6A66
:104B8C00DA887B6ADB699BB205F005FA7B6A5A69A5
:104B9C007B6ADB691A447B6A5A610021786806F0EB
:104BAC00E9FF7B681B681B889BB203F40063002B36
:104BBC0040F0F2817B681B68BB617B681B68B3F8B3
:104BCC0050309BB21A46BB691344BB61BB6903F2FC
:104BDC000C437B617B6A1B69002B12D17B691B88A0
:104BEC009BB223F4F8439AB27B691A807B691B88C9
:104BFC009BB26FEA43436FEA53439AB27B691A80C4
:104C0C002FE07B6A1B693E2B13D87B6A1B695B0800
:104C1C003B637B6A1B6903F00103002B02D03B6BE7
:104C2C0001333B633B6B9BB29B029AB27B691A804C
:104C3C0017E07B6A1B695B093B637B6A1B6903F0AA
:104C4C001F03002B02D13B6B013B3B633B6B9BB2C5
:104C5C009B029BB26FEA43436FEA53439AB27B6960
:104C6C001A807B681B681B889BB223F4804323F05B
:104C7C0070037B827B8A83F480537B827B8A83F4F0
:104C8C0000537B827B681A687B8A43F07F4343F432
:104C9C007F0343F4004343F080039BB213807BE11A
:104CAC007B681B681A4697F82D309B0013441B88B1
:104CBC007B85B7F92A30002B80F2EA807B681B6871
:104CCC001A4697F82D309B0013441B889AB240F675
:104CDC008F7313403B857B681B681A4697F82D3001
:104CEC009B0013443A8D42F0800292B21A8097F8DE
:104CFC002D2013469B001344DB0003F5B4737A6834
:104D0C0013447B627B6A1B7B002B22D17B681B6864
:104D1C00B3F850309BB21A467B6A1B78DB00134405
:104D2C0006335B007A681268134403F580631B88B2
:104D3C00C3F30903FB86FB8E002B00F087807B6896
:104D4C0018687B6A59697B6ADA88FB8E05F023F94F
:104D5C007CE07B6ADB78022B08D17B8D1A46796A62
:104D6C00786800F027F90346FB866FE07B681B68C8
:104D7C001A467B6A1B789B0013441B889BB223F456
:104D8C00E04323F070037B847B681B681A467B6AC4
:104D9C001B789B001A447B8C43F07F4343F47F03C6
:104DAC0043F4004343F0C0039BB213807B681B6841
:104DBC001A467B6A1B789B0013441B889BB203F436
:104DCC008043002B21D07B681B68B3F850309BB21A
:104DDC001A467B6A1B78DB00134402335B007A684B
:104DEC001268134403F580631B88C3F30903FB8625
:104DFC00FB8E002B2AD07B6818687B6A59697B6A0A
:104E0C001A89FB8E05F0C7F820E07B681B68B3F8A5
:104E1C0050309BB21A467B6A1B78DB001344063376
:104E2C005B007A681268134403F580631B88C3F334
:104E3C000903FB86FB8E002B08D07B6818687B6A05
:104E4C0059697B6A5A89FB8E05F0A5F87B6ADA6989
:104E5C00FB8E1A447B6ADA617B6A5A69FB8E1A44B0
:104E6C007B6A5A617B6A9B69002B04D0FA8E7B6A41
:104E7C001B699A4206D27B6A1B781946786806F041
:104E8C0079FE05E07B681B68796A184603F0C8F860
:104E9C007B8D03F08003002B7ED097F82D305A1CAD
:104EAC0013469B001344DB007A6813447B627B68D7
:104EBC001B681A4697F82D309B0013441B889BB235
:104ECC0023F4E14323F070033B847B681B681A4690
:104EDC0097F82D309B001A443B8C6FEA43436FEAE2
:104EEC0053439BB213807B6ADB78032B0CD07B6A19
:104EFC00DB78002B08D07B6ADB78022B46D17B8DCC
:104F0C0003F48073002B41D17B681B68B3F85030DD
:104F1C009BB21A467B6A1B78DB00134402335B009E
:104F2C007A681268134403F580631B88C3F3090382
:104F3C00FB837B6A9A69FB8B9A4206D97B6A9A69D6
:104F4C00FB8BD21A7B6A9A6102E07B6A00229A611F
:104F5C007B6A9B69002B06D17B6A1B7819467868A3
:104F6C0006F023FE18E07B6A5A69FB8B1A447B6AB5
:104F7C005A617B6ADA69FB8B1A447B6ADA617B685B
:104F8C001B68796A184603F04BF805E07B8D1A46CE
:104F9C00796A786800F01BF97B681B68B3F84430B9
:104FAC009BB21BB2002BFFF60AAD00231846383714
:104FBC00BD4680BD80B588B000AFF860B9601346BF
:104FCC00FB80FB8803F48043002B7ED0FB681B68BE
:104FDC00B3F850309BB21A46BB681B78DB00134405
:104FEC0002335B00FA681268134403F580631B8874
:104FFC00C3F309037B83BB689A697B8B9A4206D304
:10500C00BB689A697B8BD21ABB689A6102E0BB6859
:10501C0000229A61BB689B69002B23D1FB681B683B
:10502C001A46BB681B789B0013441B889BB223F465
:10503C00804323F070033B833B8B83F400533B830F
:10504C00FB681B681A46BB681B789B001A443B8B99
:10505C0043F07F4343F47F0343F4004343F0800366
:10506C009BB21380FB8803F04003002B1FD0FB681E
:10507C001B681A46BB681B789B0013441B889BB2A9
:10508C0023F4E04323F07003FB82FB681B681A4691
:10509C00BB681B789B001A44FB8A43F07F4343F4A4
:1050AC007F0343F4004343F0C0039BB213807B8B1C
:1050BC00002B00F08780FB681868BB685969BB68D7
:1050CC001A897B8B04F067FF7CE0FB681B68B3F8E4
:1050DC0050309BB21A46BB681B78DB001344063376
:1050EC005B00FA681268134403F580631B88C3F3F2
:1050FC0009037B83BB689A697B8B9A4206D3BB6896
:10510C009A697B8BD21ABB689A6102E0BB68002259
:10511C009A61BB689B69002B23D1FB681B681A46FC
:10512C00BB681B789B0013441B889BB223F4804301
:10513C0023F07003FB83FB8B83F40053FB83FB682E
:10514C001B681A46BB681B789B001A44FB8B43F008
:10515C007F4343F47F0343F4004343F080039BB24B
:10516C001380FB8803F04003002B1FD1FB681B68E6
:10517C001A46BB681B789B0013441B889BB223F414
:10518C00E04323F07003BB83FB681B681A46BB68C3
:10519C001B789B001A44BB8B43F07F4343F47F0383
:1051AC0043F4004343F0C0039BB213807B8B002B72
:1051BC0008D0FB681868BB685969BB685A897B8B37
:1051CC0004F0E9FE7B8B18462037BD4680BD80B5C8
:1051DC00A2B000AFF860B9601346FB80FB8803F007
:1051EC004003002B00F0C781FB681B68B3F85030FC
:1051FC009BB21A46BB681B78DB00134402335B007E
:10520C00FA681268134403F580631B88C3F309031F
:10521C00A7F84E30BB689A69B7F84E309A4207D956
:10522C00BB689A69B7F84E30D21ABB689A6102E033
:10523C00BB6800229A61BB689B69002B40F0B98067
:10524C00BB685B78002B26D1FB681B68BB62FB68D4
:10525C001B68B3F850309BB21A46BB6A1344BB624E
:10526C00BB681B781A01BB6A134403F204437B62CC
:10527C007B6A1B889BB223F4F8439AB27B6A1A8030
:10528C007B6A1B889BB26FEA43436FEA53439AB223
:10529C007B6A1A801AE0BB685B78012B16D1FB681D
:1052AC001B683B63FB681B68B3F850309BB21A4613
:1052BC003B6B13443B63BB681B781A013B6B134479
:1052CC0003F20443FB62FB6A00221A80FB681B6832
:1052DC003B62BB685B78002B26D1FB681B68BB610B
:1052EC00FB681B68B3F850309BB21A46BB69134479
:1052FC00BB61BB681B781A01BB69134403F20C43F6
:10530C007B617B691B889BB223F4F8439AB27B695F
:10531C001A807B691B889BB26FEA43436FEA534345
:10532C009AB27B691A8017E0BB685B78012B13D1AA
:10533C00FB681B68B3F850309BB21A463B6A1344A7
:10534C003B62BB681B781A013B6A134403F20C43A3
:10535C00FB61FB6900221A80BB681B781946F86850
:10536C0006F023FCFB8803F48043002B00F0D4826E
:10537C00FB681B681A46BB681B789B0013441B8890
:10538C009BB223F4E04323F070037B82FB681B6821
:10539C001A46BB681B789B001A447B8A43F07F43F8
:1053AC0043F47F0343F4404343F080039BB21380E8
:1053BC00B2E2FB8803F48043002B21D0FB681B680E
:1053CC001A46BB681B789B0013441B889BB223F4C2
:1053DC00E04323F07003A7F84430FB681B681A46BF
:1053EC00BB681B789B001A44B7F8443043F07F43EA
:1053FC0043F47F0343F4404343F080039BB2138098
:10540C00BB6893F82430012B40F08682BB685A6944
:10541C00B7F84E301A44BB685A61BB68DA69B7F802
:10542C004E301A44BB68DA61BB681A6ABB681B69E8
:10543C009A4209D3BB681B693B65BB681A6A3B6D12
:10544C00D21ABB681A6215E0BB681B6A002B07D125
:10545C00B7F84E303B65BB68002283F8242009E086
:10546C00BB68002283F82420BB681B6A3B65BB68C1
:10547C0000221A62BB685B78002B55D1FB681B6855
:10548C00BB63FB681B68B3F850309BB21A46BB6B0E
:10549C001344BB63BB681B781A01BB6B134403F248
:1054AC0004437B633B6D002B12D17B6B1B889BB23F
:1054BC0023F4F8439AB27B6B1A807B6B1B889BB2EC
:1054CC006FEA43436FEA53439AB27B6B1A8047E00F
:1054DC003B6D3E2B11D83B6D5B08BB643B6D03F001
:1054EC000103002B02D0BB6C0133BB64BB6C9BB2C1
:1054FC009B029AB27B6B1A8032E03B6D5B09BB64FA
:10550C003B6D03F01F03002B02D1BB6C013BBB6452
:10551C00BB6C9BB29B029BB26FEA43436FEA534353
:10552C009AB27B6B1A801BE0BB685B78012B17D19E
:10553C00FB681B683B64FB681B68B3F850309BB27C
:10554C001A463B6C13443B64BB681B781A013B6CDA
:10555C00134403F20443FB633B6D9AB2FB6B1A805A
:10556C00FB681868BB685969BB681A893B6D9BB2AC
:10557C0004F0CCFCD0E1FB681B68B3F850309BB254
:10558C001A46BB681B78DB00134406335B00FA68D1
:10559C001268134403F580631B88C3F30903A7F84F
:1055AC004E30BB689A69B7F84E309A4207D3BB6845
:1055BC009A69B7F84E30D21ABB689A6102E0BB68A0
:1055CC0000229A61BB689B69002B40F0C480BB68C9
:1055DC005B78002B26D1FB681B68FB66FB681B689D
:1055EC00B3F850309BB21A46FB6E1344FB66BB6893
:1055FC001B781A01FB6E134403F20443BB66BB6EAB
:10560C001B889BB223F4F8439AB2BB6E1A80BB6E14
:10561C001B889BB26FEA43436FEA53439AB2BB6E4B
:10562C001A801AE0BB685B78012B16D1FB681B68EB
:10563C007B67FB681B68B3F850309BB21A467B6FD4
:10564C0013447B67BB681B781A017B6F134403F20E
:10565C0004433B673B6F00221A80FB681B68BB67E7
:10566C00BB685B78002B2FD1FB681B68C7F88030B8
:10567C00FB681B68B3F850309BB21A46D7F88030E1
:10568C001344C7F88030BB681B781A01D7F88030F8
:10569C00134403F20C43C7F88430D7F884301B88CA
:1056AC009BB223F4F8439AB2D7F884301A80D7F817
:1056BC0084301B889BB26FEA43436FEA53439AB220
:1056CC00D7F884301A8017E0BB685B78012B13D1B4
:1056DC00FB681B68B3F850309BB21A46BB6F13447F
:1056EC00BB67BB681B781A01BB6F134403F20C43F6
:1056FC00FB67FB6F00221A80BB681B781946F868A1
:10570C0006F053FAFB8803F48043002B40F004812D
:10571C00FB681B681A46BB681B789B0013441B88EC
:10572C009BB223F4E04323F07003A7F84630FB68E8
:10573C001B681A46BB681B789B001A44B7F84630A6
:10574C0043F07F4343F47F0343F4404343F080032F
:10575C009BB21380E0E0FB8803F48043002B21D143
:10576C00FB681B681A46BB681B789B0013441B889C
:10577C009BB223F4E04323F07003A7F84C30FB6892
:10578C001B681A46BB681B789B001A44B7F84C3050
:10579C0043F07F4343F47F0343F4404343F08003DF
:1057AC009BB21380BB6893F82430012B40F0B4807B
:1057BC00BB685A69B7F84E301A44BB685A61BB686B
:1057CC00DA69B7F84E301A44BB68DA61BB681A6AFA
:1057DC00BB681B699A4209D3BB681B693B65BB68F4
:1057EC001A6A3B6DD21ABB681A6215E0BB681B6A59
:1057FC00002B07D1B7F84E303B65BB68002283F80D
:10580C00242009E0BB681B6A3B65BB6800221A6256
:10581C00BB68002283F82420FB681B687B66BB688E
:10582C005B78002B55D1FB681B68FB65FB681B681C
:10583C00B3F850309BB21A46FB6D1344FB65BB6842
:10584C001B781A01FB6D134403F20C43BB653B6DD3
:10585C00002B12D1BB6D1B889BB223F4F8439AB278
:10586C00BB6D1A80BB6D1B889BB26FEA43436FEA1A
:10587C0053439AB2BB6D1A8044E03B6D3E2B11D85A
:10588C003B6D5B087B653B6D03F00103002B02D085
:10589C007B6D01337B657B6D9BB29B029AB2BB6DBA
:1058AC001A802FE03B6D5B097B653B6D03F01F039A
:1058BC00002B02D17B6D013B7B657B6D9BB29B0208
:1058CC009BB26FEA43436FEA53439AB2BB6D1A80A3
:1058DC0018E0BB685B78012B14D1FB681B68B3F82C
:1058EC0050309BB21A467B6E13447B66BB681B78A8
:1058FC001A017B6E134403F20C433B663B6D9AB268
:10590C003B6E1A80FB681868BB685969BB685A897A
:10591C003B6D9BB204F0FAFAFB681B681A46BB6835
:10592C001B789B0013441B889BB223F4E04323F0A9
:10593C0040033B823B8A83F010033B823B8A83F01B
:10594C0020033B82FB681B681A46BB681B789B00D4
:10595C001A443B8A43F07F4343F47F0343F40043F0
:10596C0043F080039BB21380002318468837BD4652
:10597C0080BD80B487B000AFF8607B600B467B8144
:10598C0013463B817B8903F080039BB2002B0BD029
:10599C007B8903F007035A1C13469B001344DB005E
:1059AC00FA6813447B6109E07A8913469B0013441F
:1059BC00DB0003F5B473FA6813447B613B89002B5D
:1059CC0007D17B6900221A737B689AB27B69DA80F3
:1059DC000BE07B6901221A737B689AB27B691A818E
:1059EC007B681B0C9AB27B695A81002318461C37C2
:1059FC00BD4680BC7047000080B586B000AF7860B3
:105A0C007B68002B01D1012372E27B681B6803F0D9
:105A1C000103002B00F08780924B5B6803F00C03B2
:105A2C00042B0CD08F4B5B6803F00C03082B12D1AA
:105A3C008C4B5B6803F48033B3F5803F0BD1894BFF
:105A4C001B6803F40033002B6CD07B685B68002B65
:105A5C0068D101234CE27B685B68B3F5803F06D1CB
:105A6C00804B1B687F4A43F4803313602EE07B68C5
:105A7C005B68002B0CD17B4B1B687A4A23F4803378
:105A8C001360784B1B68774A23F4802313601DE066
:105A9C007B685B68B3F5A02F0CD1724B1B68714A05
:105AAC0043F4802313606F4B1B686E4A43F48033BE
:105ABC0013600BE06B4B1B686A4A23F48033136052
:105ACC00684B1B68674A23F4802313607B685B6810
