:020000040800F2
:1000000000500020150E0008950D00089B0D0008FB
:10001000A10D0008A70D0008AD0D000800000000AC
:10002000000000000000000000000000B30D000808
:10003000BF0D000800000000CB0D0008D70D000820
:100040005D0E00085D0E00085D0E00085D0E0008E4
:100050005D0E00085D0E00085D0E00085D0E0008D4
:100060005D0E00085D0E00085D0E00085D0E0008C4
:100070005D0E00085D0E00085D0E00085D0E0008B4
:100080005D0E00085D0E0008E50D00085D0E00081D
:100090005D0E00085D0E00085D0E00085D0E000894
:1000A0005D0E00085D0E00085D0E00085D0E000884
:1000B0005D0E00085D0E00085D0E00085D0E000874
:1000C0005D0E00085D0E00085D0E00085D0E000864
:1000D0005D0E00085D0E00085D0E00085D0E000854
:1000E000F90D00085D0E00085D0E0008000000001C
:1000F0000000000000000000000000000000000000
:0C01000000000000000000005FF808F1A3
:10010C0010B5054C237833B9044B13B10448AFF345
:10011C0000800123237010BD0C00002000000000A3
:10012C002435000808B5034B1BB103490348AFF352
:10013C00008008BD000000001000002024350008DD
:10014C0080F0004002E000BF81F0004142001FBF80
:10015C005FEA410392EA030F7FEA226C7FEA236C89
:10016C006AD04FEA1262D2EB1363C1BFD21841407E
:10017C0048404140B8BF5B42192B88BF704710F014
:10018C00004F40F4000020F07F4018BF404211F0B7
:10019C00004F41F4000121F07F4118BF494292EA1F
:1001AC00030F3FD0A2F1010241FA03FC10EB0C004B
:1001BC00C3F1200301FA03F100F0004302D54942D8
:1001CC0060EB4000B0F5000F13D3B0F1807F06D385
:1001DC0040084FEA310102F10102FE2A51D2B1F17D
:1001EC00004F40EBC25008BF20F0010040EA030072
:1001FC007047490040EB0000013A28BFB0F5000FF2
:10020C00EDD2B0FA80FCACF1080CB2EB0C0200FAA7
:10021C000CF0AABF00EBC25052421843BCBFD040F6
:10022C001843704792F0000F81F4000106BF80F470
:10023C0000000132013BB5E74FEA41037FEA226C33
:10024C0018BF7FEA236C21D092EA030F04D092F0FE
:10025C00000F08BF0846704790EA010F1CBF002032
:10026C00704712F07F4F04D1400028BF40F000408F
:10027C00704712F100723CBF00F50000704700F0AF
:10028C00004343F0FE4040F4000070477FEA2262D6
:10029C0016BF08467FEA23630146420206BF5FEAA7
:1002AC00412390EA010F40F4800070474FF00003A7
:1002BC0004E000BF10F0004348BF40425FEA000C6E
:1002CC0008BF704743F0964301464FF000001CE016
:1002DC0050EA010208BF70474FF000030AE000BF6C
:1002EC0050EA010208BF704711F0004302D54042AA
:1002FC0061EB41015FEA010C02BF8446014600201C
:10030C0043F0B64308BFA3F18053A3F50003BCFA36
:10031C008CF2083AA3EBC25310DB01FA02FC6344E3
:10032C0000FA02FCC2F12002BCF1004F20FA02F2EA
:10033C0043EB020008BF20F00100704702F12002DD
:10034C0001FA02FCC2F1200250EA4C0021FA02F23E
:10035C0043EB020008BF20EADC7070474FF0FF0C43
:10036C001CEAD0521EBF1CEAD15392EA0C0F93EA3E
:10037C000C0F6FD01A4480EA010C400218BF5FEAE0
:10038C0041211ED04FF0006343EA501043EA511153
:10039C00A0FB01310CF00040B1F5000F3EBF49004D
:1003AC0041EAD3715B0040EA010062F17F02FD2A51
:1003BC001DD8B3F1004F40EBC25008BF20F0010034
:1003CC00704790F0000F0CF0004C08BF49024CEA4B
:1003DC00502040EA51207F3AC2BFD2F1FF0340EADD
:1003EC00C250704740F400004FF00003013A5DDC4E
:1003FC0012F1190FDCBF00F000407047C2F100028F
:10040C00410021FA02F1C2F1200200FA02FC5FEA7B
:10041C00310040F1000053EA4C0308BF20EADC70C5
:10042C00704792F0000F00F0004C02BF400010F437
:10043C00000F013AF9D040EA0C0093F0000F01F0E4
:10044C00004C02BF490011F4000F013BF9D041EA06
:10045C000C018FE70CEAD15392EA0C0F18BF93EA08
:10046C000C0F0AD030F0004C18BF31F0004CD8D132
:10047C0080EA010000F00040704790F0000F17BFB9
:10048C0090F0004F084691F0000F91F0004F14D0FF
:10049C0092EA0C0F01D142020FD193EA0C0F03D157
:1004AC004B0218BF084608D180EA010000F000405A
:1004BC0040F0FE4040F40000704740F0FE4040F435
:1004CC00400070474FF0FF0C1CEAD0521EBF1CEAD4
:1004DC00D15392EA0C0F93EA0C0F69D0A2EB0302F2
:1004EC0080EA010C49024FEA402037D04FF080538C
:1004FC0043EA111143EA10130CF000408B4238BF51
:10050C005B0042F17D024FF4000C8B4224BF5B1A5E
:10051C0040EA0C00B3EB510F24BFA3EB510340EAAC
:10052C005C00B3EB910F24BFA3EB910340EA9C005A
:10053C00B3EBD10F24BFA3EBD10340EADC001B01CA
:10054C0018BF5FEA1C1CE0D1FD2A3FF650AF8B426E
:10055C0040EBC25008BF20F0010070470CF0004C7B
:10056C004CEA50207F32C2BFD2F1FF0340EAC250A6
:10057C00704740F400004FF00003013A37E792F067
:10058C00000F00F0004C02BF400010F4000F013AC5
:10059C00F9D040EA0C0093F0000F01F0004C02BFC0
:1005AC00490011F4000F013BF9D041EA0C0195E729
:1005BC000CEAD15392EA0C0F08D142027FF47DAFC2
:1005CC0093EA0C0F7FF470AF084676E793EA0C0FB2
:1005DC0004D14B023FF44CAF08466EE730F0004CB0
:1005EC0018BF31F0004CCAD130F000427FF45CAF40
:1005FC0031F000437FF43CAF5FE700BF42000ED206
:10060C00B2F1FE4F0BD34FF09E03B3EB126209D441
:10061C004FEA002343F0004323FA02F070474FF0F7
:10062C000000704712F1610F01D1420202D14FF06C
:10063C00FF3070474FF00000704700BF80B582B0AC
:10064C0000AF786000F088F80346012B0DD1094902
:10065C007868FFF783FE03464FF07E511846FFF78C
:10066C0075FD0346184600F011F900BF0837BD466A
:10067C0080BD00BF0108803980B582B000AF034651
:10068C00FB71FB79002B03D1002000F041F802E054
:10069C00012000F03DF800BF0837BD4680BD80B595
:1006AC0000AF00F095F800F0D9F800F009F900F06F
:1006BC0053F80346002B03D1002000F029F802E088
:1006CC00012000F025F800BF80BD000080B582B08D
:1006DC0000AF78607B681B68044A934201D100F03C
:1006EC007DF800BF0837BD4680BD00BF0024014027
:1006FC0080B582B000AF0346FB80FB88B3F5804F1A
:10070C0001D100F017F800BF0837BD4680BD0000CE
:10071C0080B582B000AF0346FB71FB791A464FF4EB
:10072C000051034801F051FB00BF0837BD4680BDA6
:10073C000010014080B500AF00F018F803461A46CF
:10074C00044B1A70034B1B781846FFF795FF00BF3C
:10075C0080BD00BF2800002080B400AF024B1B7886
:10076C001846BD4680BC70472800002080B582B07A
:10077C0000AF0023BB7100237B711FE000237B7152
:10078C004FF48041114801F009FB0346FB7112E064
:10079C007B7901337B714FF480410C4801F0FEFAF8
:1007AC0003461A46FB79934200D007E07B790A2B6B
:1007BC0001D10123BB717B790A2BE9D1BB79012BC8
:1007CC00DCD1FB7918460837BD4680BD00100140CE
:1007DC0080B500AFFFF7AEFF00BF80BD80B500AFA6
:1007EC00184800F027FD0246174B1B681344164AA5
:1007FC001360164B1B8801339AB2144B1A80134B9F
:10080C001B88642B18D1104B1B681846FFF74EFD44
:10081C0003460F491846FFF755FE03461A460D4B83
:10082C001A600C4B1B681846FFF708FF074B002299
:10083C001A80054B00221A60074B01221A7000BF68
:10084C0080BD00BF380000202C00002030000020AC
:10085C000000C842340000202900002080B500AF01
:10086C0000BF084800F052FF0346002BF9D10548A1
:10087C0000F02AFC00BF044B1B78002BFBD000BF00
:10088C0000BF80BD380000202900002080B582B058
:10089C0000AF786008497868FFF760FD034618469A
:1008AC00FFF7ACFE03469AB2044B1B685A6300BFB9
:1008BC000837BD4680BD00BF007FBB4668000020E6
:1008CC0080B500AF0021024802F0D4F800BF80BD13
:1008DC006800002080B500AF00F0BCFA00F009F809
:1008EC0000F018F900F060F800F09CF8FFF7D7FE64
:1008FC00FEE780B594B000AF07F128032822002151
:10090C00184602F001FE07F1140300221A605A6027
:10091C009A60DA601A613B1D00221A605A609A6074
:10092C00DA600123BB624FF48033FB6200233B632C
:10093C000123BB6302237B644FF48033BB644FF40D
:10094C00E013FB6407F12803184601F06FFA034625
:10095C00002B01D000F04CF90F237B610223BB610B
:10096C000023FB614FF480633B6200237B6207F141
:10097C0014030221184601F0DBFC0346002B01D0C6
:10098C0000F036F902237B604FF40043FB603B1D03
:10099C00184601F051FE0346002B01D000F028F957
:1009AC0000BF5037BD4680BD80B584B000AF3B1D45
:1009BC0000221A605A609A60184B194A1A60174B39
:1009CC0000229A60154B01221A73144B00221A75DF
:1009DC00124B4FF46022DA61104B00225A600F4B1D
:1009EC0001221A610D4800F097FA0346002B01D042
:1009FC0000F0FEF801237B600123BB600723FB6042
:100A0C003B1D1946054800F0EDFC0346002B01D0B8
:100A1C0000F0EEF800BF1037BD4680BD3800002056
:100A2C000024014080B58EB000AF07F128030022EE
:100A3C001A605A609A60DA6007F1200300221A608B
:100A4C005A603B1D00221A605A609A60DA601A6183
:100A5C005A619A612D4B2E4A1A602C4B02225A6015
:100A6C002A4B00229A60294B4BF67F32DA60274BD7
:100A7C0000221A61254B00229A61244801F052FF92
:100A8C000346002B01D000F0B3F84FF48053BB6247
:100A9C0007F1280319461D4802F04CF90346002BB8
:100AAC0001D000F0A5F8194801F08BFF0346002B8C
:100ABC0001D000F09DF800233B6200237B6207F11C
:100ACC0020031946114802F09DFC0346002B01D06F
:100ADC0000F08EF860237B6045F6BF53BB600023AB
:100AEC00FB6000237B613B1D00221946074802F086
:100AFC0063F80346002B01D000F07AF8034800F0AD
:100B0C0011F900BF3837BD4680BD00BF680000201A
:100B1C000008004080B588B000AF07F11003002238
:100B2C001A605A609A60DA602E4B9B692D4A43F02A
:100B3C00100393612B4B9B6903F01003FB60FB6864
:100B4C00284B9B69274A43F020039361254B9B69F3
:100B5C0003F02003BB60BB68224B9B69214A43F026
:100B6C00040393611F4B9B6903F004037B607B6858
:100B7C001C4B9B691B4A43F008039361194B9B69FF
:100B8C0003F008033B603B6801224FF40051164808
:100B9C0001F01BF94FF400533B6101237B610023EF
:100BAC00BB610323FB6107F1100319460E4800F0EB
:100BBC0071FF4FF480433B610C4B7B610123BB61A4
:100BCC0007F110031946084800F064FF00220121C8
:100BDC00282000F028FF282000F041FF00BF20371C
:100BEC00BD4680BD001002400010014000003110D5
:100BFC0080B400AF72B600BFFEE7000080B485B0D1
:100C0C0000AF154B9B69144A43F001039361124BDF
:100C1C009B6903F00103BB60BB680F4BDB690E4A99
:100C2C0043F08053D3610C4BDB6903F080537B6042
:100C3C007B680A4B5B68FB60FB6823F0E063FB603E
:100C4C00FB6843F00073FB60044AFB68536000BF11
:100C5C001437BD4680BC70470010024000000140B4
:100C6C0080B588B000AF786007F1100300221A60DD
:100C7C005A609A60DA607B681B68184A934229D1E3
:100C8C00174B9B69164A43F400739361144B9B6991
:100C9C0003F40073FB60FB68114B9B69104A43F033
:100CAC00040393610E4B9B6903F00403BB60BB68A8
:100CBC0002233B6103237B6107F1100319460948AA
:100CCC0000F0E8FE00220021122000F0ACFE122001
:100CDC0000F0C5FE00BF2037BD4680BD002401409A
:100CEC00001002400008014080B485B000AF78606D
:100CFC007B681B68094A93420BD1094BDB69084A94
:100D0C0043F00403D361064BDB6903F00403FB607F
:100D1C00FB6800BF1437BD4680BC7047000800401C
:100D2C000010024080B588B000AF786007F1100366
:100D3C0000221A605A609A60DA607B681B680F4A5E
:100D4C00934217D10E4B9B690D4A43F008039361F4
:100D5C000B4B9B6903F00803FB60FB6840233B6172
:100D6C0002237B610323FB6107F11003194605483D
:100D7C0000F090FE00BF2037BD4680BD000800404B
:100D8C0000100240000C014080B400AFFEE780B4BC
:100D9C0000AFFEE780B400AFFEE780B400AFFEE723
:100DAC0080B400AFFEE780B400AF00BFBD4680BC8E
:100DBC00704780B400AF00BFBD4680BC704780B4A4
:100DCC0000AF00BFBD4680BC704780B500AF00F0DF
:100DDC0087F800BF80BD000080B500AF024800F06E
:100DEC0035FA00BF80BD00BF3800002080B500AFD1
:100DFC004FF4804001F002F800BF80BD80B400AF1A
:100E0C0000BFBD4680BC70470C480D490D4A0023FD
:100E1C0002E0D458C4500433C4188C42F9D30A4AA3
:100E2C000A4C002301E013600432A242FBD3FFF70B
:100E3C00E5FF02F045FBFFF74DFD70470000002079
:100E4C000C0000207C3500080C000020B4000020B1
:100E5C00FEE7000080B500AF084B1B68074A43F063
:100E6C0010031360032000F0D3FD0F2000F008F8EE
:100E7C00FFF7C4FE0023184680BD00BF00200240CF
:100E8C0080B582B000AF7860124B1A68124B1B7899
:100E9C0019464FF47A73B3FBF1F3B2FBF3F3184634
:100EAC0000F0EBFD0346002B01D001230EE07B6824
:100EBC000F2B0AD8002279684FF0FF3000F0B3FDF9
:100ECC00064A7B681360002300E0012318460837AC
:100EDC00BD4680BD0000002008000020040000205A
:100EEC0080B400AF054B1B781A46054B1B681344A6
:100EFC00034A136000BFBD4680BC70470800002049
:100F0C00B000002080B400AF024B1B681846BD46F1
:100F1C0080BC7047B000002080B586B000AF786010
:100F2C000023FB7500233B610023BB600023FB60A7
:100F3C007B68002B01D10123BEE07B689B68002BF2
:100F4C007B689B6A002B09D17B680022DA627B6884
:100F5C00002283F824207868FFF782FE786800F07E
:100F6C0093FB0346FB757B689B6A03F01003002B15
:100F7C0040F09980FB7D002B40F095807B689B6A4C
:100F8C0023F4885323F0020343F002027B689A6235
:100F9C007B685A687B68DB691A437B681B7B5B0048
:100FAC001343BA681343BB607B689B68B3F5807FBF
:100FBC0003D07B689B68012B02D14FF4807300E057
:100FCC0000233A6913433B617B681B7D012B19D1CC
:100FDC007B681B7B002B09D17B689B69013B5A0307
:100FEC003B69134343F400633B610BE07B689B6AF2
:100FFC0043F020027B689A627B68DB6A43F0010253
:10100C007B68DA627B681B685B6823F469417B68E8
:10101C001B683A690A435A607B681B689A68284BBC
:10102C0013407A681268B9680B4393607B689B68BD
:10103C00B3F5807F03D07B689B68012B04D17B6860
:10104C001B69013B1B05FB607B681B68DB6A23F497
:10105C0070017B681B68FA680A43DA627B681B685C
:10106C009A68184B1340BA689A420BD17B680022DD
:10107C00DA627B689B6A23F0030343F001027B680E
:10108C009A6218E07B689B6A23F0120343F010020B
:10109C007B689A627B68DB6A43F001027B68DA62E8
:1010AC000123FB7507E07B689B6A43F010027B68A9
:1010BC009A620123FB75FB7D18461837BD4680BD2F
:1010CC00FDF7E1FFFE0E1FFF80B584B000AF786026
:1010DC000023FB737B6893F82430012B01D102238E
:1010EC00A0E07B68012283F82420786800F072FA73
:1010FC000346FB73FB7B002B40F08F807B689B6A65
:10110C0023F4706323F0010343F480727B689A62CA
:10111C007B681B68454A934205D1454B5B6803F4D9
:10112C007023002B15D17B689B6A23F480127B689B
:10113C009A627B681B685B6803F48063002B26D083
:10114C007B689B6A23F4405343F480527B689A6219
:10115C001DE07B689B6A43F480127B689A627B6813
:10116C001B68334A934204D07B681B682F4A934216
:10117C000DD12F4B5B6803F48063002B07D07B6889
:10118C009B6A23F4405343F480527B689A627B68D9
:10119C009B6A03F48053002B06D07B68DB6A23F038
:1011AC0006027B68DA6202E07B680022DA627B6806
:1011BC00002283F824207B681B686FF002021A60FF
:1011CC007B681B685A687B681B6842F020025A6077
:1011DC007B681B689B6803F46023B3F5602F13D105
:1011EC007B681B68114A934205D1114B5B6803F471
:1011FC007023002B08D17B681B689A687B681B687E
:10120C0042F4A0029A600CE07B681B689A687B68C9
:10121C001B6842F480129A6003E07B68002283F81A
:10122C002420FB7B18461037BD4680BD00280140AA
:10123C000024014080B483B000AF78607B681B68E9
:10124C00DB6C18460C37BD4680BC704780B582B04D
:10125C0000AF78607B681B685B6803F02003202B71
:10126C0040D17B681B681B6803F00203022B39D149
:10127C007B689B6A03F01003002B05D17B689B6A8B
:10128C0043F400727B689A627B681B689B6803F46A
:10129C006023B3F5602F1DD17B681B7B002B19D10C
:1012AC007B681B685A687B681B6822F020025A60B6
:1012BC007B689B6A23F480727B689A627B689B6A6A
:1012CC0003F48053002B05D17B689B6A43F0010229
:1012DC007B689A627868FFF7F9F97B681B686FF096
:1012EC0012021A607B681B685B6803F08003802B1A
:1012FC004FD17B681B681B6803F00403042B48D197
:10130C007B689B6A03F01003002B05D17B689B6AFA
:10131C0043F400527B689A627B681B689B6803F4F9
:10132C00E043B3F5E04F12D07B681B685B6803F4B5
:10133C008063002B25D17B681B689B6803F46023BA
:10134C00B3F5602F1DD17B681B7B002B19D17B68FB
:10135C001B685A687B681B6822F080025A607B68A5
:10136C009B6A23F480527B689A627B689B6A03F4C5
:10137C008073002B05D17B689B6A43F001027B686C
:10138C009A62786800F06EFA7B681B686FF00C024A
:10139C001A607B681B685B6803F04003402B14D118
:1013AC007B681B681B6803F00103012B0DD17B6864
:1013BC009B6A43F480327B689A62786800F009F883
:1013CC007B681B686FF001021A6000BF0837BD46CE
:1013DC0080BD80B483B000AF786000BF0C37BD46D1
:1013EC0080BC704780B485B000AF78603960002352
:1013FC00FB730023BB607B6893F82430012B01D175
:10140C000223DCE07B68012283F824203B685B68C4
:10141C00062B1CD87B681B68596B3B685A681346B3
:10142C009B001344053B1F2202FA03F3DB431940D4
:10143C003B6818683B685A6813469B001344053B8D
:10144C0000FA03F27B681B680A435A633CE03B6872
:10145C005B680C2B1CD87B681B68196B3B685A6843
:10146C0013469B001344233B1F2202FA03F3DB4376
:10147C0019403B6818683B685A6813469B00134434
:10148C00233B00FA03F27B681B680A431A631BE0D8
:10149C007B681B68D96A3B685A6813469B001344E7
:1014AC00413B1F2202FA03F3DB4319403B681868E7
:1014BC003B685A6813469B001344413B00FA03F205
:1014CC007B681B680A43DA623B681B68092B1CD9D2
:1014DC007B681B68D9683B681A6813465B00134429
:1014EC001E3B072202FA03F3DB4319403B68986862
:1014FC003B681A6813465B0013441E3B00FA03F268
:10150C007B681B680A43DA6019E07B681B68196901
:10151C003B681A6813465B001344072202FA03F374
:10152C00DB4319403B6898683B681A6813465B00BC
:10153C00134400FA03F27B681B680A431A613B6888
:10154C001B68102B03D03B681B68112B32D17B68B6
:10155C001B681D4A934225D17B681B689B6803F46A
:10156C000003002B26D17B681B689A687B681B687C
:10157C0042F400029A603B681B68102B1AD1134B83
:10158C001B68134AA2FB03239A0C13469B001344BB
:10159C005B00BB6002E0BB68013BBB60BB68002B1F
:1015AC00F9D107E07B689B6A43F020027B689A6262
:1015BC000123FB737B68002283F82420FB7B1846F5
:1015CC001437BD4680BC7047002401400000002049
:1015DC0083DE1B4380B584B000AF78600023FB60D2
:1015EC000023BB607B681B689B6803F00103012B25
:1015FC0040D07B681B689A687B681B6842F00102CC
:10160C009A601F4B1B681F4AA2FB03239B0CBB60F9
:10161C0002E0BB68013BBB60BB68002BF9D1FFF754
:10162C0071FCF8601FE0FFF76DFC0246FB68D31AF3
:10163C00022B18D97B681B689B6803F00103012BF4
:10164C0011D07B689B6A43F010027B689A627B68BE
:10165C00DB6A43F001027B68DA627B68002283F864
:10166C002420012307E07B681B689B6803F00103BF
:10167C00012BD8D1002318461037BD4680BD00BFC2
:10168C000000002083DE1B4380B584B000AF78607F
:10169C000023FB607B681B689B6803F00103012B34
:1016AC002ED17B681B689A687B681B6822F001024C
:1016BC009A60FFF727FCF8601BE0FFF723FC02465B
:1016CC00FB68D31A022B14D97B681B689B6803F048
:1016DC000103012B0DD17B689B6A43F010027B68E0
:1016EC009A627B68DB6A43F001027B68DA62012351
:1016FC0007E07B681B689B6803F00103012BDCD0BF
:10170C00002318461037BD4680BD000090B587B049
:10171C0000AF78600023FB750023FB607B6893F8B7
:10172C002430012B01D1022395E07B68012283F840
:10173C0024207868FFF7A8FF0346FB75FB7D002B80
:10174C0040F084807B689B6A23F4885323F0020367
:10175C0043F002027B689A62414B1C68022001F044
:10176C0021F80346B4FBF3F35B00FB6002E0FB687B
:10177C00013BFB60FB68002BF9D17868FFF72AFF6F
:10178C007B681B689A687B681B6842F008029A6049
:10179C00FFF7B8FB38611BE0FFF7B4FB02463B696F
:1017AC00D31A0A2B14D97B681B689B6803F00803B7
:1017BC00002B0DD07B689B6A23F0120343F01002C0
:1017CC007B689A627B68002283F82420012342E024
:1017DC007B681B689B6803F00803002BDCD17B68DB
:1017EC001B689A687B681B6842F004029A60FFF7DA
:1017FC0089FB38611BE0FFF785FB02463B69D31A76
:10180C000A2B14D97B681B689B6803F00403002B1C
:10181C000DD07B689B6A23F0120343F010027B68A7
:10182C009A627B68002283F82420012313E07B68F2
:10183C001B689B6803F00403002BDCD17B689B6A5C
:10184C0023F0030343F001027B689A627B68002259
:10185C0083F82420FB7D18461C37BD4690BD00BF85
:10186C000000002080B483B000AF786000BF0C375C
:10187C00BD4680BC7047000080B485B000AF786076
:10188C007B6803F00703FB600C4BDB68BB60BA683A
:10189C004FF6FF031340BB60FB681A02BB6813438F
:1018AC0043F0BF6343F40033BB60044ABB68D360AE
:1018BC0000BF1437BD4680BC704700BF00ED00E090
:1018CC0080B400AF044BDB681B0A03F00703184617
:1018DC00BD4680BC704700BF00ED00E080B483B013
:1018EC0000AF0346FB7197F90730002B0BDBFB793C
:1018FC0003F01F02064997F907305B09012000FA33
:10190C0002F241F8232000BF0C37BD4680BC704763
:10191C0000E100E080B483B000AF03463960FB7196
:10192C0097F90730002B0ADB3B68DAB20C4997F9C0
:10193C0007301201D2B20B4483F800230AE03B6853
:10194C00DAB20849FB7903F00F03043B1201D2B25F
:10195C000B441A7600BF0C37BD4680BC704700BFE5
:10196C0000E100E000ED00E080B489B000AFF86069
:10197C00B9607A60FB6803F00703FB61FB69C3F194
:10198C000703042B28BF0423BB61FB690433062B1C
:10199C0002D9FB69033B00E000237B614FF0FF326F
:1019AC00BB6902FA03F3DA43BB681A407B699A40BD
:1019BC004FF0FF317B6901FA03F3D9437B680B408D
:1019CC00134318462437BD4680BC704780B582B09F
:1019DC0000AF78607B68013BB3F1807F01D30123BA
:1019EC000FE00A4A7B68013B53600F214FF0FF3038
:1019FC00FFF790FF054B00229A60044B07221A60F8
:101A0C00002318460837BD4680BD00BF10E000E03B
:101A1C0080B582B000AF78607868FFF72DFF00BF0B
:101A2C000837BD4680BD80B586B000AF0346B960AF
:101A3C007A60FB7300237B61FFF742FF78617A6861
:101A4C00B9687869FFF790FF024697F90F30114695
:101A5C001846FFF75FFF00BF1837BD4680BD80B545
:101A6C0082B000AF0346FB7197F907301846FFF7B9
:101A7C0035FF00BF0837BD4680BD80B582B000AFD2
:101A8C0078607868FFF7A2FF034618460837BD4612
:101A9C0080BD000080B48BB000AF7860396000234B
:101AAC007B6200233B6269E101227B6A02FA03F349
:101ABC00FB613B681B68FA691340BB61BA69FB693F
:101ACC009A4240F058813B685B689A4A93425ED0D8
:101ADC00984A934275D8984A934258D0964A934262
:101AEC006FD8964A934252D0944A934269D8944AFA
:101AFC0093424CD0924A934263D8924A934246D036
:101B0C00904A93425DD8122B2AD8122B59D801A295
:101B1C0052F823F09B1B0008751B0008871B00085C
:101B2C00C91B0008CF1B0008CF1B0008CF1B0008E7
:101B3C00CF1B0008CF1B0008CF1B0008CF1B0008D1
:101B4C00CF1B0008CF1B0008CF1B0008CF1B0008C1
:101B5C00CF1B0008CF1B00087D1B0008911B000841
:101B6C00794A934213D02CE03B68DB683B6229E056
:101B7C003B68DB6804333B6224E03B68DB6808337A
:101B8C003B621FE03B68DB680C333B621AE03B684E
:101B9C009B68002B02D104233B6213E03B689B68DB
:101BAC00012B05D108233B627B68FA691A6109E0B5
:101BBC0008233B627B68FA695A6103E000233B62AD
:101BCC0000E000BFBB69FF2B01D87B6801E07B689C
:101BDC0004337B61BB69FF2B02D87B6A9B0002E05C
:101BEC007B6A083B9B003B617B691A680F213B6950
:101BFC0001FA03F3DB431A40396A3B6901FA03F338
:101C0C001A437B691A603B685B6803F08053002BB6
:101C1C0000F0B1804D4B9B694C4A43F0010393613A
:101C2C004A4B9B6903F00103BB60BB68484A7B6A63
:101C3C009B08023352F82330FB607B6A03F00303EA
:101C4C009B000F2202FA03F3DB43FA681340FB609C
:101C5C007B68404A934213D07B683F4A93420DD035
:101C6C007B683E4A934207D07B683D4A934201D140
:101C7C00032306E0042304E0022302E0012300E036
:101C8C0000237A6A02F0030292009340FA6813432D
:101C9C00FB602F497B6A9B080233FA6841F82320CA
:101CAC003B685B6803F48033002B06D02D4B1A681D
:101CBC002C49BB6913430B6006E02A4B1A68BB69BD
:101CCC00DB43284913400B603B685B6803F400332B
:101CDC00002B06D0234B5A682249BB6913434B6037
:101CEC0006E0204B5A68BB69DB431E4913404B602E
:101CFC003B685B6803F48013002B06D0194B9A6881
:101D0C001849BB6913438B6006E0164B9A68BB6994
:101D1C00DB43144913408B603B685B6803F400138E
:101D2C00002B21D00F4BDA680E49BB691343CB60F3
:101D3C0021E000BF00003210000031100000221022
:101D4C0000002110000012100000111000100240C1
:101D5C000000014000080140000C0140001001404F
:101D6C0000140140000401400B4BDA68BB69DB43F3
:101D7C0009491340CB607B6A01337B623B681A686C
:101D8C007B6A22FA03F3002B7FF48EAE00BF00BFF8
:101D9C002C37BD4680BC70470004014080B485B030
:101DAC0000AF78600B467B807B689A687B88134019
:101DBC00002B02D00123FB7301E00023FB73FB7BA0
:101DCC0018461437BD4680BC704780B483B000AF52
:101DDC0078600B467B8013467B707B78002B03D09E
:101DEC007A887B681A6103E07B881A047B681A6125
:101DFC0000BF0C37BD4680BC7047000080B582B078
:101E0C0000AF0346FB80084B5A69FB881340002B3C
:101E1C0006D0054AFB885361FB881846FEF768FC20
:101E2C0000BF0837BD4680BD0004014080B586B0B8
:101E3C0000AF78607B68002B01D1012372E27B68D4
:101E4C001B6803F00103002B00F08780924B5B684A
:101E5C0003F00C03042B0CD08F4B5B6803F00C03CA
:101E6C00082B12D18C4B5B6803F48033B3F5803FA5
:101E7C000BD1894B1B6803F40033002B6CD07B68AF
:101E8C005B68002B68D101234CE27B685B68B3F57F
:101E9C00803F06D1804B1B687F4A43F4803313602C
:101EAC002EE07B685B68002B0CD17B4B1B687A4A5D
:101EBC0023F480331360784B1B68774A23F4802318
:101ECC0013601DE07B685B68B3F5A02F0CD1724BDF
:101EDC001B68714A43F4802313606F4B1B686E4A76
:101EEC0043F4803313600BE06B4B1B686A4A23F49A
:101EFC0080331360684B1B68674A23F4802313609C
:101F0C007B685B68002B13D0FEF7FCFF386108E0A0
:101F1C00FEF7F8FF02463B69D31A642B01D9032361
:101F2C0000E25D4B1B6803F40033002BF0D014E08F
:101F3C00FEF7E8FF386108E0FEF7E4FF02463B6974
:101F4C00D31A642B01D90323ECE1534B1B6803F424
:101F5C000033002BF0D100E000BF7B681B6803F05E
:101F6C000203002B63D04C4B5B6803F00C03002B7B
:101F7C000BD0494B5B6803F00C03082B1CD1464B70
:101F8C005B6803F48033002B16D1434B1B6803F0C2
:101F9C000203002B05D07B681B69012B01D00123A8
:101FAC00C0E13D4B1B6823F0F8027B685B69DB00EA
:101FBC00394913430B603AE07B681B69002B20D036
:101FCC00364B01221A60FEF79DFF386108E0FEF7E0
:101FDC0099FF02463B69D31A022B01D90323A1E1D5
:101FEC002D4B1B6803F00203002BF0D02A4B1B680F
:101FFC0023F0F8027B685B69DB00274913430B6015
:10200C0015E0264B00221A60FEF77CFF386108E0D1
:10201C00FEF778FF02463B69D31A022B01D9032342
:10202C0080E11D4B1B6803F00203002BF0D17B6891
:10203C001B6803F00803002B3AD07B689B69002BCC
:10204C0019D0174B01221A60FEF75CFF386108E0CB
:10205C00FEF758FF02463B69D31A022B01D9032322
:10206C0060E10D4B5B6A03F00203002BF0D0012002
:10207C0000F0C4FA1CE00A4B00221A60FEF742FF83
:10208C0038610FE0FEF73EFF02463B69D31A022B84
:10209C0008D9032346E100BF001002400000424271
:1020AC0080044242924B5B6A03F00203002BE9D19D
:1020BC007B681B6803F00403002B00F0A680002350
:1020CC00FB758B4BDB6903F08053002B0DD1884BD8
:1020DC00DB69874A43F08053D361854BDB6903F09E
:1020EC008053BB60BB680123FB75824B1B6803F4F8
:1020FC008073002B18D17F4B1B687E4A43F480738E
:10210C001360FEF7FFFE386108E0FEF7FBFE0246A7
:10211C003B69D31A642B01D9032303E1754B1B686C
:10212C0003F48073002BF0D07B68DB68012B06D1A5
:10213C006F4B1B6A6E4A43F0010313622DE07B6800
:10214C00DB68002B0CD16A4B1B6A694A23F0010334
:10215C001362674B1B6A664A23F0040313621CE08C
:10216C007B68DB68052B0CD1614B1B6A604A43F022
:10217C00040313625E4B1B6A5D4A43F00103136256
:10218C000BE05B4B1B6A5A4A23F001031362584B5A
:10219C001B6A574A23F0040313627B68DB68002B2D
:1021AC0015D0FEF7AFFE38610AE0FEF7ABFE024633
:1021BC003B69D31A41F28832934201D90323B1E02F
:1021CC004B4B1B6A03F00203002BEED014E0FEF71E
:1021DC0099FE38610AE0FEF795FE02463B69D31A78
:1021EC0041F28832934201D903239BE0404B1B6A96
:1021FC0003F00203002BEED1FB7D012B05D13C4BF0
:10220C00DB693B4A23F08053D3617B68DB69002B8D
:10221C0000F08780364B5B6803F00C03082B61D011
:10222C007B68DB69022B46D1334B00221A60FEF728
:10223C0069FE386108E0FEF765FE02463B69D31A79
:10224C00022B01D903236DE0294B1B6803F00073AB
:10225C00002BF0D17B681B6AB3F5803F08D1244B6F
:10226C005B6823F400327B689B68214913434B6005
:10227C001F4B5B6823F474127B68196A7B685B6A7A
:10228C000B431B4913434B601B4B01221A60FEF797
:10229C0039FE386108E0FEF735FE02463B69D31A79
:1022AC00022B01D903233DE0114B1B6803F0007393
:1022BC00002BF0D035E0104B00221A60FEF722FE06
:1022CC00386108E0FEF71EFE02463B69D31A022B6A
:1022DC0001D9032326E0064B1B6803F00073002B87
:1022EC00F0D11EE07B68DB69012B07D1012319E0DB
:1022FC000010024000700040600042420B4B5B68D3
:10230C00FB60FB6803F480327B681B6A9A4206D13F
:10231C00FB6803F470127B685B6A9A4201D001235C
:10232C0000E0002318461837BD4680BD001002405F
:10233C0080B584B000AF786039607B68002B01D128
:10234C000123D0E06A4B1B6803F007033A689A42FA
:10235C0010D9674B1B6823F0070265493B68134390
:10236C000B60634B1B6803F007033A689A4201D079
:10237C000123B8E07B681B6803F00203002B20D01C
:10238C007B681B6803F00403002B05D0594B5B687A
:10239C00584A43F4E06353607B681B6803F00803FE
:1023AC00002B05D0534B5B68524A43F46053536087
:1023BC00504B5B6823F0F0027B689B684D491343DC
:1023CC004B607B681B6803F00103002B40D07B68DB
:1023DC005B68012B07D1474B1B6803F40033002BC0
:1023EC0015D101237FE07B685B68022B07D1414B41
:1023FC001B6803F00073002B09D1012373E03D4BE4
:10240C001B6803F00203002B01D101236BE0394B55
:10241C005B6823F003027B685B68364913434B60AF
:10242C00FEF770FDF8600AE0FEF76CFD0246FB68F3
:10243C00D31A41F28832934201D9032353E02D4B36
:10244C005B6803F00C027B685B689B009A42EBD1E3
:10245C00274B1B6803F007033A689A4210D2244BAF
:10246C001B6823F0070222493B6813430B60204B87
:10247C001B6803F007033A689A4201D0012332E04B
:10248C007B681B6803F00403002B08D0194B5B68B6
:10249C0023F4E0627B68DB68164913434B607B686E
:1024AC001B6803F00803002B09D0124B5B6823F464
:1024BC0060527B681B69DB000E4913434B6000F0D4
:1024CC0021F802460B4B5B681B0903F00F030A490A
:1024DC00CB5C22FA03F3094A1360094B1B681846BC
:1024EC00FEF7CEFC002318461037BD4680BD00BF5A
:1024FC0000200240001002405C3500080000002063
:10250C000400002090B48AB000AF294B3C1D0FCBC7
:10251C0084E80F0040F201233B800023FB61002381
:10252C00BB6100237B6200237B6100233B62214B58
:10253C005B68FB61FB6903F00C03042B02D0082BD6
:10254C0003D02BE01C4B3B622BE0FB699B0C03F094
:10255C000F0328333B4413F8243C7B61FB6903F4E1
:10256C008033002B12D0134B5B685B0C03F0010320
:10257C0028333B4413F8283CBB617B690E4A03FBB0
:10258C0002F2BB69B2FBF3F37B6204E07B690B4A9A
:10259C0002FB03F37B627B6A3B6202E0064B3B620D
:1025AC0000BF3B6A18462837BD4690BC704700BF39
:1025BC003C3500080010024000127A0000093D0072
:1025CC0080B400AF024B1B681846BD4680BC7047F8
:1025DC000000002080B500AFFFF7F2FF0246054B6C
:1025EC005B68DB0A03F007030349CB5C22FA03F3B5
:1025FC00184680BD001002406C35000880B485B0D0
:10260C0000AF78600A4B1B680A4AA2FB03235B0AE3
:10261C007A6802FB03F3FB6000BFFB685A1EFA608A
:10262C00002BF9D100BF00BF1437BD4680BC7047EA
:10263C0000000020D34D621080B586B000AF7860EA
:10264C0000233B610023FB607B681B6803F00103E4
:10265C00002B7DD00023FB754F4BDB6903F08053BF
:10266C00002B0DD14C4BDB694B4A43F08053D361AB
:10267C00494BDB6903F08053BB60BB680123FB75DE
:10268C00464B1B6803F48073002B18D1434B1B681B
:10269C00424A43F480731360FEF734FC386108E05F
:1026AC00FEF730FC02463B69D31A642B01D9032395
:1026BC006DE03A4B1B6803F48073002BF0D0364B63
:1026CC001B6A03F44073FB60FB68002B2ED07B6805
:1026DC005B6803F44073FA689A4227D02E4B1B6A4E
:1026EC0023F44073FB602E4B01221A602C4B00220A
:1026FC001A60294AFB681362FB6803F00103002B84
:10270C0014D0FEF7FFFB38610AE0FEF7FBFB024634
:10271C003B69D31A41F28832934201D9032336E044
:10272C001D4B1B6A03F00203002BEED01A4B1B6AE5
:10273C0023F440727B685B68174913430B62FB7D83
:10274C00012B05D1144BDB69134A23F08053D36161
:10275C007B681B6803F00203002B08D00E4B5B68F0
:10276C0023F440427B689B680B4913434B607B68A6
:10277C001B6803F01003002B08D0074B5B6823F495
:10278C0080027B68DB68044913434B6000231846C6
:10279C001837BD4680BD00BF0010024000700040DD
:1027AC004004424290B58DB000AF7860584B07F1B1
:1027BC000C040FCB84E80F0040F201233B81002373
:1027CC007B620023FB6200233B620023FB6100233E
:1027DC00BB627B68102B0AD07B68102B00F28E80BA
:1027EC007B68012B49D07B68022B79D086E0494B62
:1027FC005B68FB61474B1B6803F08073002B7FD039
:10280C00FB699B0C03F00F0330333B4413F8243C5F
:10281C003B62FB6903F48033002B17D03D4B5B68A4
:10282C005B0C03F0010330333B4413F8283C7B6210
:10283C00FB6903F48033002B0DD0374A7B6AB2FB63
:10284C00F3F23B6A02FB03F3FB6204E03B6A334A9C
:10285C0002FB03F3FB622F4B5B6803F48003B3F5BD
:10286C00800F02D1FB6ABB624AE0FB6A5B002C4A18
:10287C00A2FB03235B08BB6242E0264B1B6AFB6195
:10288C00FB6903F44073B3F5807F08D1FB6903F057
:10289C000203002B03D04FF40043BB621FE0FB6923
:1028AC0003F44073B3F5007F09D11A4B5B6A03F054
:1028BC000203002B03D049F64043BB620FE0FB69D7
:1028CC0003F44073B3F5407F1CD1124B1B6803F427
:1028DC000033002B16D04FF22443BB6212E011E000
:1028EC00FFF778FE02460B4B5B689B0B03F0030370
:1028FC0001335B00B2FBF3F3BB6204E000BF02E008
:10290C0000BF00E000BFBB6A18463437BD4690BD1F
:10291C004C3500080010024000127A0000093D00FE
:10292C00ABAAAAAA80B582B000AF78607B68002BF6
:10293C0001D1012341E07B6893F83D30DBB2002BE1
:10294C0006D17B68002283F83C207868FEF7CCF92E
:10295C007B68022283F83D207B681A687B6804330D
:10296C001946104600F0AAFA7B68012283F846202B
:10297C007B68012283F83E207B68012283F83F208C
:10298C007B68012283F840207B68012283F8412078
:10299C007B68012283F842207B68012283F8432064
:1029AC007B68012283F844207B68012283F8452050
:1029BC007B68012283F83D20002318460837BD466A
:1029CC0080BD80B582B000AF78607B68002B01D1F0
:1029DC00012341E07B6893F83D30DBB2002B06D13C
:1029EC007B68002283F83C20786800F039F87B681B
:1029FC00022283F83D207B681A687B6804331946F1
:102A0C00104600F05BFA7B68012283F846207B6855
:102A1C00012283F83E207B68012283F83F207B68EB
:102A2C00012283F840207B68012283F841207B68D7
:102A3C00012283F842207B68012283F843207B68C3
:102A4C00012283F844207B68012283F845207B68AF
:102A5C00012283F83D20002318460837BD4680BD6F
:102A6C0080B483B000AF786000BF0C37BD4680BC2B
:102A7C007047000080B584B000AF786039603B6867
:102A8C00002B09D17B6893F83E30DBB2012B14BFCD
:102A9C0001230023DBB222E03B68042B09D17B68C5
:102AAC0093F83F30DBB2012B14BF01230023DBB2C0
:102ABC0015E03B68082B09D17B6893F84030DBB2FA
:102ACC00012B14BF01230023DBB208E07B6893F8D1
:102ADC004130DBB2012B14BF01230023DBB2002BEE
:102AEC0001D001235EE03B68002B04D17B680222FD
:102AFC0083F83E2013E03B68042B04D17B68022250
:102B0C0083F83F200BE03B68082B04D17B68022242
:102B1C0083F8402003E07B68022283F841207B6825
:102B2C001B6801223968184600F048FC7B681B685A
:102B3C001E4A934207D17B681B685A6C7B681B68E2
:102B4C0042F400425A647B681B68184A93420ED0C8
:102B5C007B681B68B3F1804F09D07B681B68144AF3
:102B6C00934204D07B681B68124A934211D17B6854
:102B7C001B689B6803F00703FB60FB68062B10D0F7
:102B8C007B681B681A687B681B6842F001021A603C
:102B9C0007E07B681B681A687B681B6842F00102BF
:102BAC001A60002318461037BD4680BD002C01402A
:102BBC00000400400008004080B584B000AFF8600D
:102BCC00B9607A60FB6893F83C30012B01D1022389
:102BDC00ACE0FB68012283F83C207B680C2B00F2F4
:102BEC009F8001A252F823F0292C00082D2D0008FB
:102BFC002D2D00082D2D0008692C00082D2D000806
:102C0C002D2D00082D2D0008AB2C00082D2D0008B3
:102C1C002D2D00082D2D0008EB2C0008FB681B68DF
:102C2C00B968184600F0ACF9FB681B689A69FB6838
:102C3C001B6842F008029A61FB681B689A69FB6882
:102C4C001B6822F004029A61FB681B689969BB68D7
:102C5C001A69FB681B680A439A6162E0FB681B688F
:102C6C00B968184600F0F2F9FB681B689A69FB68B2
:102C7C001B6842F400629A61FB681B689A69FB68E6
:102C8C001B6822F480629A61FB681B689969BB68B7
:102C9C001B691A02FB681B680A439A6141E0FB68D6
:102CAC001B68B968184600F03BFAFB681B68DA69C8
:102CBC00FB681B6842F00802DA61FB681B68DA6982
:102CCC00FB681B6822F00402DA61FB681B68D96997
:102CDC00BB681A69FB681B680A43DA6121E0FB6870
:102CEC001B68B968184600F085FAFB681B68DA693E
:102CFC00FB681B6842F40062DA61FB681B68DA69E6
:102D0C00FB681B6822F48062DA61FB681B68D96976
:102D1C00BB681B691A02FB681B680A43DA6100E096
:102D2C0000BFFB68002283F83C20002318461037B4
:102D3C00BD4680BD80B584B000AF786039607B68DB
:102D4C0093F83C30012B01D10223B3E07B680122C4
:102D5C0083F83C207B68022283F83D207B681B684B
:102D6C009B68FB60FB6823F07703FB60FB6823F434
:102D7C007F43FB607B681B68FA689A603B681B6842
:102D8C00B3F5005F3ED0B3F5005F00F28780B3F57A
:102D9C00805F00F08580B3F5805F7FD8702B1AD0F0
:102DAC00702B7BD8602B50D0602B77D8502B3CD01D
:102DBC00502B73D8402B58D0402B6FD8302B64D06D
:102DCC00302B6BD8202B60D0202B67D8002B5CD0FD
:102DDC00102B5AD062E07B6818683B6899683B6896
:102DEC005A683B68DB6800F0CAFA7B681B689B6812
:102DFC00FB60FB6843F07703FB607B681B68FA6839
:102E0C009A604EE07B6818683B6899683B685A6822
:102E1C003B68DB6800F0B3FA7B681B689A687B68D8
:102E2C001B6842F480429A603BE07B6818683B6800
:102E3C0059683B68DB681A4600F02AFA7B681B6805
:102E4C005021184600F081FA2BE07B6818683B682B
:102E5C0059683B68DB681A4600F048FA7B681B68C7
:102E6C006021184600F071FA1BE07B6818683B681B
:102E7C0059683B68DB681A4600F00AFA7B681B68E5
:102E8C004021184600F061FA0BE07B681A683B6839
:102E9C001B681946104600F058FA02E000BF00E02B
:102EAC0000BF7B68012283F83D207B68002283F8F9
:102EBC003C20002318461037BD4680BD80B485B039
:102ECC0000AF786039607B681B68FB607B68294ABF
:102EDC0093420BD07B68B3F1804F07D07B68264AB6
:102EEC00934203D07B68254A934208D1FB6823F0B8
:102EFC007003FB603B685B68FA681343FB607B689C
:102F0C001C4A93420BD07B68B3F1804F07D07B688F
:102F1C00194A934203D07B68184A934208D1FB6844
:102F2C0023F44073FB603B68DB68FA681343FB6077
:102F3C00FB6823F080023B685B691343FB607B6892
:102F4C00FA681A603B689A687B68DA623B681A68B0
:102F5C007B689A627B68074A934203D13B681A6983
:102F6C007B681A637B6801225A6100BF1437BD4627
:102F7C0080BC7047002C0140000400400008004059
:102F8C0080B487B000AF786039607B681B6A23F02F
:102F9C0001027B681A627B681B6A7B617B685B68D9
:102FAC003B617B689B69FB60FB6823F07003FB60F3
:102FBC00FB6823F00303FB603B681B68FA68134350
:102FCC00FB607B6923F002037B613B689B687A6939
:102FDC0013437B617B681C4A93420CD17B6923F0C1
:102FEC0008037B613B68DB687A6913437B617B690F
:102FFC0023F004037B617B68134A934211D13B6934
:10300C0023F480733B613B6923F400733B613B68A1
:10301C005B693A6913433B613B689B693A691343AB
:10302C003B617B683A695A607B68FA689A613B68D5
:10303C005A687B685A637B687A691A6200BF1C37CE
:10304C00BD4680BC704700BF002C014080B487B0E7
:10305C0000AF786039607B681B6A23F010027B68D4
:10306C001A627B681B6A7B617B685B683B617B686F
:10307C009B69FB60FB6823F4E043FB60FB6823F473
:10308C004073FB603B681B681B02FA681343FB60D0
:10309C007B6923F020037B613B689B681B017A6989
:1030AC0013437B617B681D4A93420DD17B6923F0EE
:1030BC0080037B613B68DB681B017A6913437B618E
:1030CC007B6923F040037B617B68144A934213D1E4
:1030DC003B6923F480633B613B6923F400633B61F0
:1030EC003B685B699B003A6913433B613B689B6996
:1030FC009B003A6913433B617B683A695A607B6871
:10310C00FA689A613B685A687B689A637B687A694B
:10311C001A6200BF1C37BD4680BC7047002C0140B2
:10312C0080B487B000AF786039607B681B6A23F489
:10313C0080727B681A627B681B6A7B617B685B6848
:10314C003B617B68DB69FB60FB6823F07003FB6011
:10315C00FB6823F00303FB603B681B68FA681343AE
:10316C00FB607B6923F400737B613B689B681B02EB
:10317C007A6913437B617B681D4A93420DD17B694D
:10318C0023F400637B613B68DB681B027A691343A1
:10319C007B617B6923F480637B617B68144A934277
:1031AC0013D13B6923F480533B613B6923F40053F7
:1031BC003B613B685B691B013A6913433B613B68AC
:1031CC009B691B013A6913433B617B683A695A60FE
:1031DC007B68FA68DA613B685A687B68DA637B68FB
:1031EC007A691A6200BF1C37BD4680BC704700BFAD
:1031FC00002C014080B487B000AF786039607B68E8
:10320C001B6A23F480527B681A627B681B6A3B61E1
:10321C007B685B687B617B68DB69FB60FB6823F424
:10322C00E043FB60FB6823F44073FB603B681B6866
:10323C001B02FA681343FB603B6923F400533B61A8
:10324C003B689B681B033A6913433B617B680F4ADD
:10325C00934209D17B6923F480437B613B685B69B2
:10326C009B017A6913437B617B687A695A607B683E
:10327C00FA68DA613B685A687B681A647B683A6959
:10328C001A6200BF1C37BD4680BC7047002C014041
:10329C0080B487B000AFF860B9607A60FB681B6AD5
:1032AC007B61FB681B6A23F00102FB681A62FB68F6
:1032BC009B693B613B6923F0F0033B617B681B011D
:1032CC003A6913433B617B6923F00A037B617A699A
:1032DC00BB6813437B61FB683A699A61FB687A6946
:1032EC001A6200BF1C37BD4680BC704780B487B0E3
:1032FC0000AFF860B9607A60FB681B6A23F01002BB
:10330C00FB681A62FB689B697B61FB681B6A3B610B
:10331C007B6923F470437B617B681B037A691343DD
:10332C007B613B6923F0A0033B61BB681B013A69DD
:10333C0013433B61FB687A699A61FB683A691A62CC
:10334C0000BF1C37BD4680BC704780B485B000AF51
:10335C00786039607B689B68FB60FB6823F07003C6
:10336C00FB603A68FB68134343F00703FB607B6820
:10337C00FA689A6000BF1437BD4680BC704780B4B1
:10338C0087B000AFF860B9607A603B60FB689B68FF
:10339C007B617B6923F47F437B613B681A027B680A
:1033AC001A43BB6813437A6913437B61FB687A69E0
:1033BC009A6000BF1C37BD4680BC704780B487B094
:1033CC0000AFF860B9607A60BB6803F01F0301229C
:1033DC0002FA03F37B61FB681A6A7B69DB431A40D0
:1033EC00FB681A62FB681A6ABB6803F01F037968F2
:1033FC0001FA03F31A43FB681A6200BF1C37BD467F
:10340C0080BC704780B485B000AF786039607B6851
:10341C0093F83C30012B01D1022346E07B6801225A
:10342C0083F83C207B68022283F83D207B681B6874
:10343C005B68FB607B681B689B68BB60FB6823F068
:10344C007003FB603B681B68FA681343FB607B6886
:10345C001B68FA685A607B681B68164A93420ED048
:10346C007B681B68B3F1804F09D07B681B68124ADC
:10347C00934204D07B681B68104A93420CD1BB6802
:10348C0023F08003BB603B685B68BA681343BB6086
:10349C007B681B68BA689A607B68012283F83D20C0
:1034AC007B68002283F83C20002318461437BD4665
:1034BC0080BC7047002C0140000400400008004014
:1034CC0070B500260C4D0D4C641BA410A64209D1FE
:1034DC0000F022F800260A4D0A4C641BA410A642E8
:1034EC0005D170BD55F8043B98470136EEE755F809
:1034FC00043B98470136F2E7743500087435000830
:10350C00743500087835000803460244934200D114
:10351C00704703F8011BF9E7F8B500BFF8BC08BC0D
:10352C009E467047F8B500BFF8BC08BC9E46704775
:10353C0002030405060708090A0B0C0D0E0F1010E8
:10354C0002030405060708090A0B0C0D0E0F1010D8
:10355C000000000000000000010203040607080937
:08356C0000000000010203044D
:043574003101000819
:043578000D01000839
:0C357C000024F40010000000010000001A
:0400000508000E15CC
:00000001FF
